:100000000C94BF020C94DC020C94DC020C94DC0215
:100010000C94DC020C94DC020C94DC020C94DC02E8
:100020000C94DC020C94DC020C9446240C94022404
:100030000C9447250C94DC020C94DC020C94DC023A
:100040000C94DC020C94DC020C946A250C94DC0207
:100050000C94DC020C9423250C94DC020C94DC023E
:100060000C94DC020C94DC020C94DC020C94DC0298
:100070000C94DC020C94DC020C94DC020C94DC0288
:100080000C94DC020C94DC020C94DC020C94DC0278
:100090000C94DC020C94DC020C94DC020C94DC0268
:1000A0000C94DC020C94DC020C94DC020501098047
:1000B000A101850319012AB700150126B700950192
:1000C00075108100C0050C0901A101850419012AE0
:1000D000A002150126A002950175108100C00660DE
:1000E000FF0961A1010962150026FF00952075082E
:1000F00081020963150026FF00952075089102C052
:1001000005010906A101050719E029E715002501E8
:10011000950875018102950175088101050719008F
:1001200029FF150026FF00950675088100050819AE
:10013000012905950575019102950175039101C08D
:10014000FD377A585A000004E6D6B4460200210171
:1001500016000000742FE5A3E00155009B5D003DF3
:100160008889C65436C3174FE4F4B8B3112855A68E
:100170005F5A9270C576F674965B8A97C5E9EDE88A
:10018000AA893B38B0F2D88CCE40F34E3DAB8EF20C
:100190007A7EA7EE4F1B69B5F29BEC8DD30D398E9D
:1001A000CA170F2E6BDA801C17198EBD3A7D5E1FA1
:1001B0000A993A45E7C0722FF9B0DF53230DEA746C
:1001C000BD3E3A2E279787D03159AF80928DECDC17
:1001D0005B1C071770709642CBCD4C5096C4EFFE57
:1001E000FCB1BB4F5FEE442E139D407DB148B00182
:1001F00052BA18D539C3CD6780200000332A5C0875
:10020000DC77D1440001B701D60200008BEC41F944
:10021000B1C467FB020000000004595A14001A0020
:100220000800150017001C0018000C001200130035
:1002300004001600070009000A000B000D000E0064
:100240000F0033001D001B000600190005001100FF
:100250001000360037003800E000E200E100010045
:100260002C002C000100A800AE002A0001000100B3
:100270000100010001000100010001000100010076
:100280000100010001000100010001000100010066
:100290000100010001000100010001000100010056
:1002A0000100010001000100010001000100010046
:1002B0000100010001000100010001000100010036
:1002C0000100010001000100010001000100010026
:1002D0000100010001000100010001000100010016
:1002E0000100010001000100010001000100010006
:1002F00001000100010001000100010001000100F6
:1003000001000100010001000100010001000100E5
:1003100001000100010001000100010001000100D5
:1003200001000100010001000100010001000100C5
:1003300001000100010001000100010001000100B5
:1003400001000100010001000100010001000100A5
:100350000100010001000100010001000100010095
:10036000A303070B3A0B0000020002009F03070BD8
:100370003A0B000003000100A403070B3A0B000036
:10038000040002008903070B3A0BD70505000100A2
:10039000A503070B3A0B0000060002008B03070BB6
:1003A0003A0B000007000200A103070B3A0B000004
:1003B00008000100A603070B3A0B00001200020020
:1003C000A703070B3A0B000013000200A903070B59
:1003D0003A0B000014000100AB03070B3A0B0000BE
:1003E0001500000000005D059710000009025B0089
:1003F000030100A0FA090400000103010100092122
:1004000011010001224000070581030800010904D1
:100410000100020300000009211101000122220055
:1004200007058203200001070503032000010904DA
:100430000200010300000009211101000122320025
:100440000705840320000112010002000000088F4C
:1004500045E2140001010203011C037600690061FA
:10046000006C003A0066003600340063003200621F
:10047000003300630000001A034B00650065006252
:1004800000200046006F00720020004D006F006DDC
:1004900000000034036E0065006E00640065007AA1
:1004A000006B006F006D006200650074002F007328
:1004B0000061006E006400690070007200610074E9
:1004C0000061006D006100000004030904000000E9
:1004D000000000000000000000000000000000001C
:1004E000000000000000000000000000000000000C
:1004F000007E0F00D4FFFFFFC7000000780000005F
:1005000000000000002A2B2800000000000000006E
:10051000000000000000000029000000002C1E3434
:1005200020212224342627252E362D3738271E1F3A
:10053000202122232425263333362E37381F040565
:10054000060708090A0B0C0D0E0F101112131415D3
:10055000161718191A1B1C1D2F3130232D350405B1
:10056000060708090A0B0C0D0E0F101112131415B3
:10057000161718191A1B1C1D2F3130354C00112469
:100580001FBECFEFDAE0DEBFCDBF12E0A0E0B1E0EA
:10059000E6E9FEE502C005900D92AA36B107D9F74B
:1005A00024E0AAE6B2E001C01D92A53DB207E1F742
:1005B0000E948C270C94252F0C940000CF92DF9280
:1005C000EF92FF92E091D404EE2309F1E15088E02C
:1005D000E802F0011124EC56FB4FC280D380E48086
:1005E000F58020E030E0A901C701B6010E94602D2E
:1005F00018166CF480919304811102C01092920439
:10060000C701B601FF90EF90DF90CF900895C12C05
:10061000D12C7601F5CFE8EDF0E080818E7F8083EC
:100620001092E2001092DA001092E100A0EEB0E029
:100630008C9181608C9380818F77808319BCA7ED2A
:10064000B0E08C918E7F8C9380818F7E808310921E
:10065000660408952091E4003091E50095E6A90133
:100660002091EC00822F817020FF06C08091E8006D
:1006700080FF06C080E008952091E80022FD1AC0A6
:1006800080917304882389F0853089F08091EB0094
:1006900085FD0FC02091E4003091E500421753071B
:1006A000F9F29150E1F684E0089582E0089583E044
:1006B000089581E00895EF92FF920F931F93CF93D7
:1006C0007C018B010E942A03C82F811117C08091E1
:1006D000E80085FD0BC08091E8008E778093E800EC
:1006E0000E942A03882399F3C82F08C0F70181913B
:1006F0007F018093F1000150110949F78C2FCF91B0
:100700001F910F91FF90EF9008958091750487FFDE
:1007100013C08091E80082FF06C08091E8008B77CB
:100720008093E80004C0809173048111F2CF089592
:10073000809173048823D9F38091E80080FFF8CF7B
:100740008091E8008E77ECCF982F9093E900242FCA
:10075000762F50E0891731F07091EC002091ED0078
:100760005091F00021FD07C09F5F973071F7809393
:10077000E90081E008953091EB003E7F3093EB007B
:100780003091ED003D7F3093ED003091EB00316012
:100790003093EB007093EC002093ED005093F00049
:1007A0002091EE0027FDE0CF80E00895B0E0A0E0CA
:1007B000ECEDF3E00C94B32CC8EDD0E088818F7E93
:1007C0008883E7EDF0E080818160808384E082BFF0
:1007D00081E08093660488818E7F888302EE10E03A
:1007E000F80110821092DA0081EEC82ED12CF601A9
:1007F000108288818F778883888180688883888148
:100800008F7D888319BC1092730410927404109227
:1008100072041092710490EEE92EF12CF7018081A0
:100820008B7F808388818160888342E060E080E004
:100830000E94A403F60180818E7F8083F80180816D
:1008400081608083808188608083F70180818E7FD2
:100850008083888180618883CDB7DEB7E8E00C941F
:10086000CF2CFC0180917B0490917C048617970724
:10087000A0F06115710529F49091E8009E7790939E
:10088000E80090E06115710551F4911108C0809164
:10089000E80082FF34C080E00895BC01F2CF80916F
:1008A00073048823C1F18530C1F18091E80083FD94
:1008B00030C08091E80082FDEACF8091E80080FF9F
:1008C000E1CF8091F3002091F200382F611571057E
:1008D00019F02830310558F091E02830310509F041
:1008E00090E02091E8002E772093E800CBCF819113
:1008F0008093F100615071092F5F3F4FE7CF8091E6
:100900007304882341F0853041F08091E80083FF33
:10091000BECF81E0089582E0089583E008950895B0
:10092000089580916804089587E797E790930108F8
:100930008093000888E19AE00FB6F894A895809318
:1009400060000FBE90936000FFCF9C014FB7F894FA
:1009500080915F0490916004A0916104B091620461
:100960004FBF821B930B08952FB7F89480915F04BB
:1009700090916004A0916104B09162042FBF08952A
:100980009C01FC0132969FEF80E04191461751F0A7
:100990009F3F19F4411101C0982F8F5F8630A9F74E
:1009A0009F3F09F40895290F311D97FD3A95F901EC
:1009B0006283089520915D0430915E042817390701
:1009C00071F090935E0480935D04E0915B04F0917C
:1009D0005C04309721F00084F185E02D099508959D
:1009E0002091590430915A042817390771F09093D7
:1009F0005A0480935904E0915B04F0915C043097B1
:100A000021F00680F781E02D09950895E0915B04BF
:100A1000F0915C04309729F00190F081E02D099568
:100A2000089580E00895452B39F0682381E06F3FF9
:100A300009F080E08170089581E0FCCFDC016091D5
:100A4000550480915604962F891301C00895292FCB
:100A500030E0F901EE0FFF1FE35BFB4F4081518156
:100A60004A175B07A1F487E08A9FA0018B9F500D76
:100A700011244B5E5B4F81E0FA0184839613E6CF2D
:100A80002F5F3F4F237033272093550408952F5F26
:100A90003F4F922F9370D8CF1092B2031092B103B0
:100AA000E5E1F4E08581811102C014821682379657
:100AB00084E0ED34F807B1F70895B0E0A0E0E3E694
:100AC000F5E00C94B12C8FEF9FEF4430510508F402
:100AD00069C04091660341FB882780F990E0880F48
:100AE000991F42FB002700F910E0000F111F000FB3
:100AF000111F802B912B40FBCC24C0F8D12C8C29CA
:100B00009D2943FB222720F9C22FE0E0DE2F53E08E
:100B1000CC0FDD1F5A95E1F78C2B9D2B44FBAA27A8
:100B2000A0F9B0E0E4E0AA0FBB1FEA95E1F78A2B39
:100B30009B2B45FBEE27E0F9F0E0A5E0EE0FFF1F51
:100B4000AA95E1F78E2B9F2B46FB222720F930E058
:100B5000B6E0220F331FBA95E1F7822B932B47FBA8
:100B6000222720F930E03695322F22273795279516
:100B7000822B932B20916703322F3170F32EE82EB6
:100B8000F92A26952170B22EBB0CA82EBF28C501CC
:100B9000BB0CAA0BBB0BFB0180839183A283B383A5
:100BA00090E080E0CDB7DEB7EAE00C94CD2C8091E8
:100BB000890390918A039093100280930F02089505
:100BC000EFE6F0E080818B7F8083E0E8F0E08081D9
:100BD0008F7C80830895CF92DF92EF92FF926B011A
:100BE0007C0120E030E0A9010E94602D81110AC043
:100BF000809180008F7C80938000FF90EF90DF9049
:100C0000CF90089580918000806280938000C09290
:100C10000A03D0920B03E0920C03F0920D0320E044
:100C200030E040E051E4C701B6010E94B82E9B01BC
:100C3000AC0160E074E284E79BE40E94652D6B01E7
:100C40007C010E94D72D709387006093860020E07E
:100C500030E048E452E4C701B6010E94B82E20E01B
:100C600030E048EC52E40E94652D0E94D72D70932D
:100C70008B0060938A00C1CF80910C02811122C049
:100C80001092D4040E94E00510928E0410928F04FA
:100C90001092830410928204E4E9F4E080E090E092
:100CA000A0E8BFEB1182108282839383A483B58373
:100CB00017821682389624E0E43DF20799F781E026
:100CC00080930C02089580E00895F894E82FE2954F
:100CD000EF70F0E031A1282F2F7081E090E001C08B
:100CE000880F2A95EAF7982F9095932391A392A1C4
:100CF000892B82A3789408959091660392FF06C091
:100D0000282F28712830F9F4877F846093FF06C06C
:100D1000282F28712831F1F4877E846120916703A0
:100D200020FF06C0382F38713830D9F4877F8160B2
:100D300021FF06C0282F28712831D1F4877E8161D8
:100D400094FD877E0895282F24712430F9F68B7F37
:100D50008860DCCF282F2471243101F78B7E8861D5
:100D6000DDCF382F3171313019F78E7F8860E0CFB9
:100D7000282F2171213121F78E7E8861E1CFCF9319
:100D8000DF93EC0182389105B1F108F040C0813366
:100D9000910509F49DC048F58932910509F48DC08B
:100DA0008A9709F49CC0C11522E5D20708F0BDC09E
:100DB000C11531E5D30708F025C1C83ED10508F0BB
:100DC000A3C0C13ED10588F5C83AD10508F08EC050
:100DD000C53AD10508F0F6C0C130D10531F12097F0
:100DE00021F1C430D10508F545C08533910509F4DA
:100DF0005FC0C997C1F680916603837009F037C15F
:100E00008091670383FF11C0C9E2D0E00EC0833E2A
:100E1000910599F170F4803E910501F1823E9105B2
:100E200011F68091660382FD21C0CE01DF91CF9142
:100E30000895863E910561F1873E910571F1843EEA
:100E4000910509F0B0CF8091670381FFEECF8091CB
:100E50006603C7EED0E084FD0DC0E7CF8091660346
:100E600080FD33C09091670390FFDFCFC3EED0E0E9
:100E700084FFDBCFD0E0C0E0D8CF8091660382FD55
:100E8000F3C09091670390FDF2C084FFCECFF2CF04
:100E90008091660383FDDDCFC8CF8091660383FD1B
:100EA000E9C09091670391FFF0CFC4EED0E0BDCFD1
:100EB0008091660385FFB9CFA7CF8091660385FD3A
:100EC000DCC08091670383FFB0CFC9E3D0E0ADCF32
:100ED0008091660386FFA9CFCAE2D0E0A6CF8091B9
:100EE000660386FFA2CFC1E3D0E09FCFCF3BD10501
:100EF00008F6C85AD0E0CC0FDD1FC15EDD4F099067
:100F0000D881C02DD46491CFC11540E5D40708F035
:100F100064C0C11580E4D80708F05CC0CE019A9582
:100F200081159F4108F481CFA5CFC11536E5D307C0
:100F300018F5C11545E5D40708F07DC0C11584E555
:100F4000D80708F073C09C2F969596959E01237044
:100F50003327C115D34508F45AC0C1E0D0E002C020
:100F6000CC0FDD1F2A95E2F730E2939FC0011124D8
:100F7000C82BD92BDA6859CFC1158AE5D80778F480
:100F8000C11529E5D20708F061C0C11538E5D307BE
:100F900008F470CFDC2FCC27C06FD06A46CFCE01CB
:100FA00090568115904208F065CF8D2F8F710E9469
:100FB0007C0690E0982F882788279F719C012C2B16
:100FC000E90142C0C55AD0E0C45EDD4FC881D0E01F
:100FD000D0642BCFDF70D06A28CF2C2F2695269592
:100FE000237080E2289F900111248C2F8370C1E030
:100FF000D0E002C0CC0FDD1F8A95E2F7C22BD32BC5
:10100000DD6813CFDC2FCC27C16FD06A0ECFC1E0D3
:10101000D0E002C0CC0FDD1F2A95E2F720E2929FBC
:10102000C0011124C82BD92BDC68FFCEDC2FCC27C4
:10103000C46FD06AFACE8C2F0E947C06C82FD0E0F5
:10104000DC2FCC27CC27DF71D062EFCE8C2F8F70B6
:101050000E947C0634E0D695C7953A95E1F7CF70AB
:101060009C2FEC01D069E1CEC2EED0E0DECEC0EE26
:10107000D0E0DBCEC6EED0E0D8CEC5E3D0E0D5CE12
:101080008091DE02882331F01092DE021092DD02A0
:101090001092DC020895CF93C82F8091670382FFDE
:1010A0000CC08091DE028C1741F00E94B404909332
:1010B000DD028093DC02C093DE02CF91089580951B
:1010C0009091680398239093680308951092D30237
:1010D0001092D2021092D102089580918B039091C8
:1010E0008C03892B89F00E94B4042091DC0230919A
:1010F000DD02AC01421B530B81E020918B03309148
:101100008C034217530708F480E081700895209102
:10111000D00290918F02291302C080E0089530E040
:10112000F90153E0EE0FFF1F5A95E1F7E057FD4F2D
:101130005181561306C05081581303C05281541375
:1011400004C02F5F3F4F2770E6CF81E00895809164
:10115000D00290918F02981301C008958F5F87701D
:10116000FACF292F943078F58A3068F590E03AE08C
:10117000239F800D911D1124682F677023E09695A1
:1011800087952A95E1F7FC01EE0FFF1FE80FF91F85
:10119000E858FD4F50E040E080E0219130E0062E1D
:1011A00002C0369527950A94E2F721703327042E62
:1011B00001C0220F0A94EAF7822B4F5F5F4F433042
:1011C000510559F7089580E00895292F943098F536
:1011D0008A3088F590E03AE0239F800D911D11241C
:1011E000282F277041E001C0440F2A95EAF723E039
:1011F000969587952A95E1F7FC01EE0FFF1FE80F02
:10120000F91FE858FD4F30E020E070E05191DF0118
:101210001197CB01022E02C0969587950A94E2F7AA
:10122000817081958527842385278C932F5F3F4F7D
:101230002330310559F7089592959F70963091F0BB
:1012400058F4925F9F70923058F4803F19F030F458
:10125000883E30F481E008959A5FF4CF843FD1F363
:1012600080E00895883EB0F3813FD1F7F3CF982F07
:1012700092959F7011F0892F94E0282F269526953E
:1012800011F09E5F822F869509F09F5F892F089548
:101290009C013A9521153F4150F5FC01EE27F17074
:1012A000BC0166277270AC01442754709C01222750
:1012B000387094FF0EC080E1EF2B09F480E0672BBB
:1012C00009F08062452B09F08064232B89F0806847
:1012D000089581E0EF2B09F480E0672B09F082602C
:1012E000452B09F08460232B19F08860089580E075
:1012F00008958093630470936504609364048091FF
:1013000073048430F9F48093E9008FEF9091E80042
:10131000815095FD06C095ED9A95F1F70000811179
:10132000F5CF8091E80085FF0DC050E040E063E01C
:1013300070E083E694E00E945B038091E8008E7782
:101340008093E8000895BC0184E00E947909089523
:10135000BC0183E00E9479090895CF93DF93EC01EB
:1013600081E08093E9008FEF9091E800815095FD36
:1013700006C095ED9A95F1F700008111F5CF8091A7
:10138000E80085FF14C050E040E068E070E0CE0166
:101390000E945B038091E8008E778093E80088E0EC
:1013A000FE01A9E6B4E001900D928A95E1F7DF9184
:1013B000CF910895019708F40895EFE9FFE0319780
:1013C000F1F700C00000F6CF0F931F93CF93DF9388
:1013D00009E813E0C7E6D1E0CE010E94162DF8011E
:1013E00081938F012196CB38F1E0DF07A9F7C6E69C
:1013F000D3E0FE0185919491009711F0FC010995CD
:101400002C96F3E0C63FDF07A1F7DF91CF911F9144
:101410000F9108950F931F93CF93DF93843030F58E
:10142000643020F54A3010F5C42FD0E0CC0FDD1F1A
:1014300024E1629FC00DD11D112430E5839FC00DB2
:10144000D11D1124CE0187960E94162D082F10E081
:10145000102F0027CE0188960E94162D9801282B68
:10146000C901DF91CF911F910F91089590E080E025
:10147000F8CF462F2091640330916503232B99F414
:10148000703F39F4603F79F4809162039091630377
:101490000895843040F4743030F46A3020F4672FBB
:1014A0000E940A0A089590E080E00895CF92DF92AA
:1014B000FF920F931F93CF93DF936C0100917D04F4
:1014C0008091DF02082BC7E0D0E010E0FC2EC801BD
:1014D0000C2E02C0959587950A94E2F780FD0CC00A
:1014E0002197A0F7F12C8F2DDF91CF911F910F91B4
:1014F000FF90DF90CF900895B6018C2F0E94390A9B
:101500000E94BF06019761F3EECFCF93DF93EC010A
:101510000E94560ABE010E94390A0E94BF06DF914E
:10152000CF910895CF93DF93EC014B815C8169816A
:1015300088810E941305811110C08E819F810097C0
:1015400039F00E94BF060E941C09DF91CF910895D7
:10155000888199810E94850AF6CF80E0F6CFA5E0C8
:10156000B0E0E5EBFAE00C94B82C49835A8389810A
:101570009A81662399F0222389F00E94560A182F37
:10158000682F89819A810E94E50869817A81812F7B
:101590000E94390A2596E3E00C94D42C0E94B108ED
:1015A000182FF3CFFC01262F86819781009739F4FD
:1015B000408151816281738184810E94AF0A0895C4
:1015C00083E290E00E94162D8C3589F484E290E04D
:1015D0000E94162D843359F485E290E00E94162D66
:1015E00091E0863C09F090E0892F8170089580E0B9
:1015F000FCCFCF9384E090E00E94162DC82F82E2AA
:1016000090E00E94162D982F8C2FCF910895DB012A
:10161000FC013296259134914217530758F0FC0192
:10162000349665917491A901CD010E94F62C90E049
:1016300080E008958FEF9FEF08950F931F93CF934E
:10164000DF9309E813E0C7E6D1E0CE010E94162D32
:10165000F80161918F01681719F0CE010E94242DC5
:101660002196CB38F1E0DF0781F7DF91CF911F9111
:101670000F910895DA019C012E5F3F4FF9014591CA
:101680005491F90125913491A217B30758F0FC0148
:101690003496859194910E94F62C0E941D0B90E047
:1016A00080E008958FEF9FEF0895CF93DF93CBED08
:1016B000D1E060E0CE010E94242D2196C11584E086
:1016C000D807B9F7DF91CF9108951F93CF93DF9398
:1016D000122F8430E0F46430D0F44A30C0F4C42FC8
:1016E000D0E0CC0FDD1F94E1699FC00DD11D112406
:1016F00090E5899FC00DD11D1124632FCE018796DF
:101700000E94242D612FCE0188960E94242DDF9106
:10171000CF911F910895CF93C82F6FEF81116CE582
:1017200083E290E00E94242D6FEFC11164E384E214
:1017300090E00E94242D6FEFC11166EC85E290E0ED
:101740000E94242DCF910895CF93C92F682F84E054
:1017500090E00E94242D6C2F82E290E00E94242DC4
:10176000CF910895AAE0B0E0E8EBFBE00C94B32C35
:10177000E2E1F3E080E5DF011D928A95E9F7E5E11A
:10178000F4E088E3DF011D928A95E9F782E1C82E33
:1017900083E0D82E7F010BE811E0F701D182C082EF
:1017A0004AE050E0B801CE0101960E94062D88E083
:1017B000FE013196D60101900D928A95E1F7898557
:1017C0009A85D70113969C938E931297BAE0CB0E0D
:1017D000D11CE7E0EE0EF11C065F1F4F0B3DF1E060
:1017E0001F07D9F62A96E8E00C94CF2CA8E0B0E0C9
:1017F000ECEFFBE00C94AF2C8E010F5F1F4F88E0E5
:10180000F80111928A95E9F79DE4E92E92E0F92E0C
:101810006801AA24A394B12CF70181917F018F3F25
:1018200009F446C0F894E82FE295EF70F0E021A1AA
:101830008F70A50102C0440F551F8A95E2F7CA01B7
:10184000922F982B91A392A18095892382A37894BB
:1018500000C0E1E5F2E021E030E0912C812C4191E3
:101860004F3F09F467C0A42FA295AF70B0E09096E7
:101870008C9190E04F7002C0959587954A95E2F75C
:1018800080FD58C0C901882A992A220F331F52E0CF
:10189000EB35F50721F7F701319780818F3F11F084
:1018A0000E94650680EA8A95F1F7F60191828082AE
:1018B000F2E0CF0ED11C41E5E41642E0F40609F057
:1018C000ABCF48E050E0B80183EE92E00E94E92CF3
:1018D000892B99F188E0F801A3EEB2E001900D9216
:1018E0008A95E1F781E08093E2020E94B40490932C
:1018F000E1028093E0028091E0029091E1020E9477
:10190000A5040597F0F048E050E063EE72E081E056
:1019100093E00E94E92C892BC9F088E0E3EEF2E025
:10192000A1E0B3E001900D928A95E1F781E0109279
:10193000E20208C090E080E0A6CF8091E20281112F
:10194000DACF80E02896ECE00C94CB2C80E0EFCF4F
:101950008091680390917E04892B80936C02809122
:10196000DE02882309F180918B0390918C03892BEF
:1019700029F00E946D0881110E94400880916C023C
:101980009091DE02892B80936C0220E08EE692E03B
:10199000FC013191CF0131112F5FF2E084379F07B5
:1019A000B9F721110E94400848E050E064ED72E070
:1019B0008CE692E00E94E92C892BA9F088E0ECE605
:1019C000F2E0A4EDB2E001900D928A95E1F7E0918A
:1019D0005B04F0915C04309731F00280F381E02DDC
:1019E0008CE692E00995089580911102877F80939B
:1019F000110290917E049D7F90937E0484FF08C025
:101A00008F7E8093110280916803826080936803C7
:101A10008091110285FF08C08F7D80931102809113
:101A200068038062809368030E94A80C089590E088
:101A300080E00E94F00490E080E00E94DA041092BE
:101A40007E040E94A80C08958093DF020E94170D67
:101A5000089510926803EEE6F2E086E0DF011D9241
:101A60008A95E9F70E94170D0895AAE2B0E0EBE32A
:101A7000FDE00C94B82C85E794E02091F100DC01A6
:101A80002D93CD01B4E08D379B07B9F78091760493
:101A9000833009F472C0B8F4813009F449C082304F
:101AA00009F4B3C08091E80083FF96C28091750469
:101AB000909176049A3008F08FC2E92FF0E0E95D4A
:101AC000F04D0C948D2C8A3009F48EC08B3009F4C3
:101AD00071C0893039F780917504813219F780918E
:101AE000790490917A04009711F00297D9F68091C9
:101AF000E800877F8093E8008091E80082FF38C08B
:101B00009091F3008091F200029731F48091F100FE
:101B1000813011F0863021F48091F10080936804C7
:101B20008091E8008B778093E8000E948503BACF0C
:101B300080917504813A09F0B5CF8091E800877FE4
:101B40008093E8008091790490917A04892B61F464
:101B500068E089E694E070E00E9431048091E8003A
:101B60008B778093E8009ECF60E090E080E0F3CF39
:101B7000809173048111C0CF95CF80917504813A13
:101B800009F090CF8091790490917A04892B09F023
:101B900089CF8091E800877F8093E8008091E800FA
:101BA00080FFFCCF809113028093F1008091E800C8
:101BB0008E77B9CF80917504813209F073CF80910F
:101BC000790490917A04892B09F06CCF8091E80018
:101BD000877F8093E8000E9485038091770480933B
:101BE00013020E94290D5ECF80917504813209F0A5
:101BF00059CF8091E800877F8093E8000E94850399
:101C000080917804809367044DCF80917504813A68
:101C100009F048CF8091E800877F8093E8008091A9
:101C2000E80080FFFCCF80916704BECF803899F038
:101C3000823809F0D1C1809179048F70873008F023
:101C4000CBC18093E9008091EB0085FB882780F968
:101C50001092E90006C08091710490917204911174
:101C600082609091E800977F9093E8008093F10064
:101C70001092F1008091E8008E77AAC1882309F4C0
:101C800098C1823009F0A8C18091770481119BC16D
:101C9000809179048F702FEF280F263008F09CC1B7
:101CA0008093E9002091EB0020FF8DC1933031F447
:101CB0008091EB0080628093EB0085C19091EB00F6
:101CC00090619093EB0021E030E001C0220F8A95F3
:101CD000EAF72093EA001092EA008091EB00886016
:101CE000EACF811179C1109177041F778091E300C9
:101CF0008078812B8093E3008091E800877F809338
:101D0000E8000E9485038091E80080FFFCCF80916D
:101D1000E30080688093E30082E0111183E0809308
:101D200073045AC18058823008F056C1209177045C
:101D3000309178042C3DE3E03E07A1F583E08A83EF
:101D40008AE289834FB7F894DE01139620E03EE0E3
:101D500051E2E32FF0E050935700E49120FF03C0DD
:101D6000E295EF703F5FEF708E2F90E0EA30C0F0A9
:101D7000C7968D939D932F5F243159F74FBF809164
:101D8000E800877F8093E8006AE270E0CE01019668
:101D90000E9431048091E8008B778093E8001CC199
:101DA000C096E7CF8091790490917A04432F55270C
:101DB0004330510509F44AC078F54130510509F422
:101DC00085C08BE590E0ECEEF3E04230510509F080
:101DD00003C12091E800277F2093E80020917B0435
:101DE00030917C048217930708F49C0140E0211590
:101DF000310509F070C041116EC08091E80082FD8C
:101E0000C9CF80917304882329F2853019F280911B
:101E1000E80083FFF2CFBECF4132510509F447C03D
:101E20004232510509F0D8C08330910508F0D4C082
:101E3000FC01EE0FFF1FE25AFD4F0190F081E02DF3
:101E4000855A9D4FDC018C9190E01DC033272130D5
:101E50003105E9F02115310579F022303105F9F02D
:101E60002330310509F0B8C0E9E5F4E0E4918E2FA4
:101E700090E0E9E5F4E007C0E9ECF4E0E4918E2FAE
:101E800090E0E9ECF4E0009709F4A6C0A2CFE3E902
:101E9000F4E0E4918E2F90E0E3E9F4E0F4CFE7E79B
:101EA000F4E0E4918E2F90E0E7E7F4E0ECCF8330AC
:101EB000910508F091C0880F991FFC01EC59FD4F66
:101EC0000190F081E02D89E090E083CF82E190E005
:101ED000E7E4F4E07ECF80917304882309F45ACFBD
:101EE000853009F457CF8091E80083FD53CF80916E
:101EF000E80082FD82CF8091E80080FF78CF90914A
:101F0000F3008091F2002115310519F08830910518
:101F100050F041E0089709F040E08091E8008E77AA
:101F20008093E80064CF44914093F10031962150B2
:101F300031090196E8CF803809F04EC08091E80061
:101F4000877F8093E800809174048093F10092CEA3
:101F5000811142C0109177041230F0F58091E800B1
:101F6000877F8093E800109374040E9485031123F7
:101F700011F084E005C08091E30087FDFACF81E095
:101F80008093730442E061EC81E00E94A40342E28A
:101F900061EC84E00E94A40342E261EC82E00E94D2
:101FA000A40342E260EC83E00E94A40380917304E6
:101FB00013C080917704813079F481E0933009F087
:101FC00080E0809372041092E9008091E800877F9E
:101FD0008093E8000E9485038091E80083FF0AC097
:101FE0008091E800877F8093E8008091EB00806219
:101FF0008093EB00AA96E3E00C94D42CE9E8F3E09C
:10200000128E138E8FEA90E09183808385E0848F17
:1020100028E833E13383228322E330E0378B268BB9
:1020200028EC30E0318F208F158E178E168E20E52C
:1020300030E031A320A382A30E941D0B0E94290D32
:102040001092670310926603E7E6F3E080818460F4
:10205000808380916603909167030E94A40B0E9485
:10206000E4090895AAE0B0E0E8E3F0E10C94AE2CB6
:10207000A0900D02B0900E0281E090E090930E02CD
:1020800080930D028CE1C82E82E0D82E712C76014F
:1020900000E014C0F40125913491412F602F872D69
:1020A0000E94650B82E0880E911C1F5F1A3091F729
:1020B00094E1E90EF11C0F5F043019F0470110E0C4
:1020C000E9CF7394E0E5CE0ED11CF4E07F12DFCFB0
:1020D0000E94FE0FCE0101967C01FC0111921A951F
:1020E000E9F70BE811E04AE050E0B801C7010E94AF
:1020F000482D065F1F4F0B3DF1E01F07A1F7B0927F
:102100000E02A0920D022A96EDE00C94CA2C80E0FB
:102110000E948B0B60E086E290E00E94242D0E94DA
:1021200032100E94550B81E00E948B0B0895CF92D4
:10213000DF92EF92FF928FEF9FEF4430510508F44A
:102140006AC0FB01C080D180E280F3800E94290D2B
:1021500080916603C0FA80F9B701A601769567956C
:102160005795479540FB81F9B701A60122E0769586
:102170006795579547952A95D1F740FB82F9B701A6
:10218000A60133E076956795579547953A95D1F72F
:1021900040FB83F9B701A601E4E076956795579572
:1021A0004795EA95D1F740FB84F9B701A601F5E020
:1021B0007695679557954795FA95D1F740FB85F940
:1021C000B701A601A6E07695679557954795AA951C
:1021D000D1F740FB86F9B701A601B7E07695679580
:1021E00057954795BA95D1F740FB87F980936603D9
:1021F00080916703D0FA80F9D1FACC24C0F8C0FAF4
:1022000081F98093670380916603909167030E9430
:10221000A40B90E080E0FF90EF90DF90CF900895C6
:10222000882341F0809590917E04892380937E04D9
:102230000E94A80C0895882339F090917E04982B71
:1022400090937E040E94A80C0895882321F00E9498
:102250005F080E94A80C0895882339F090916803C4
:10226000982B909368030E94A80C0895882391F1FD
:102270009CEF980F913A80F4EEE6F2E024E732E02A
:102280009191891303C0DF0111971C922E173F070C
:10229000B9F70E94A80C089590E2980F983050F476
:1022A000877091E001C0990F8A95EAF7892F0E9403
:1022B0005F08EFCF9BE5980F933028F490E080E023
:1022C0000E94F0040895885A873120F490E080E05D
:1022D0000E94DA040895CF93DF93EC010E94361137
:1022E000CE010E9448099E01205E31092830310547
:1022F00010F0CD2B29F40E942511DF91CF91089584
:102300000E941011FACFCF93C82F8823B1F08CEF21
:102310008C0F813A00F5EEE6F2E084E792E0DF010F
:102320002D91C21761F08A179B07D1F76C2F8CE6AD
:1023300092E00E94C0040E94A80CCF9108952191C0
:10234000C21303C0DF0111971C928E179F07B9F7C4
:102350000E94A80CEBCF80E28C0F883068F4C77025
:1023600021E030E001C0220FCA95EAF780916803AE
:10237000822B80936803DFCFEBE5EC0FE33040F472
:10238000F0E0E45EFD4F808190E00E94F004D5CF44
:10239000C85AC73190F6EC2FF0E0EE0FFF1FE15E58
:1023A000FD4F808191810E94DA04C7CF1F93CF93A4
:1023B000DF93182FC091A903D091AA03893321F08C
:1023C000C091A703D091A803812F0E948311209769
:1023D00039F4812F0E943611DF91CF911F9108951A
:1023E0008FE99FE00197F1F700C000002197EFCF40
:1023F0000F931F93CF93DF93C62FD42F022FFC018F
:1024000082818823A9F0609381040E94B404909390
:10241000800480937F04C77081E001C0880FCA9553
:10242000EAF70E942C11DF91CF911F910F9108952F
:1024300080918104681332C080917F049091800460
:102440000E94A504883C910548F510E21D0FCD17A8
:10245000B9F080E28C0F883040F4C77081E001C091
:10246000880FCA95EAF70E942511183048F481E0D8
:102470009D2F977001C0880F9A95EAF70E942C1142
:10248000802F0E94D611183070F6D77081E001C0FD
:10249000880FDA95EAF70E942511C5CFC77081E051
:1024A00001C0880FCA95EAF7F6CFB0E0A0E0EBE5EF
:1024B000F2E10C94B12CEC018AE0A82E28812223B1
:1024C00009F48FC02130C9F599818A81913021F4B6
:1024D00022960E94D61105C0923029F422960E94BD
:1024E00083112196EBCF933021F422960E9436116E
:1024F000F8CF943011F02196F4CF229630E020E00E
:10250000AE014F5F5F4F8053990B8A30910550F0B9
:102510002150310930F38FE99FE00197F1F700C0B6
:102520000000F6CFA29EB001A39E700D11249C0165
:10253000260F371F8981EA01E3CFE22FF0E0E35055
:10254000FB4FB490822F86958695869590E0FC018E
:10255000E351FB4FE4902770F12C022E02C0F5945A
:10256000E7940A94E2F731E0E322FF24FC01E3520E
:10257000FB4FC490D12C022E02C0D594C7940A946C
:10258000E2F731E0C322DD24FC01E353FB4F049169
:1025900010E002C0159507952A95E2F70170112702
:1025A000E114F10419F081EE0E948311C114D104E9
:1025B00019F086EE0E9483118B2D0E94D611C11452
:1025C000D10419F086EE0E943611E114F10419F0DD
:1025D00081EE0E9436110115110509F482CF8CE2BB
:1025E00078CFCDB7DEB7EAE00C94CD2CCF93DF9354
:1025F000EC010E9448099E01205E31092830310516
:1026000010F0209741F40E942C118C2F0E9483110E
:10261000DF91CF9108950E941B11F7CF662329F017
:1026200020917E04226020937E049C013056211567
:1026300040E2340720F0305E2115304108F499273C
:102640000E94F6120895B0E0A0E0E9E2F3E10C94F4
:10265000B42C7C018B01D42E8091110282FF8CC09E
:10266000C091AF03D091B003CE15DF0521F0E11486
:10267000F10409F081C0809111028B7F80931102D7
:1026800081FD73C08091AD039091AE03A801481BFA
:10269000590B81E020910F0230911002421753072D
:1026A00008F480E08170F82E80911102F0FA81F92F
:1026B00080931102FE0183E0F695E7958A95E1F794
:1026C000EE71FF27E759FC4F20813181AE014F7039
:1026D000552781E090E002C0880F991F4A95E2F7E4
:1026E000FF2009F444C0822B932B91838083809137
:1026F000680381FF08C080911102806180931102FC
:1027000082E00E945F088091680385FF08C0809185
:10271000110280628093110280E20E945F086F2D97
:10272000CE010E940E13DD2031F08091A40385FFBD
:1027300002C086FF3BC08091A7039091A8030E942E
:10274000DA098091AF039091B0039C0130562115B6
:1027500040E2340720F0305E2115304108F499271B
:102760000E946B110E94F40C1DC081E09BCF8095EC
:10277000909582239323B9CFC701992797013056AB
:10278000211540E2340728F0305E2115304108F071
:10279000C7010E946B118091AF039091B0038E1519
:1027A0009F0501F31093AE030093AD03CDB7DEB7E1
:1027B000E7E00C94D02C90E080E00E941E2D883E33
:1027C0009E4F19F40E94E00A089580E0089568EE93
:1027D0007EEF90E080E00E94422D60E082E090E099
:1027E0000E94242D60E083E090E00E94242D10924E
:1027F000DF0260E084E090E00E94242D64E082E249
:1028000090E00E94242D60E085E090E00E94242D5D
:1028100060E086E090E00E94242D6FEF87E090E07A
:102820000E94242D40E050E0BA0188E090E00E9430
:10283000362D60E08DE090E00E94242D40E050E0D5
:10284000BA0188E190E00E94362D60E087E190E0D7
:102850000E94242D40E050E0BA018CE190E00E94FB
:10286000362D70E060E080E290E00E94422D40E072
:1028700050E0BA0188E190E00E94362D80E00E948D
:102880008B0B0E94871040E050E0BA018FE090E08F
:102890000E94362D40E050E0BA0183E190E00E94B2
:1028A000362D089580919004811141C00E94DB1360
:1028B000811102C00E94E71387E090E00E94162D6C
:1028C00080939104E4E9F4E080E090E0A0E8BFEBBD
:1028D0001182108282839383A483B5831782168228
:1028E000389624E0E43DF20799F780919004811135
:1028F0000CC00E94E005269A82E0809380008AE165
:102900008093810081E0809390040E943C06809136
:10291000910480FF06C063E070E084ED91E00E94C6
:1029200047150E94B404909385048093840408950D
:10293000B0E0A0E0EEE9F4E10C94AE2C4B015C01B8
:102940007A018091910480FF81C08091900481116F
:1029500002C00E94521420E030E0A901C501B40178
:102960000E94602D87FF04C0B7FAB094B7F8B09406
:102970007090D404872D8150990B6C01EC01CF3FEE
:10298000DC0709F04DC081E0870D893008F47CC078
:1029900088E08093D40484E994E028E0FC01389630
:1029A000DC0101900D922A95E1F7089624E08C3C19
:1029B000920799F781E08093090380938F04C09177
:1029C000D404C150DD0B0E94B404FE0123E0EE0FDD
:1029D000FF1F2A95E1F7EC56FB4F9183808382829B
:1029E0009382A482B582F782E6820E94B404809129
:1029F0000C02882359F180916F00846080936F00EE
:102A00008091800080628093800080918F04882371
:102A100021F00E94DE020E94EB0510920C0216C00B
:102A20008E0133E0000F111F3A95E1F70C561B4F52
:102A3000A5019401F80162817381848195810E94CE
:102A4000602D81111FC0CC15DD052CF0CDB7DEB790
:102A5000EDE00C94CA2C219688E0F8013896D80154
:102A600001900D928A95E1F70E94B404F8019187D4
:102A7000808782869386A486B586F786E686085F79
:102A80001F4FE1CF21977BCF8093D40493CFCF9278
:102A9000DF92EF92FF92CF93DF93EC017B01809165
:102AA000910480FD09C00E943C06DF91CF91FF9008
:102AB000EF90DF90CF90089580919004811102C033
:102AC0000E94521480918F0481110E943C0681E083
:102AD00080938E0410928D04D0938C04C0938B0449
:102AE000F0928A04E092890410928804109287047C
:102AF000109286046C817D818E819F810E94D72DEA
:102B00009B01A0E6BAEE0E949A2CC12C2EE1D22E97
:102B1000E12CF12CA70196010E946B2C6881798130
:102B20008A819B81A9010E9498140E94B404909309
:102B3000850480938404E0918B04F0918C0480914F
:102B400086049091870433E0880F991F3A95E1F746
:102B5000E80FF91F64817581868197810E94D72DC6
:102B60009B01A0E6BAEE0E949A2CA70196010E9452
:102B70006B2C309383042093820497CF62E070E043
:102B80008CEF91E00E9447152FEF81EE94E02150E9
:102B900080409040E1F700C000000E943C06609138
:102BA00091046E7F6093910487E090E00E94242D51
:102BB00008956091910461606093910487E090E0D2
:102BC0000E94242D62E070E08CEE91E00E94471597
:102BD0000895CF93DF930E94290D0E94B404EC0165
:102BE00063E070E080E391E00E944715CE010E940F
:102BF000A5048A3F910528F00E943C06DF91CF9101
:102C000008958FE99FE00197F1F700C00000EECF33
:102C10000E94E91588E19AE00FB6F894A895809390
:102C200060000FBE90936000FFCFCF93C82F0E942B
:102C30003709823069F0833081F0813031F461E00E
:102C400070E088E291E00E9447158C2FCF910895A3
:102C500062E070E088E191E0F6CF63E070E080E050
:102C600091E0F1CF0E94151680937D040E94170D0C
:102C7000089580917D04982F9670963021F4886095
:102C80000E9432160895877FFBCF21E030E001C01B
:102C9000220F8A95EAF7209580917D0482230E9475
:102CA000321608959091D302809589238093D302A0
:102CB000282F277091F4282F082E000C330B921721
:102CC000130659F09091670392FF07C0859585958B
:102CD00085950E9445160E946608089590916703A5
:102CE00092FB222720F9281769F080FB92F9909334
:102CF000670380916603909167030E94A40B82E0B2
:102D00000E945216089521E030E001C0220F8A95FA
:102D1000EAF780917D04822B0E94321608959091EB
:102D2000670392FF10C098E0899F90011124622BE5
:102D30006093D3020E9483160E94B4049093D2023F
:102D40008093D10208950E9483160895A4E0B0E014
:102D5000ECEAF6E10C94B02C7C01FC014381548137
:102D6000618180810E9413058111D4C061E0C70197
:102D70000E94D20A8C01F7018281882309F41CC7C2
:102D8000980122513F452031310508F000C78FEFEF
:102D900093E00E94162D8111AEC06EEED62ED00E9D
:102DA0000BED11E0D11036C019821A821B821C82F1
:102DB00099249A9468012FEFC21AD20AC8010E947E
:102DC000162D89831A82882309F495C0813009F071
:102DD00087C0580132E0A30EB11CC6010E94162D17
:102DE000C82E8A83882309F486C0C5010E94162D47
:102DF000D82E8FEF8C0D8330D8F4580143E0A40E09
:102E0000B11CDB82DD2021F0CE0101960E9455121B
:102E10008501D0CF0115F4E01F0709F46CC0C8018B
:102E20000E94162D811101C0DA940F5F1F4FBACF97
:102E30008BEF8C0D833070F5C8010396DB825C014B
:102E4000DD2031F3580154E0A50EB11C0E94162D6F
:102E50008C838823E9F20B811C8101306FEF160708
:102E600010F0102F002776E0C71681F087E0C81613
:102E700049F0C8010E94DC238091A7039091A80328
:102E80000E94DA09C8010E94B723C2CFC8010E947C
:102E9000DC23BECF94E0C912BBCF5801E4E0AE0EF4
:102EA000B11CC80103960E94162DDD2021F1882354
:102EB00011F18150990B989E9001999E300D11242B
:102EC0004D2D4150550BCA01820F931F019708F4F5
:102ED0009FCFEFE9FFE03197F1F700C00000F6CF98
:102EE000CE0101960E945512560192CF81E00E94B8
:102EF00083160E9439168091D302877059F0F7012A
:102F00008281882339F08091670382FF03C082E0C9
:102F10000E9452162496EBE00C94CC2C81E00E9487
:102F20004516E7CF82E0E3CF0E313CE5130729F4E5
:102F3000882309F10E94BE15DECF0F314CE514073E
:102F400039F48823C1F08091910480FDF3CF31C61C
:102F50000A325CE5150759F4882369F0109293044E
:102F600064E070E088E491E00E944715C4CF0B3222
:102F70006CE5160789F38091A40380FF34C00E949A
:102F8000B4046C01F7018281882309F457C0809151
:102F9000110282FF08C026EF32E040E0B60190E067
:102FA00080E00E9423130B31FCE51F07C9F10C31AF
:102FB0002CE51207D9F190911102892F8E7F90FF95
:102FC00081600A313CE51307A1F1C80190568115D3
:102FD00040E2940720F0905E81159041E8F5109250
:102FE000B0031092AF03033F7CE5170709F478C1E3
:102FF00008F01DC1083D9CE5190709F46DC1093DA4
:10300000ECE51E0709F47CC1073DFCE51F0709F04C
:103010001AC126E241EE61EEC7010E94F8116BCFA2
:1030200080911102816080931102CFCF80911102B3
:103030008E7F809311020E94F40CC7CF8091110201
:103040008F7E013E110531F0053E1105C1F48091DE
:1030500011028F7D809311028091110280FFC3CFF6
:10306000F70182810832110528F50E31110508F0AB
:1030700074C00430110580F58111B1CFB4CFC801FF
:103080009056811560E2960720F0905E8115904180
:1030900018F78091110282FFA6CF8091A60381FDCF
:1030A000A2CF26EF32E040E0B60190E080E00E943F
:1030B000231399CF0933110558F40D32110518F473
:1030C0000B321105C9F69091A40392FDD5CF08C02B
:1030D00004361105C1F3D0CF9091A40394FDCCCF59
:1030E000882309F49DC0909168038091DE02282F07
:1030F000292B322F3D7FB1F11092B0031092AF0314
:103100003091A40331FD2EC0F80143E0F695E79518
:103110004A95E1F7EE71FF27E759FC4F98012F70B0
:10312000332781E090E002C0880F991F2A95E2F7CB
:103130008095909520813181822393239183808390
:1031400060E0C8010E940E138091DE028D7F0E9414
:103150004B0882E00E945216CECE9091A40393FDBC
:103160008BCFBECF38E0F701A6EFB2E001900D9211
:103170003A95E1F71092F8021092FA021092F902D1
:10318000A090AF03B090B0030A151B0591F53091E4
:10319000A40335FF2EC04091110241FB992490F801
:1031A00041FF02C036FF25C04091AD035091AE03F0
:1031B000B601641B750B683C7105D8F491FF08C01B
:1031C0008091110280618093110282E00E945F0869
:1031D0008091680385FF08C080911102806280930E
:1031E000110280E20E945F08692DC5010E940E1342
:1031F00082CE9091110221FB91F9909311028D7F63
:103200000E944B081093B0030093AF03D092AE031B
:10321000C092AD038091110284608093110299CF16
:10322000970140E0B601C8010E94231364CE053F18
:103230002CE5120709F45CC008F456C0063F4CE5C3
:10324000140709F459C0F7013281332309F4BFC4CC
:10325000109281040330FDE51F0708F054C00A3FB7
:103260002CE5120730F4C80182509C45449708F0C1
:1032700056C00E94F90A9093670380936603023157
:103280007CE5170709F4A4C108F0DAC009309CE511
:10329000190709F46BC108F0ABC00530FCE51F0746
:1032A00009F458C108F092C003303CE5130709F453
:1032B00049C108F04BC180916603816002305CE532
:1032C000150709F4BAC080916603909167030E94C4
:1032D000A40B0E94290D0FCE27E245EE65EE9CCE91
:1032E00026E241EE60EE98CE27E245EE64EE94CE03
:1032F00026E241EE62EE90CE27E245EE66EE8CCEFF
:1033000028E241E0EBCF053A4DE5140709F4B1CFCF
:1033100008F055C001366DE5160709F4AACF06314D
:103320006CE5160709F458C40A357DE5170709F45A
:10333000BAC108F09CC101159CE5190709F4A2C1A6
:103340000E3D1C4509F4A2C1F701868197810097C3
:1033500009F4ADC10E94BF06182F092FF701C280E2
:10336000D580D2943FE0D3228091D3028770C1F000
:10337000AC2CCC20B1F0892F807F803421F080E20A
:10338000810F883068F08091670382FF09C082E076
:103390000E9452168091D3028770AA24A3948111AF
:1033A000A12C902E92942FE09222FBE0F91508F4C4
:1033B0000BC2E92DF0E0EF5CF04D0C948D2CC801B0
:1033C0008D5A9D45039708F0AACF53CF809166038D
:1033D000806207306CE5160781F180916603806199
:1033E00008307CE5170748F180916603806425C0AA
:1033F0000D308CE5180709F4D3C058F40B30ECE518
:103400001E0709F4C5C008F4B7C0809166038D7F1C
:1034100014C00F302CE5120709F4D2C008F4C4C060
:1034200000314CE5140709F4CFC0809166038F7B0F
:1034300001315CE5150709F046CF8093660343CF61
:103440000F3F6CE5160709F4D3C0E8F50A3F8CE599
:10345000180709F483C0E0F40431ECE51E0709F411
:10346000DFC008F4BBC005312CE5120709F02BCFF3
:103470008091660382FB992790F921E0922790FBC7
:1034800082F990FB83F98093660383FFACC079C017
:103490000C3F3CE5130709F48BC008F463C00D3FF3
:1034A0005CE5150709F488C00E3F6CE5160709F0C6
:1034B0000ACF8091670383608093670364E070E0C4
:1034C00088E891E062C001367DE5170709F4B3C0D2
:1034D00090F401309DE5190709F4ABC008F492C0DF
:1034E00060E00230FDE51F0709F0EDCE8EE090E0D0
:1034F0000E94242DE8CE0D3A2DE51207E9F060F484
:1035000090916603892F8E7F90FF8160053A4DE58B
:10351000140709F492CFD7CE0E3A5DE51507E1F115
:103520000F3A6DE5160709F0CECE90916703892F0B
:10353000877F93FF886003C08091670388608093D2
:103540006703C1CE80916603826077CF8091660366
:10355000846073CF8091660388606FCF809167032A
:103560008160EDCF809167038260E9CF0E94290DD1
:1035700080916603806861CF809166038C60809340
:10358000660364E070E088EA91E00E9447159BCEF4
:10359000809166038E7F51CF80916703877FCFCF65
:1035A000809166038B7F49CF80916603877F45CFEB
:1035B000809167038E7FC3CF809167038D7FBFCFDC
:1035C000809166038F7E39CF809166038F7D35CFE2
:1035D0000E94290D809166038F772FCF809166031B
:1035E000837F8093660362E070E088E791E0CDCF4F
:1035F000809167038C7F8093670362E070E088E6C8
:1036000091E0C3CF80916703982F909591708E7F42
:10361000892B90FB81F98093670381FFEECF4ECF1A
:103620000E94290D90916603892F97FB87F9805896
:1036300004CF61E05BCF90916603892F8F7E94FF6A
:103640008061FBCE8091740281110FC089E2EEE6A9
:10365000F2E024E732E09191891303C0DF01119772
:103660001C922E173F07B9F7E4C285E3F0CF0C3563
:10367000FDE51F0771F0C8F0073A1D4509F064CE5B
:103680000E9408160E94E9150E9494040E94E71304
:10369000F7CF8091670382FB882780F991E0892723
:1036A0000E946E1651CE81E0FBCF80E0F9CF82817F
:1036B00000811181882369F0C8010E94560AD82E22
:1036C000682FC8010E94E508B8018D2D0E94390AB3
:1036D00041CEC8010E94B108D82EF6CF202F2F70FE
:1036E000B22E802F807F19F0B29490EFB922CC20B7
:1036F000B9F0BB2069F080E2810F883010F0111121
:1037000009C080916803B82AB09268030E94A80C8F
:10371000812F58C080917E04B82AB0927E04F6CFE3
:10372000812F0E943611BB2009F44EC080E2810F28
:10373000883010F0111104C08B2D0E945F0806C064
:10374000B09480917E04B822B0927E040E94A80CAE
:103750003BC0302F3F70B32E802F807F803219F016
:10376000B29480EFB8221123E9F0113009F4A9C016
:10377000CC2009F4B2C0DD2009F47AC020E0F701C2
:10378000408151816281738184810E94AF0A80915E
:10379000A60381FDBDCFF701858180FFB9CF8F7072
:1037A000858366C08091670382FD42C0CC20D1F141
:1037B000BB2039F080916803B82AB09268030E9458
:1037C000A80C80E00E948311692D6850770B64304B
:1037D000710510F40E940605812F902F0E941C098C
:1037E0008111B6C11092770210927602AA20A9F038
:1037F0008091D30280FD11C0F701128285958595D5
:1038000085950E948316C7010E94A6168091D30257
:103810008595859585950E94451660E0C7010E94B3
:10382000D20A78CB80E00E943611BB2069F284CFA7
:10383000CC2011F1D11004C08091DE028B2919C077
:1038400041E0D41206C08091DE028B290E944B0811
:10385000BBCF8091A503823078F3D812EDCF0E94C0
:103860004008909175028B2D892B891380937502E6
:103870008B2D0E942C11A8CFD11003C00E944008AC
:1038800017C08091A50351E0D51216C0823008F40C
:103890009BCF809168038B2109F496CF0E9440084A
:1038A000909175028B2D80958923891380937502E1
:1038B0008B2D0E94251188CF823000F3D812DECFE5
:1038C00083CF8091AB03CC2021F08D1508F47CCF01
:1038D000CFCFD81608F078CFEBCFDD2049F3809119
:1038E000A9039091AA03193321F08091A703909125
:1038F000A8030E94DA09812F0E94361165CF802F1C
:1039000086958695837069F0813009F05DCF812FAF
:10391000902F9370C11002C090E080E00E94DA0402
:1039200053CF812F902F9370C11002C090E080E0A0
:103930000E94F00449CF802F837091F5C11044CFCD
:10394000412F429546954770440F440F812F8F7049
:10395000042E01C0880F0A94EAF7212F207114FF6A
:1039600007C02FE030E001C0220F4A95EAF720950A
:10397000302F369536953370323069F050F44091DF
:10398000DF02313029F0822B84230E94240D1CCFCA
:10399000842B822BFACF282B8091DF028227F5CF50
:1039A0008695CC2011F0802F8170882309F40CCFEC
:1039B000412F429546954770440F440F812F8F70D9
:1039C000042E01C0880F0A94EAF7212F207114FFFA
:1039D00007C02FE030E001C0220F4A95EAF720959A
:1039E000302F369536953370323069F050F440916F
:1039F0007D04313029F0822B84230E943216E4CEDC
:103A0000842B822BFACF282B80917D048227F5CF3F
:103A1000F02FFF70BF2ECC2029F08F2F0E9483162D
:103A2000812F27CF812F0E9425118B2D0E944516B3
:103A3000CBCE123F89F160F4103FB9F0113F81F015
:103A4000CC2009F480C0D11063CE802F8F7128C0A4
:103A5000133F49F1143FA1F78091670382FD2FC006
:103A6000802F8F71CC2011F31BC08091AB03CC2031
:103A700079F0D81608F0A8CE202F2F7181E090E0C1
:103A800001C0880F2A95EAF790917D048927B5CF68
:103A90008D1508F499CEF0CF802F8F71C110C6CF4D
:103AA0000E94831691CE80E0CC2009F4A6CF81E05D
:103AB000902F9F7101C0880F9A95EAF79ECF809151
:103AC000A503823040F1CC20D1F09091D3029770C1
:103AD000943041F40E946608802F8F710E94451631
:103AE000A12C72CED816E0F7202F2F71B22E822F84
:103AF0000E94831663E08B2D0E948F16F1CFD8169B
:103B000030F00E94660864E0802F8F71F5CF81E06D
:103B10000E945216E5CFCC2059F0302F3F71B32EC2
:103B2000832F0E94831663E08B2D0E948F164CCE4C
:103B300081E00E94521641E04D1508F045CE82E02A
:103B40000E94521641CED110CACE802F8F716ECFF7
:103B5000CC2019F0D11046CE49CED11043CE20E072
:103B6000F701408151816281738184810E94AF0A93
:103B70008091A60383FF36CE8091760290917702E2
:103B8000029709F02FCE812F0E94D6112BCE003143
:103B9000FFE51F0709F4AAC901312FE5120709F44F
:103BA000C1C90D312CE5120709F0BEC9882309F4FB
:103BB000E2C90E94D9159FC900313FE5130709F4F6
:103BC000ADC901314FE5140761F782E0A8C906319C
:103BD0005CE5150709F0B8CB80916803982F9A7AB5
:103BE0002091A30320FF04C0482F447409F090E003
:103BF00021FF04C0482F417109F090E022FF04C06A
:103C0000482F487809F090E023FF03C0827209F042
:103C100090E0332309F416CD81E0911101C080E0DA
:103C20008093740269E2911165E38CE692E00E9450
:103C3000C0040E94A80C5FC9EF92FF920F931F93DC
:103C4000CF93DF9380918C02807F09F04CC08091EC
:103C50008902882309F447C0C091D002E0908F0206
:103C6000D0918702F090880200918A0210918B0215
:103C7000EC16C9F1A8016F2D8D2F0E9413052C2F72
:103C800030E0811135C0F90183E0EE0FFF1F8A9506
:103C9000E1F7DF01A057BD4F11968C9111978F115D
:103CA00027C08C918D1324C012968C91129781118C
:103CB0001FC013968D919C91801B910B883C9105A0
:103CC000B8F480918C028F70806180938C02EB56E7
:103CD000FD4F80818F708061808387E892E00E9431
:103CE000A6160E94A708CDB7DEB7E6E00C94D12C4B
:103CF0002F5F3F4FC22FC770BBCFA5E1B0E0E3E815
:103D0000FEE10C94AB2C8C0185E0F801DE015196AC
:103D100001900D928A95E1F7D8016C9011967C90F4
:103D200011971296EC9012971396CD90DC9060E06C
:103D300087E892E00E94D20A87E8A82E82E0B82E97
:103D4000509087024090880280908A0290908B0267
:103D5000A401642D852D0E94130581115CC1F09092
:103D60008902960128193909FF2009F417C18091A9
:103D70008C02982F907F283C310508F0D2C0F801C2
:103D80002181911181C0FE2C24111FC090819511B9
:103D90001CC040918D0250918E02268137814217BE
:103DA000530799F4E11011C08F70806180938C02E9
:103DB000C5010E94A61680918C02D80115968C939D
:103DC0008F2D6596E0E10C94C72CA601672D862DFA
:103DD0000E941305D82E81E08E25D11080E080FF4F
:103DE00018C04E2D672D862D0E948708882389F0E4
:103DF0008091A60380FF0DC087E892E00E94A6167E
:103E000088E0E7E8F2E0DF011D928A95E9F7F12CFE
:103E1000D7CF81E08E25D11080E0B82FB170DB2E96
:103E200080FF29C04E2D672D862D0E948708C82E41
:103E3000811121C0698A7A8A89899A890E94850AB2
:103E4000292F22952F70223050F0243078F49F7063
:103E500051F0F8019581907F31F4FC2CB1CF9F7027
:103E600011F08823D1F3805E8830B8F3C8010E9436
:103E7000A616CD2CF2CFEE2009F4A2CF80918C02B1
:103E8000816080938C02C3CF24111BC09081951157
:103E900018C040918D0250918E02268137814217C1
:103EA000530779F4E1100DC08583C8010E94A6165E
:103EB00088E0F801A7E8B2E001900D928A95E1F759
:103EC0007FCFC8010E94920A882339F1EE2029F1A0
:103ED00080918C028032A0F020918702309188027C
:103EE0003A8729871B86DD86CC868E8780918D0256
:103EF00090918E02988B8F87CE0109960E94A6160C
:103F000088E0F801A7E8B2E001900D928A95E1F708
:103F10000E941C1EFF24F39453CFC8010E94A616D2
:103F2000F9CF992309F468CFF8019181941118C051
:103F30009081951115C040918D0250918E0226817D
:103F400037814217530761F4E1100AC08583C80125
:103F50000E94A61688E0D5011D928A95E9F730CF18
:103F6000C8010E94920A8823C1F2EE20B1F280912A
:103F70008C02803228F220918702309188023A83A5
:103F800029831B82DD82CC828E8380918D02909169
:103F90008E0298878F83CE010196B0CF283C3105E1
:103FA000C8F6FE2CEE2009F4B8CFF8018181841107
:103FB00024C08081851121C020918D0230918E0214
:103FC0008681978128173907C1F48091A60382FD65
:103FD0006FCF90918C0290FD6BCF907F09F468CFEA
:103FE00080918C028583903F09F45FCF982F907F5A
:103FF000905F8F70892B858358CFC8010E94920AE9
:1040000081117ECF80918C02816080938C02C801E7
:104010000E94A616D5CEEE2009F47FCFC8010E94DB
:10402000920AF82E882309F478CF88E0F801A7E8EF
:10403000B2E001900D928A95E1F78091870290910C
:1040400088020E94850A0E941C1EBACEA0E1B0E040
:10405000ECE2F0E20C94B92C29873A874B875C8715
:104060006D877E878F87988BCE0109960E947D1E73
:1040700081112FC088E0FE013996DE011196019072
:104080000D928A95E1F74C855D856A8589850E9448
:10409000130581111EC0A0918F02B0E0CD010196E1
:1040A000877099272091D00228171906E1F093E034
:1040B000AA0FBB1F9A95E1F7A057BD4F98E0FE01EC
:1040C000319601900D929A95E1F780938F020E94AC
:1040D000A7088091D00290918F02891312C0609638
:1040E000E2E00C94D52C0E94290D10928F021092C0
:1040F000D00288E0E7E8F2E0DF011D928A95E9F757
:10410000E8CFB8E08B9FC001112480579D4F0E94DB
:104110007D1E882321F38091D00290E00196877064
:1041200099278093D002D5CFEF92FF920F931F93E0
:10413000CF93DF938091B403882361F0C091B303E0
:104140008CE0F82E8091B403C81748F01092B403A5
:104150001092B303CDB7DEB7E6E00C94D12CEE2479
:10416000E394EC0EE092B3030C2F10E0CF9DE0013E
:104170001124CB54DC4F4B815C81698188810E9482
:10418000130581111DC08E819F81892B21F48885A3
:104190009985019651F4288139814A815B816C812E
:1041A0007D818E819F810E942620F09EF001F19EEC
:1041B000F00D1124EB54FC4F1482138210927E04F4
:1041C000CE2DC0CF109258041092570410921202B4
:1041D00080915604809355040E944C050E949420BF
:1041E0000895B0E0A0E0E7EFF0E20C94AA2CC091B3
:1041F000550497E0892E01E010E02CE0322E3EEFCE
:10420000932E44244394809156048C1309C00E9439
:1042100094200E944C05CDB7DEB7E1E10C94C62C8A
:10422000D0E0FE01EE0FFF1FE35BFB4F8081918129
:10423000889ED001899EB00D1124AB5EBB4F1496B1
:104240002C911497211158C05090B403E5EBF3E082
:1042500030E020E0712C5D01251508F04BC0E284B0
:10426000F384D501CD90DC906FEF7FEF612C462D6C
:1042700050E0DA01AA0FBB1FAC0DBD1D0D90BC9123
:10428000A02D109731F0EA16FB0609F4BA016394E9
:10429000EECF6F3F7607A9F1D80102C0AA0FBB1F6E
:1042A0006A95E2F77A2AB801062C02C0660F771FDA
:1042B0000A94E2F7AB014150510974161506F9F45E
:1042C000329EF001339EF00D1124EB54FC4F889E7A
:1042D000D001899EB00D1124AB5EBB4F12962D917B
:1042E0003C911397378326839082918291878087B0
:1042F00015964C920E941E052196C37084CF14829D
:1043000013822F5F3F4F3C96A7CFA9E1B0E0EBE8C7
:10431000F1E20C94A92C942F498B252F5A8B6B8B8F
:104320007C8B8D8B4C895D89622F892F0E941305B0
:10433000811109C080917602909177020196909345
:104340007702809376028B89811110927E041D86FC
:104350001E861F86188A85E0FE017196DE01199679
:1043600001900D928A95E1F78091670382FF1EC04C
:1043700080918B0390918C03892BC1F00E94B4042F
:104380002091D1023091D202821B930B20918B039A
:1043900030918C038217930720F08091D30282FF23
:1043A000E2C10E946D0881110E9440084C855D8524
:1043B0006A8589850E941305811111C061E0CE01D3
:1043C00009960E94D20A6C018B8527EFC2162CE554
:1043D000D20681F4882321F181E08093120229859D
:1043E0003A854B855C856D857E858F8598890E9491
:1043F0002620C6C038EFC3163CE5D30629F488232F
:1044000079F00E94E220EBCF49EFC4164CE5D406C8
:1044100039F4882329F0809112028111F2CFDCCF88
:1044200005E114E0512CB12CA12C22242394312C31
:104430002EEF422EF8014081518188248A94982CD5
:1044400020E0822F90E0FC01EE0FFF1FE40FF51F2C
:10445000608171816115710531F0C616D70609F4C6
:104460004C012F5FEECFF12CFFEF8F169F0609F462
:1044700049C0F8014481F09012028F2D411180E073
:10448000F82FF170FF2EF801E58086819B85992336
:1044900009F4F8C0FF2009F4F5C060909F03709004
:1044A000A003E11013C0A101082C01C0440F0A941D
:1044B000EAF7842B86838091B1039091B20386152D
:1044C000970520F47092B2036092B103C10102C05B
:1044D000880F991F2A95E2F70197F801268128177E
:1044E000190681F48091570490915804009709F4BB
:1044F0004BC00E94A5046816790608F045C021E06B
:10450000F80124835F28FFEFAF1ABF0A095F1F4F2E
:1045100028E0A216B10409F08DCF8B85882309F419
:104520000DC1552009F40AC10E94B40490935804A7
:10453000809357048091B403883010F591E0980F70
:104540009093B40398E0FE013996DE011196019034
:104550000D929A95E1F73CE0839FC00111248B54A2
:104560009C4F28E0FE013196DC0101900D922A95C6
:10457000E1F72FEF3FEFFC0131872087D386C2861A
:104580006996E2E10C94C52C809155045091560433
:10459000982FF0E0E0E0851314C090935504E017E5
:1045A000F10709F4AFCF90E0FC01EE0FFF1FE35BD2
:1045B000FB4FB182A08201968370992780935604A5
:1045C000A1CF682E712CF301EE0FFF1FE35BFB4FB1
:1045D0002081318147E0429FD001439FB00D1124DB
:1045E000AB5EBB4F6D917C911197798F688F40E0E6
:1045F00020E030E0E32FF0E0EE0FFF1F688D798DB3
:10460000E60FF71F8080918081149104E1F0F8019A
:104610000190F081E02DFF8BEE8B20E005C0861627
:10462000970609F44F2D2F5FE22FF0E0EE0FFF1FEA
:104630006E897F89E60FF71F6081718161157105B1
:1046400071F73F5FD7CF4423D1F0F801231708F06B
:10465000FD0121E024830E171F0721F490935504D8
:10466000F42E50CF981305C0AE17BF0711F49F5F0B
:10467000937093012F5F3F4F822F83708CCFF0E0B8
:10468000E0E0F7CF90E0E11020C0B10102C0660F7A
:10469000771F2A95E2F79B01215031098217930772
:1046A00031F4442309F448C0C5010E941E05C1012C
:1046B000082C01C0880F0A94EAF7982F9095F8010A
:1046C000868189238683FE2C1DCF9C01082C02C085
:1046D000359527950A94E2F7A90141705527BC0149
:1046E0006150710986239723892B11F5452B01F120
:1046F000F80182819381892BC1F01B821C821D826B
:104700001E8249824A820E94B4048160582F9D8390
:104710008C83F801828193818F83988729813A81E4
:104720004B816D817E810E942620F8011582BFCFCA
:10473000F22FF170EF2EBBCFEF2CB9CF9091550433
:1047400080915604981731F00E94F120552009F409
:1047500046CE16CF0E94942010925804109257040F
:104760000E944C05F3CF82E00E9452161ACEA5E0BB
:10477000B0E0EDEBF3E20C94B92C909363038093DB
:104780006203811520E2920730F40E946B11259696
:10479000E2E00C94D52C80EF89838A831B820E94EF
:1047A000B4048160782F9D838C8349815A816B8109
:1047B0008D810E948521EBCFA5E0B0E0E2EEF3E22F
:1047C0000C94B92C9093630380936203811520E2CB
:1047D000920730F40E94F6122596E2E00C94D52C54
:1047E00080EF89838A8381E08B830E94B404816097
:1047F000782F9D838C8349815A816B818D810E94A2
:104800008521EACF1F920F920FB60F9211242F939A
:104810003F934F935F936F937F938F939F93AF9348
:10482000BF93CF93DF93EF93FF93D091E900DF70B5
:104830008091EC00C82FC17080FDC0E81092E900A3
:104840008091F000877F8093F00078940E94350D6E
:104850001092E9008091F00088608093F000CD2BE9
:10486000CF70C093E900FF91EF91DF91CF91BF919D
:10487000AF919F918F917F916F915F914F913F91F8
:104880002F910F900FBE0F901F9018951F920F92AF
:104890000FB60F9211242F933F934F935F936F9313
:1048A0007F938F939F93AF93BF93EF93FF938091E9
:1048B000E10082FF09C08091E20082FF05C0809183
:1048C000E1008B7F8093E1008091DA0080FF24C0BB
:1048D0008091D80080FF20C08091DA008E7F809385
:1048E000DA008091D90080FFA1C080E189BD82E11A
:1048F00089BD09B400FEFDCF81E0809373048091EF
:104900006604811109C00E940B030E94D6038091A6
:10491000E20084608093E2008091E10080FF17C094
:104920008091E20080FF13C08091E2008E7F80932F
:10493000E2008091E20080618093E2008091D800E3
:1049400080628093D80019BC85E0809373048091C5
:10495000E10084FF2FC08091E20084FF2BC080E142
:1049600089BD82E189BD89B5982F917080FFFBCF09
:104970008091D8008F7D8093D8008091E1008F7E58
:104980008093E1008091E2008F7E8093E20080912D
:10499000E20081608093E20080917404882309F42E
:1049A0004BC084E0809373040E94290D0E94060589
:1049B000809173048091E10083FF27C08091E20021
:1049C00083FF23C08091E100877F8093E10082E034
:1049D00080937304109274048091E1008E7F809321
:1049E000E1008091E2008E7F8093E2008091E200FE
:1049F00080618093E20042E060E080E00E94A403D6
:104A00008091F00088608093F000FF91EF91BF915A
:104A1000AF919F918F917F916F915F914F913F9156
:104A20002F910F900FBE0F901F90189519BC1092E8
:104A300073041092660470CF8091E30087FD93E0C9
:104A400090937304B1CF78941F921FB61F921124D4
:104A50008F939F93AF93BF9380915F049091600475
:104A6000A0916104B09162040196A11DB11D8093D3
:104A70005F0490936004A0936104B0936204BF91BB
:104A8000AF919F918F911F901FBE1F9018951F92FD
:104A90001FB61F9211248F939F93AF93BF93809162
:104AA0005F0490916004A0916104B091620441960A
:104AB000A11DB11D80935F0490936004A0936104D5
:104AC000B0936204BF91AF919F918F911F901FBED1
:104AD0001F9018951F920F920FB60F9211242F92CC
:104AE0003F924F925F926F927F928F929F92AF927E
:104AF000BF92CF92DF92EF92FF920F931F932F936B
:104B00003F934F935F936F937F938F939F93AF9355
:104B1000BF93CF93DF93EF93FF9380910E03909118
:104B20000F03A0911003B09111030196A11DB11DB7
:104B300080930E0390930F03A0931003B09311037F
:104B400060910E0370910F038091100390911103F7
:104B50000E94062E6B017C0120E030E040E85CE31F
:104B600060910A0370910B0380910C0390910D03E7
:104B70000E94B82E9B01AC01C701B6010E94602DB6
:104B800087FDBAC010920E0310920F03109210030B
:104B90001092110330908E0480918F04811103C014
:104BA000332009F49FC00E94B4046C01311025C069
:104BB000312C80918F048823B9F080919204811167
:104BC000382E04E914E0912C812C412C512C20E842
:104BD000622E2FEB722E222423948091D404881508
:104BE000190411F00CF00CC180910903882309F419
:104BF00079C010920903382E75C000918404109179
:104C00008504C8010E94A504C0918204D091830448
:104C10008C179D0768F2C8010E94A5047C01EC1A5C
:104C2000FD0AD0928504C0928404A0908604B090BE
:104C30008704E5012196D0938704C09386040E94DF
:104C4000B4048090890490908A04C815D90548F06E
:104C500080918804882309F442C01092870410923E
:104C6000860400918B0410918C04C0918604D0912D
:104C7000870480918D046E01E3E0CC0CDD1CEA9585
:104C8000E1F781115CC0F50173E0EE0FFF1F7A952B
:104C9000E1F7E00FF11FD801AC0DBD1D2D913D9145
:104CA0004D915C9160817181828193810E94602D20
:104CB000811145C081E080938D044FE050E060E0B9
:104CC00070E0CB010E949814B0928704A0928604F1
:104CD0008FE090E090938304809382046ACF0E94D7
:104CE0003C06312C80918F0481110EC180918E047D
:104CF00081110AC10E94E005FF91EF91DF91CF91F0
:104D0000BF91AF919F918F917F916F915F914F91E3
:104D10003F912F911F910F91FF90EF90DF90CF90D7
:104D2000BF90AF909F908F907F906F905F904F90CB
:104D30003F902F900F900FBE0F901F9018951092DC
:104D40008D04F801EC0DFD1D6481758186819781CC
:104D50000E94D72D9B01A0E6BAEE0E949A2C20E07B
:104D60003EE140E050E00E946B2C81E0881A9108FF
:104D7000412C6EE1562E612C712C2E153F05F0F062
:104D8000D0938704C0938604E216F306A8F5F901D0
:104D9000EE19FF097F0133E0CC0FDD1F3A95E1F7F3
:104DA000C00FD11F688179818A819B81A7010E94F0
:104DB0009814F0928304E0928204FBCEC815D905C2
:104DC000F8F6E21AF30A2196FE0153E0EE0FFF1FF8
:104DD0005A95E1F7E00FF11F648175818681978113
:104DE0000E94D72D9B01A0E6BAEE0E949A2CA30147
:104DF00092010E946B2CC1CFEE24E394F12CCBCF17
:104E0000F801C681D781CE0101978E3F9F4F08F0F0
:104E100075C0F801808191810E94A5048C179D07BF
:104E200008F46CC0F801C280D380E480F58020E0F3
:104E300030E0A901C701B6010E94602D87FF04C0C0
:104E4000F7FAF094F7F8F09480918F04882309F42E
:104E500055C080919004811102C00E94521494E9BF
:104E6000A92E94E0B92EC7E0D0E0A7019601F50184
:104E700062AD73AD84AD95AD0E94602D811136C0D9
:104E800083E0CC0FDD1F8A95E1F7CC56DB4F19820A
:104E900018824A825B826C827D821F821E828CEC29
:104EA00094E08C179D0781F4209209038091D4042B
:104EB00081508093D404811121C00E94E00520928A
:104EC0000C0210928F041AC088E0FE013896DE01B1
:104ED00001900D928A95E1F7198618864A865B86BD
:104EE0006C867D861F861E862896D9CF219798E0EE
:104EF000A91AB108CF3FDC0709F0B7CFFFEF8F1A2F
:104F00009F0A085F1F4F69CE332009F4F5CE0E9437
:104F1000DE020E94EB05F0CECDB7DEB7E6970FB606
:104F2000F894DEBF0FBECDBF85B7806885BF85B75B
:104F3000806885BF84B7877F84BF0FB6F894A89533
:104F400080916000886180936000109260000FBEC5
:104F500080E890E00FB6F894809361009093610030
:104F60000FBE83E696E090936B0280936A020E94E4
:104F7000B20B0E94E4090E940B030E94D6038091A9
:104F8000E20084608093E200789480917304882327
:104F9000A1F01091E9001F709091EC00892F8170B1
:104FA00090FD80E8182B1092E9008091E80083FDC5
:104FB0000E94350D1F701093E90082E084BD93E0DC
:104FC00095BD9AEF97BD80936E000E94E00A811113
:104FD00002C00E94871085EF0E94650686EF0E943E
:104FE000650687EF0E94650681E30E94650601E57C
:104FF00012E07BE5E72E72E0F72ED8018D918D014E
:105000008F3F11F00E946506E016F106B1F788E0C7
:10501000E1E0F3E0DF01282F1D922A95E9F7E3EEA6
:10502000F2E0DF011D928A95E9F70E94DB138111FE
:1050300002C00E94E71382E090E00E94162D809348
:10504000ED020E94F90A90936703809366030E9421
:10505000F60BEFE3FCE93197F1F700C000000E9486
:10506000F60B8091010380FF08C06FEF7FEF90E0A7
:1050700080E00E94422D0E94940483E090E00E9410
:10508000162D0E94240D80917D040E9415160E9409
:10509000521488EC91E090935C0480935B04AE0121
:1050A0004F5F5F4F5A017E0151E2E50EF11C6CEE3D
:1050B000662E63E0762E0E94F60B5EEE852E52E0A1
:1050C000952E81E093E09EAB8DABDC01F401219144
:1050D00031918D919D9146EF52E04E175F0709F493
:1050E0004CC02817390799F3312CADA9BEA90D91F1
:1050F0001D91BEABADABF401419051904F014016F4
:10510000510659F140265126212CCC24C394D12C90
:10511000C2018C219D21892BB1F028AA39AA21E056
:10512000C8018C219D21892B09F420E02AAB0E9423
:10513000B4048160782F9CAB8BAB48A959A96AA9AC
:105140008CA90E9485212394CC0CDD1CFAE02F123F
:10515000DFCFF401329711830083339424E03212BD
:10516000C4CF8FB7F89440915F0450916004609170
:105170006104709162048FBF22C02817390709F0BB
:10518000B3CF0E94B4048C018091EB029091EC02A9
:1051900008171907A1F08FEF8BA78CA71DA60E94F7
:1051A000B4048160782F9FA78EA74BA55CA56DA541
:1051B0008FA50E9485211093EC020093EB02809151
:1051C0001202882301F180915704909158040097AE
:1051D000D1F00E94A5042091B1033091B2032817A9
:1051E000390788F49091550480915604981709F472
:1051F00078C00E94F1201092B2031092B103109275
:105200005804109257048091A40380FF1EC080911F
:10521000110282FF1AC00E94B4042091AD033091A4
:10522000AE03AC01421B530B20910F0230911002D0
:105230004217530750F026EF32E041E0BC01809165
:10524000AF039091B0030E9423130E940605909132
:10525000FE02891769F08093FE028FB7F89440919F
:105260005F045091600460916104709162048FBF8B
:1052700080917304843009F01ECF83E08093E900AD
:105280008091E80082FF17CF8091E80090E085FFD1
:1052900005C00E942A03882369F191E08091E8000B
:1052A0008B778093E800992309F405CF009164037C
:1052B00010916503898101151105C9F18E3F09F02F
:1052C00081C08A81833020F08550833008F07AC015
:1052D000EA81EE3008F076C0F0E0E35CF04D0C942B
:1052E0008D2C0E94942010925804109257040E9412
:1052F0004C0589CF00E210E0AE014F5F5F4F6A01BD
:105300008091E80085FD0AC08091E8008B7780934A
:10531000E8000E942A03882399F3BFCF8091F1000F
:10532000D6018D936D010150110951F7B6CF8D3023
:1053300009F4C1C0B0F4843009F4A4C040F4823050
:1053400041F108F090C0813001F18FEF9CC28630AE
:1053500009F4AEC008F4A1C08C30B9F780E18A83AB
:1053600031C0813109F405C140F48F3009F4D2C055
:1053700008F4A5C00E94550B25C0833109F425C14E
:1053800008F4F9C08E3F09F7A3CF1A8289E08B8316
:1053900019C08A81823009F495C28330C9F1813005
:1053A000A1F62FB7F89460915F047091600480912A
:1053B0006104909162042FBF0E94932C6B837C83C5
:1053C0008D839E8380917304843009F074CE109194
:1053D000E9001F709091EC00892F817090FD80E8AA
:1053E000182B82E08093E9008091E80080FF0CC0D8
:1053F00050E040E060E270E0C5010E945B038091F4
:10540000E8008E778093E8001F701093E90053CE78
:1054100080910D0290910E02892BA1F280910103DF
:10542000909102039827892798279C838B838091EA
:105430000303909104039827892798279E838D83DF
:1054400080910503909106039827892798279887CC
:105450008F838091070390910803982789279827C5
:105460009A878987AFCF8A81823009F06ECF6B81AE
:105470007C818D819E810E94932C86E290E00E9427
:10548000242DA0CF4C816B818A810E940A0A982723
:10549000892798279E838D8395CF2D813E81322742
:1054A000232732274C816B818A810E94650B8ACF2A
:1054B0000E94321087CF82E08A8385E268CFCC8059
:1054C000D12CBDE1CB16D10408F07CCF8A809B8023
:1054D0009824892498248E010F5F1F4FC00ED11E7F
:1054E000C40185529E4FC016D10609F46BCFE5E288
:1054F0008E16E2E09E0658F40E94162DD8011496EE
:105500008C93FFEF8F1A9F0A0F5F1F4FE9CFF801AF
:105510001482F7CF80910D0290910E02892B09F42D
:1055200051CFCC80D12C2DE1C216D10408F04ACF46
:105530000A811B81102701271027AE014F5F5F4FA3
:105540004A01C00ED11EC80185529E4FC016D10619
:1055500009F438CF053252E0150728F4D401149627
:105560006C910E94242DBFEF8B1A9B0A0F5F1F4F77
:10557000EACF84E0F4CE0C8110E00D31110508F083
:1055800021CF8A809B80982489249824FE0131961B
:105590006F010E0F1F1FC4018796C016D10609F4B4
:1055A00011CFF0E48F16F1E09F0660F40E94162DF3
:1055B000D60114968C93FFEF8F1A9F0A2FEFC21A11
:1055C000D20AE9CFF6011482F6CFCC80D12C4DE17E
:1055D000C416D10408F0F6CE0A811B8110270127DA
:1055E0001027003451E0150708F0ECCE80E491E07C
:1055F000801B910B8C159D0508F4E4CECE0101961D
:105600004C01C00ED11EC8018796C016D10609F400
:10561000D9CE0034A1E01A0720F4F40164810E947D
:10562000242DFFEF8F1A9F0A0F5F1F4FECCF88E0EA
:10563000E4E1F2E0D70101900D928A95E1F780E272
:10564000D5011D928A95E9F785E0898388E0F70105
:10565000DE01159601900D928A95E1F7B3CE8CED9F
:1056600089831A821B821C82ADCE8C81682F70E0E8
:10567000762F66278B81860F972F911D092E000CA0
:10568000AA0BBB0B25E0880F991FAA1FBB1F2A95E9
:10569000D1F7AC01BD01405E5F4F6F4F7F4F4817A0
:1056A00059076A077B0708F48DCE8C3D9105A1054B
:1056B000B10508F087CE4D3D51056105710520F01B
:1056C0004CED50E060E070E0481B590BBC01605CA1
:1056D0007E4FC5010E94E02C75CE4EE150E06FEF89
:1056E00070E0CE0103960E94FF2C80910D02898309
:1056F0000A8368CE81E090E0909365038093640311
:1057000082E390E0909300038093FF020E94B40430
:1057100059CE80910D0289830A838091FF0237CE92
:105720000B811C8140E250E06FEF70E0C5010E94E8
:10573000FF2C2CE533E090E080E0AC014E5F5F4F42
:105740004132510508F03ECEF9016591749106177A
:10575000170730F48A0D9B1DFC0171836083CA0119
:10576000245F3F4F6216730641F72CCE2B813C819C
:105770008CE593E0FC01459154912417350709F419
:1057800073C00C9668167906A9F7DFCD8B819C81D2
:105790000CE513E0F801259134918217930709F481
:1057A00074C0045F1F4FF3E00C3E1F0799F7CC2431
:1057B000CA94DC2C85C00E94FE0F04CE8B818330FE
:1057C00059F0843029F18111FDCD80E2D5011D927F
:1057D0008A95E9F788E0C3CD6C818AE0F701282F2C
:1057E00011922A95E9F7683088F4689FB001112476
:1057F00065577E4F4AE050E0C7010E94062D80E0C9
:1058000089838AE0F701DE01129624CF8FEFF8CF6B
:105810006C818AE0FE013596D70101900D928A9540
:10582000E1F789A59AA581154CE5940741F42091EB
:105830000D0230910E02232B11F490E080E09AA724
:1058400089A78FEF683060F45AE0659FB00111249A
:1058500065577E4F4AE050E0C7010E94482D80E026
:1058600089830E94B20BAECDFC013696259134910E
:105870002115310509F469CD4FE150E0BE016E5F9D
:105880007F4FF901099589839DCDF80138962591BF
:1058900034912115310509F48ACF4CE150E0BE0165
:1058A0006B5F7F4FC801F90109956C01892B41F4A9
:1058B000F8013A9685919491009711F0FC010995B1
:1058C000C98280CD86E290E00E94162D1B821C8248
:1058D0001D828E8377CDA1E21A2EAA1BBB1BFD0170
:1058E0000DC0AA1FBB1FEE1FFF1FA217B307E407BF
:1058F000F50720F0A21BB30BE40BF50B661F771F17
:10590000881F991F1A9469F76095709580959095F6
:105910009B01AC01BD01CF010895EE0FFF1F059063
:10592000F491E02D0994692796276927782787271E
:1059300078270895A29FB001B39FC001A39F700D67
:10594000811D1124911DB29F700D811D1124911D87
:1059500008952F923F924F925F926F927F928F9213
:105960009F92AF92BF92CF92DF92EF92FF920F93EE
:105970001F93CF93DF93CDB7DEB7CA1BDB0B0FB6F8
:10598000F894DEBF0FBECDBF09942A8839884888B5
:105990005F846E847D848C849B84AA84B984C8844B
:1059A000DF80EE80FD800C811B81AA81B981CE0F42
:1059B000D11D0FB6F894DEBF0FBECDBFED01089527
:1059C000FB01DC0102C005900D9241505040D8F718
:1059D0000895FB01DC0104C08D910190801921F430
:1059E00041505040C8F7881B990B0895FB01DC011A
:1059F00002C001900D9241505040D8F70895DC014B
:105A000001C06D9341505040E0F70895DC01CB0197
:105A1000FC01F999FECF06C0F2BDE1BDF89A3196BE
:105A200000B40D9241505040B8F70895F999FECF57
:105A300092BD81BDF89A992780B50895A8E1B0E09C
:105A400042E050E00C94082D262FF999FECF92BD2C
:105A500081BDF89A019700B4021639F01FBA20BD33
:105A60000FB6F894FA9AF99A0FBE08950396272F65
:105A70000E94252D0E94242D252F0E94252D242FA4
:105A80000C94252D0196272F0E94252D0C94242D52
:105A9000DC01CB0103C02D910E94532D4150504099
:105AA000D0F70895262FF999FECF1FBA92BD81BD78
:105AB00020BD0FB6F894FA9AF99A0FBE0196089590
:105AC0000E94432E08F481E008950E94792D0C94E1
:105AD0007E2E0E94772E58F00E94702E40F029F4FE
