:100000000C9444030C9461030C9461030C946103FD
:100010000C9461030C9461030C9461030C946103D0
:100020000C9461030C9461030C9470250C942C25A2
:100030000C9473260C9461030C9461030C9461037B
:100040000C9461030C9461030C9496260C94610348
:100050000C9461030C944F260C9461030C9461037F
:100060000C9461030C9461030C9461030C94610380
:100070000C9461030C9461030C9461030C94610370
:100080000C9461030C9461030C9461030C94610360
:100090000C9461030C9461030C9461030C94610350
:1000A0000C9461030C9461030C94610305010980B5
:1000B000A101850319012AB700150126B700950192
:1000C00075108100C0050C0901A101850419012AE0
:1000D000A002150126A002950175108100C00660DE
:1000E000FF0961A1010962150026FF00952075082E
:1000F00081020963150026FF00952075089102C052
:1001000005010906A101050719E029E715002501E8
:10011000950875018102950175088101050719008F
:1001200029FF150026FF00950675088100050819AE
:10013000012905950575019102950175039101C08D
:10014000FD377A585A000004E6D6B4460200210171
:1001500016000000742FE5A3E00158009D5D003DEE
:100160008889C65436C3174FE4F4B8B3112855A68E
:100170005F5A9270C576F674965B8A97C5E9EDE88A
:10018000AA894746B63B5DEEDBC4EC388E58603D2D
:1001900089095E1FC4E6BB68321F2C58D60C1BAE03
:1001A000729AE3198058796724678B7BE2708CE63A
:1001B000BFCE03AF997BD83196E777E9795C94237A
:1001C0005960C6A4FEAA67C262AEF7C1435A752140
:1001D000AFAD81AFC6A94F71D86CA5F35C650D9D1D
:1001E000DF67246284B20CCA46AC27A0AC7C2ADE4E
:1001F00072FA89CB349A2344973E740000000000C1
:100200005A0318544663B8520001B901D9020000DC
:10021000AD9D289BB1C467FB020000000004595A41
:1002200000000000010007000200010004000200BD
:10023000060003000E0004000F0005001F0006006A
:100240000001010101010101010102020202020299
:10025000020202030303030303030304040404046C
:100260000404050505050506060606060707070733
:100270000708080808090909090A0A0A0B0B0B0CE8
:100280000C0C0D0D0D0E0E0E0F0F0F101011111185
:100290001212131314141515161617171818191906
:1002A0001A1A1B1B1C1D1D1E1E1F2020212222236B
:1002B0002424252626272829292A2B2C2D2D2E2FAC
:1002C00030313232333435363738393A3B3C3D3EC3
:1002D0003F404142434445464748494A4C4D4E4FB2
:1002E00050515354555658595A5B5D5E5F61626474
:1002F000656668696B6C6D6F7072737577787A7B01
:100300007D7E8082838587888A8C8E8F9193959657
:10031000989A9C9EA0A2A3A5A7A9ABADAFB1B3B577
:10032000B7BABCBEC0C2C4C6C9CBCDCFD1D4D6D853
:10033000DBDDDFE2E4E7E9EBEEF0F3F5F8FAFDFFF1
:1003400014001A000800150017001C0018000C000B
:100350001200130004001600070009000A000B0039
:100360000D000E000F0033001D001B0006001900D9
:10037000050011001000360037003800E000E200F0
:10038000E10001002C002C000100A800AE002A00B2
:100390000100010001000100010001000100010055
:1003A0000100010001000100010001000100010045
:1003B0000100010001000100010001000100010035
:1003C0000100010001000100010001000100010025
:1003D0000100010001000100010001000100010015
:1003E0000100010001000100010001000100010005
:1003F00001000100010001000100010001000100F5
:1004000001000100010001000100010001000100E4
:1004100001000100010001000100010001000100D4
:1004200001000100010001000100010001000100C4
:1004300001000100010001000100010001000100B4
:1004400001000100010001000100010001000100A4
:100450000100010001000100010001000100010094
:100460000100010001000100010001000100010084
:100470000100010001000100010001000100010074
:10048000010001009505370D6A0D00000200020011
:100490009105370D6A0D0000030001009605370D28
:1004A0006A0D0000040002007B05370D6A0D680626
:1004B000050001009705370D6A0D000006000200D7
:1004C0007D05370D6A0D0000070002009305370D0A
:1004D0006A0D0000080001009805370D6A0D000044
:1004E000120002009905370D6A0D0000130002008A
:1004F0009B05370D6A0D0000140001009D05370DA6
:100500006A0D0000150000000000EE05BF1200009B
:1005100009025B00030100A0FA09040000010301C5
:100520000100092111010001224000070581030893
:10053000000109040100020300000009211101006B
:100540000122220007058203200001070503032082
:10055000000109040200010300000009211101004B
:10056000012232000705840320000112010002006D
:100570000000088F45E2140001010203011C03760C
:1005800000690061006C003A0066003600340063C8
:1005900000320062003300630000001A034B006564
:1005A0000065006200200046006F00720020004DD0
:1005B000006F006D0000001A03730061006E00649C
:1005C000006900700072006100740061006D0061DC
:1005D0000000000403090400000000000000000007
:1005E000000000000000000000000000000000000B
:1005F00000000000000000000000007E0F00D4FF9B
:10060000FFFFC70000007800000000000000002A83
:100610002B28000000000000000000000000000087
:10062000000029000000002C1E3420212224342642
:1006300027252E362D3738271E1F2021222324253B
:10064000263333362E37381F0405060708090A0BF0
:100650000C0D0E0F101112131415161718191A1B62
:100660001C1D2F3130232D350405060708090A0B00
:100670000C0D0E0F101112131415161718191A1B42
:100680001C1D2F3130354C0011241FBECFEFDAE096
:10069000DEBFCDBF13E0A0E0B1E0E6E8FAE602C0BD
:1006A00005900D92AC31B107D9F726E0ACE1B3E08B
:1006B00001C01D92A23DB207E1F70E94B8280C9438
:1006C00015350C940000CF92DF92EF92FF92E091EB
:1006D000C706EE2309F1E15088E0E802F001112499
:1006E000E957F94FC280D380E480F58020E030E004
:1006F000A901C701B6010E94503318166CF480910D
:100700008606811102C010928506C701B601FF90CE
:10071000EF90DF90CF900895C12CD12C7601F5CFCA
:10072000E8EDF0E080818E7F80831092E2001092ED
:10073000DA001092E100A0EEB0E08C9181608C9321
:1007400080818F77808319BCA7EDB0E08C918E7F7C
:100750008C9380818F7E808310925806089520911B
:10076000E4003091E50095E6A9012091EC00822F8C
:10077000817020FF06C08091E80080FF06C080E005
:1007800008952091E80022FD1AC080916606882312
:1007900089F0853089F08091EB0085FD0FC02091B4
:1007A000E4003091E50042175307F9F29150E1F669
:1007B00084E0089582E0089583E0089581E008953B
:1007C000EF92FF920F931F93CF937C018B010E94B6
:1007D000AF03C82F811117C08091E80085FD0BC0C1
:1007E0008091E8008E778093E8000E94AF03882311
:1007F00099F3C82F08C0F70181917F018093F10020
:100800000150110949F78C2FCF911F910F91FF9043
:10081000EF9008958091680687FF13C08091E800EB
:1008200082FF06C08091E8008B778093E80004C0C7
:10083000809166068111F2CF089580916606882323
:10084000D9F38091E80080FFF8CF8091E8008E779F
:10085000ECCF982F9093E900242F762F50E0891742
:1008600031F07091EC002091ED005091F00021FDED
:1008700007C09F5F973071F78093E90081E008958A
:100880003091EB003E7F3093EB003091ED003D7FE7
:100890003093ED003091EB0031603093EB007093BA
:1008A000EC002093ED005093F0002091EE0027FD26
:1008B000E0CF80E00895B0E0A0E0E1E6F4E00C9441
:1008C0009332C8EDD0E088818F7E8883E7EDF0E039
:1008D00080818160808384E082BF81E080935806BC
:1008E00088818E7F888302EE10E0F80110821092DA
:1008F000DA0081EEC82ED12CF601108288818F7724
:10090000888388818068888388818F7D888319BCEB
:1009100010926606109267061092650610926406A1
:1009200090EEE92EF12CF70180818B7F8083888106
:100930008160888342E060E080E00E942904F60143
:1009400080818E7F8083F8018081816080838081B7
:1009500088608083F70180818E7F808388818061B9
:100960008883CDB7DEB7E8E00C94AF32FC0180910C
:100970006E0690916F0686179707A0F061157105B6
:1009800029F49091E8009E779093E80090E061153B
:10099000710551F4911108C08091E80082FF34C0C4
:1009A00080E00895BC01F2CF809166068823C1F1F2
:1009B0008530C1F18091E80083FD30C08091E8006E
:1009C00082FDEACF8091E80080FFE1CF8091F300C3
:1009D0002091F200382F6115710519F0283031058A
:1009E00058F091E02830310509F090E02091E800BE
:1009F0002E772093E800CBCF81918093F100615056
:100A000071092F5F3F4FE7CF80916606882341F041
:100A1000853041F08091E80083FFBECF81E00895EA
:100A200082E0089583E008950895089580915B061B
:100A3000089587E797E7909301088093000888E17D
:100A40009AE00FB6F894A895809360000FBE90933B
:100A50006000FFCF9C014FB7F894809151069091B0
:100A60005206A0915306B09154064FBF821B930BC0
:100A700008952FB7F89460915106709152068091B5
:100A80005306909154062FBF08952FB7F894809184
:100A9000510690915206A0915306B09154062FBF73
:100AA00008959C01FC0132969FEF80E0419146172A
:100AB00051F09F3F19F4411101C0982F8F5F86308C
:100AC000A9F79F3F09F40895290F311D97FD3A9525
:100AD000F9016283089520914F063091500628173E
:100AE000390771F09093500680934F06E0914D06C0
:100AF000F0914E06309721F00084F185E02D0995A4
:100B0000089520914B0630914C062817390771F053
:100B100090934C0680934B06E0914D06F0914E0663
:100B2000309721F00680F781E02D09950895E09136
:100B30004D06F0914E06309729F00190F081E02D9E
:100B40000995089580E00895452B39F0682381E0E8
:100B50006F3F09F080E08170089581E0FCCFDC01F7
:100B60006091470680914806962F891301C0089529
:100B7000292F30E0F901EE0FFF1FE15CF94F4081B2
:100B800051814A175B07A1F487E08A9FA0018B9FE0
:100B9000500D1124495F594F81E0FA018483961367
:100BA000E6CF2F5F3F4F23703327209347060895EA
:100BB0002F5F3F4F922F9370D8CF1092A4051092C1
:100BC000A305E7E0F6E08581811102C01482168258
:100BD000379686E0EF33F807B1F70895B0E0A0E06C
:100BE000E4EFF5E00C9491328FEF9FEF4430510524
:100BF00008F469C04091580541FB882780F990E0CE
:100C0000880F991F42FB002700F910E0000F111F09
:100C1000000F111F802B912B40FBCC24C0F8D12C4E
:100C20008C299D2943FB222720F9C22FE0E0DE2FEB
:100C300053E0CC0FDD1F5A95E1F78C2B9D2B44FB25
:100C4000AA27A0F9B0E0E4E0AA0FBB1FEA95E1F7FC
:100C50008A2B9B2B45FBEE27E0F9F0E0A5E0EE0F99
:100C6000FF1FAA95E1F78E2B9F2B46FB222720F929
:100C700030E0B6E0220F331FBA95E1F7822B932BB9
:100C800047FB222720F930E03695322F222737956F
:100C90002795822B932B20915905322F3170F32EFB
:100CA000E82EF92A26952170B22EBB0CA82EBF285B
:100CB000C501BB0CAA0BBB0BFB0180839183A283F4
:100CC000B38390E080E0CDB7DEB7EAE00C94AD32BC
:100CD00080917B0590917C05909313028093120282
:100CE0000895FA01811101C0FB0109950895ECE80E
:100CF000F4E0818360834283339695E0E430F90722
:100D0000C1F70895FC01EE0FFF1FE80FF91FE4572C
:100D1000FB4F6183408322830895ECECF6E024814D
:100D200030E1231B08F420E0248380918B04816050
:100D300080938B040895ECECF6E0248130E1230FDE
:100D400008F42FEF248380918B04816080938B04BF
:100D500008959091CC06937059F08093CD066093DE
:100D6000CE064093CF0680918B04822B80938B0418
:100D70000895ECECF6E0438120E1421B08F440E0EA
:100D8000818121E0628190E00E94A9060895ECEC47
:100D9000F6E0438120E1420F08F44FEF818121E02A
:100DA000628190E00E94A9060895ECECF6E0628171
:100DB00020E1621B08F460E0818121E0438190E042
:100DC0000E94A9060895ECECF6E0628120E1620F32
:100DD00008F46FEF818121E0438190E00E94A90631
:100DE0000895ECECF6E0818121E043816281885036
:100DF000990B0E94A9060895ECECF6E0818190E041
:100E000021E04381628108960E94A906089590918D
:100E1000CC06937061F081110BC094609093CC0666
:100E200010920F0280918B04862B80938B0408957F
:100E3000883010F09C61F2CF880F880F982BEECF8E
:100E40008091CC0686958695815009F487E061E013
:100E50000E94070708958091CC06869586958F5F3E
:100E6000883008F081E061E00E94070708950E9441
:100E7000770608950E94820608954095282F429F84
:100E8000412D1124842F0895E42FF0E0EE0FFF1F71
:100E9000E558FD4F61A5621B0895E42FF0E0EE0FC9
:100EA000FF1FED55FD4F6081621B0895AF92BF9209
:100EB000CF92DF92FF920F931F93CF93DF93362F42
:100EC000472FE82FF0E0E05CFD4F71110FC0E49177
:100ED0008E2F2E2F6E2F722FDF91CF911F910F919A
:100EE000FF90DF90CF90BF90AF900895C72FD0E0D4
:100EF0002491F22E022F10E056E0659FC0011124CC
:100F0000EFEFF0E0BF010E941832832F90E0880FCE
:100F1000991F35E5369FD001379FB00D11248A1BEC
:100F20009B0B982F990F980F6F01CC1ADD0AC09E6A
:100F3000D001C19EB00DD09EB00D11248B2F499FC2
:100F4000A0011124452F55276F01C41AD50AC09E50
:100F5000A001C19E500DD09E500D11245F01A91A11
:100F6000B108AC9E6001AD9ED00CBC9ED00C11248B
:100F7000CD2CDD24EC19FD09E09FE001E19FD00DAF
:100F8000F09FD00D1124ED2F62307105A1F050F4C7
:100F90006115710509F49ECF6130710581F0EB2F69
:100FA000852F98CF6430710569F080F06630710547
:100FB00009F490CFF4CFE22F2B2F8D2F8BCFE22F80
:100FC000252F88CFEB2F822F2D2F84CF2B2F8F2DE6
:100FD000E52F80CFB0E0A0E0E0EFF7E00C94943292
:100FE0008C01C0911702CC0FCC0FCC0F98E0E92EEA
:100FF000EC0EDE2C88E28E1510F488E2D82E3091AB
:10100000D0063695369521E0320F08F43FEF409137
:10101000C8065091C90690E080E0439F812D539F00
:10102000800D911D1124F82ED0E0CD1550F081E0F7
:1010300097E29E1508F480E0CDB7DEB7E7E00C94A8
:10104000B032FE01ED50FD4F80819091180289234E
:1010500091F06091CD067091CE068091CF062F2D34
:101060004C2FF80109950E945607462F282F672F0D
:10107000CE010E943A072196D8CFEFE6F0E08081BA
:101080008B7F8083E0E8F0E080818F7C808308950F
:10109000CF92DF92EF92FF926B017C0120E030E073
:1010A000A9010E94503381110AC0809180008F7C79
:1010B00080938000FF90EF90DF90CF900895809113
:1010C0008000806280938000C0928304D092840468
:1010D000E0928504F092860420E030E040E051E4A4
:1010E000C701B6010E94A8349B01AC0160E074E224
:1010F00084E79BE40E9455336B017C010E94C73357
:10110000709387006093860020E030E048E452E46A
:10111000C701B6010E94A83420E030E048EC52E458
:101120000E9455330E94C73370938B0060938A00EE
:10113000C1CF80910E02811122C01092C7060E9479
:101140003D08109281061092820610927606109247
:101150007506E7E8F6E080E090E0A0E8BFEB1182DA
:10116000108282839383A483B58317821682389674
:1011700026E0E73CF20799F781E080930E0208959C
:1011800080E00895F894E82FE295EF70F0E031A147
:10119000282F2F7081E090E001C0880F2A95EAF790
:1011A000982F9095932391A392A1892B82A3789451
:1011B00008959091580592FF06C0282F2871283075
:1011C000F9F4877F846093FF06C0282F28712831A7
:1011D000F1F4877E84612091590520FF06C0382FE5
:1011E00038713830D9F4877F816021FF06C0282FFD
:1011F00028712831D1F4877E816194FD877E08951E
:10120000282F24712430F9F68B7F8860DCCF282FBB
:101210002471243101F78B7E8861DDCF382F317145
:10122000313019F78E7F8860E0CF282F217121316E
:1012300021F78E7E8861E1CFCF93DF93EC01823876
:10124000910581F1D8F58133910509F498C020F515
:101250008932910509F488C08A9709F497C0C115AD
:1012600021E5D20708F0B1C0C11530E5D30708F079
:10127000F9C0CF3BD10508F090C0C83AD10508F0BD
:10128000E6C0C53AD10508F0DAC0C430D10520F572
:10129000C130D10509F145C08533910509F45FC01E
:1012A000C997E9F680915805837009F029C18091AA
:1012B000590583FF11C0C9E2D0E00EC0833E9105FD
:1012C00099F170F4803E910501F1823E910539F665
:1012D0008091580582FD21C0CE01DF91CF91089504
:1012E000863E910561F1873E910571F1843E91053D
:1012F00009F0B5CF8091590581FFEECF8091580557
:10130000C7EED0E084FD0DC0E7CF8091580580FD89
:1013100033C09091590590FFDFCFC3EED0E084FF3A
:10132000DBCFD0E0C0E0D8CF8091580582FDE5C08A
:101330009091590590FDE4C084FFCECFF2CF80910B
:10134000580583FDDDCFC8CF8091580583FDDBC0F4
:101350009091590591FFF0CFC4EED0E0BDCF8091C0
:10136000580585FFB9CFA7CF8091580585FDCEC020
:101370008091590583FFB0CFC9E3D0E0ADCF809114
:10138000580586FFA9CFCAE2D0E0A6CF80915805C4
:1013900086FFA2CFC1E3D0E09FCFC11540E2D407C2
:1013A00060F4C11581E0D80708F096CFCE01805EC9
:1013B0009109089708F490CFB4CFC11520E4D20763
:1013C00008F4AFCFDF70D06A87CFC11534E5D307FB
:1013D00078F4C11543E5D40708F06DC0C11582E566
:1013E000D80708F054C0DC2FCC27C16FD06A74CF67
:1013F000C1152AE5D20778F4C11539E5D30708F0FD
:101400006EC0C11548E5D40708F48BCFDC2FCC277C
:10141000C06FD06A61CFCE0190568115904208F01E
:1014200080CF8D2F8F710E94D90890E0982F882748
:1014300088279F719C012C2BE901D0624DCFC55AA2
:10144000D0E0CB5DDD4FC881D0E0D06445CFC85A35
:10145000D0E0CC0FDD1FC85DDD4F0990D881C02DD5
:10146000D4643ACF2C2F26952695237040E2249FF2
:10147000900111248C2F8370C1E0D0E002C0CC0F0A
:10148000DD1F8A95E2F7C22BD32BDD6825CFCE0175
:101490008370992721E030E002C0220F331F8A9524
:1014A000E2F7C695C69580E2C89FE0011124C22BE1
:1014B000D32BDC6811CFCE018370992721E030E077
:1014C00002C0220F331F8A95E2F7C695C69540E207
:1014D000C49FE0011124C22BD32BDA68FDCE8C2FE0
:1014E0008F700E94D90834E0D695C7953A95E1F7F8
:1014F000CF709C2FEC01D069EFCEC2EED0E0ECCEE5
:10150000C0EED0E0E9CEC6EED0E0E6CEC5E3D0E056
:10151000E3CE809590915A05982390935A050895AB
:101520002091810390914003291302C080E0089527
:1015300030E0F90153E0EE0FFF1F5A95E1F7EF5B42
:10154000FC4F5181561306C05081581303C052817D
:10155000541304C02F5F3F4F2770E6CF81E00895FA
:101560008091810390914003981301C008958F5F8B
:101570008770FACF292F943078F58A3068F590E09B
:101580003AE0239F800D911D1124682F677023E09E
:10159000969587952A95E1F7FC01EE0FFF1FE80F5E
:1015A000F91FE75DFC4F50E040E080E0219130E022
:1015B000062E02C0369527950A94E2F7217033274C
:1015C000042E01C0220F0A94EAF7822B4F5F5F4F6F
:1015D0004330510559F7089580E00895292F94303C
:1015E00098F58A3088F590E03AE0239F800D911DB0
:1015F0001124282F277041E001C0440F2A95EAF7F3
:1016000023E0969587952A95E1F7FC01EE0FFF1FE1
:10161000E80FF91FE75DFC4F30E020E070E05191EA
:10162000DF011197CB01022E02C0969587950A948F
:10163000E2F7817081958527842385278C932F5F1E
:101640003F4F2330310559F7089592959F7096309A
:1016500091F058F4925F9F70923058F4803F19F0E7
:1016600030F4883E30F481E008959A5FF4CF843FEF
:10167000D1F380E00895883EB0F3813FD1F7F3CFF6
:10168000982F92959F7011F0892F94E0282F26951E
:10169000269511F09E5F822F869509F09F5F892F16
:1016A00008959C013A9521153F4150F5FC01EE2724
:1016B000F170BC0166277270AC01442754709C0124
:1016C0002227387094FF0EC080E1EF2B09F480E0F0
:1016D000672B09F08062452B09F08064232B89F089
:1016E0008068089581E0EF2B09F480E0672B09F012
:1016F0008260452B09F08460232B19F088600895DF
:1017000080E00895809355067093570660935606BF
:10171000809166068430F9F48093E9008FEF909110
:10172000E800815095FD06C095ED9A95F1F700000F
:101730008111F5CF8091E80085FF0DC050E040E0B9
:1017400063E070E085E596E00E94E0038091E800A8
:101750008E778093E8000895BC0184E00E94820B9C
:101760000895BC0183E00E94820B0895CF93DF931C
:10177000EC0181E08093E9008FEF9091E8008150C7
:1017800095FD06C095ED9A95F1F700008111F5CF12
:101790008091E80085FF14C050E040E068E070E010
:1017A000CE010E94E0038091E8008E778093E800EC
:1017B00088E0FE01ACE5B6E001900D928A95E1F774
:1017C000DF91CF910895019708F40895EFE9FFE0C4
:1017D0003197F1F700C00000F6CF849A31B33F7E15
:1017E00021B320614FB7F8948CE894E0FC0151914B
:1017F000CF0168E021BB000000C057FF31BB550F8F
:10180000000000C000C000C031BB00C06A9591F765
:10181000F5E084309F0751F74FBF8FE594E00197C3
:10182000F1F700C0000008950F931F93CF93DF934B
:101830000BE715E0C7E6D1E0CE010E94F632F801D1
:1018400081938F012196CB38F1E0DF07A9F7CAE831
:10185000D4E0FE0185919491009711F0FC01099567
:101860002C96F5E0CA31DF07A1F7DF91CF911F91E8
:101870000F9108950F931F93CF93DF93843030F52A
:10188000643020F54A3010F5C42FD0E0CC0FDD1FB6
:1018900024E1629FC00DD11D112430E5839FC00D4E
:1018A000D11D1124CE0187960E94F632082F10E038
:1018B000102F0027CE0188960E94F6329801282B1F
:1018C000C901DF91CF911F910F91089590E080E0C1
:1018D000F8CF462F2091560530915705232B99F4C8
:1018E000703F39F4603F79F480915405909155052B
:1018F0000895843040F4743030F46A3020F4672F57
:101900000E943A0C089590E080E00895CF92DF9213
:10191000FF920F931F93CF93DF936C01009170069A
:1019200080918A03082BC7E0D0E010E0FC2EC801AC
:101930000C2E02C0959587950A94E2F780FD0CC0A5
:101940002197A0F7F12C8F2DDF91CF911F910F914F
:10195000FF90DF90CF900895B6018C2F0E94690C04
:101960000E941C09019761F3EECFCF93DF93EC0146
:101970000E94860CBE010E94690C0E941C09DF9126
:10198000CF910895CF93DF93EC014B815C81698106
:1019900088810E94A405811110C08E819F810097CB
:1019A00039F00E941C090E94250BDF91CF91089508
:1019B000888199810E94B50CF6CF80E0F6CFA5E032
:1019C000B0E0E5EEFCE00C94983249835A838981BB
:1019D0009A81662399F0222389F00E94860C182FA1
:1019E000682F89819A810E94EE0A69817A81812F0C
:1019F0000E94690C2596E3E00C94B4320E94BA0A66
:101A0000182FF3CFFC01262F86819781009739F498
:101A1000408151816281738184810E94DF0C08952D
:101A200083E290E00E94F632813289F484E290E011
:101A30000E94F632823259F485E290E00E94F6323A
:101A400091E08F3F09F090E0892F8170089580E048
:101A5000FCCFCF9384E090E00E94F632C82F82E260
:101A600090E00E94F632982F8C2FCF910895DB01E1
:101A7000FC013296259134914217530758F0FC012E
:101A8000349665917491A901CD010E94D63290E0FF
:101A900080E008958FEF9FEF08950F931F93CF93EA
:101AA000DF930BE715E0C7E6D1E0CE010E94F632E6
:101AB000F80161918F01681719F0CE010E9414336B
:101AC0002196CB38F1E0DF0781F7DF91CF911F91AD
:101AD0000F910895DA019C012E5F3F4FF901459166
:101AE0005491F90125913491A217B30758F0FC01E4
:101AF0003496859194910E94D6320E944D0D90E0CB
:101B000080E008958FEF9FEF0895CF93DF93CBEDA3
:101B1000D1E060E0CE010E9414332196C11584E02B
:101B2000D807B9F7DF91CF9108951F93CF93DF9333
:101B3000122F8430E0F46430D0F44A30C0F4C42F63
:101B4000D0E0CC0FDD1F94E1699FC00DD11D1124A1
:101B500090E5899FC00DD11D1124632FCE0187967A
:101B60000E941433612FCE0188960E941433DF91B6
:101B7000CF911F910895CF93C82F6FEF811161E22C
:101B800083E290E00E9414336FEFC11162E284E2BD
:101B900090E00E9414336FEF85E290E00E941433CE
:101BA000CF910895CF93C92F682F84E090E00E94D1
:101BB00014336C2F82E290E00E941433CF91089589
:101BC000AAE0B0E0E6EEFDE00C949332E4E0F5E04C
:101BD00080E5DF011D928A95E9F7E7E0F6E088E30A
:101BE000DF011D928A95E9F784E0C82E85E0D82EA2
:101BF0007F010BE811E0F701D182C0824AE050E09A
:101C0000B801CE0101960E94E63288E0FE013196CD
:101C1000D60101900D928A95E1F789859A85D701C1
:101C200013969C938E931297BAE0CB0ED11CE7E0EB
:101C3000EE0EF11C065F1F4F0B3DF1E01F07D9F6BA
:101C40002A96E8E00C94AF3246E050E06CE170E098
:101C50008CEC96E00E94043310928B040895ECEC17
:101C6000F6E081E1808380911A0290911B02A0919D
:101C70001C0281839283A3838FE784838FEF858304
:101C80000E94240E0895A8E0B0E0E9E4FEE00C9480
:101C90008F328E010F5F1F4F88E0F80111928A95F5
:101CA000E9F796E5E92E92E0F92E6801AA24A394BB
:101CB000B12CF70181917F018F3F09F446C0F89460
:101CC000E82FE295EF70F0E021A18F70A50102C02E
:101CD000440F551F8A95E2F7CA01922F982B91A3C2
:101CE00092A18095892382A3789400C0EAE5F2E06E
:101CF00021E030E0912C812C41914F3F09F467C0E5
:101D0000A42FA295AF70B0E090968C9190E04F70A8
:101D100002C0959587954A95E2F780FD58C0C901A4
:101D2000882A992A220F331F52E0E436F50721F75B
:101D3000F701319780818F3F11F00E94C20880EA3D
:101D40008A95F1F7F60191828082F2E0CF0ED11CE4
:101D50004AE5E41642E0F40609F0ABCF48E050E073
:101D6000B8018EE893E00E94C932892B99F188E08E
:101D7000F801AEE8B3E001900D928A95E1F781E0B9
:101D800080938D030E94450590938C0380938B0371
:101D900080918B0390918C030E942A050597F0F0A7
:101DA00048E050E06EE873E08AE794E00E94C932B0
:101DB000892BC9F088E0EEE8F3E0AAE7B4E00190EF
:101DC0000D928A95E1F781E010928D0308C090E0B2
:101DD00080E0A6CF80918D038111DACF80E0289634
:101DE000ECE00C94AB3280E0EFCF80915A059091FB
:101DF0007106892B80931E0348E050E062E873E08F
:101E00008EE193E00E94C932892BA9F088E0EEE1CF
:101E1000F3E0A2E8B3E001900D928A95E1F7E0913A
:101E20004D06F0914E06309731F00280F381E02D9F
:101E30008EE193E00995089580911402877F809345
:101E40001402909171069D7F9093710684FF08C0E3
:101E50008F7E8093140280915A05826080935A0588
:101E60008091140285FF08C08F7D809314028091B9
:101E70005A05806280935A050E94F50E089590E0FD
:101E800080E00E94810590E080E00E946B05109246
:101E900071060E94F50E089580938A030E943F0FF9
:101EA000089510925A05E0E2F3E086E0DF011D920A
:101EB0008A95E9F70E943F0F0895AAE2B0E0E3E6B1
:101EC000FFE00C94983288E696E02091F100DC0166
:101ED0002D93CD01B6E080379B07B9F78091690655
:101EE000833009F472C0B8F4813009F449C08230FB
:101EF00009F4B3C08091E80083FF96C28091680620
:101F0000909169069A3008F08FC2E92FF0E0E95EFF
:101F1000FA4C0C946D328A3009F48EC08B3009F47F
:101F200071C0893039F780916806813219F7809144
:101F30006C0690916D06009711F00297D9F680918A
:101F4000E800877F8093E8008091E80082FF38C036
:101F50009091F3008091F200029731F48091F100AA
:101F6000813011F0863021F48091F10080935B067E
:101F70008091E8008B778093E8000E940A04BACF32
:101F800080916806813A09F0B5CF8091E800877F9B
:101F90008093E80080916C0690916D06892B61F426
:101FA00068E08CE596E070E00E94B6048091E8005D
:101FB0008B778093E8009ECF60E090E080E0F3CFE5
:101FC000809166068111C0CF95CF80916806813AD5
:101FD00009F090CF80916C0690916D06892B09F0E5
:101FE00089CF8091E800877F8093E8008091E800A6
:101FF00080FFFCCF809116028093F1008091E80071
:102000008E77B9CF80916806813209F073CF8091C5
:102010006C0690916D06892B09F06CCF8091E800D9
:10202000877F8093E8000E940A0480916A0680936B
:1020300016020E94510F5ECF80916806813209F02E
:1020400059CF8091E800877F8093E8000E940A04BE
:1020500080916B0680935A064DCF80916806813A35
:1020600009F048CF8091E800877F8093E800809155
:10207000E80080FFFCCF80915A06BECF803899F0EF
:10208000823809F0D1C180916C068F70873008F0DA
:10209000CBC18093E9008091EB0085FB882780F914
:1020A0001092E90006C08091640690916506911136
:1020B00082609091E800977F9093E8008093F10010
:1020C0001092F1008091E8008E77AAC1882309F46C
:1020D00098C1823009F0A8C180916A0681119BC124
:1020E00080916C068F702FEF280F263008F09CC16E
:1020F0008093E9002091EB0020FF8DC1933031F4F3
:102100008091EB0080628093EB0085C19091EB00A1
:1021100090619093EB0021E030E001C0220F8A959E
:10212000EAF72093EA001092EA008091EB008860C1
:10213000EACF811179C110916A061F778091E3007F
:102140008078812B8093E3008091E800877F8093E3
:10215000E8000E940A048091E80080FFFCCF809193
:10216000E30080688093E30082E0111183E08093B4
:1021700066065AC18058823008F056C120916A061E
:1021800030916B062C3DE3E03E07A1F583E08A83A6
:102190008AE289834FB7F894DE01139620E03EE08F
:1021A00051E2E32FF0E050935700E49120FF03C089
:1021B000E295EF703F5FEF708E2F90E0EA30C0F055
:1021C000C7968D939D932F5F243159F74FBF809110
:1021D000E800877F8093E8006AE270E0CE01019614
:1021E0000E94B6048091E8008B778093E8001CC1C0
:1021F000C096E7CF80916C0690916D06432F5527CE
:102200004330510509F44AC078F54130510509F4CD
:1022100085C08BE590E0E0E1F5E04230510509F042
:1022200003C12091E800277F2093E80020916E06EB
:1022300030916F068217930708F49C0140E0211546
:10224000310509F070C041116EC08091E80082FD37
:10225000C9CF80916606882329F2853019F28091D2
:10226000E80083FFF2CFBECF4132510509F447C0E9
:102270004232510509F0D8C08330910508F0D4C02E
:10228000FC01EE0FFF1FE159FD4F0190F081E02DA1
:1022900084599D4FDC018C9190E01DC03327213083
:1022A0003105E9F02115310579F022303105F9F0D9
:1022B0002330310509F0B8C0EDE7F5E0E4918E2F49
:1022C00090E0EDE7F5E007C0E3EDF5E0E4918E2F57
:1022D00090E0E3EDF5E0009709F4A6C0A2CFE7EBAC
:1022E000F5E0E4918E2F90E0E7EBF5E0F4CFEBE939
:1022F000F5E0E4918E2F90E0EBE9F5E0ECCF833050
:10230000910508F091C0880F991FFC01EB58FD4F13
:102310000190F081E02D89E090E083CF82E190E0B0
:10232000EBE6F5E07ECF80916606882309F45ACF6C
:10233000853009F457CF8091E80083FD53CF809119
:10234000E80082FD82CF8091E80080FF78CF9091F5
:10235000F3008091F2002115310519F088309105C4
:1023600050F041E0089709F040E08091E8008E7756
:102370008093E80064CF44914093F100319621505E
:1023800031090196E8CF803809F04EC08091E8000D
:10239000877F8093E800809167068093F10092CE5A
:1023A000811142C010916A061230F0F58091E80068
:1023B000877F8093E800109367060E940A04112328
:1023C00011F084E005C08091E30087FDFACF81E041
:1023D0008093660642E061EC81E00E94290442E2BB
:1023E00061EC84E00E94290442E261EC82E00E94F8
:1023F000290442E260EC83E00E9429048091660691
:1024000013C080916A06813079F481E0933009F03D
:1024100080E0809365061092E9008091E800877F54
:102420008093E8000E940A048091E80083FF0AC0BC
:102430008091E800877F8093E8008091EB008062C4
:102440008093EB00AA96E3E00C94B432EBE7F5E05E
:10245000128E138E8FEA90E09183808385E0848FC3
:1024600028E833E13383228322E330E0378B268B65
:1024700028EC30E0318F208F158E178E168E20E5D8
:1024800030E031A320A382A30E944D0D0E94510F82
:102490001092590510925805E9E5F5E080818460B5
:1024A000808380915805909159050E94D20D0E9419
:1024B000140C0895AAE0B0E0E0E6F2E10C948E324C
:1024C000A0901002B090110281E090E09093110270
:1024D0008093100280E4C82E83E0D82E712C760100
:1024E00000E014C0F40125913491412F602F872D15
:1024F0000E94950D82E0880E911C1F5F1A3091F7A3
:1025000094E1E90EF11C0F5F043019F0470110E06F
:10251000E9CF7394E0E5CE0ED11CF4E07F12DFCF5B
:102520000E942612CE0101967C01FC0111921A959F
:10253000E9F70BE811E04AE050E0B801C7010E945A
:102540003833065F1F4F0B3DF1E01F07A1F7B09234
:102550001102A09210022A96EDE00C94AA3280E0BB
:102560000E94BB0D60E086E290E00E9414330E945E
:102570005A120E94850D81E00E94BB0D0895CF92F2
:10258000DF92EF92FF928FEF9FEF4430510508F4F6
:102590006AC0FB01C080D180E280F3800E94510FAD
:1025A00080915805C0FA80F9B701A6017695679524
:1025B0005795479540FB81F9B701A60122E0769532
:1025C0006795579547952A95D1F740FB82F9B70152
:1025D000A60133E076956795579547953A95D1F7DB
:1025E00040FB83F9B701A601E4E07695679557951E
:1025F0004795EA95D1F740FB84F9B701A601F5E0CC
:102600007695679557954795FA95D1F740FB85F9EB
:10261000B701A601A6E07695679557954795AA95C7
:10262000D1F740FB86F9B701A601B7E0769567952B
:1026300057954795BA95D1F740FB87F98093580590
:1026400080915905D0FA80F9D1FACC24C0F8C0FAAB
:1026500081F98093590580915805909159050E9400
:10266000D20D90E080E0FF90EF90DF90CF90089542
:10267000882341F08095909171068923809371069B
:102680000E94F50E0895882339F090917106982BD9
:10269000909371060E94F50E0895882321F00E9400
:1026A000890A0E94F50E0895882339F090915A0501
:1026B000982B90935A050E94F50E0895882391F166
:1026C0009CEF980F913A80F4E0E2F3E026E233E0E9
:1026D0009191891303C0DF0111971C922E173F07B8
:1026E000B9F70E94F50E089590E2980F983050F4D3
:1026F000877091E001C0990F8A95EAF7892F0E94AF
:10270000890AEFCF9BE5980F933028F490E080E0A2
:102710000E9481050895885A873120F490E080E076
:102720000E946B050895CF93DF93EC010E945E1326
:10273000CE010E94510B9E01205E310928303105E7
:1027400010F0CD2B29F40E944D13DF91CF91089505
:102750000E943813FACFCF93C82F8823B1F08CEFA3
:102760008C0F813A00F5E0E2F3E086E293E0DF01CE
:102770002D91C21761F08A179B07D1F76C2F8EE15C
:1027800093E00E9451050E94F50ECF91089521918A
:10279000C21303C0DF0111971C928E179F07B9F770
:1027A0000E94F50EEBCF80E28C0F883068F4C77082
:1027B00021E030E001C0220FCA95EAF780915A0566
:1027C000822B80935A05DFCFEBE5EC0FE33040F42A
:1027D000F0E0EB5DFD4F808190E00E948105D5CF58
:1027E000C85AC73190F6EC2FF0E0EE0FFF1FE85DFE
:1027F000FD4F808191810E946B05C7CF1F93CF93BE
:10280000DF93182FC0919B05D0919C05893321F04F
:10281000C0919905D0919A05812F0E94AB13209702
:1028200039F4812F0E945E13DF91CF911F9108959B
:102830008FE99FE00197F1F700C000002197EFCFEB
:102840000F931F93CF93DF93C62FD42F022FFC013A
:1028500082818823A9F0609374060E9445059093B5
:10286000730680937206C77081E001C0880FCA9515
:10287000EAF70E945413DF91CF911F910F910895B1
:1028800080917406681332C080917206909173062D
:102890000E942A05883C910548F510E21D0FCD17CE
:1028A000B9F080E28C0F883040F4C77081E001C03D
:1028B000880FCA95EAF70E944D13183048F481E05A
:1028C0009D2F977001C0880F9A95EAF70E945413C4
:1028D000802F0E94FE13183070F6D77081E001C07F
:1028E000880FDA95EAF70E944D13C5CFC77081E0D3
:1028F00001C0880FCA95EAF7F6CFB0E0A0E0E3E8A0
:10290000F4E10C949132EC018AE0A82E2881222374
:1029100009F48FC02130C9F599818A81913021F461
:1029200022960E94FE1305C0923029F422960E943E
:10293000AB132196EBCF933021F422960E945E13C5
:10294000F8CF943011F02196F4CF229630E020E0B9
:10295000AE014F5F5F4F8053990B8A30910550F065
:102960002150310930F38FE99FE00197F1F700C062
:102970000000F6CFA29EB001A39E700D11249C0111
:10298000260F371F8981EA01E3CFE22FF0E0E95FEC
:10299000F94FB490822F86958695869590E0FC013C
:1029A000E950FA4FE4902770F12C022E02C0F59402
:1029B000E7940A94E2F731E0E322FF24FC01E951B5
:1029C000FA4FC490D12C022E02C0D594C7940A9419
:1029D000E2F731E0C322DD24FC01E952FA4F049111
:1029E00010E002C0159507952A95E2F701701127AE
:1029F000E114F10419F081EE0E94AB13C114D1046B
:102A000019F086EE0E94AB138B2D0E94FE13C114A9
:102A1000D10419F086EE0E945E13E114F10419F05E
:102A200081EE0E945E130115110509F482CF8CE23C
:102A300078CFCDB7DEB7EAE00C94AD32CF93DF9319
:102A4000EC010E94510B9E01205E310928303105B6
:102A500010F0209741F40E9454138C2F0E94AB1366
:102A6000DF91CF9108950E944313F7CF662329F099
:102A7000209171062260209371069C013056211529
:102A800040E2340720F0305E2115304108F49927E8
:102A90000E941E150895B0E0A0E0E1E5F5E10C9478
:102AA00094327C018B01D42E8091140282FF8CC061
:102AB000C091A105D091A205CE15DF0521F0E1144A
:102AC000F10409F081C0809114028B7F809314027D
:102AD00081FD73C080919F059091A005A801481BBE
:102AE000590B81E0209112023091130242175307D3
:102AF00008F480E08170F82E80911402F0FA81F9D8
:102B000080931402FE0183E0F695E7958A95E1F73C
:102B1000EE71FF27E55AFA4F20813181AE014F70E7
:102B2000552781E090E002C0880F991F4A95E2F78F
:102B3000FF2009F444C0822B932B918380838091E2
:102B40005A0581FF08C080911402806180931402AD
:102B500082E00E94890A80915A0585FF08C0809111
:102B6000140280628093140280E20E94890A6F2D11
:102B7000CE010E943615DD2031F08091960585FF4B
:102B800002C086FF3BC08091990590919A050E94F2
:102B9000E30B8091A1059091A2059C01305621156F
:102BA00040E2340720F0305E2115304108F49927C7
:102BB0000E9493130E941C0F1DC081E09BCF809543
:102BC000909582239323B9CFC70199279701305657
:102BD000211540E2340728F0305E2115304108F01D
:102BE000C7010E9493138091A1059091A2058E15B3
:102BF0009F0501F31093A00500939F05CDB7DEB7A5
:102C0000E7E00C94B03290E080E00E94FE32883E13
:102C10009E4F19F40E94100D089580E0089568EE0B
:102C20007EEF90E080E00E94323360E082E090E04E
:102C30000E94143360E083E090E00E94143310920D
:102C40008A0360E084E090E00E94143364E082E252
:102C500090E00E94143360E085E090E00E9414331D
:102C600060E086E090E00E9414336FEF87E090E030
:102C70000E94143340E050E0BA0188E090E00E94E6
:102C8000263360E08DE090E00E94143340E050E095
:102C9000BA0188E190E00E94263360E087E190E08D
:102CA0000E94143340E050E0BA018CE190E00E94B1
:102CB000263370E060E080E290E00E94323340E032
:102CC00050E0BA0188E190E00E94263380E00E9443
:102CD000BB0D0E94AF1240E050E0BA018FE090E0DF
:102CE0000E94263340E050E0BA0183E190E00E9468
:102CF0002633089580918306811141C00E940316F6
:102D0000811102C00E940F1687E090E00E94F63207
:102D100080938406E7E8F6E080E090E0A0E8BFEB6F
:102D20001182108282839383A483B58317821682D3
:102D3000389626E0E73CF20799F7809183068111E7
:102D40000CC00E943D08269A82E0809380008AE1B0
:102D50008093810081E0809383060E94990880918E
:102D6000840680FF06C063E070E086ED91E00E947B
:102D70006F170E9445059093780680937706089513
:102D8000B0E0A0E0E6ECF6E10C948E324B015C0181
:102D90007A018091840680FF81C080918306811131
:102DA00002C00E947A1620E030E0A901C501B401FA
:102DB0000E94503387FF04C0B7FAB094B7F8B094BC
:102DC0007090C706872D8150990B6C01EC01CF3FA5
:102DD000DC0709F04DC081E0870D893008F47CC024
:102DE00088E08093C70687E896E028E0FC013896E3
:102DF000DC0101900D922A95E1F7089626E08F3BC1
:102E0000920799F781E08093820480938206C091B3
:102E1000C706C150DD0B0E944505FE0123E0EE0F01
:102E2000FF1F2A95E1F7E957F94F9183808382824A
:102E30009382A482B582F782E6820E944505809142
:102E40000E02882359F180916F00846080936F0097
:102E50008091800080628093800080918206882328
:102E600021F00E9463030E94480810920E0216C0CF
:102E70008E0133E0000F111F3A95E1F70957194F02
:102E8000A5019401F80162817381848195810E947A
:102E9000503381111FC0CC15DD052CF0CDB7DEB746
:102EA000EDE00C94AA32219688E0F8013896D8011A
:102EB00001900D928A95E1F70E944505F8019187EE
:102EC000808782869386A486B586F786E686085F25
:102ED0001F4FE1CF21977BCF8093C70693CFCF922F
:102EE000DF92EF92FF92CF93DF93EC017B01809111
:102EF000840680FD09C00E949908DF91CF91FF9060
:102F0000EF90DF90CF90089580918306811102C0E9
:102F10000E947A168091820681110E94990881E0B0
:102F20008093810610928006D0937F06C0937E0620
:102F3000F0927D06E0927C0610927B0610927A0653
:102F4000109279066C817D818E819F810E94C733AA
:102F50009B01A0E6BAEE0E947A32C12C2EE1D22E5D
:102F6000E12CF12CA70196010E942C326881798115
:102F70008A819B81A9010E94C0160E9445059093F9
:102F8000780680937706E0917E06F0917F06809127
:102F9000790690917A0633E0880F991F3A95E1F708
:102FA000E80FF91F64817581868197810E94C7337C
:102FB0009B01A0E6BAEE0E947A32A70196010E9418
:102FC0002C32309376062093750697CF62E070E03E
:102FD0008EEF91E00E946F172FEF81EE94E0215069
:102FE00080409040E1F700C000000E949908609185
:102FF00084066E7F6093840687E090E00E9414331D
:1030000008956091840661606093840687E090E093
:103010000E94143362E070E08EEE91E00E946F1720
:103020000895CF93DF930E94510F0E944505EC0154
:1030300063E070E080E391E00E946F17CE010E9490
:103040002A058A3F910528F00E949908DF91CF91C7
:1030500008958FE99FE00197F1F700C00000EECFDF
:103060000E94111888E19AE00FB6F894A895809311
:1030700060000FBE90936000FFCFCF93C82F0E94D7
:10308000400B823069F0833081F0813031F461E0AF
:1030900070E088E291E00E946F178C2FCF91089525
:1030A00062E070E088E191E0F6CF63E070E080E0FC
:1030B00091E0F1CF0E943D18809370060E943F0F6F
:1030C000089580917006982F9670963021F488604C
:1030D0000E945A180895877FFBCF21E030E001C09D
:1030E000220F8A95EAF720958091700682230E942C
:1030F0005A18089521E030E001C0220F8A95EAF7BE
:1031000080917006822B0E945A180895A4E0B0E0C6
:10311000ECE8F8E10C9490327C01FC01438154818D
:10312000618180810E94A4058111C9C061E0C7014D
:103130000E94020D8C01F7018281882309F483C665
:10314000980122513F452031310508F067C68FEFC5
:1031500093E00E94F6328111B2C05EEEF52EF00EC1
:103160000BED11E0F11036C019821A821B821C820D
:10317000BB24BA9478012FEFE21AF20AC8010E9428
:10318000F63289831A82882309F499C0813009F0C4
:1031900087C0680142E0C40ED11CC7010E94F6320C
:1031A000E82E8A83882309F48AC0C6010E94F63279
:1031B000F82E8FEF8E0D8330D8F4680153E0C50EE2
:1031C000D11CFB82FF2021F0CE0101960E947D14CC
:1031D0008601D0CF0115F4E01F0709F470C0C801C3
:1031E0000E94F632811101C0FA940F5F1F4FBACFCF
:1031F0008BEF8E0D833070F5C8010396FB826C0156
:10320000FF2031F36801E4E0CE0ED11C0E94F632BB
:103210008C838823E9F20B811C810130FFEF1F07AB
:1032200010F0102F002726E0E21681F047E0E416A8
:1032300049F0C8010E9406258091990590919A0550
:103240000E94E30BC8010E94E124C2CFC8010E9482
:103250000625BECF54E0E512BBCF680184E0C80E5E
:10326000D11CC80103960E94F632FF2041F1882349
:1032700031F18150990BB89E9001B99E300D112407
:10328000EF2DE150FF0BCF01820F931F019708F440
:103290009FCFEFE9FFE03197F1F700C00000F6CFD4
:1032A000CE0101960E947D14670192CF81E00E94B9
:1032B0007A1803C081E00E946D180E94611824965C
:1032C000EBE00C94AC3282E0F2CF0E314CE5140707
:1032D00029F4882309F10E94E617F1CF0F315CE54C
:1032E000150739F48823C1F08091840680FDF3CF5F
:1032F000A7C50A329CE5190759F4882369F0109292
:10330000860664E070E088E491E00E946F17D7CFF2
:103310000B32ECE51E0789F38091960580FF34C0DF
:103320000E9445056C01F7018281882309F457C08A
:103330008091140282FF08C021EA33E040E0B60128
:1033400090E080E00E944B150B31FCE51F07C9F1AE
:103350000C312CE51207D9F190911402892F8E7F40
:1033600090FF81600A314CE51407A1F1C801905625
:10337000811550E2950720F0905E81159041E8F5A7
:103380001092A2051092A105033F5CE5150709F410
:1033900066C108F008C1083D9CE5190709F45BC146
:1033A000093DECE51E0709F466C1073DFCE51F0772
:1033B00009F008C126E241EE61EEC7010E94201427
:1033C0007ECF80911402816080931402CFCF8091D0
:1033D00014028E7F809314020E941C0FC7CF80912D
:1033E00014028F7E013E110531F0053E1105C1F436
:1033F000809114028F7D809314028091140280FFCB
:10340000C3CFF70182810832110528F50E3111056D
:1034100008F068C00430110580F58111B1CFB4CF38
:10342000C80190568115F0E29F0720F0905E81154B
:10343000904118F78091140282FFA6CF80919805E1
:1034400081FDA2CF21EA33E040E0B60190E080E0C8
:103450000E944B1599CF0933110558F40D3211050F
:1034600018F40B321105C9F69091960592FDD5CF4F
:1034700008C004361105C1F3D0CF9091960594FD94
:10348000CCCF882309F488C090915A05892F8D7F6D
:1034900071F11092A2051092A1058091960581FD0F
:1034A00026C0F80133E0F695E7953A95E1F7EE711D
:1034B000FF27E55AFA4F98012F70332781E090E0FB
:1034C00002C0880F991F2A95E2F780959095208178
:1034D0003181822393239183808360E0C8010E941D
:1034E0003615EDCE9091960593FD97CFCACF88E023
:1034F000F701A1EAB3E001900D928A95E1F71092ED
:10350000A3031092A5031092A403E090A105F090EC
:10351000A2050E151F0581F58091960585FF2CC02B
:103520002091140221FBBB24B0F821FF02C086FFCA
:1035300023C020919F053091A005A601421B530B8B
:10354000483C5105C8F491FF08C080911402806185
:103550008093140282E00E94890A80915A0585FFB7
:1035600008C08091140280628093140280E20E945D
:10357000890A6B2DC701B3CF8091140291FB81F9A9
:103580001093A2050093A105D092A005C0929F05BB
:1035900084608093140293CE970140E0B601C80185
:1035A0000E944B158CCE053F2CE5120709F45FC035
:1035B00008F459C027E245EE66EE063F5CE51507C4
:1035C00009F4FBCEF7013281332309F447C410928A
:1035D00074060330FDE51F0708F050C00A3F2CE5D4
:1035E000120730F4C80182509C45449708F052C03D
:1035F0000E94290D909359058093580502319CE54E
:10360000190709F484C108F0BAC00930FCE51F07A6
:1036100009F44BC108F08BC005304CE5140709F4E0
:1036200038C108F072C003308CE5180709F429C1CD
:1036300008F02BC18091580581600230ECE51E072F
:1036400009F49AC080915805909159050E94D20DB5
:103650000E94510F34CE27E245EE65EEAECE26E253
:1036600041EE60EEAACE27E245EE64EEA6CE26E25B
:1036700041EE62EEA2CE28E241E0EFCF053A4DE501
:10368000140709F4B5CF08F03AC001368DE51807E4
:1036900009F4AECF06315CE5150709F001C280914F
:1036A0005A05982F9A7A2091950520FF04C0482F3B
:1036B000447409F090E021FF04C0482F417109F0E3
:1036C00090E022FF04C0482F487809F090E023FFE3
:1036D00003C0827209F090E0332309F452C181E003
:1036E000911101C080E08093260369E2911165E3A6
:1036F0008EE193E00E9451050E94F50EE0CDC801D5
:103700008D5A9D45039730F673CF8091580580629E
:103710000730FCE51F0781F1809158058061083072
:103720002CE5120748F180915805806425C00D30C2
:103730004CE5140709F4D3C058F40B308CE5180796
:1037400009F4C5C008F4B7C0809158058D7F14C036
:103750000F30ECE51E0709F4D2C008F4C4C00031F4
:103760002CE5120709F4CFC0809158058F7B0131F9
:103770004CE5140709F066CF8093580563CF0F3FDF
:103780005CE5150709F4D3C0E8F50A3F9CE5190785
:1037900009F483C0E0F40431FCE51F0709F4DFC03D
:1037A00008F4BBC005314CE5140709F04BCF8091FC
:1037B000580582FB992790F921E0922790FB82F926
:1037C00090FB83F98093580583FFACC079C00C3F10
:1037D0005CE5150709F48BC008F463C00D3F9CE558
:1037E000190709F488C00E3FECE51E0709F02ACF3F
:1037F0008091590583608093590564E070E088E802
:1038000091E062C00136FDE51F0709F4B3C090F4F2
:1038100001304DE5140709F4ABC008F492C060E034
:1038200002308DE5180709F00DCF8EE090E00E9480
:10383000143308CF0D3A9DE51907E9F060F4909133
:103840005805892F8E7F90FF8160053AFDE51F079F
:1038500009F492CFF7CE0E3A2DE51207E1F10F3AB7
:103860004DE5140709F0EECE90915905892F877F19
:1038700093FF886003C08091590588608093590543
:10388000E1CE80915805826077CF809158058460A1
:1038900073CF8091580588606FCF80915905816002
:1038A000EDCF809159058260E9CF0E94510F809140
:1038B0005805806861CF809158058C6080935805C9
:1038C00064E070E088EA91E00E946F17BBCE8091BF
:1038D00058058E7F51CF80915905877FCFCF80913A
:1038E00058058B7F49CF80915805877F45CF8091C0
:1038F00059058E7FC3CF809159058D7FBFCF8091B1
:1039000058058F7E39CF809158058F7D35CF0E9425
:10391000510F809158058F772FCF80915805837F65
:103920008093580562E070E088E791E0CDCF809108
:1039300059058C7F8093590562E070E088E691E03C
:10394000C3CF80915905982F909591708E7F892BC8
:1039500090FB81F98093590581FFEECF4ECF0E94F5
:10396000510F90915805892F97FB87F9805804CF04
:1039700061E05BCF90915805892F8F7E94FF806125
:10398000FBCE8091260381110FC089E2E0E2F3E0D3
:1039900026E233E09191891303C0DF0111971C9255
:1039A0002E173F07B9F7A8CE85E3F0CF073C9CE57B
:1039B000190709F45EC008F457C0083CFCE51F076E
:1039C00009F45CC049EB56E067EC76E0093C2CE575
:1039D000120709F065C20E94710671CC0E3C4CE5DD
:1039E000140709F45AC080F40C3C9CE5190709F44B
:1039F0004FC04DE856E06BE976E00D3CECE51E0764
:103A000050F361E081E00BC0063DFCE51F0750F478
:103A100061E084E0003D2CE5120708F050CC0E94E4
:103A200007074DCC0D35100709F449CC39C28091F8
:103A3000CC0691E089278093CC0610920F028091EA
:103A40008B04816080938B043ACC40E257E06BE2B8
:103A500077E0C1CF4BE257E060E277E0BCCF41EFC7
:103A600056E06CEF76E0B7CF4CEF56E061EF76E0D2
:103A7000B2CF45ED56E063EE76E0ADCF43EE56E0D3
:103A800065ED76E0A8CF47EC56E069EB76E0A3CF92
:103A90004BE956E06DE876E09ECF61E083E0BFCF72
:103AA0000E3D5CE5150761F0073A8DE5180751F00A
:103AB00001151C4509F0F4C10E9411180E94190556
:103AC0000E940F160E94301800811181C801332313
:103AD00061F00E94860CD82E682FC8010E94EE0A61
:103AE000B8018D2D0E94690CE1C10E94BA0AD82E3E
:103AF000F7CFF02FFF709F2E802F807F19F09294C8
:103B000090EF9922DD20C9F0992069F080E2810FC1
:103B1000883010F011110BC080915A05982A9092AC
:103B20005A050E94F50E812F0E94AB1316C080919A
:103B30007106982A90927106F4CF812F0E945E132D
:103B4000992059F080E2810F883010F011111DC0CA
:103B5000892D0E94890A0E94F50E28E0A21AB10858
:103B600044E0A416B10410F40E949705812F902F11
:103B70000E94250B811133C1109228031092270354
:103B800060E0C7010E94020D9ACB9094809171066B
:103B9000982290927106DFCF202F2F70922E802FC7
:103BA000807F803219F0929480EF9822113081F456
:103BB00080919D05DD2031F08C1578F2892D0E94D1
:103BC0005413CBCFC81648F6892D0E944D13C5CF8C
:103BD000DD20B1F0CC2091F320E0F701408151814C
:103BE0006281738184810E94DF0C8091980581FD40
:103BF0009ACFF701858180FF96CF8F708583DECFC6
:103C0000CC2011F380919B0590919C05193321F0F4
:103C10008091990590919A050E94E30B812F0E9453
:103C20005E139BCF802F86958695837069F08130D7
:103C300009F093CF812F902F9370D11002C090E0A4
:103C400080E00E946B0589CF812F902F9370D11057
:103C500002C090E080E00E9481057FCF802F8370BA
:103C600091F5D1107ACF412F429546954770440F78
:103C7000440F812F8F70042E01C0880F0A94EAF739
:103C8000212F207114FF07C02FE030E001C0220F68
:103C90004A95EAF72095302F3695369533703230B5
:103CA00069F050F440918A03313029F0822B84234B
:103CB0000E944C0F52CF842B822BFACF282B80915D
:103CC0008A038227F5CF8695DD2011F0802F817041
:103CD000882309F442CF412F429546954770440FFF
:103CE000440F812F8F70042E01C0880F0A94EAF7C9
:103CF000212F207114FF07C02FE030E001C0220FF8
:103D00004A95EAF72095302F369536953370323044
:103D100069F050F440917006313029F0822B8423F1
:103D20000E945A181ACF842B822BFACF282B80910D
:103D300070068227F5CFF02FFF709F2EDD2029F02F
:103D40008F2F0E947A18812F3ACF812F0E944D1316
:103D5000892D0E946D1801CF113F81F148F4103F69
:103D6000B1F0DD20B9F1C110DECE802F8F712AC0F5
:103D7000123F59F1133FA9F780E0DD2089F281E07D
:103D8000902F9F7101C0880F9A95EAF7C9CF809153
:103D90009D05DD2079F0C81608F0DFCE202F2F71A9
:103DA00081E090E001C0880F2A95EAF790917006B3
:103DB0008927B6CF8C1508F4D0CEF0CF802F8F7125
:103DC000DD2039F20E947A18C8CE802F8F71DD2055
:103DD000C9F3BFCFC11016CF802F8F71BACFDD20AE
:103DE00019F0C110C9CECCCEC110C6CE20E0F7016B
:103DF000408151816281738184810E94DF0C8091B6
:103E0000980583FFB9CE80912703909128030297EC
:103E100009F0B2CE812F0E94FE13AECE0031FFE535
:103E20001F0709F443CA01312FE5120709F44BCAF1
:103E30000D312CE5120709F048CA882309F46CCA31
:103E40000E9401183CCA00314FE5140709F432CA38
:103E500001315FE5150761F782E02DCA06318CE577
:103E6000180709F41CCC80915A0582720A3C9CE523
:103E7000190709F408CE08F0B1CD053CFCE51F0791
:103E800009F4EDCD08F092CD033C4CE5140709F49C
:103E9000DCCD08F0DFCD023C8CE5180709F4C7CD76
:103EA000F70186819781009709F40ECE0E941C09C4
:103EB000182F092FF701D280C580C2942FE0C222AB
:103EC00092959F70A92EB12C9C3008F046CEF5013A
:103ED000EF5DFA4C0C946D32EF92FF920F931F93AB
:103EE000CF93DF9380913D03807F09F04CC0809198
:103EF0003A03882309F447C0C0918103E09040034E
:103F0000D0913803F090390300913B0310913C03AA
:103F1000EC16C9F1A8016F2D8D2F0E94A4052C2F3E
:103F200030E0811135C0F90183E0EE0FFF1F8A9563
:103F3000E1F7DF01AF5BBC4F11968C9111978F11A8
:103F400027C08C918D1324C012968C9112978111E9
:103F50001FC013968D919C91801B910B883C9105FD
:103F6000B8F480913D038F70806180933D03EA5BDC
:103F7000FC4F80818F708061808388E393E00E9492
:103F800086180E94B00ACDB7DEB7E6E00C94B132D5
:103F90002F5F3F4FC22FC770BBCFA5E1B0E0E3ED6D
:103FA000FFE10C948B328C0185E0F801DE01519623
:103FB00001900D928A95E1F7D8016C9011967C9052
:103FC00011971296EC9012971396CD90DC9060E0CA
:103FD00088E393E00E94020D88E3A82E83E0B82EC8
:103FE000509038034090390380903B0390903C03FD
:103FF000A401642D852D0E94A40581115CC1F0905F
:104000003A03960128193909FF2009F417C1809154
:104010003D03982F907F283C310508F0D2C0F8016D
:104020002181911181C0FE2C24111FC09081951116
:104030001CC040913E0350913F03268137814217B7
:10404000530799F4E11011C08F70806180933D0394
:10405000C5010E94861880913D03D80115968C9366
:104060008F2D6596E0E10C94A732A601672D862D71
:104070000E94A405D82E81E08E25D11080E080FF1B
:1040800018C04E2D672D862D0E94900A882389F036
:104090008091980580FF0DC088E393E00E94861808
:1040A00088E0E8E3F3E0DF011D928A95E9F7F12C5F
:1040B000D7CF81E08E25D11080E0B82FB170DB2EF4
:1040C00080FF29C04E2D672D862D0E94900AC82E94
:1040D000811121C0698A7A8A89899A890E94B50CDE
:1040E000292F22952F70223050F0243078F49F70C1
:1040F00051F0F8019581907F31F4FC2CB1CF9F7085
:1041000011F08823D1F3805E8830B8F3C8010E9493
:104110008618CD2CF2CFEE2009F4A2CF80913D037A
:10412000816080933D03C3CF24111BC09081951102
:1041300018C040913E0350913F03268137814217BA
:10414000530779F4E1100DC08583C8010E948618D9
:1041500088E0F801A8E3B3E001900D928A95E1F7B9
:104160007FCFC8010E94C20C882339F1EE2029F1CB
:1041700080913D038032A0F02091380330913903C3
:104180003A8729871B86DD86CC868E8780913E0301
:1041900090913F03988B8F87CE0109960E948618D5
:1041A00088E0F801A8E3B3E001900D928A95E1F769
:1041B0000E946C1FFF24F39453CFC8010E948618FD
:1041C000F9CF992309F468CFF8019181941118C0AF
:1041D0009081951115C040913E0350913F03268177
:1041E00037814217530761F4E1100AC08583C80183
:1041F0000E94861888E0D5011D928A95E9F730CF94
:10420000C8010E94C20C8823C1F2EE20B1F2809155
:104210003D03803228F220913803309139033A83EC
:1042200029831B82DD82CC828E8380913E03909114
:104230003F0398878F83CE010196B0CF283C31058C
:10424000C8F6FE2CEE2009F4B8CFF8018181841164
:1042500024C08081851121C020913E0330913F030D
:104260008681978128173907C1F48091980582FDCE
:104270006FCF90913D0390FD6BCF907F09F468CF95
:1042800080913D038583903F09F45FCF982F907F05
:10429000905F8F70892B858358CFC8010E94C20C14
:1042A00081117ECF80913D03816080933D03C801E1
:1042B0000E948618D5CEEE2009F47FCFC8010E9457
:1042C000C20CF82E882309F478CF88E0F801A8E31F
:1042D000B3E001900D928A95E1F7809138039091B7
:1042E00039030E94B50C0E946C1FBACEA0E1B0E069
:1042F000ECE7F1E20C94993229873A874B875C8787
:104300006D877E878F87988BCE0109960E94CD1F7F
:1043100081112FC088E0FE013996DE0111960190CF
:104320000D928A95E1F74C855D856A8589850E94A5
:10433000A40581111EC0A0914003B0E0CD010196FB
:10434000877099272091810328171906E1F093E0DF
:10435000AA0FBB1F9A95E1F7AF5BBC4F98E0FE0137
:10436000319601900D929A95E1F7809340030E9457
:10437000B00A8091810390914003891312C0609626
:10438000E2E00C94B5320E94510F1092400310925B
:10439000810388E0E8E3F3E0DF011D928A95E9F705
:1043A000E8CFB8E08B9FC00111248F5B9C4F0E9427
:1043B000CD1F882321F38091810390E001968770BF
:1043C000992780938103D5CFEF92FF920F931F938C
:1043D000CF93DF938091A605882361F0C091A50556
:1043E0008CE0F82E8091A605C81748F01092A6051B
:1043F0001092A505CDB7DEB7E6E00C94B132EE24FD
:10440000E394EC0EE092A5050C2F10E0CF9DE001A7
:104410001124C955DA4F4B815C81698188810E94E2
:10442000A40581111DC08E819F81892B21F488856F
:104430009985019651F4288139814A815B816C818B
:104440007D818E819F810E947621F09EF001F19EF8
:10445000F00D1124E955FA4F14821382109271065F
:10446000CE2DC0CF10924A06109249061092150226
:1044700080914806809347060E94DD050E94E42152
:104480000895B0E0A0E0E7E4F2E20C948A32C09133
:10449000470697E0892E01E010E02CE0322E3EEF37
:1044A000932E44244394809148068C1309C00E94A3
:1044B000E4210E94DD05CDB7DEB7E1E10C94A63220
:1044C000D0E0FE01EE0FFF1FE15CF94F808191818A
:1044D000889ED001899EB00D1124A95FB94F149612
:1044E0002C911497211158C05090A605E7EAF5E0E9
:1044F00030E020E0712C5D01251508F04BC0E2840E
:10450000F384D501CD90DC906FEF7FEF612C462DC9
:1045100050E0DA01AA0FBB1FAC0DBD1D0D90BC9180
:10452000A02D109731F0EA16FB0609F4BA01639446
:10453000EECF6F3F7607A9F1D80102C0AA0FBB1FCB
:104540006A95E2F77A2AB801062C02C0660F771F37
:104550000A94E2F7AB014150510974161506F9F4BB
:10456000329EF001339EF00D1124E955FA4F889EDA
:10457000D001899EB00D1124A95FB94F12962D91DB
:104580003C9113973783268390829182918780870D
:1045900015964C920E94AF052196C37084CF148269
:1045A00013822F5F3F4F3C96A7CFA9E1B0E0EBED20
:1045B000F2E20C948932942F498B252F5A8B6B8B06
:1045C0007C8B8D8B4C895D89622F892F0E94A4057D
:1045D000811109C08091270390912803019690933F
:1045E0002803809327038B898111109271061D8601
:1045F0001E861F86188A85E0FE017196DE011996D7
:1046000001900D928A95E1F74C855D856A858985D3
:104610000E94A405811111C061E0CE0109960E949B
:10462000020D6C018B8527EFC2162CE5D20681F4B2
:10463000882321F181E08093150229853A854B85F5
:104640005C856D857E858F8598890E947621C6C0A0
:1046500038EFC3163CE5D30629F4882379F00E948D
:104660003222EBCF49EFC4164CE5D40639F4882347
:1046700029F0809115028111F2CFDCCF07E016E01E
:10468000512CB12CA12C22242394312C2EEF422E1C
:10469000F8014081518188248A94982C20E0822F4F
:1046A00090E0FC01EE0FFF1FE40FF51F60817181A8
:1046B0006115710531F0C616D70609F44C012F5F5C
:1046C000EECFF12CFFEF8F169F0609F449C0F801D9
:1046D0004481F09015028F2D411180E0F82FF17088
:1046E000FF2EF801E58086819B85992309F4F8C0A7
:1046F000FF2009F4F5C06090910570909205E110DB
:1047000013C0A101082C01C0440F0A94EAF7842BBE
:1047100086838091A3059091A4058615970520F4C2
:104720007092A4056092A305C10102C0880F991F71
:104730002A95E2F70197F80126812817190681F4D6
:104740008091490690914A06009709F44BC00E9457
:104750002A056816790608F045C021E0F80124838F
:104760005F28FFEFAF1ABF0A095F1F4F28E0A216AC
:10477000B10409F08DCF8B85882309F40DC1552034
:1047800009F40AC10E94450590934A0680934906A0
:104790008091A605883010F591E0980F9093A605BA
:1047A00098E0FE013996DE01119601900D929A95DE
:1047B000E1F73CE0839FC001112489559A4F28E01E
:1047C000FE013196DC0101900D922A95E1F72FEF61
:1047D0003FEFFC0131872087D386C2866996E2E1EC
:1047E0000C94A5328091470650914806982FF0E02E
:1047F000E0E0851314C0909347060E171F0709F4D5
:10480000AFCF90E0FC01EE0FFF1FE15CF94FB182EA
:10481000A08201968370992780934806A1CF682EC5
:10482000712CF301EE0FFF1FE15CF94F2081318104
:1048300047E0429FD001439FB00D1124A95FB94FBB
:104840006D917C911197798F688F40E020E030E086
:10485000E32FF0E0EE0FFF1F688D798DE60FF71F55
:104860008080918081149104E1F0F8010190F08141
:10487000E02DFF8BEE8B20E005C08616970609F42D
:104880004F2D2F5FE22FF0E0EE0FFF1F6E897F8923
:10489000E60FF71F608171816115710571F73F5F48
:1048A000D7CF4423D1F0F801231708F0FD0121E010
:1048B00024830E171F0721F490934706F42E50CF40
:1048C000981305C0AE17BF0711F49F5F9370930153
:1048D0002F5F3F4F822F83708CCFF0E0E0E0F7CF67
:1048E00090E0E11020C0B10102C0660F771F2A9549
:1048F000E2F79B01215031092817390731F444238D
:1049000009F448C0C5010E94AF05C101082C01C0CF
:10491000880F0A94EAF7982F9095F80186818923E9
:104920008683FE2C1DCF9C01082C02C0359527954F
:104930000A94E2F7A90141705527BC016150710941
:1049400086239723892B11F5452B01F1F8018281EC
:104950009381892BC1F01B821C821D821E82498299
:104960004A820E9445058160582F9D838C83F801FF
:10497000828193818F83988729813A814B816D81D0
:104980007E810E947621F8011582BFCFF22FF1704F
:10499000EF2EBBCFEF2CB9CF909147068091480600
:1049A000981731F00E944122552009F446CE16CFC7
:1049B0000E94E42110924A06109249060E94DD05E9
:1049C000F3CFA5E0B0E0E7EEF4E20C9499329093D7
:1049D000550580935405811520E2920730F40E941A
:1049E00093132596E2E00C94B53280EF89838A8395
:1049F0001B820E9445058160782F9D838C834981AD
:104A00005A816B818D810E94D522EBCFA5E0B0E069
:104A1000ECE0F5E20C94993290935505809354059F
:104A2000811520E2920730F40E941E152596E2E0DF
:104A30000C94B53280EF89838A8381E08B830E9456
:104A400045058160782F9D838C8349815A816B81D4
:104A50008D810E94D522EACF1F920F920FB60F923E
:104A600011242F933F934F935F936F937F938F9373
:104A70009F93AF93BF93CF93DF93EF93FF93D09127
:104A8000E900DF708091EC00C82FC17080FDC0E8A4
:104A90001092E9008091F000877F8093F000789475
:104AA0000E945D0F1092E9008091F0008860809371
:104AB000F000CD2BCF70C093E900FF91EF91DF9113
:104AC000CF91BF91AF919F918F917F916F915F91A6
:104AD0004F913F912F910F900FBE0F901F901895FF
:104AE0001F920F920FB60F9211242F933F934F9363
:104AF0005F936F937F938F939F93AF93BF93EF9346
:104B0000FF938091E10082FF09C08091E20082FF63
:104B100005C08091E1008B7F8093E1008091DA00F5
:104B200080FF24C08091D80080FF20C08091DA00EF
:104B30008E7F8093DA008091D90080FFA3C080E14E
:104B400089BD82E189BD09B400FEFDCF81E080937B
:104B5000660680915806811109C00E9490030E9448
:104B60005B048091E20084608093E2008091E10028
:104B700080FF17C08091E20080FF13C08091E200A7
:104B80008E7F8093E2008091E20080618093E2005A
:104B90008091D80080628093D80019BC85E0809312
:104BA00066068091E10084FF31C08091E20084FFBD
:104BB0002DC080E189BD82E189BD89B5982F9170B2
:104BC00080FFFBCF8091D8008F7D8093D8008091AB
:104BD000E1008F7E8093E1008091E2008F7E8093E0
:104BE000E2008091E20081608093E200809167069C
:104BF000882309F44DC084E0809366060E94510F1B
:104C00000E94970510925906809166068091E100F6
:104C100083FF27C08091E20083FF23C08091E100E1
:104C2000877F8093E10082E080936606109267069A
:104C30008091E1008E7F8093E1008091E2008E7F81
:104C40008093E2008091E20080618093E20042E084
:104C500060E080E00E9429048091F00088608093E9
:104C6000F000FF91EF91BF91AF919F918F917F9154
:104C70006F915F914F913F912F910F900FBE0F90C9
:104C80001F90189519BC10926606109258066ECFA8
:104C90008091E30087FD93E090936606AFCF789410
:104CA0001F921FB61F9211248F939F93AF93BF93B0
:104CB0008091510690915206A0915306B0915406EE
:104CC0000196A11DB11D8093510690935206A093A9
:104CD0005306B0935406BF91AF919F918F911F904F
:104CE0001FBE1F9018951F921FB61F9211248F93FD
:104CF0009F93AF93BF938091510690915206A091DC
:104D00005306B09154064196A11DB11D80935106E2
:104D100090935206A0935306B0935406BF91AF915F
:104D20009F918F911F901FBE1F9018951F920F92F9
:104D30000FB60F9211242F923F924F925F926F9273
:104D40007F928F929F92AF92BF92CF92DF92EF921B
:104D5000FF920F931F932F933F934F935F936F9304
:104D60007F938F939F93AF93BF93CF93DF93EF93F3
:104D7000FF938091870490918804A0918904B09159
:104D80008A040196A11DB11D809387049093880425
:104D9000A0938904B0938A04609187047091880479
:104DA0008091890490918A040E94F6336B017C0102
:104DB00020E030E040E85CE360918304709184047B
:104DC00080918504909186040E94A8349B01AC01D7
:104DD000C701B6010E94503387FDBAC01092870404
:104DE000109288041092890410928A0430908106EF
:104DF00080918206811103C0332009F49FC00E9474
:104E000045056C01311025C0312C80918206882324
:104E1000B9F0809185068111382E07E816E0912CB3
:104E2000812C412C512C20E8622E2FEB722E222453
:104E300023948091C7068815190411F00CF00CC159
:104E400080918204882309F479C010928204382E5C
:104E500075C00091770610917806C8010E942A0556
:104E6000C0917506D09176068C179D0768F2C8012F
:104E70000E942A057C01EC1AFD0AD0927806C092A5
:104E80007706A0907906B0907A06E5012196D09336
:104E90007A06C09379060E94450580907C06909022
:104EA0007D06C815D90548F080917B06882309F452
:104EB00042C010927A061092790600917E061091F7
:104EC0007F06C0917906D0917A06809180066E01A6
:104ED000E3E0CC0CDD1CEA95E1F781115CC0F50143
:104EE00073E0EE0FFF1F7A95E1F7E00FF11FD80195
:104EF000AC0DBD1D2D913D914D915C9160817181F5
:104F0000828193810E945033811145C081E080935A
:104F100080064FE050E060E070E0CB010E94C016D8
:104F2000B0927A06A09279068FE090E09093760690
:104F3000809375066ACF0E949908312C8091820671
:104F400081110EC18091810681110AC10E943D0824
:104F5000FF91EF91DF91CF91BF91AF919F918F9191
:104F60007F916F915F914F913F912F911F910F9181
:104F7000FF90EF90DF90CF90BF90AF909F908F9079
:104F80007F906F905F904F903F902F900F900FBE4B
:104F90000F901F90189510928006F801EC0DFD1DE2
:104FA00064817581868197810E94C7339B01A0E649
:104FB000BAEE0E947A3220E03EE140E050E00E94EA
:104FC0002C3281E0881A9108412C6EE1562E612C1A
:104FD000712C2E153F05F0F0D0937A06C093790618
:104FE000E216F306A8F5F901EE19FF097F0133E097
:104FF000CC0FDD1F3A95E1F7C00FD11F6881798191
:105000008A819B81A7010E94C016F0927606E092E9
:105010007506FBCEC815D905F8F6E21AF30A2196F3
:10502000FE0153E0EE0FFF1F5A95E1F7E00FF11F6D
:1050300064817581868197810E94C7339B01A0E6B8
:10504000BAEE0E947A32A30192010E942C32C1CFA3
:10505000EE24E394F12CCBCFF801C681D781CE01A9
:1050600001978E3F9F4F08F075C0F80180819181B4
:105070000E942A058C179D0708F46CC0F801C280B5
:10508000D380E480F58020E030E0A901C701B601BB
:105090000E94503387FF04C0F7FAF094F7F8F094B9
:1050A00080918206882309F455C08091830681117E
:1050B00002C00E947A1697E8A92E96E0B92EC7E0A2
:1050C000D0E0A7019601F50162AD73AD84AD95AD59
:1050D0000E945033811136C083E0CC0FDD1F8A95CA
:1050E000E1F7C957D94F198218824A825B826C82D4
:1050F0007D821F821E828FEB96E08C179D0781F4C4
:10510000209282048091C70681508093C706811146
:1051100021C00E943D0820920E02109282061AC001
:1051200088E0FE013896DE0101900D928A95E1F744
:10513000198618864A865B866C867D861F861E8643
:105140002896D9CF219798E0A91AB108CF3FDC075C
:1051500009F0B7CFFFEF8F1A9F0A085F1F4F69CE84
:10516000332009F4F5CE0E9463030E944808F0CE74
:10517000CDB7DEB7EC970FB6F894DEBF0FBECDBF4C
:1051800085B7806885BF85B7806885BF84B7877F0E
:1051900084BF0FB6F894A8958091600088618093D1
:1051A0006000109260000FBE80E890E00FB6F894A7
:1051B00080936100909361000FBE80EC98E0909323
:1051C0001D0380931C030E94E00D0E94140C0E949A
:1051D00090030E945B048091E20084608093E2006F
:1051E0007894809166068823A1F01091E9001F70E1
:1051F0009091EC00892F817090FD80E8182B10921F
:10520000E9008091E80083FD0E945D0F1F701093FC
:10521000E90082E084BD93E095BD9AEF97BD80934D
:105220006E000E94100D811102C00E94AF1285EF26
:105230000E94C20886EF0E94C20887EF0E94C2083F
:1052400081E30E94C2080AE512E0D8018D918D0128
:105250008F3F11F00E94C208B2E004361B07A9F785
:1052600088E0EAE7F4E0DF01282F1D922A95E9F7AC
:10527000EEE8F3E0DF011D928A95E9F70E9403163C
:10528000811102C00E940F1682E090E00E94F63267
:10529000809398030E94290D909359058093580597
:1052A0000E94430EEFE3FCE93197F1F700C00000E4
:1052B0000E94430E80917A0480FF08C06FEF7FEF59
:1052C00090E080E00E9432330E94190583E090E074
:1052D0000E94F6320E944C0F809170060E943D1889
:1052E0000E947A161092D6038FEF9FEF9093F003EF
:1052F0008093EF039093F2038093F1039093F40370
:105300008093F3039093F6038093F5039093F8034F
:105310008093F7039093FA038093F9039093FC032F
:105320008093FB039093FE038093FD031092A903E7
:105330009093C3038093C2039093C5038093C403E7
:105340009093C7038093C6039093C9038093C803C7
:105350009093CB038093CA039093CD038093CC03A7
:105360009093CF038093CE039093D1038093D00387
:105370000E940316811104C00E940F160E942F0E76
:1053800046E050E06CE170E08CEC96E00E94E63282
:1053900010928B048091CC068C7F11F40E942F0E0A
:1053A00088EC91E090934E0680934D068E010F5F3E
:1053B0001F4F0E94430E29E933E03FAB2EAB4AE773
:1053C00054E05AAF49AFDA01F901219131918D9141
:1053D0009D9153E0E13AF50709F490C02817390789
:1053E000A1F39BE7A92E92E0B92E1DAAA9ADBAADF3
:1053F0008D909D90BAAFA9AFEEA9FFA9819191912F
:10540000FFABEEAB8815990509F4A4C19C012825D2
:1054100039253CAF2BAF1501412C66246394712CC8
:105420008BAD9CAD86219721892B09F485C1740130
:10543000E620F72048AA3DA939AB81E0E114F10448
:1054400009F480E08AAB0E9445058160782F9CAB0F
:105450008BAB48A959A96AA98CA90E94D522EF282B
:1054600029F0D1018C918F3F09F047C1512CE52CD7
:10547000F12C8091A9038E0D9F2D911D09976CF140
:10548000F8E0CF2ED12CCE18DF08B70166557C4F3F
:10549000A6018AEA93E00E94D632B7016E547C4F8F
:1054A000A60182EB93E00E94D632A601440F551F5D
:1054B000B701660F771F6E537C4F82EC93E00E941A
:1054C000D632B70166547C4FA6018AEB93E00E9466
:1054D000D63288E085198093A9038091A90390E0D2
:1054E000E8ADAE2FB0E09D01220F331F2D553D4F8B
:1054F000AA0FBB1FBD016C557D4F18C12817390776
:1055000009F06FCF0E9445057C0180919603909130
:105510009703E816F906A1F08FEF8BA78CA71DA6BD
:105520000E9445058160782F9FA78EA74BA55CA59B
:105530006DA58FA50E94D522F0929703E092960365
:1055400080911502882301F18091490690914A06C5
:105550000097D1F00E942A052091A3053091A4055F
:105560002817390788F490914706809148069817C4
:1055700009F4FCC00E9441221092A4051092A305D8
:1055800010924A06109249068091960580FF1EC02F
:105590008091140282FF1AC00E94450520919F0548
:1055A0003091A005AC01421B530B209112023091A7
:1055B00013024217530750F021EA33E041E0BC01E7
:1055C0008091A1059091A2050E944B15C090D20335
:1055D000D090D303E090D403F090D5038FB7F89424
:1055E0008090510690905206A0905306B0905406B9
:1055F0008FBF240135014C185D086E087F080E949A
:1056000039056093D2037093D3038093D4039093AE
:10561000D503A091A903E9EAF3E02A2F30E05FEF78
:10562000C50ED51EE11CF11CC818D908EA08FB08F4
:10563000A313A5C02093A90320915906912C2111F1
:1056400009C02091CC06A22FA3709A2E19F0922E99
:105650009694969420910F02213009F4BAC0222327
:1056600009F4A0C0223009F483C2233009F48AC2AD
:105670000E9497059091FF03891721F08093FF0303
:105680000E94390580916606843009F092CE83E04D
:105690008093E9008091E80082FF8BCE8091E80042
:1056A00090E085FF06C00E94AF03882309F48EC2F4
:1056B00091E08091E8008B778093E800992309F4CA
:1056C00078CEE0905605F09057058981E114F104F9
:1056D00009F49BC28E3F09F054C38A81833020F0C5
:1056E0008550833008F04DC3EA81EE3008F049C39D
:1056F000F0E0E35DFA4C0C946D3288AF552453947E
:10570000B6CE90E0FC01E755FC4FD9015C91518386
:10571000DB015C915187B8ADB18B880F991FFC01FB
:10572000E755FC4F128E118E91E0842F41E0480F17
:10573000951538F38093A9034394660C771CFFEF0B
:105740002F1A3F0A2AE042126BCEEEA9FFA9329728
:10575000918280823DA93F5F3DAB4AE0A40EB11C1F
:10576000343009F043CE0E943905EACE0E94E4218C
:1057700010924A06109249060E94DD0505CF418D20
:10578000528D4A01B12CA12CC814D904EA04FB049F
:1057900020F421503F5F32964BCF440D551D528F60
:1057A000418FF8CF109217026093C8067093C90614
:1057B0008093CA069093CB0689E2E9EAF3E0A6ED6E
:1057C000B3E001900D928A95E1F7B1E0B0930F023A
:1057D0004FCF8091D501981224C09091CC06937040
:1057E0002091D40130E081E09217130609F480E0A3
:1057F0008170809319028091D106909118029817B8
:1058000039F08093180240E060E080E00E943707A2
:10581000E7E0E91588F0E92DF0E0E55CFA4C0C943E
:105820006D3281E0E5CF80911902882339F140E0A3
:1058300060E080E00E94370780E020C0E09017021F
:10584000EE0CEE0CEE0C38E0D32EDE0CCD2CF8E294
:10585000FD1510F428E2C22E6091CD067091CE069F
:105860008091CF060E945607862E772E682EF12C47
:10587000EC14C0F081E037E23D15F0F29091170290
:105880009F5F909317028111F3CE82E080930F0205
:10589000809119028111ECCE9110EACE83E08093C1
:1058A0000F02E6CEF701ED50FD4F80819091180276
:1058B000892331F0262D482D672DC7010E943A0714
:1058C0002FEFE21AF20AD4CFE0901702EE0CEE0CA2
:1058D000EE0C98E0D92EDE0C8D2C48E24D1510F41C
:1058E00088E2882E7090CE066090CF062091D00678
:1058F000B0E4CB2E5C2D529F512D1124C52EF12CDE
:10590000E81430F081E097E29D1508F0B7CF94CF0E
:10591000F701ED50FD4F8081909118028923B9F075
:10592000F701EE0FFF1FE558FD4F81A582958F709F
:105930006091CD068C9D600D1124772D862D0E94DF
:105940005607462F282F672FC7010E943A078FEF6F
:10595000E81AF80AD5CFE0901702EE0CEE0CEE0C28
:1059600078E0D72EDE0CCD2CA8E2AD1510F468E25D
:10597000C62E6091CD067091CE062091CF06409143
:10598000C8065091C9063091D006369536953695A1
:1059900090E080E0439F812D539F800D911D112445
:1059A000982F96FD8095382F3F7096FD3F5F869526
:1059B000869586958670E82FF0E0EC59FD4F818141
:1059C000839F802D312D112482958F703295307FE9
:1059D000832B3081830F97FD819587FD8195880FFB
:1059E000382F329F312D1124832F0E945607862E87
:1059F000772E682EF12CEC1430F081E057E25D1523
:105A000008F03CCF19CFF701ED50FD4F8081909108
:105A10001802892331F0262D482D672DC7010E94D9
:105A20003A074FEFE41AF40AE6CF8DE497E00E94BC
:105A3000EA0724CF84E497E0FACFE0901702EE0C57
:105A4000EE0CEE0C58E0852E8E0C582C88E2881552
:105A500010F448E2542E2091D00631E0230F08F4D0
:105A60002FEF30E050E040E06FEF7FEF80E090E01C
:105A70000E944E326901F12C712C612C2E2DE514FF
:105A800030F081E097E2981508F0F8CED5CEF70116
:105A9000ED50FD4F808190911802892331F1809162
:105AA000D6038150082E000C990B87FF22C0B60147
:105AB0002091D00641E0240F08F42FEFA301629F4C
:105AC000412D729F400D511D11246091CD067091A2
:105AD000CE068091CF060E943D070E945607462FB2
