:100000000C9492020C94D9020C94D9020C94D9024B
:100010000C94D9020C94D9020C94D9020C94D902F4
:100020000C94D9020C94D9020C9444200C94002016
:100030000C9447210C94D9020C94D9020C94D90247
:100040000C94D9020C94D9020C946A210C94D90214
:100050000C94D9020C9423210C94D9020C94D9024B
:100060000C94D9020C94D9020C94D9020C94D902A4
:100070000C94D9020C94D9020C94D9020C94D90294
:100080000C94D9020C94D9020C94D9020C94D90284
:100090000C94D9020C94D9020C94D9020C94D90274
:1000A0000C94D9020C94D9020C94D90216000700C2
:1000B00000000E000F0000000C00120000001A00EB
:1000C0000800000014001A000800150017001C00AA
:1000D00018000C00120013000400160007000900AD
:1000E0000A000B000D000E000F0033001D001B0066
:1000F0000600190005001100100036003700380016
:10010000E100E000E20003512C00015102513900EE
:1001100028002A001E021F022F023002340034027F
:100120002E021E001F0020002002210226022702AC
:1001300023022E0027002100220023002202240295
:100140002F00300025022D022D002400250026005E
:100150000100010001000100010001000100010097
:100160003100310249004A004B000000000000004D
:10017000000000005200000049004D004E00000049
:10018000000000000000500051004F00000000007F
:10019000000000000000000000000000000000005F
:1001A0000100010001000100010001000100010047
:1001B00001000100A900C45CC75CC65C3A003B00BA
:1001C0003C003D003E003F00AA00C55CC95CC85C25
:1001D000400041004200430044004500AE00C35CC3
:1001E000CB5CCA5C000000000000000000000000C2
:1001F00001000100010001000100010001000100F7
:1002000001000100643214783C1E1E140A0500012E
:1002100001010101010101010202020202020202C6
:100220000203030303030303030404040404040498
:10023000050505050506060606060707070707085C
:10024000080808090909090A0A0A0B0B0B0C0C0C0F
:100250000D0D0D0E0E0E0F0F0F10101111111212A9
:1002600013131414151516161717181819191A1A26
:100270001B1B1C1D1D1E1E1F202021222223242487
:10028000252626272829292A2B2C2D2D2E2F3031C3
:100290003232333435363738393A3B3C3D3E3F40D5
:1002A0004142434445464748494A4C4D4E4F5051C0
:1002B0005354555658595A5B5D5E5F61626465667A
:1002C00068696B6C6D6F7072737577787A7B7D7E01
:1002D0008082838587888A8C8E8F91939596989A51
:1002E0009C9EA0A2A3A5A7A9ABADAFB1B3B5B7BA69
:1002F000BCBEC0C2C4C6C9CBCDCFD1D4D6D8DBDD3D
:10030000DFE2E4E7E9EBEEF0F3F5F8FAFDFF222394
:10031000252628292A2C2D2F3032333536383A3BE2
:100320003D3E4042434547494A4C4E505153555734
:10033000595A5C5E6062646668696B6D6F71737553
:1003400077797B7D7F81838587898A8C8E90929453
:1003500096989A9C9E9FA1A3A5A7A8AAACAEAFB160
:10036000B3B4B6B8B9BBBCBEBFC1C2C3C5C6C7C9AA
:10037000CACBCCCDCED0D1D2D2D3D4D5D6D7D7D864
:10038000D9D9DADADBDBDBDCDCDCDCDCDDDDDDDDB6
:10039000DCDCDCDCDCDBDBDBDADAD9D9D8D7D7D6BE
:1003A000D5D4D3D2D2D1D0CECDCCCBCAC9C7C6C575
:1003B000C3C2C1BFBEBCBBB9B8B6B4B3B1AFAEACBB
:1003C000AAA8A7A5A3A19F9E9C9A98969492908E66
:1003D0008C8A89878583817F7D7B79777573716F3F
:1003E0006D6B6968666462605E5C5A59575553511B
:1003F000504E4C4A4947454342403E3D3B3A3836D1
:10040000353332302F2D2C2A292826252322050189
:100410000980A101850319012AB700150126B7003B
:10042000950175108100C0050C0901A10185041911
:10043000012AA002150126A002950175108100C0B5
:1004400005010906A101050719E029E715002501A5
:10045000950875018102950175088101050719004C
:1004600029FF150026FF009506750881000508196B
:10047000012905950575019102950175039101C04A
:1004800009023B00020100A0FA0904000001030177
:100490000100092111010001224000070581030824
:1004A000000A0904010001030000000921110100F4
:1004B000012232000705820320000A120100020017
:1004C0000000088F45E2140100010200011A034BED
:1004D00000650065006200200046006F0072002089
:1004E000004D006F006D00000034036E0065006E6B
:1004F00000640065007A006B006F006D00620065AB
:100500000074002F00730061006E006400690070C9
:100510000072006100740061006D00610000000461
:100520000309040011241FBECFEFDAE0DEBFCDBF08
:1005300004B603FE27C08091550490915604A09103
:100540005704B09158048730904BA740B04BD1F47A
:1005500010925504109256041092570410925804A9
:1005600014BE84B7877F84BF0FB6F894A895809196
:100570006000886180936000109260000FBEE0E030
:10058000F8E3099512E0A0E0B1E0ECEEFFE402C070
:1005900005900D92A23AB107D9F724E0A2EAB2E0A1
:1005A00001C01D92A535B207E1F70E948C230C947F
:1005B000D0270C940000CF92DF92EF92FF92E0914F
:1005C0005404EE2309F1E15088E0E802F00111241F
:1005D000EC5EFB4FC280D380E480F58020E030E009
:1005E000A901C701B6010E94F12518166CF480918B
:1005F0001304811102C010921204C701B601FF90CA
:10060000EF90DF90CF900895C12CD12C7601F5CFDB
:10061000E8EDF0E080818E7F80831092E2001092FE
:10062000DA001092E100A0EEB0E08C9181608C9332
:1006300080818F77808319BCA7EDB0E08C918E7F8D
:100640008C9380818F7E80831092E30308952091A4
:10065000E4003091E50095E6A9012091EC00822F9D
:10066000817020FF06C08091E80080FF06C080E016
:1006700008952091E80022FD1AC08091F503882397
:1006800089F0853089F08091EB0085FD0FC02091C5
:10069000E4003091E50042175307F9F29150E1F67A
:1006A00084E0089582E0089583E0089581E008954C
:1006B000EF92FF920F931F93CF937C018B010E94C7
:1006C0002703C82F811117C08091E80085FD0BC05A
:1006D0008091E8008E778093E8000E9427038823AA
:1006E00099F3C82F08C0F70181917F018093F10031
:1006F0000150110949F78C2FCF911F910F91FF9055
:10070000EF9008958091F70387FF13C08091E80070
:1007100082FF06C08091E8008B778093E80004C0D8
:100720008091F5038111F2CF08958091F50388231C
:10073000D9F38091E80080FFF8CF8091E8008E77B0
:10074000ECCF982F9093E900242F762F50E0891753
:1007500031F07091EC002091ED005091F00021FDFE
:1007600007C09F5F973071F78093E90081E008959B
:100770003091EB003E7F3093EB003091ED003D7FF8
:100780003093ED003091EB0031603093EB007093CB
:10079000EC002093ED005093F0002091EE0027FD37
:1007A000E0CF80E00895CF92DF92EF92FF920F9317
:1007B0001F93CF93DF93C8EDD0E088818F7E88832D
:1007C000E7EDF0E080818160808384E082BF81E09A
:1007D0008093E30388818E7F888302EE10E0F80126
:1007E00010821092DA0081EEC82ED12CF601108210
:1007F00088818F77888388818068888388818F7DCE
:10080000888319BC1092F5031092F6031092F4033A
:100810001092F30390EEE92EF12CF70180818B7F8B
:10082000808388818160888342E060E080E00E946C
:10083000A103F60180818E7F8083F8018081816031
:100840008083808188608083F70180818E7F8083B0
:10085000888180618883DF91CF911F910F91FF90F4
:10086000EF90DF90CF900895FC018091FD0390916F
:10087000FE0386179707A0F06115710529F4909182
:10088000E8009E779093E80090E06115710551F4BF
:10089000911108C08091E80082FF34C080E0089583
:1008A000BC01F2CF8091F5038823C1F18530C1F1FD
:1008B0008091E80083FD30C08091E80082FDEACF9E
:1008C0008091E80080FFE1CF8091F3002091F20059
:1008D000382F6115710519F02830310558F091E075
:1008E0002830310509F090E02091E8002E77209320
:1008F000E800CBCF81918093F100615071092F5FA7
:100900003F4FE7CF8091F503882341F0853041F0D8
:100910008091E80083FFBECF81E0089582E00895D2
:1009200083E008950895089508958091EA03089555
:1009300087E797E7909301088093000888E19AE0A1
:100940000FB6F894A895809360000FBE9093600056
:10095000FFCF9C014FB7F8948091DC039091DD03A9
:10096000A091DE03B091DF034FBF821B930B08956C
:100970002FB7F8948091DC039091DD03A091DE0302
:10098000B091DF032FBF08959C01FC0132969FEFC9
:1009900080E04191461751F09F3F19F4411101C089
:1009A000982F8F5F8630A9F79F3F09F40895290F8C
:1009B000311D97FD3A95F901628308952091DA037C
:1009C0003091DB032817390771F09093DB03809394
:1009D000DA03E091D803F091D903309721F0008435
:1009E000F185E02D099408952091D6033091D70325
:1009F0002817390771F09093D7038093D603E091BD
:100A0000D803F091D903309721F00680F781E02DCB
:100A100009940895E091D803F091D903309721F01B
:100A20000190F081E02D099480E00895DC0160914F
:100A3000D2038091D303962F891301C00895292FE3
:100A400030E0F901EE0FFF1FE653FC4F408151816A
:100A50004A175B07A1F487E08A9FA0018B9F500D86
:100A600011244A5C5D4F81E0FA0184839613E6CF3E
:100A70002F5F3F4F237033272093D20308952F5FBA
:100A80003F4F922F9370D8CF109267031092660356
:100A9000E6E3F2E08581811102C014821682379666
:100AA00082E0E235F807B1F70895FA01811101C03B
:100AB000FB0109948091E403982F9E7F61F481707B
:100AC00082608093E4038091E703893C18F088EC0E
:100AD0008093E70308958E31B0F381708C61F1CF7C
:100AE000AF92BF92DF92EF92FF920F931F93CF933B
:100AF000DF93082F162FE901E42FF0E0E25FFD4FAE
:100B0000611110C0E4915E2F4E2F4983E8835A8310
:100B1000DF91CF911F910F91FF90EF90DF90BF90E9
:100B2000AF900895E62EF12C4491D42EE42FF0E0FE
:100B300026E0829FC00111242FEF30E0B9010E940E
:100B40005E25802F90E0880F991F55E5569FD001B4
:100B5000579FB00D11248A1B9B0B982F990F890F5B
:100B60005901AE18BF08AE9ED001AF9EB00DBE9E1B
:100B7000B00D11245B2F189F80011124012F112724
:100B80005901A01AB10AAE9E8001AF9E100DBE9E03
:100B9000100D11245901A81AB108AE9CC001AF9CD8
:100BA000900DBE9C900D1124892F9927281B390B7D
:100BB0002E9FC0012F9F900D3E9F900D1124E92F75
:100BC00062307105A1F050F46115710509F49DCFF3
:100BD0006130710581F0EB2F512F97CF6430710593
:100BE00069F080F06630710509F48FCFF4CFE42FFF
:100BF0004B2F592F8ACFE42F412F87CFEB2F542F24
:100C0000492F83CF4B2F5D2DE12F7FCFEFE6F0E013
:100C100080818B7F8083E0E8F0E080818F7C80831F
:100C20000895CF92DF92EF92FF926B017C0120E05A
:100C300030E0A9010E94F12581110AC08091800055
:100C40008F7C80938000FF90EF90DF90CF9008958D
:100C500080918000806280938000C0923E03D09299
:100C60003F03E0924003F092410320E030E040E097
:100C700051E4C701B6010E9449279B01AC0160E025
:100C800074E284E79BE40E94F6256B017C010E94DC
:100C90006826709387006093860020E030E048E487
:100CA00052E4C701B6010E94492720E030E048EC39
:100CB00052E40E94F6250E94682670938B00609390
:100CC0008A00C1CF80913402811122C01092540455
:100CD0000E94060610920E0410920F041092030454
:100CE00010920204E4E1F4E080E090E0A0E8BFEBC1
:100CF0001182108282839383A483B5831782168224
:100D0000389624E0E435F20799F781E080933402C5
:100D1000089580E00895F894E82FE295EF70F0E0F0
:100D200031A1282F2F7081E090E001C0880F2A9513
:100D3000EAF7982F9095932391A392A1892B82A3F0
:100D4000789408959091200392FF06C0282F28716F
:100D50002830F9F4877F846093FF06C0282F28711C
:100D60002831F1F4877E84612091210320FF06C0A1
:100D7000382F38713830D9F4877F816021FF06C061
:100D8000282F28712831D1F4877E816194FD877ED8
:100D90000895282F24712430F9F68B7F8860DCCFEA
:100DA000282F2471243101F78B7E8861DDCF382F05
:100DB0003171313019F78E7F8860E0CF282F217193
:100DC000213121F78E7E8861E1CFCF93DF93EC0153
:100DD00082389105A9F1D8F58133910509F496C0BF
:100DE00048F58932910509F48AC08A9709F495C0BB
:100DF000C11522E5D20708F0B6C0C11531E5D30709
:100E000008F026C1C83ED10508F09CC0C03ED105FF
:100E100060F5C83AD10508F087C0C53AD10508F099
:100E2000EFC0C130D10509F12097F9F0C430D105E8
:100E3000E0F440C08533910509F45AC0C997C1F662
:100E400080912003837089F0C0EED0E00EC0833E15
:100E5000910599F170F4803E910501F1823E910572
:100E600039F68091200382FD21C0CE01DF91CF9120
:100E70000895863E910561F1873E910571F1843EAA
:100E8000910509F0B5CF8091210381FFEECF8091CC
:100E90002003C7EED0E084FD0DC0E7CF8091200392
:100EA00080FD07C19091210390FFDFCFC3EED0E01A
:100EB00084FFDBCFD0E0C0E0D8CF8091200382FD5B
:100EC000FBC09091210390FDBFCF84FFCECFF2CF26
:100ED0008091200383FDDDCFC8CF8091200383FD67
:100EE000EEC09091210391FFF0CFC4EED0E0BDCFD2
:100EF0008091200385FFB9CFC9E2D0E0B6CF8091C1
:100F0000200385FFB2CFC5E3D0E0AFCF80912003AF
:100F100086FFABCFCAE2D0E0A8CF8091200386FF46
:100F2000A4CFC1E3D0E0A1CFCF3BD10518F6C85A7A
:100F3000D0E0CC0FDD1FC95ADD4F0990D881C02DFC
:100F4000D46493CFC11540E5D40708F064C0C1153F
:100F500080E4D80708F05CC0CE019A9581159F41C6
:100F600008F483CFA7CFC11536E5D30718F5C1150F
:100F700045E5D40708F084C0C11584E5D80708F01A
:100F80007AC09C2F969596959E0123703327C115A4
:100F9000D34508F462C0C1E0D0E002C0CC0FDD1F31
:100FA0002A95E2F730E2939FC0011124C82BD92B78
:100FB000DA685BCFC1158AE5D80778F4C11599E5E1
:100FC000D90708F068C0C11528E5D20708F472CF28
:100FD000DC2FCC27C06FD06A48CFCE019056811548
:100FE000904208F067CF8D2F8F710E94A20690E08B
:100FF000982F882788279F719C012C2BE90149C0D5
:10100000C55AD0E0CC5ADD4FC881D0E0D0642DCF96
:10101000DF70D06A2ACFCE01E4E096958795EA95F5
:10102000E1F783702C2F26952695237040E2249FAC
:1010300090011124382B8C2F8370C1E0D0E002C0C6
:10104000CC0FDD1F8A95E2F7C22BD32BDC680DCFC6
:10105000DC2FCC27C16FD06A08CFC1E0D0E002C03E
:10106000CC0FDD1F2A95E2F720E2929FC0011124E8
:10107000C82BD92BEBCFDC2FCC27C46FD06AF5CE91
:101080008C2F0E94A206C82FD0E0DC2FCC27CC27C3
:10109000DF71D062EACE8C2F8F700E94A20634E0FE
:1010A000D695C7953A95E1F7CF709C2FEC01D069A2
:1010B000DCCEC9E3D0E0D9CEC2EED0E0D6CEC6EECB
:1010C000D0E0D3CE809114038111109214030895BF
:1010D0008095909113039823909313030895809122
:1010E000130390911203892B90911103892B809304
:1010F000A40290911403992391F0892B8093A40268
:1011000020E086EA92E0FC013191CF0131112F5F9E
:10111000F2E08C3A9F07B9F721110E946208E09132
:10112000D803F091D903309731F00280F381E02D9C
:1011300084EA92E00994089580910F039091CE0281
:10114000981301C008958F5F8770FACFAF92BF9256
:10115000CF92DF92EF92FF920F931F93CF93DF9383
:10116000C0901C03D0901D03E0901E03F0901F035D
:101170004091150350911603609117037091180365
:10118000C42AD52AE62AF72ACFE1D0E0082F10E0BA
:101190002AE0929F000D111D112498E2A92EBC2E69
:1011A000D701C6010C2E04C0B695A79597958795D3
:1011B0000A94D2F780FD0FC0219788F7B12C8B2DB0
:1011C000DF91CF911F910F91FF90EF90DF90CF9023
:1011D000BF90AF900895AC9EF001AD9EF00D11242C
:1011E000E00FF11FEE0FFF1FEC53FF4F859194911D
:1011F0000E94E506019701F3E2CFCF93DF93EC0164
:101200000E94A608EC2FF0E09AE0D99FE00DF11DB6
:10121000112498E2899FE00DF11D1124EE0FFF1FAC
:10122000EC53FF4F85919491DF91CF910C94E5069B
:101230002AE0929F800D1124982F977086958695AD
:10124000869525E0829FF0011124E355FD4F50E083
:1012500040E080E0219130E0092E02C036952795CC
:101260000A94E2F721703327042E01C0220F0A945A
:10127000EAF7822B4F5F5F4F4530510559F70895CC
:101280002AE0929F800D1124982F977041E001C0B1
:10129000440F9A95EAF786958695869595E0899FFD
:1012A000F0011124E355FD4F90E080E070E0519192
:1012B000DF0111979B01082E02C0369527950A94ED
:1012C000E2F7217021952527242325272C930196C9
:1012D0008530910561F70895FC018681978100971B
:1012E00079F00E94E506292F2F7092959F709250F9
:1012F0009E30A0F4E92FF0E0EE52F84D0C949425C6
:10130000808191810E94FD08EECF803F19F020F48A
:10131000883E20F481E00895843FE1F380E0089561
:10132000883EC0F3813FD1F7F5CF822F8695869511
:101330008695089590E080E00E94F40490E080E0BB
:101340000E94DE0410921203109211030C946F0895
:1013500060931503709316038093170390931803FB
:101360000C949A09882321F00E9468080C946F0855
:101370000895882339F090911303982B90931303C9
:101380000C946F080895882381F19CEF980F913A8F
:1013900078F4E6EAF2E02CEA32E09191891303C096
:1013A000DF0111971C922E173F07B9F70C946F08B5
:1013B00090E2980F983050F4877091E001C0990F37
:1013C0008A95EAF7892F0E946808F0CF9BE5980F6D
:1013D000933020F490E080E00C94F404885A873134
:1013E00020F490E080E00C94DE040895CF93C82FA1
:1013F000882309F44EC08CEF8C0F813AF8F4E6EAAA
:10140000F2E08CEA92E0DF012D91C21759F08A17C1
:101410009B07D1F76C2F84EA92E00E94C404CF911D
:101420000C946F082191C21303C0DF0111971C9225
:101430008E179F07B9F70E946F08ECCF80E28C0FE0
:10144000883068F4C77021E030E001C0220FCA95EF
:10145000EAF780911303822B80931303E0CFEBE52F
:10146000EC0FE33040F4F0E0EC5AFD4F808190E067
:10147000CF910C94F404C85AC73158F4EC2FF0E023
:10148000EE0FFF1FE95AFD4F80819181CF910C949F
:10149000DE04CF9108951F93CF93DF9300D000D047
:1014A0000F92CDB7DEB79C01FC0186819781009732
:1014B00051F585E0DE01119601900D928A95E1F7D4
:1014C000F901228189819A81222331F1662321F158
:1014D0000E94A608182F682F89819A810E944009CE
:1014E0008A81E981F0E09AE0899FE00DF11D1124E5
:1014F00088E2189FE00DF11D1124EE0FFF1FEC5341
:10150000FF4F859194910F900F900F900F900F9037
:10151000DF91CF911F9108950E941809182FE0CFF5
:101520000F931F93CF93DF93C62FD42F022FFC016D
:1015300082818823A1F0609301040E94B8049093F3
:1015400000048093FF03C77081E001C0880FCA9533
:10155000EAF7DF91CF911F910F910C94B909809117
:101560000104681338C08091FF03909100040E9429
:10157000A9048A3A910578F510E21D0FCD17B9F04C
:1015800080E28C0F883040F4C77081E001C0880F82
:10159000CA95EAF70E94B209183048F481E09D2FFD
:1015A000977001C0880F9A95EAF70E94B909802FB9
:1015B0000E94F609802F0E94C309183098F4D77052
:1015C00081E001C0880FDA95EAF7DF91CF911F9192
:1015D0000F910C94B209C77081E001C0880FCA95C1
:1015E000EAF7F3CFDF91CF911F910F910895809388
:1015F000E0037093E2036093E1038091F50384308C
:1016000001F582E08093E9008FEF9091E80081502E
:1016100095FD06C095ED9A95F1F700008111F5CF83
:101620008091E80085FF0DC050E040E063E070E08D
:1016300080EE93E00E9458038091E8008E778093BB
:10164000E8000895BC0184E00C94F70ABC0183E033
:101650000C94F70ACF93DF93EC0181E08093E900CB
:101660008FEF9091E800815095FD06C095ED9A9519
:10167000F1F700008111F5CF8091E80085FF14C0DB
:1016800050E040E068E070E0CE010E945803809195
:10169000E8008E778093E80088E0FE01ABEEB3E0CF
:1016A00001900D928A95E1F7DF91CF910895809195
:1016B000E40380FD0AC0EEE4F3E01182108212829E
:1016C000339653E0E636F507C1F7849A31B33F7E8F
:1016D00021B320614FB7F8948EE493E0FC0151915F
:1016E000CF0168E021BB000000C057FF31BB550FA0
:1016F000000000C000C000C031BB00C06A9591F777
:10170000F3E086369F0751F74FBF8FE594E00197CE
:10171000F1F700C000000895EF92FF921F93CF935E
:10172000DF93EC018EE4E82E83E0F82E10E0409188
:10173000E703493C08F048EC8C8197016091E6038F
:10174000810F0E947005115E83E0E80EF11C183FC6
:1017500071F70E94570B9A818C8190FF08C08F5FB0
:101760008C83DF91CF911F91FF90EF90089581506E
:10177000F7CF9091E40390FF0CC0EEE4F3E0818397
:1017800060834283339693E0E636F907C1F70C9401
:10179000570B0895CF93DF9300D00F92CDB7DEB7EC
:1017A0009091E40390FF0DC0493C08F048EC9E0185
:1017B0002F5F3F4F0E9470054B8169818A810E9493
:1017C000B90B0F900F900F90DF91CF910895CF93A9
:1017D000DF93EC01E4EEF3E0438162818C810E94AF
:1017E000CA0B8C818F5F8C83DF91CF910895CF934B
:1017F000DF93EC01EC81F0E0E25FFC4F4491E4EE1A
:10180000F3E0628181810E94CA0B8C818F5F8C839F
:10181000DF91CF9108956091E403669570E041E017
:1018200050E085E392E00E94B627892B19F481E00D
:1018300080934D030E94B80490934703809346031E
:101840000895CF92DF92EF92FF926B017C010E948C
:101850005A05B701A60188E090E0FF90EF90DF9075
:10186000CF900C94CF25EF92FF920F931F93CF93BD
:10187000DF9300D00F92CDB7DEB7082FF62E142FCE
:10188000E22E8091E40380FF2CC0E82FE695F0E083
:10189000ED56FD4F908190934C038E7F823059F529
:1018A000493C08F048EC9E012F5F3F4F6F2D802F81
:1018B0000E9470054B8169818A810E94B90B009357
:1018C000E503F092E6031093E703EE2051F06091F8
:1018D000E4037091E5038091E6039091E7030E9491
:1018E000210C0F900F900F90DF91CF911F910F91CE
:1018F000FF90EF900895923019F41091E703DFCF35
:10190000963019F40091E503DACF9930C1F6FACF99
:10191000E4EEF3E0438128E0421B08F440E021E0DC
:10192000628181810C94330CE4EEF3E0438128E082
:10193000420F08F44FEF21E0628181810C94330C57
:10194000E4EEF3E0628128E0621B08F460E021E04D
:10195000438181810C94330CE4EEF3E0628128E052
:10196000620F08F46FEF21E0438181810C94330C06
:10197000E4EEF3E0818121E04381628188500C94A0
:10198000330CE4EEF3E0818121E043816281885FE2
:101990000C94330C8091E803882319F081508093D4
:1019A000E8036091E4037091E5038091E603909170
:1019B000E7030C94210C8091E803833018F48F5FC7
:1019C0008093E8036091E4037091E5038091E6035E
:1019D0009091E7030C94210C9091E40390FF36C0A2
:1019E0009170811129C092609093E403662351F0B5
:1019F0006091E4037091E5038091E6039091E70321
:101A00000E94210C6091E403669570E041E050E093
:101A100085E392E00E94B627892BA9F010924D032E
:101A200081E08093490320E04091E7036091E60361
:101A30008091E5030C94330C8F3010F09C61D4CF6F
:101A4000880F982BD1CF0E940B0CEACF089580917C
:101A5000E4038695815009F48EE061E00C94EC0C6F
:101A60008091E40386958F5F8F3008F081E061E01C
:101A70000C94EC0C9091E40390FF07C09695981796
:101A800020F0961710F40C94300D61E00C94EC0CDF
:101A9000E4EEF3E083E0808311828FEF828388ECB1
:101AA0008383148260817181828193810C94210CE3
:101AB000CF9384E090E00E94A925C82F82E290E0B5
:101AC0000E94A925982F8C2FCF910895109213036F
:101AD000E6EAF2E086E0DF011D928A95E9F70C94D0
:101AE0009A091F93CF93DF93CDB7DEB7AA970FB6AE
:101AF000F894DEBF0FBECDBF87EF93E02091F100D9
:101B0000FC012193CF01F3E08F3F9F07B9F780914C
:101B1000F803833009F470C0B8F4813009F447C089
:101B2000823009F4B1C08091E80083FF7EC28091C9
:101B3000F7039091F8039A3008F077C2E92FF0E0AC
:101B4000E052F84D0C9494258A3009F48CC08B3007
:101B500009F46FC0893039F78091F703813219F7A2
:101B60008091FB039091FC030297E8F68091E800D6
:101B7000877F8093E8008091E80082FF38C09091D1
:101B8000F3008091F200029731F48091F1008130EE
:101B900011F0863021F48091F1008093EA03809166
:101BA000E8008B778093E8000E948203BCCF80918D
:101BB000F703813A09F0B7CF8091E800877F8093DF
:101BC000E8008091FB039091FC03892B61F468E0AD
:101BD0008BEE93E070E00E9434048091E8008B77F4
:101BE0008093E800A0CF60E090E080E0F3CF8091A8
:101BF000F5038111C0CF97CF8091F703813A09F0A7
:101C000092CF8091FB039091FC03892B09F08BCF3D
:101C10008091E800877F8093E8008091E80080FF52
:101C2000FCCF809153028093F1008091E8008E7781
:101C3000B9CF8091F703813209F075CF8091FB0312
:101C40009091FC03892B09F06ECF8091E800877F8B
:101C50008093E8000E9482038091F90380935302ED
:101C60000E94660D60CF8091F703813209F05BCF4F
:101C70008091E800877F8093E8000E948203809132
:101C8000FA038093E9034FCF8091F703813A09F07B
:101C90004ACF8091E800877F8093E8008091E80038
:101CA00080FFFCCF8091E903BECF803899F0823865
:101CB00009F0BBC18091FB038F70873008F0B5C17C
:101CC0008093E9008091EB0085FB882780F91092D2
:101CD000E90006C08091F3039091F40391118260B2
:101CE0009091E800977F9093E8008093F100109224
:101CF000F1008091E8008E7794C1882309F482C1B5
:101D0000823009F092C18091F903811185C18091DF
:101D1000FB038F702FEF280F263008F086C18093C9
:101D2000E9002091EB0020FF77C1933031F48091DE
:101D3000EB0080628093EB006FC19091EB009061AB
:101D40009093EB0021E030E001C0220F8A95EAF782
:101D50002093EA001092EA008091EB008860EACFBD
:101D6000811163C11091F9031F778091E30080789E
:101D7000812B8093E3008091E800877F8093E800C7
:101D80000E9482038091E80080FFFCCF8091E300F5
:101D900080688093E30082E0111183E08093F50373
:101DA00044C18058823008F040C18091F90390917D
:101DB000FA038C3D23E09207A1F583E08A838AE24F
:101DC00089834FB7F894DE01139620E03EE051E29C
:101DD000E32FF0E050935700E49120FF03C0E29519
:101DE000EF703F5FEF708E2F90E0EA30C0F0C79643
:101DF0008D939D932F5F243159F74FBF8091E80059
:101E0000877F8093E8006AE270E0CE0101960E942D
:101E100034048091E8008B778093E80006C1C09677
:101E2000E7CF4091FB035091FC03292F3327233048
:101E3000310509F444C078F52130310509F46FC04B
:101E40008BE390E0E0E8F4E02230310509F0EDC0EA
:101E50002091E800277F2093E8002091FD03309136
:101E6000FE038217930708F49C0140E02115310519
:101E700009F064C0411162C08091E80082FDC9CFC1
:101E80008091F503882329F2853019F28091E800CA
:101E900083FFF2CFBECF21323105A9F122323105C5
:101EA00009F0C3C04115510509F443C04130510543
:101EB00009F0BBC082E390E0EEE0F4E0C9CF9927DF
:101EC00081309105C1F0009759F0029709F0ADC03B
:101ED000EDECF4E0E4918E2F90E0EDECF4E007C03F
:101EE000EFE1F5E0E4918E2F90E0EFE1F5E000976F
:101EF00009F49BC0ADCFE9EEF4E0E4918E2F90E0C1
:101F0000E9EEF4E0F4CF4115510571F0413051058F
:101F100009F08BC089E090E0EBEAF4E099CF82E130
:101F200090E0EBEBF4E094CF89E090E0E2E9F4E0BC
:101F30008FCF80E490E0E0E4F4E08ACF8091F50375
:101F4000882309F466CF853009F463CF8091E800D7
:101F500083FD5FCF8091E80082FD8ECF8091E80005
:101F600080FF84CF9091F3008091F200211531051C
:101F700019F08830910550F041E0089709F040E0F1
:101F80008091E8008E778093E80070CF4491409371
:101F9000F1003196215031090196E8CF803809F0DF
:101FA00044C08091E800877F8093E8008091F60329
:101FB0008093F1009ECE811138C01091F903123048
:101FC000A0F58091E800877F8093E8001093F603E6
:101FD0000E948203112311F084E005C08091E30088
:101FE00087FDFACF81E08093F50342E061EC81E068
:101FF0000E94A10342E261EC82E00E94A103809171
:10200000F50313C08091F903813079F481E09330B6
:1020100009F080E08093F4031092E9008091E800D9
:10202000877F8093E8000E9482038091E80083FF0D
:102030000AC08091E800877F8093E8008091EB00E0
:1020400080628093EB00AA960FB6F894DEBF0FBEB5
:10205000CDBFDF91CF911F91089569EE7EEF90E0A3
:1020600080E00E94DB2560E082E090E00E94BD25D8
:1020700060E083E090E00E94BD251092150310926D
:102080001603109217031092180360E084E090E0AA
:102090000E94BD2560E082E290E00E94BD2560E0E4
:1020A00085E090E00E94BD2560E086E090E00E941F
:1020B000BD256FEF87E090E00E94BD2540E050E035
:1020C000BA0188E090E00E94CF2560E08DE090E0CA
:1020D0000E94BD2540E050E0BA0188E190E00E94F6
:1020E000CF2560E087E190E00E94BD2540E050E010
:1020F000BA018CE190E00E94CF2570E060E080E2C0
:1021000090E00E94DB2540E050E0BA0188E190E0D9
:102110000E94CF2540E050E0BA018FE090E00E949D
:10212000CF2540E050E0BA0183E190E00C94CF2548
:1021300080911004811144C090E080E00E94B72596
:10214000893E9E4F11F00E942D1087E090E00E9482
:10215000A92580931104E4E1F4E080E090E0A0E898
:10216000BFEB1182108282839383A483B58317828D
:102170001682389624E0E435F20799F7809110042E
:1021800081110CC00E940606269A82E0809380008E
:102190008AE18093810081E0809310040E946206AE
:1021A0008091110480FF06C065E070E08CEE91E044
:1021B0000E94A0110E94B804909305048093040427
:1021C00008957F928F929F92AF92BF92CF92DF92AB
:1021D000EF92FF920F931F93CF93DF934B015C011C
:1021E0007A018091110480FF81C0809110048111D7
:1021F00002C00E94981020E030E0A901C501B4019E
:102200000E94F12587FF04C0B7FAB094B7F8B094E4
:1022100070905404872D8150990B6C01EC01CF3FD5
:10222000DC0709F04DC081E0870D893008F485C0D6
:1022300088E08093540484E194E028E0FC0138961F
:10224000DC0101900D922A95E1F7089624E08C3488
:10225000920799F781E080933D0380930F04C0912A
:102260005404C150DD0B0E94B804FE0123E0EE0FC0
:10227000FF1F2A95E1F7EC5EFB4F918380838282FA
:102280009382A482B582F782E6820E94B80480918C
:102290003402882359F180916F00846080936F002D
:1022A0008091800080628093800080910F04882359
:1022B00021F00E94DB020E9411061092340216C027
:1022C0008E0133E0000F111F3A95E1F70C5E1B4FB2
:1022D000A5019401F80162817381848195810E9436
:1022E000F125811128C0CC15DD0574F0DF91CF9167
:1022F0001F910F91FF90EF90DF90CF90BF90AF9024
:102300009F908F907F900895219688E0F8013896ED
:10231000D80101900D928A95E1F70E94B804F80166
:102320009187808782869386A486B586F786E6861F
:10233000085F1F4FD8CF219772CF809354048ACF64
:10234000CF92DF92EF92FF92CF93DF93EC017B016C
:102350008091110480FD08C0DF91CF91FF90EF9034
:10236000DF90CF900C94620680911004811102C01E
:102370000E94981080910F0481110E94620681E0F2
:1023800080930E0410920D04D0930C04C0930B04A0
:10239000F0920A04E09209041092080410920704D3
:1023A000109206046C817D818E819F810E94682637
:1023B0009B01A0E6BAEE0E949A25C12C2EE1D22EF6
:1023C000E12CF12CA70196010E9472256881798188
:1023D0008A819B81A9010E94E1100E94B804909318
:1023E000050480930404E0910B04F0910C048091A7
:1023F00006049091070433E0880F991F3A95E1F79E
:10240000E80FF91F64817581868197810E94682693
:102410009B01A0E6BAEE0E949A25A70196010E94B0
:1024200072253093030420930204DF91CF91FF9033
:10243000EF90DF90CF90089562E070E084E292E048
:102440000E94A0112FEF81EE94E021508040904037
:10245000E1F700C000000E946206609111046E7FE7
:102460006093110487E090E00C94BD256091110405
:1024700061606093110487E090E00E94BD2562E0F6
:1024800070E084E192E00C94A011CF92DF92EF9281
:10249000FF920F931F936B017C01A701662777279B
:1024A00080E1411551056105710519F4B701A601D7
:1024B00080E0052F162F272F332701151105210541
:1024C000310519F0885FB901A8018A019B01F4E088
:1024D0003695279517950795FA95D1F701151105AA
:1024E0002105310519F08C5FB901A8018A019B0112
:1024F000E2E03695279517950795EA95D1F70115EE
:1025000011052105310519F08E5FB901A8017695F5
:10251000679557954795452B462B472B09F08F5FBD
:10252000823099F08330B1F0813031F462E070E0B4
:1025300088E391E00E94A011C701B6011F910F919D
:10254000FF90EF90DF90CF90089562E070E088E216
:1025500091E0F0CF65E070E080E091E0EBCF0E9489
:10256000451260931C0370931D0380931E03909388
:102570001F030C949A090F931F9341E050E060E011
:1025800070E004C0440F551F661F771F8A95D2F76D
:10259000CB01BA01609570958095909500911C03D0
:1025A00010911D0320911E0330911F03602371239E
:1025B000822393231F910F910C94AF1290911003DB
:1025C0008095892380931003282F277091F4282F5A
:1025D000082E000C330B9217130659F0909121032B
:1025E00092FD07C08595859585950E94BB12109236
:1025F00010030895CF93C0912103C2FB992790F94E
:10260000981799F080FBC2F9C093210360912003D1
:1026100084E090E00E94BD256C2F82E290E00E9451
:10262000BD2582E0CF910C94DE12CF9108950F93D7
:102630001F9341E050E060E070E004C0440F551F7C
:10264000661F771F8A95D2F780911C0390911D0316
:10265000A0911E03B0911F038A019B01082B192B27
:102660002A2B3B2BC901B8011F910F910C94AF127B
:102670004F925F926F927F928F929F92AF92BF9292
:10268000CF92DF92EF92FF920F931F93CF93DF933E
:102690008C01FC0183819481892B31F080819181AF
:1026A00089238F3F09F005C5DF91CF911F910F91CD
:1026B000FF90EF90DF90CF90BF90AF909F908F9062
:1026C0007F906F905F904F900895CE31FCE5DF07CB
:1026D00039F4F80182818823C1F10E941C12F9C4E7
:1026E000CF31FCE5DF0749F4F8018281882369F1E5
:1026F0008091110480FDF1CFEAC4CE018A529C453D
:10270000029768F4F80182818823F9F0109213048B
:1027100064E070E088E491E00E94A011DAC4C43F54
:10272000FCE5DF0709F477C008F05CC0C93D3CE573
:10273000D30709F46CC0CA3D8CE5D80709F477C00B
:10274000C83D9CE5D90709F45BC0F8018281882364
:1027500009F4E0C410920104C430FDE5DF0708F07D
:1027600069C0CB3F2CE5D20730F4CE0182509C45A6
:10277000449708F064C00E94580D90932103809301
:102780002003C0318CE5D80709F44DC108F0A5C07D
:10279000C830ECE5DE0709F41EC108F07AC0C43089
:1027A0002CE5D20709F409C108F060C0C2308CE5FD
:1027B000D80709F4FCC0809120038260C330DC4557
:1027C00009F4F8C060912003C091210384E090E0F7
:1027D0000E94BD256C2F82E290E00E94BD250E94E0
:1027E000660D77C4C63FECE5DE07E9F0C0F0C73FF1
:1027F0002CE5D20709F0A9CF27E245EE66EE03C02B
:1028000026E241EE61EEC8010E94900A62C427E20E
:1028100045EE65EEF8CF26E241EE60EEF4CF27E21A
:1028200045EE64EEF0CF26E241EE62EEECCF28E218
:1028300041E0EFCFC2363DE5D30709F49CCF80914C
:102840001303C631ECE5DE0709F07BC48A7A91E018
:1028500009F490E09093AC0269E2811165E384EAA7
:1028600092E00E94C4040E946F0833C48091200348
:102870008061C630ECE5DE0709F49CC0809120033E
:102880008860C730DC4508F495C0809120038062E1
:1028900091C0CC302CE5D20709F4BDC058F4CA3041
:1028A0008CE5D80709F4A1C008F499C080912003F1
:1028B0008E7F80C080912003877FCE30ECE5DE07DD
:1028C00009F478C0809120038B7FCF30DC4508F479
:1028D00071C0809120038F7E6DC0CD3F2CE5D20763
:1028E00009F49DC0B8F5C4318CE5D80709F4B3C02C
:1028F000B0F4C231ECE5DE0709F499C08091200301
:102900008F7BC331DC4508F455C080912003837F61
:102910008093200362E070E088E791E06FC0CB3FD6
:102920002CE5D20709F44DC008F051C0C531DC4593
:1029300009F048CF8091200382FB992790F921E08C
:10294000922790FB82F990FB83F98093200383FF09
:10295000E1CF50C0C1309DE5D90709F46EC0A8F49D
:10296000CF3FFCE5DF0709F44CC0809121038D7F48
:10297000C115DD4548F1809121038C7F80932103AF
:1029800062E070E088E691E039C0C3303DE5D307EE
:1029900009F470C008F468C0C236DD4509F012CFF2
:1029A00090912003892F8F7E94FF806103C08091D6
:1029B000200381608093200305CF809120038460F1
:1029C000F9CF80912103816080932103FBCE809118
:1029D00021038260F9CF809120038064EBCF0E94B5
:1029E000660D809120038068E5CF809120038C6084
:1029F0008093200364E070E088EA91E00E94A011D7
:102A0000E1CE8091210383608093210364E070E034
:102A100088E891E0F3CF809120038D7FCBCF809128
:102A200021038E7FD1CF809120038F7DC3CF0E9461
:102A3000660D809120038F77BDCF80912103982F61
:102A4000909591708E7F892B90FB81F98093210363
:102A500081FF96CFDBCF0E94660D90912003892FD6
:102A600097FB87F98058A6CF61E08EE090E00E9446
:102A7000BD25A8CE60E0F9CF85E355C38091E4037E
:102A800080FF1BC08E7F8093E4036091E40370910C
:102A9000E5038091E6039091E7030E94210C1092D8
:102AA0004D03FFEF20E732E0F15020403040E1F7E6
:102AB00000C000000E94570B0CC381608093E403A8
:102AC00061E086950E94EC0C04C347E25DE060E3A0
:102AD0007DE00E945505FDC240E35DE067E27DE0D8
:102AE000F8CF48EB5CE061EC7CE0F3CF41EC5CE0DC
:102AF00068EB7CE0EECF40EA5CE06CEA7CE0E9CF9A
:102B00004CEA5CE060EA7CE0E4CF44E95CE068E841
:102B10007CE0DFCF4AEC5CE06BED7CE0DACF4BEDA4
:102B20005CE06AEC7CE0D5CF61E081E0CBCF68E08F
:102B300086E00E943A0DCDC2CC352DE5D20779F161
:102B4000CD35DD4509F028C38091210382FB88271C
:102B500080F991E089270E94FA121EC30E94660D37
:102B60000E94B804EC0163E070E088EC91E00E9400
:102B7000A011CE010E94A9048A3F910520F00E9475
:102B800062060E9498048FE99FE00197F1F700C068
:102B90000000EFCF0E942D109CC281E0DCCF80E0CE
:102BA000DACF8281C081D1818823D9F0CE010E9401
:102BB000A608F82E682FCE010E944009EC2FF0E005
:102BC0002AE0D29FE00DF11D112438E2F39EE00DC2
:102BD000F11D1124EE0FFF1FEC53FF4F85919491CF
:102BE000E1C2CE010E941809F82EE8CF2C2F2F70D9
:102BF000E22EC07F19F0E29490EFE922FF20B9F0B5
:102C0000EE2069F080E28D0F883010F0D11109C0FC
:102C100080911303E82AE09213030E946F088D2F1E
:102C20004AC080911203E82AE0921203F6CF8D2F5A
:102C30000E94C309EE2009F440C080E28D0F883065
:102C400010F0D11104C08E2D0E94680806C0E094D7
:102C500080911203E822E09212030E946F082DC0B7
:102C60003C2F3F70E32EC07FC03219F0E29480EF1A
:102C7000E822DD2381F0D13009F47AC0FF2009F485
:102C800084C0BB2009F47AC0F801858180FFC7CFDA
:102C90008F70858373C02091210322FF46C0FF20DF
:102CA000F1F1EE2039F080911303E82AE09213034A
:102CB0000E946F0880E00E94F609EC2DE850FF0B9F
:102CC000349710F40E940A05DD20A9F080911003CA
:102CD00080FD11C0F80112828595859585950E9429
:102CE0001713C8010E9438138091100385958595AC
:102CF00085950E94BB1260E0C801DF91CF911F91C2
:102D00000F91FF90EF90DF90CF90BF90AF909F908A
:102D10008F907F906F905F904F900C944B0A80E063
:102D20000E94C309EE2049F28ECFFF20A1F09091BE
:102D300014038E2D892BB11003C00E94B909BDCF99
:102D4000E1E0BE12FACF22FDB8CF981709F4B5CF53
:102D500080931403B2CFB11006C00E9462088E2D7A
:102D60000E94B209AACFF1E0BF1609F4A6CFF5CFB1
:102D7000FF2031F025E02B1508F49FCF8E2DDDCFFD
:102D800034E03B1508F499CFEACFBB2041F3D933A7
:102D900049F4FFEF27EE33E0F15020403040E1F7F7
:102DA00000C000008D2F0E94C30987CF8C2F86950D
:102DB0008695837069F0813009F07FCF8D2F9C2F2D
:102DC0009370F11002C090E080E00E94DE0475CFA5
:102DD0008D2F9C2F9370F11002C090E080E00E9434
:102DE000F4046BCF8C2F837009F065C0F11065CFB0
:102DF0008D2F829586958770880F880F6D2F6F7045
:102E0000862E912CB12CA12C082E04C0880C991C64
:102E1000AA1CBB1C0A94D2F740E050E0BA01D4FFD0
:102E20000FC04FE050E060E070E004C0440F551F59
:102E3000661F771F8A95D2F74095509560957095DB
:102E4000C695C695C370C23019F1D8F440901503E9
:102E5000509016036090170370901803C13069F00A
:102E6000482959296A297B29CB01BA016421752196
:102E7000862197210E94A80920CF84289528A6287A
:102E8000B728CB01BA01682979298A299B29F2CF71
:102E9000482959296A297B298090150390901603A7
:102EA000A0901703B0901803CB01BA0168257925CB
:102EB0008A259B25DFCF8695FF2011F08C2F81700E
:102EC000882309F4FACE8D2F829586958770880F16
:102ED000880F6D2F6F70862E912CB12CA12C082E8F
:102EE00004C0880C991CAA1CBB1C0A94D2F740E0B1
:102EF00050E0BA01D4FF0FC04FE050E060E070E056
:102F000004C0440F551F661F771F8A95D2F740955E
:102F1000509560957095C695C695C370C23019F1ED
:102F2000D8F440901C0350901D0360901E037090D5
:102F30001F03C13069F0482959296A297B29CB012F
:102F4000BA0164217521862197210E94AF12B5CE66
:102F500084289528A628B728CB01BA0168297929A1
:102F60008A299B29F2CF482959296A297B298090EF
:102F70001C0390901D03A0901E03B0901F03CB0173
:102F8000BA01682579258A259B25DFCFCF70FF20E0
:102F900029F08C2F0E9417138D2FCFCE8D2F0E94DA
:102FA000B2098C2F0E94BB1288CED23FD1F160F4BF
:102FB000D03FB9F0D13F81F0FF2009F46AC0B110D1
:102FC0002ECE8C2F8F7131C0D33F91F1D43FA1F71A
:102FD0008091210382FF3FC08C2F8F71FF2011F35E
:102FE00024C0FF20C9F084E08B1508F466CECF71B1
:102FF00061E070E080E090E004C0660F771F881FFA
:10300000991FCA95D2F780901C0390901D03A09041
:103010001E03B0901F03B5CF95E09B1508F44DCE6D
:10302000E6CF8C2F8F71F110BDCF0E94171345CEC4
:1030300060E070E0CB01FF2009F487CFCF7161E041
:1030400070E080E090E004C0660F771F881F991F32
:10305000CA95D2F77ACFFF2089F0CF718C2F0E94CA
:1030600017138091210382FD07C0E8E0CE9FC001C5
:1030700011248360809310038C2FD7CF81E00E94AE
:10308000DE12F1E0FB1508F018CE82E00E94DE129D
:1030900014CEBB2059F0D93309F084CE2FEF37EE90
:1030A00083E0215030408040E1F77ACE8C2F8F7141
:1030B00079CF61E0C8010E944B0AEC018D319C453B
:1030C00009F003CBF8018281882309F43ECB0E94EA
:1030D000361280911003877009F4E6CAF8018281E4
:1030E000882309F4E1CA8091210382FDDDCA82E0D0
:1030F000DF91CF911F910F91FF90EF90DF90CF90D4
:10310000BF90AF909F908F907F906F905F904F9007
:103110000C94DE12C631DC4509F03EC08091AC0251
:103120008111AACC89E2E6EAF2E02CEA32E0919140
:10313000891303C0DF0111971C922E173F07B9F7BF
:1031400092CB8272CB3C3CE5D30709F4DECC08F08D
:1031500074C0C63CECE5DE0709F4C3CC08F057C0E8
:10316000C43C2CE5D20709F4B0CC08F0B5CCC33C84
:103170008CE5D80709F482CCCB358DE5D80709F466
:103180000CCD08F0D9CCC115ECE5DE0709F4E6CC8E
:10319000CF3DDC4509F4FECCF8018681978100978C
:1031A00009F4FFCC0E94E506D82FC92FF801F28060
:1031B000B580B2943FE0B322809110038770C1F0D4
:1031C000DF2CFF20B1F0892F807F803421F080E256
:1031D0008D0F883068F08091210382FD09C082E064
:1031E0000E94DE12809110038770DD24D394811138
:1031F000D12CCC2EC2942FE0C222FBE0FC1508F4A7
:103200005CCDEC2DF0E0E651F84D0C949425C83CD3
:103210009CE5D90709F46FCC08F468CCC93CFCE5FF
:10322000DF0709F46DCC48E85CE064E97CE0CA3C67
:103230002CE5D20709F44DCC9FCFC03D3CE5D30728
:1032400009F475CCA0F4CD3CECE5DE0709F467CCBD
:1032500008F460CCCE3C2CE5D20709F465CC65E0DF
:1032600082E0CF3C3CE5D30709F463CC85CFC73D72
:103270008CE5D80738F46EE089E0C23DDC4508F4FF
:1032800058CC27CFCE35EDE5DE0709F422CF74CF39
:10329000CF93DF938091CB02807FA1F48091C8020D
:1032A000882381F080910F03D091CE026091C602F5
:1032B0007091C702A091C902B091CA02C62FC7235C
:1032C000D81303C0DF91CF91089590E0109711F0CB
:1032D000CF3F19F401968770F3CF9C0143E0220F92
:1032E000331F4A95E1F7F901E153FD4F418147133F
:1032F000F1CF40814613EECF42814111EBCF4381A4
:1033000054814A1B5B0B4A3A510520F78091CB024E
:103310008F7080618093CB02F901EC52FD4F808168
:103320008F708061808386EC92E00E943813DF9179
:10333000CF910C949C08AF92BF92CF92DF92EF9204
:10334000FF920F931F93CF93DF93CDB7DEB76597AF
:103350000FB6F894DEBF0FBECDBF8C0185E0F8013B
:10336000DE01519601900D928A95E1F7F801E28015
:1033700066ECA62E62E0B62E6091C9027091CA0278
:103380006115710509F468C19091C6024091C702A8
:10339000892F84238F3F09F45FC120813181C3804D
:1033A000D480F090C802F601E61BF70BFF2009F469
:1033B0001DC18091CB02582F507FEA3AF10508F0E9
:1033C000D0C0511181C0FE2C43132BC0921329C0D1
:1033D0006091CC027091CD02F8014681578164174B
:1033E0007507F9F4E1101DC08F7080618093CB02E6
:1033F000C5010E9438138091CB02F80185838F2D7F
:1034000065960FB6F894DEBF0FBECDBFDF91CF91AA
:103410001F910F91FF90EF90DF90CF90BF90AF90F2
:103420000895CD2829F0822F83238F3F09F02FC1E3
:1034300080E0F82FF170DF2E80FF3CC080910F03F9
:103440004091CE02841315C0298B3A8B89899A89C1
:103450000E94FD08292F22952F702230F8F0243089
:1034600020F59F70F9F0F8019581907FD9F4D12C67
:103470001FC090E0FC0153E0EE0FFF1F5A95E1F7EB
:10348000E153FD4F5181351306C05081251303C010
:103490005281E5120FC001968770D4CF9F7011F052
:1034A000882329F3805E883010F3C8010E94381306
:1034B000FD2CA5CFEE2009F4A2CF8091CB02816034
:1034C0008093CB02F12C9BCF43131BC0921319C0E6
:1034D0004091CC025091CD02F801268137814217EC
:1034E000530779F4E1100DC08583C8010E94381399
:1034F00088E0F801A6ECB2E001900D928A95E1F720
:103500007ECFC8010E946C09882339F1EE2029F191
:103510008091CB028032A0F02091C6023091C70288
:103520003A8729871B86DD86CC868E878091CC02E0
:103530009091CD02988B8F87CE0109960E94381307
:1035400088E0F801A6ECB2E001900D928A95E1F7CF
:103550000E944819FF24F39452CFC8010E943813E7
:10356000F9CF51110AC086EC92E00E94381388E02E
:10357000F50111928A95E9F7A5CF431318C092136C
:1035800016C04091CC025091CD02F80126813781BE
:103590004217530761F4E1100AC08583C8010E94F5
:1035A000381388E0F50111928A95E9F728CFC80110
:1035B0000E946C09882389F2EE2079F28091CB0277
:1035C000803208F4BDCF2091C6023091C7023A8301
:1035D00029831B82DD82CC828E838091CC029091E4
:1035E000CD0298878F83CE010196A8CFEA3AF105E4
:1035F000C0F6FE2CEE2009F4B0CF43131FC0921387
:103600001DC02091CC023091CD02F80186819781B6
:103610002817390799F49091CB0290FD69CF907FDC
:1036200009F466CF8091CB028583903F09F45DCF8A
:10363000982F907F905F8F70892B56CFC8010E9482
:103640006C0981117DCF8091CB0281608093CB0288
:10365000C8010E943813D3CEEE2009F47ECFC801F2
:103660000E946C09F82E882309F477CF88E0F801CE
:10367000A6ECB2E001900D928A95E1F78091C60226
:103680009091C7020E94FD080E944819B8CE81E0BF
:103690008E25CFCECF93DF93CDB7DEB760970FB631
:1036A000F894DEBF0FBECDBF29873A874B875C8772
:1036B0006D877E878F87988BCE0109960E949B1914
:1036C000811112C088E0FE013996DE011196019049
:1036D0000D928A95E1F78C859D85892B29F0898546
:1036E0009A8589238F3FA9F580910F039091CE028F
:1036F00089131CC060960FB6F894DEBF0FBECDBF15
:10370000DF91CF91089593E0AA0FBB1F9A95E1F73F
:10371000A153BD4F98E0FE01319601900D929A950C
:10372000E1F78093CE020E949C08DECFB8E08B9F29
:10373000C001112481539D4F0E949B198823D1F20F
:1037400080910F0390E001968770992780930F0373
:10375000CBCFA091CE02B0E0CD0101968770992722
:1037600020910F032817190671F60E94660D10921A
:10377000CE0210920F0388E0E6ECF2E0DF011D922A
:103780008A95E9F7B1CF0F931F93CF93DF93809181
:103790006903E0916803CCE081111AC0DF91CF91F9
:1037A0001F910F910895D1E0DE0FD09368030E2F83
:1037B00010E0EC9FF0011124E659FC4F83819481C5
:1037C000892B29F08081918189238F3F51F4ED2F3E
:1037D00080916903E81738F3109269031092680327
:1037E000DDCFC09FD001C19FB00D1124A659BC4FA1
:1037F00016968D919C911797892B29F418968D9187
:103800009C91019651F420813181428153816481E0
:103810007581868197810E944A1BC09FF001C19FDC
:10382000F00D1124E659FC4F14821382D0CF109270
:10383000D5031092D403109252028091D303809347
:10384000D2030E9444050C94C31B2F923F924F92C7
:103850005F926F927F928F929F92AF92BF92CF9220
:10386000DF92EF92FF920F931F93CF93DF93C0915C
:10387000D203E7E0FE2E01E010E0FCE02F2EAEEFD9
:10388000EA2E8091D3038C1316C00E94C31BDF91D4
:10389000CF911F910F91FF90EF90DF90CF90BF904D
:1038A000AF909F908F907F906F905F904F903F90E0
:1038B0002F900C944405D0E0FE01EE0FFF1FE6535D
:1038C000FC4F80819181F89EF001F99EF00D11244A
:1038D000EA5CFD4F2481211158C030906903AAE6AB
:1038E000B3E030E020E0412C5F01231508F04BC02D
:1038F0001A966D907C901B97F501808091804FEF18
:103900005FEF512CC52CD12CF601EE0FFF1FE80DF7
:10391000F91D659174916616770609F4A601672B67
:1039200011F05394EFCF4F3F5407B1F1B80102C0EB
:10393000660F771F4A95E2F7462AA80102C0440F96
:10394000551F5A94E2F7415051094416150601F5E6
:10395000229EF001239EF00D1124E659FC4FF89EA3
:10396000D001F99EB00D1124AA5CBD4F12962D9185
:103970003C91139737832683E082E1829187808789
:1039800071E015967C930E9416052196C37079CF3D
:1039900014961C921E9213972F5F3F4F1C96A5CF33
:1039A0002F923F924F925F926F927F928F929F924F
:1039B000AF92BF92CF92DF92EF92FF920F931F933D
:1039C000CF93DF93CDB7DEB769970FB6F894DEBF1C
:1039D0000FBECDBF498B5A8B6B8B7C8B8D8B61114E
:1039E000109212031D861E861F86188A85E0FE012E
:1039F0007196DE01199601900D928A95E1F78C85FA
:103A00009D85892B31F089859A8589238F3F09F01F
:103A1000D2C129853A854B855C856D857E858F85EC
:103A200098890E944A1BC1C029EFC2162CE5D20614
:103A300029F4882379F00E94171CEBCF3AEFC316C4
:103A40003CE5D30639F4882329F080915202811194
:103A5000F2CFC1C106E312E0E12CB12CA12C8824E5
:103A60008394912C9EEF592E44244394F801608155
:103A7000718166246A94762C20E0422F50E0FA018E
:103A8000EE0FFF1FE60FF71F85919491C816D90618
:103A900009F43A01892B11F02F5FEFCFF12CFFEFE2
:103AA0006F167F0609F443C0F8014481F09052027A
:103AB0008F2D411180E0F82FF170FF2EF801258045
:103AC00086819B85992309F406C1FF2009F403C16F
:103AD000211013C0A40101C0440F6A94EAF7842B9B
:103AE00086838091660390916703C29730F442E326
:103AF00050E05093670340936603C40102C0880FEF
:103B0000991F2A95E2F70197F801268128171906CF
:103B100071F48091D4039091D503009709F45EC0AD
:103B20000E94A904C39708F459C0F8014482EF2801
:103B3000FFEFAF1ABF0A095F1F4F24E0A216B104BE
:103B400009F094CF8B85882309F420C1EE2009F475
:103B50001DC10E94B8049093D5038093D403809133
:103B60006903883010F591E0980F9093690398E00D
:103B7000FE013996DE01119601900D929A95E1F7BA
:103B80003CE0839FC001112486599C4F28E0FE0130
:103B90003196DC0101900D922A95E1F72FEF3FEF6E
:103BA000FC0131872087D386C28669960FB6F894C8
:103BB000DEBF0FBECDBFDF91CF911F910F91FF9060
:103BC000EF90DF90CF90BF90AF909F908F907F90BD
:103BD0006F905F904F903F902F9008958091D20307
:103BE0006090D303982FF0E0E0E0861114C090932A
:103BF000D2030E171F0709F49ACF90E0FC01EE0FD5
:103C0000FF1FE653FC4FB182A08201968370992773
:103C10008093D3038CCF282E312CF101EE0FFF1FA0
:103C2000E653FC4F20813181F7E0F29FD001F39FF2
:103C3000B00D1124AA5CBD4F2D913C911197398F85
:103C4000288F712C60E070E0E72FF0E0EE0FFF1F8F
:103C5000288D398DE20FF31F2591349121153105FF
:103C6000E1F0F8010190F081E02DFF8BEE8B60E038
:103C700005C02417350709F47F2C6F5FE62FF0E0AD
:103C8000EE0FFF1F4E895F89E40FF51F4591549198
:103C90004115510571F77F5FD7CF7720C9F0F80143
:103CA000671708F0FD0144820E171F0721F4909357
:103CB000D203F72C3CCF981305C0AE17BF0711F401
:103CC0009F5F937091012F5F3F4F822F83708DCF45
:103CD000F0E0E0E0F7CF90E021101FC0B40102C097
:103CE000660F771F2A95E2F79B01215031092817AB
:103CF000390731F4442309F447C0C5010E94160571
:103D0000C40101C0880F6A94EAF7982F9095F801D2
:103D1000868189238683F22C0ACF9C01062C02C05F
:103D2000359527950A94E2F7A90141705527BC0102
:103D30006150710986239723892B11F5452B01F1D9
:103D4000F80182819381892BC1F01B821C821D8224
:103D50001E8259825A820E94B8048160582F9D8326
:103D60008C83F801828193818F83988729813A819E
:103D70004B816D817E810E944A1BF8011582C0CF64
:103D8000F22FF1702F2EBCCF2F2CBACF9091D203EF
:103D90008091D303981731F00E94251CEE2009F47E
:103DA00038CE03CF0E94C31B1092D5031092D403C8
:103DB0000E944405F3CF61E0CE0109960E944B0AB0
:103DC0006C018B85F8EFCF16FCE5DF0609F02CCEF1
:103DD000882309F43FCE81E0809352021ACE6F927D
:103DE0007F928F929F92AF92BF92CF92DF92EF928B
:103DF000FF920F931F93CF93DF93CDB7DEB7289732
:103E00000FB6F894DEBF0FBECDBF8E010F5F1F4F00
:103E100088E0F80111928A95E9F795E8E92E92E099
:103E2000F92E680129E8622E22E0722E88248394FC
:103E3000912CF70181917F018F3F09F446C0F894DE
:103E4000E82FE295EF70F0E021A18F70A40102C08D
:103E5000440F551F8A95E2F7CA01922F982B91A320
:103E600092A18095892382A3789400C0E9E8F2E0CA
:103E700021E030E0B12CA12C41914F3F09F477C0F3
:103E8000A42FA295AF70B0E090968C9190E04F7007
:103E900002C0959587954A95E2F780FD68C0C901F3
:103EA000A82AB92A220F331F52E0E339F50721F778
:103EB000F701319780818F3F11F00E948B0680EAD5
:103EC0008A95F1F7F601B182A082F2E0CF0ED11C03
:103ED0006E147F0409F0ADCF48E050E0B80182E2F3
:103EE00093E00E94C327FF24F394009709F4F12C78
:103EF000892B09F43FC088E0F801A2E2B3E0019009
:103F00000D928A95E1F781E080931B030E94B8042B
:103F100090931A03809319038091190390911A03C7
:103F20000E94A904059750F18091220390912303E8
:103F300090932C0380932B0380912403909125036D
:103F400090932E0380932D03809126039091270355
:103F50009093300380932F0380912803909129033D
:103F6000909332038093310310921B0307C090E0BB
:103F700080E096CF80911B038111CECF80915202B9
:103F80008823F9F08091D4039091D5030097C9F06C
:103F90000E94A9042091660330916703281739070E
:103FA00080F49091D2038091D303981701F10E947D
:103FB000251C10926703109266031092D50310928D
:103FC000D4038F2D28960FB6F894DEBF0FBECDBF59
:103FD000DF91CF911F910F91FF90EF90DF90CF90E5
:103FE000BF90AF909F908F907F906F9008950E94A8
:103FF000C31B1092D5031092D4030E944405E1CF55
:104000001F920F920FB60F9211242F933F934F934D
:104010005F936F937F938F939F93AF93BF93CF9350
:10402000DF93EF93FF93D091E900DF708091EC0074
:10403000C82FC17080FDC0E81092E9008091F000A7
:10404000877F8093F00078940E94710D1092E900B0
:104050008091F00088608093F000CD2BCF70C093EA
:10406000E900FF91EF91DF91CF91BF91AF919F91C7
:104070008F917F916F915F914F913F912F910F9011
:104080000FBE0F901F9018951F920F920FB60F92B0
:1040900011242F933F934F935F936F937F938F934D
:1040A0009F93AF93BF93EF93FF938091E10082FFC3
:1040B00009C08091E20082FF05C08091E1008B7F02
:1040C0008093E1008091DA0080FF24C08091D800C5
:1040D00080FF20C08091DA008E7F8093DA0080918B
:1040E000D90080FFA3C080E189BD82E189BD09B408
:1040F00000FEFDCF81E08093F5038091E303811101
:1041000009C00E9408030E94D3038091E2008460EA
:104110008093E2008091E10080FF17C08091E2006F
:1041200080FF13C08091E2008E7F8093E200809137
:10413000E20080618093E2008091D80080628093E9
:10414000D80019BC85E08093F5038091E10084FFDD
:1041500031C08091E20084FF2DC080E189BD82E101
:1041600089BD89B5982F917080FFFBCF8091D800D1
:104170008F7D8093D8008091E1008F7E8093E10055
:104180008091E2008F7E8093E2008091E200816066
:104190008093E2008091F603882309F44DC084E007
:1041A0008093F5030E94660D0E940A050E940B0C85
:1041B0008091F5038091E10083FF27C08091E200A8
:1041C00083FF23C08091E100877F8093E10082E03C
:1041D0008093F5031092F6038091E1008E7F809327
:1041E000E1008091E2008E7F8093E2008091E20006
:1041F00080618093E20042E060E080E00E94A103E1
:104200008091F00088608093F000FF91EF91BF9162
:10421000AF919F918F917F916F915F914F913F915E
:104220002F910F900FBE0F901F90189519BC1092F0
:10423000F5031092E3036ECF8091E30087FD93E0D6
:104240009093F503AFCF78941F921FB61F9211245D
:104250008F939F93AF93BF938091DC039091DD0385
:10426000A091DE03B091DF030196A11DB11D8093E3
:10427000DC039093DD03A093DE03B093DF03BF91D3
:10428000AF919F918F911F901FBE1F9018951F9205
:104290001FB61F9211248F939F93AF93BF9380916A
:1042A000DC039091DD03A091DE03B091DF03419622
:1042B000A11DB11D8093DC039093DD03A093DE0369
:1042C000B093DF03BF91AF919F918F911F901FBE5D
:1042D0001F9018951F920F920FB60F9211242F92D4
:1042E0003F924F925F926F927F928F929F92AF9286
:1042F000BF92CF92DF92EF92FF920F931F932F9373
:104300003F934F935F936F937F938F939F93AF935D
:10431000BF93CF93DF93EF93FF93809142039091EC
:104320004303A0914403B09145030196A11DB11D23
:104330008093420390934303A0934403B0934503B7
:10434000609142037091430380914403909145032F
:104350000E9497266B017C0120E030E040E85CE39E
:1043600060913E0370913F0380914003909141031F
:104370000E9449279B01AC01C701B6010E94F125AB
:1043800087FDBAC010924203109243031092440377
:104390001092450330900E0480910F04811103C0E8
:1043A000332009F49FC00E94B8046C01311025C06D
:1043B000312C80910F048823B9F08091120481116F
:1043C000382E04E114E0912C812C412C512C20E852
:1043D000622E2FEB722E2224239480915404881590
:1043E000190411F00CF00CC180913D03882309F4ED
:1043F00079C010923D03382E75C0009104041091CD
:104400000504C8010E94A904C0910204D0910304CC
:104410008C179D0768F2C8010E94A9047C01EC1A60
:10442000FD0AD0920504C0920404A0900604B09046
:104430000704E5012196D0930704C09306040E9467
:10444000B8048090090490900A04C815D90548F072
:1044500080910804882309F442C010920704109246
:10446000060400910B0410910C04C0910604D09135
:10447000070480910D046E01E3E0CC0CDD1CEA958D
:10448000E1F781115CC0F50173E0EE0FFF1F7A9533
:10449000E1F7E00FF11FD801AC0DBD1D2D913D914D
:1044A0004D915C9160817181828193810E94F1259F
:1044B000811145C081E080930D044FE050E060E041
:1044C00070E0CB010E94E110B0920704A0920604B4
:1044D0008FE090E090930304809302046ACF0E94DF
:1044E0006206312C80910F0481110EC180910E045F
:1044F00081110AC10E940606FF91EF91DF91CF91D1
:10450000BF91AF919F918F917F916F915F914F91EB
:104510003F912F911F910F91FF90EF90DF90CF90DF
:10452000BF90AF909F908F907F906F905F904F90D3
:104530003F902F900F900FBE0F901F9018951092E4
:104540000D04F801EC0DFD1D648175818681978154
:104550000E9468269B01A0E6BAEE0E949A2520E000
:104560003EE140E050E00E94722581E0881A910807
:10457000412C6EE1562E612C712C2E153F05F0F06A
:10458000D0930704C0930604E216F306A8F5F901D8
:10459000EE19FF097F0133E0CC0FDD1F3A95E1F7FB
:1045A000C00FD11F688179818A819B81A7010E94F8
:1045B000E110F0920304E0920204FBCEC815D90585
:1045C000F8F6E21AF30A2196FE0153E0EE0FFF1F00
:1045D0005A95E1F7E00FF11F64817581868197811B
:1045E0000E9468269B01A0E6BAEE0E949A25A301CC
:1045F00092010E947225C1CFEE24E394F12CCBCF1F
:10460000F801C681D781CE0101978E3F9F4F08F0F8
:1046100075C0F801808191810E94A9048C179D07C3
:1046200008F46CC0F801C280D380E480F58020E0FB
:1046300030E0A901C701B6010E94F12587FF04C03F
:10464000F7FAF094F7F8F09480910F04882309F4B6
:1046500055C080911004811102C00E94981094E10D
:10466000A92E94E0B92EC7E0D0E0A7019601F5018C
:1046700062AD73AD84AD95AD0E94F125811136C058
:1046800083E0CC0FDD1F8A95E1F7CC5EDB4F19820A
:1046900018824A825B826C827D821F821E828CE439
:1046A00094E08C179D0781F420923D03809154047F
:1046B000815080935404811121C00E9406062092EB
:1046C000340210920F041AC088E0FE013896DE0111
:1046D00001900D928A95E1F7198618864A865B86C5
:1046E0006C867D861F861E862896D9CF219798E0F6
:1046F000A91AB108CF3FDC0709F0B7CFFFEF8F1A37
:104700009F0A085F1F4F69CE332009F4F5CE0E943F
:10471000DB020E941106F0CECDB7DEB72A970FB6A6
:10472000F894DEBF0FBECDBF84B7877F84BF0FB6BE
:10473000F894A89580916000886180936000109241
:1047400060000FBE80E890E00FB6F894809361009F
:10475000909361000FBE85B7806885BF85B780687C
:1047600085BF89E896E09093A3028093A2020E94FD
:1047700008030E94D3038091E20084608093E200EA
:1047800078948091F5038823A1F01091E9001F70BF
:104790009091EC00892F817090FD80E8182B109289
:1047A000E9008091E80083FD0E94710D1F70109355
:1047B000E90082E084BD93E095BD9AEF97BD8093B8
:1047C0006E0085EF0E948B0686EF0E948B0687EFB6
:1047D0000E948B0681E30E948B0609E812E0D80153
:1047E0008D918D018F3F11F00E948B06B2E003394D
:1047F0001B07A9F788E0EBE2F3E0DF01282F1D9209
:104800002A95E9F7E2E2F3E0DF011D928A95E9F7E4
:1048100090E080E00E94B725893E9E4F11F00E94F3
:104820002D1082E090E00E94A925809334030E941D
:10483000580D90932103809320030E94EF1EEFE315
:10484000FCE93197F1F700C000000E94EF1E809153
:104850002B0380FF08C06FEF7FEF90E080E00E94A5
:10486000DB250E94980483E090E00E94A925682F30
:1048700070E090E080E00E94A80960911C037091B4
:104880001D0380911E0390911F030E9445120E94F8
:10489000981080912A03811136C090E080E00E9438
:1048A000B725893E9E4F21F00E942D100E94480D91
:1048B00088E090E00E94B1256093E4037093E503E3
:1048C0008093E6039093E7036E7F71F40E94480D96
:1048D00088E090E00E94B1256093E4037093E503C3
:1048E0008093E6039093E7030E945A0510924D03CC
:1048F0008091E40380FF04C060E086950E94EC0C88
:1049000081E080932A0380EE91E09093D903809315
:10491000D803FF24FA940E94EF1E882359F08FB722
:10492000F8944091DC035091DD036091DE037091B7
:10493000DF038FBFEBE2F3E0A5E3B3E010E000E0BC
:10494000602F819191914D915D914817590709F41C
:104950007DC04827592720E0CC24C394D12C5A018C
:10496000AC20BD20AB2809F46BC029836A83960173
:104970002823392391E0232B09F490E09B830E94A4
:10498000B8048160782F9D838C8349815A816B8123
:104990008D810E94D01C000F111FF801EB5CFC4FB1
:1049A00080819181C826D926D182C08280914D0311
:1049B0008823D1F180914C03E091E403E695E81B54
:1049C000E0934803823009F057C0F0E0E65FFD4F06
:1049D000E4910E2F10E037EFC32E3BE0D32E8091F1
:1049E0004903882361F0109249030E94B804909310
:1049F00047038093460310924B0310924A030E9490
:104A0000B804E0914603F09147038E1B9F0B8F3F44
:104A10009F4750F40E0F1F1F109347030093460348
:104A200086E493E0F60109950E940A05909133030C
:104A3000891709F470CF0E940A05809333036BCF66
:104A40002F5FCC0CDD1C2A3009F089CF0F5F1F4F80
:104A50000430110509F074CFFE82FF8218860E948F
:104A6000B8048160782F9A8789874E815F81688535
:104A70008A850E94D01C9ACF863059F4F0E0E95F15
:104A8000FD4FE4910E2F10E027EEC22E2BE0D22E28
:104A9000A6CF893061F4E695F0E0EC5FFD4FE4913C
:104AA0000E2F10E09CE8C92E9BE0D92E98CF00ED88
:104AB00017E083E9C82E84E0D82E91CFAA1BBB1B38
:104AC00051E107C0AA1FBB1FA617B70710F0A61B0E
:104AD000B70B881F991F5A95A9F780959095BC012F
:104AE000CD010895A1E21A2EAA1BBB1BFD010DC02A
:104AF000AA1FBB1FEE1FFF1FA217B307E407F5078E
:104B000020F0A21BB30BE40BF50B661F771F881F69
:104B1000991F1A9469F760957095809590959B01FF
:104B2000AC01BD01CF010895EE0FFF1F0590F49178
:104B3000E02D0994A29FB001B39FC001A39F700D07
:104B4000811D1124911DB29F700D811D1124911D95
:104B50000895F999FECF92BD81BDF89A992780B545
:104B60000895A6E1B0E044E050E00C94E325A8E10C
:104B7000B0E042E050E00C94E325262FF999FECFF7
:104B800092BD81BDF89A019700B4021639F01FBAA0
:104B900020BD0FB6F894FA9AF99A0FBE08950396BD
:104BA000272F0E94BE250E94BD25252F0E94BE25CD
:104BB000242F0C94BE250196272F0E94BE250C940D
:104BC000BD25DC01CB01FC01F999FECF06C0F2BD89
:104BD000E1BDF89A319600B40D9241505040B8F7BB
:104BE00008950E94D42608F481E008950E940A26C0
:104BF0000C940F270E94082758F00E94012740F0CC
:104C000029F45F3F29F00C94F82651110C944327A6
:104C10000C94FE260E94202768F39923B1F35523B4
:104C200091F3951B550BBB27AA27621773078407BF
:104C300038F09F5F5F4F220F331F441FAA1FA9F355
:104C400035D00E2E3AF0E0E832D091505040E69543
:104C5000001CCAF72BD0FE2F29D0660F771F881FA4
:104C6000BB1F261737074807AB07B0E809F0BB0B97
:104C7000802DBF01FF2793585F4F3AF09E3F5105AB
:104C800078F00C94F8260C9443275F3FE4F3983EA9
:104C9000D4F3869577956795B795F7959F5FC9F794
:104CA000880F911D9695879597F90895E1E0660F15
:104CB000771F881FBB1F621773078407BA0720F08E
:104CC000621B730B840BBA0BEE1F88F7E0950895F7
:104CD0000E94282788F09F5798F0B92F9927B7513D
:104CE000B0F0E1F0660F771F881F991F1AF0BA9590
:104CF000C9F714C0B13091F00E944227B1E0089585
:104D00000C944227672F782F8827B85F39F0B93F76
:104D1000CCF3869577956795B395D9F73EF4909542
:104D20008095709561957F4F8F4F9F4F0895E894C0
:104D300009C097FB3EF490958095709561957F4FE3
:104D40008F4F9F4F9923A9F0F92F96E9BB27939591
:104D5000F695879577956795B795F111F8CFFAF4A1
:104D6000BB0F11F460FF1BC06F5F7F4F8F4F9F4FD2
:104D700016C0882311F096E911C0772321F09EE830
:104D8000872F762F05C0662371F096E8862F70E096
:104D900060E02AF09A95660F771F881FDAF7880F70
:104DA0009695879597F90895990F0008550FAA0BC6
:104DB000E0E8FEEF16161706E807F907C0F012162E
:104DC0001306E407F50798F0621B730B840B950B31
:104DD00039F40A2661F0232B242B252B21F4089586
:104DE0000A2609F4A140A6958FEF811D811D089523
:104DF00097F99F6780E870E060E008959FEF80EC8E
:104E0000089500240A941616170618060906089530
:104E100000240A9412161306140605060895092E96
:104E20000394000C11F4882352F0BB0F40F4BF2B05
:104E300011F460FF04C06F5F7F4F8F4F9F4F089545
:104E400057FD9058440F551F59F05F3F71F047953B
:104E5000880F97FB991F61F09F3F79F08795089520
:104E6000121613061406551FF2CF4695F1DF08C03F
:104E7000161617061806991FF1CF8695710561055C
:104E800008940895E894BB2766277727CB0197F904
:104E900008950E945C270C940F270E94012738F088
:104EA0000E94082720F0952311F00C94F8260C940A
:104EB000FE2611240C9443270E94202770F3959F0F
:104EC000C1F3950F50E0551F629FF001729FBB2701
:104ED000F00DB11D639FAA27F00DB11DAA1F649F9D
:104EE0006627B00DA11D661F829F2227B00DA11D50
:104EF000621F739FB00DA11D621F839FA00D611DD6
:104F0000221F749F3327A00D611D231F849F600DF6
:104F1000211D822F762F6A2F11249F5750409AF01F
:104F2000F1F088234AF0EE0FFF1FBB1F661F771FAB
:104F3000881F91505040A9F79E3F510580F00C9476
:104F4000F8260C9443275F3FE4F3983ED4F386950C
:104F500077956795B795F795E7959F5FC1F7FE2B16
:104F6000880F911D9695879597F90895FC014150FA
:104F7000504030F001900616D1F73197CF010895D7
:104F8000882799270895FB01DC0104C08D910190C9
:104F9000801921F441505040C8F7881B990B08959F
:104FA000F894FFCF850985098E098E0990098E092D
:104FB0008E098E098509850995098E098E0995093D
:104FC000550E7D0E15107D0E1510B00ED10E15105C
:104FD000CE0FDB0FF615F61530163016D6165D1609
:0C4FE0005D165D16F216C617D517D51722
:104FEC0000005C44000080411F15694400008041B2
:104FFC0048F176440000804100D08244000080419A
:10500C005C978A440000804100005C440000004131
:10501C000000DC44000000410000DC4400000041C2
:10502C0000005C440000004100005C440000804132
:10503C005C978A440000804152D0A4440000804117
:10504C000000DC440000804100005C440000004192
:10505C0000005C440000004100005C440000004182
:10506C0000005C440000004148F176440000C04060
:10507C0000005C440000C04048F176440000C04091
:10508C0000005C440000C04048F176440000C04081
:10509C0000005C440000C04048F176440000C04071
:1050AC0000005C440000C04052D024450000004188
:1050BC000000DC440000004152D0A44400004041F8
:1050CC0095042A0B9404260B220B920400005C44DA
:1050DC000000804148F17644000080415C978A448E
:1050EC00000080411FD592440000804152D0A4445E
:1050FC000000804100005C44000000410000DC44E2
:10510C00000000410000DC440000004100005C4451
:10511C00000000410101BE002900000000B8004C55
:10512C0000000000B2002800000000AC002B0000C2
:10513C0000000101818283E200E900EA00B500B6BB
:10514C0000B700CD008301CC008A019201940121AB
:10515C0002230224022502260227022A02B300B4EB
:10516C00006F007000F5F6F731333291909466972A
:10517C00C6343500010202020206060609090909B5
:02518C0009090F
:00000001FF
