:100000000C9439030C9480030C9480030C948003AB
:100010000C9480030C9480030C9480030C94800354
:100020000C9480030C9480030C947D260C94392648
:100030000C9480270C9480030C9480030C94800310
:100040000C9480030C9480030C94A3270C948003DD
:100050000C9480030C945C270C9480030C94800314
:100060000C9480030C9480030C9480030C94800304
:100070000C9480030C9480030C9480030C948003F4
:100080000C9480030C9480030C9480030C948003E4
:100090000C9480030C9480030C9480030C948003D4
:1000A0000C9480030C9480030C9480030763423605
:1000B000B79BD8A71A39685618AEBAAB558C1D3CF9
:1000C000B7CC5763BD6DEDFD753EF6177231BF00BD
:1000D0000000803F08000000BE922449123EABAAF7
:1000E000AA2ABECDCCCC4C3E00000080BEABAAAA52
:1000F000AA3E00000000BF000000803F000000009A
:1001000000084178D3BB4387D1133D190E3CC3BDD2
:100110004282AD2B3E68EC8276BED98FE1A93E4C7F
:1001200080EFFFBE01C4FF7F3F000000000012000F
:10013000130000000500110000000A000B00000081
:1001400017001C0000000400160000000F00330020
:100150000000AE002A00000014001A000000140085
:100160001A000800150017001C0018000C001200EF
:10017000130004001600070009000A000B000D0020
:100180000E000F0033001D001B00060019000500C3
:1001900011001000360037003800E000E200E100F6
:1001A000015128002C000251A800AE002A001E02B6
:1001B0001F022F023002340034022E0224002500D8
:1001C0002600200221022602270223022D022D00F2
:1001D000210022002300220224022F0030002502E9
:1001E000010001001E001F0020001050010031001E
:1001F00031020100010001002E0027002A00490001
:100200004A004B000000160A0401000000005200E2
:1002100000004C004D004E000000160106010000D9
:10022000500051004F0000000000000000000808CE
:100230001901000000000000000010500100010042
:100240000100010001000100AA000100A900C45C36
:10025000C75CC65C00003A003B003C003D003E002D
:100260003F00C55CC95CC85C000040004100420022
:10027000430044004500C35CCB5CCA5C0000000046
:10028000000000000000000000001050010001000C
:100290000100010001000100010001000100000057
:1002A0000000325C355C375C375C395C305C0000E8
:1002B000915C0000365C385C3A5C2F5C315C335CEE
:1002C000345C0000905C2F5C315C335C345C365CE9
:1002D000385C3A5C2F5C315C825C1050000000009E
:1002E000000000000000000000000000815C64329B
:1002F00014783C1E1E140A050001010101010101D0
:1003000001010202020202020202020303030303CA
:100310000303030404040404040405050505050699
:100320000606060607070707070808080809090957
:10033000090A0A0A0B0B0B0C0C0C0D0D0D0E0E0E00
:100340000F0F0F1010111111121213131414151591
:1003500016161717181819191A1A1B1B1C1D1D1E03
:100360001E1F202021222223242425262627282957
:10037000292A2B2C2D2D2E2F303132323334353685
:100380003738393A3B3C3D3E3F4041424344454685
:100390004748494A4C4D4E4F505153545556585961
:1003A0005A5B5D5E5F616264656668696B6C6D6F08
:1003B0007072737577787A7B7D7E8082838587887B
:1003C0008A8C8E8F91939596989A9C9EA0A2A3A5B5
:1003D000A7A9ABADAFB1B3B5B7BABCBEC0C2C4C6B6
:1003E000C9CBCDCFD1D4D6D8DBDDDFE2E4E7E9EB72
:1003F000EEF0F3F5F8FAFDFF2223252628292A2C12
:100400002D2F3032333536383A3B3D3E404243455E
:1004100047494A4C4E5051535557595A5C5E606299
:10042000646668696B6D6F71737577797B7D7F81A9
:10043000838587898A8C8E90929496989A9C9E9FA9
:10044000A1A3A5A7A8AAACAEAFB1B3B4B6B8B9BBC7
:10045000BCBEBFC1C2C3C5C6C7C9CACBCCCDCED036
:10046000D1D2D2D3D4D5D6D7D7D8D9D9DADADBDB23
:10047000DBDCDCDCDCDCDDDDDDDDDCDCDCDCDCDBBA
:10048000DBDBDADAD9D9D8D7D7D6D5D4D3D2D2D103
:10049000D0CECDCCCBCAC9C7C6C5C3C2C1BFBEBCF6
:1004A000BBB9B8B6B4B3B1AFAEACAAA8A7A5A3A167
:1004B0009F9E9C9A98969492908E8C8A8987858329
:1004C000817F7D7B79777573716F6D6B6968666409
:1004D00062605E5C5A5957555351504E4C4A4947D9
:1004E000454342403E3D3B3A3836353332302F2D7E
:1004F0002C2A29282625232205010980A10185030C
:1005000019012AB700150126B70095017510810061
:10051000C0050C0901A101850419012AA0021501D9
:1005200026A002950175108100C005010906A101F0
:10053000050719E029E715002501950875018102D5
:100540009501750881010507190029FF150026FF8F
:10055000009506750881000508190129059505759E
:10056000019102950175039101C009029F000401E8
:1005700000A0FA0904000001030101000921110192
:1005800000012240000705810308000A0904010058
:1005900001030000000921110100012232000705BA
:1005A000820320000A080B02020101000009040274
:1005B00000000101000009240100010900010309F4
:1005C00004030002010300000724010001410006AA
:1005D000240201010006240202020009240301038F
:1005E00001020100092403020401010100090504BC
:1005F00002400005000005250101010905830240B4
:1006000000050000052501010312010002000000A1
:10061000088F45E2140100010200011A034B006536
:100620000065006200200046006F00720020004D4F
:10063000006F006D00000034036E0065006E006402
:100640000065007A006B006F006D00620065007449
:10065000002F00730061006E00640069007000727A
:10066000006100740061006D006100000004030976
:10067000040011241FBECFEFDAE0DEBFCDBF04B609
:1006800003FE27C080912A0690912B06A0912C068C
:10069000B0912D068730904BA740B04BD1F410920B
:1006A0002A0610922B0610922C0610922D0614BECC
:1006B00084B7877F84BF0FB6F894A89580916000B7
:1006C000886180936000109260000FBEE0E0F8E364
:1006D000099512E0A0E0B1E0E2EFF2E602C0059079
:1006E0000D92A23FB107D9F726E0A2EFB2E001C018
:1006F0001D92AA32B207E1F70E9447290C945331A8
:100700000C940000CF92DF92EF92FF92E0912906C5
:10071000EE2309F1E15088E0E802F0011124E751ED
:10072000FA4FC280D380E480F58020E030E0A90158
:10073000C701B6010E949C2D18166CF48091E80543
:10074000811102C01092E705C701B601FF90EF903A
:10075000DF90CF900895C12CD12C7601F5CF0F9367
:100760001F939B01305E8901000F012F001F110BA9
:1007700011952F77482F406EE091E704F091E8043F
:1007800063E070E087EE94E009951F910F91089562
:100790000F93262F042F0F77482F406BE091E7042B
:1007A000F091E80463E070E087EE94E009950F9122
:1007B0000895CF92DF92EF92FF920F931F93CF9302
:1007C000DF9300D00F92CDB7DEB77C01162FD42E69
:1007D000C22E80910C058430B9F5E0910105F091AD
:1007E0000205309709F440C0C701019763E070E04B
:1007F0000E94DB2CCB01880F991F860F971F19834E
:100800004A83CB824E2D481B9E012F5F3F4FBC0178
:1008100087EE94E00995E0910505F0910605309783
:1008200039F00C2D2D2D412FB70187EE94E009955D
:100830000F900F900F90DF91CF911F910F91FF902C
:10084000EF90DF90CF90089582E0E816F10409F46C
:100850005AC083E0E816F104A9F081E0E816F1043B
:1008600009F484C0F12CE12CE0910305F09104051A
:10087000309789F20C2D2D2D412FB70187EE94E092
:100880000995C9CF862F807F803A11F188F480388E
:10089000D1F0E091EB04F091EC04803929F7309726
:1008A00019F3123F49F12C2D4D2D612F6F7027C088
:1008B000803E99F0803FB1F0E091E904F091EA04C4
:1008C000803B91F6ECCFE091ED04F091EE04E7CFA0
:1008D000E091EF04F091F004E2CFE091F104F091A7
:1008E000F204DDCF623F09F0BFCFE091F304F09155
:1008F000F404309709F4B8CF2C2D4D2D62EF87EE1C
:1009000094E0099588CF862F807F803DB9F0803FA5
:10091000D1F0E091F504F091F604803C09F0A4CF09
:10092000309709F4A1CF812F8D7F4D2D612F6F70EE
:10093000813FC9F087EE94E009956DCFE091F7040F
:10094000F091F804EDCFE091F904F091FA04633FDF
:1009500039F0613F09F088CFE091FB04F091FC048D
:10096000309709F481CF4D2D612FE4CFE091FD0444
:10097000F091FE04683F38F4663F09F075CFE091CE
:10098000FF04F0910005309709F46ECF612F87EED8
:1009900094E0099540CFE8EDF0E080818E7F808380
:1009A0001092E2001092DA001092E100A0EEB0E0A6
:1009B0008C9181608C9380818F77808319BCA7EDA7
:1009C000B0E08C918E7F8C9380818F7E808310929B
:1009D000CB0408952091E4003091E50095E6A9014B
:1009E0002091EC00822F817020FF06C08091E800EA
:1009F00080FF06C080E008952091E80022FD1AC023
:100A00008091DD04882389F0853089F08091EB00A6
:100A100085FD0FC02091E4003091E5004217530797
:100A2000F9F29150E1F684E0089582E0089583E0C0
:100A3000089581E00895EF92FF920F931F93CF9353
:100A40007C018B010E94EA04C82F811117C080919C
:100A5000E80085FD0BC08091E8008E778093E80068
:100A60000E94EA04882399F3C82F08C0F7018191F6
:100A70007F018093F1000150110949F78C2FCF912C
:100A80001F910F91FF90EF9008958091DF0487FFF1
:100A900013C08091E80082FF06C08091E8008B7748
:100AA0008093E80004C08091DD048111F2CF0895A5
:100AB0008091DD048823D9F38091E80080FFF8CF8E
:100AC0008091E8008E77ECCF982F9093E900242F47
:100AD000762F50E0891731F07091EC002091ED00F5
:100AE0005091F00021FD07C09F5F973071F7809310
:100AF000E90081E008953091EB003E7F3093EB00F8
:100B00003091ED003D7F3093ED003091EB0031608E
:100B10003093EB007093EC002093ED005093F000C5
:100B20002091EE0027FDE0CF80E00895CF92DF9284
:100B3000EF92FF920F931F93CF93DF93C8EDD0E016
:100B400088818F7E8883E7EDF0E0808181608083FB
:100B500084E082BF81E08093CB0488818E7F88838C
:100B600002EE10E0F80110821092DA0081EEC82E39
:100B7000D12CF601108288818F77888388818068E4
:100B8000888388818F7D888319BC1092DD04109240
:100B9000DE041092DC041092DB0490EEE92EF12CBE
:100BA000F70180818B7F808388818160888342E028
:100BB00060E080E00E946405F60180818E7F808382
:100BC000F801808181608083808188608083F70163
:100BD00080818E7F8083888180618883DF91CF913F
:100BE0001F910F91FF90EF90DF90CF900895FC013F
:100BF0008091E5049091E60486179707A0F06115AF
:100C0000710529F49091E8009E779093E80090E0B8
:100C10006115710551F4911108C08091E80082FFBF
:100C200034C080E00895BC01F2CF8091DD048823B8
:100C3000C1F18530C1F18091E80083FD30C0809121
:100C4000E80082FDEACF8091E80080FFE1CF80914B
:100C5000F3002091F200382F6115710519F028304A
:100C6000310558F091E02830310509F090E02091ED
:100C7000E8002E772093E800CBCF81918093F1009C
:100C8000615071092F5F3F4FE7CF8091DD048823CA
:100C900041F0853041F08091E80083FFBECF81E0D4
:100CA000089582E0089583E00895089508950895D1
:100CB0008091D20408950895982F907F903BE9F099
:100CC00040F49039D1F0903AC1F09038B1F080E022
:100CD0000895903D19F020F4903CC9F782E0089502
:100CE000903E59F0903F99F7815F8F3080F7E82F61
:100CF000F0E0EE51FD4F8081089583E00895CF929A
:100D0000DF92EF92FF920F931F93CF93DF9300D068
:100D100000D000D00F92CDB7DEB78C0108511F4F25
:100D20008091DD04843009F087C080918D028F703E
:100D30008093E9008091E80082FF7EC08091E80006
:100D400085FF7AC00E94EA04811113C084E0E82E76
:100D5000F12CCE0101966C018091E80085FD61C007
:100D60008091E8008B778093E8000E94EA04882352
:100D700099F38091E80085FD05C08091E8008B77AC
:100D80008093E800FA808F2D0E945C06282FFD8258
:100D90008B818E838C818F8321110BC0898184305C
:100DA00041F1873031F1863031F121E0853009F0B1
:100DB000B7CF30E0E5E0F0E0EC0FFD1FE30FF11DF1
:100DC000F0804FB7F894D8011196EC911197F0E0AC
:100DD000CF01019612966C9170E00E94EF2CD80121
:100DE0005C915817190649F44FBF3F5F321710F353
:100DF00097CF23E0DECF22E0DCCF13968D919C913C
:100E00001497E80FF91FF08211968C91119790E0DA
:100E1000019612966C9170E00E94EF2CF80181838C
:100E2000E3CF8091F100D6018D936D01B1E0EB1A13
:100E3000F10809F091CF9DCF27960FB6F894DEBF49
:100E40000FBECDBFDF91CF911F910F91FF90EF901B
:100E5000DF90CF900895DF92EF92FF920F931F9350
:100E6000CF93DF9300D000D0CDB7DEB77B01142F36
:100E7000D22E4A832B830C83842F0E945C0681111F
:100E800041C082E0E816F104C1F183E0E816F10404
:100E900039F0EA94EF2829F5173F29F485E004C0DA
:100EA00087E0073F09F084E089838091DD04843086
:100EB000C1F4809188028F708093E90050E040E097
:100EC00064E070E0CE0101960E941B05811109C00B
:100ED0008091E80085FD05C08091E8008E778093C1
:100EE000E8000F900F900F900F90DF91CF911F911E
:100EF0000F91FF90EF90DF90089587EFD812D3CF36
:100F000086E0D2CF12951F701983CFCF87E797E77E
:100F1000909301088093000888E19AE00FB6F89456
:100F2000A895809360000FBE90936000FFCF9C0156
:100F30004FB7F8948091C4049091C504A091C60461
:100F4000B091C7044FBF821B930B08952FB7F8943D
:100F50008091C4049091C504A091C604B091C704C7
:100F60002FBF08959C01FC0132969FEF80E04191D4
:100F7000461751F09F3F19F4411101C0982F8F5F20
:100F80008630A9F79F3F09F40895290F311D97FD79
:100F90003A95F901628308952091C2043091C30407
:100FA0002817390771F09093C3048093C204E0912D
:100FB000C004F091C104309721F00084F185E02D48
:100FC000099408952091BE043091BF042817390771
:100FD00071F09093BF048093BE04E091C004F0913F
:100FE000C104309721F00680F781E02D099408951F
:100FF000E091C004F091C104309721F00190F0819C
:10100000E02D099480E00895DC016091BA0480919C
:10101000BB04962F891301C00895292F30E0F901F0
:10102000EE0FFF1FEE54FB4F408151814A175B07C3
:10103000A1F487E08A9FA0018B9F500D1124425B91
:101040005D4F81E0FA0184839613E6CF2F5F3F4F17
:10105000237033272093BA0408952F5F3F4F922FB8
:101060009370D8CF10924F0410924E04EEE4F2E049
:101070008581811102C014821682379682E0E6389B
:10108000F807B1F70895FA01811101C0FB01099435
:101090008091CC04982F9E7F61F481708260809350
:1010A000CC048091CF04893C18F088EC8093CF0465
:1010B00008958E31B0F381708C61F1CFAF92BF9201
:1010C000DF92EF92FF920F931F93CF93DF93082F3E
:1010D000162FE901E42FF0E0E850FD4F611110C038
:1010E000E4915E2F4E2F4983E8835A83DF91CF919D
:1010F0001F910F91FF90EF90DF90BF90AF900895F8
:10110000E62EF12C4491D42EE42FF0E026E0829FCD
:10111000C00111242FEF30E0B9010E94DB2C802F99
:1011200090E0880F991F55E5569FD001579FB00D4D
:1011300011248A1B9B0B982F990F890F5901AE1808
:10114000BF08AE9ED001AF9EB00DBE9EB00D112463
:101150005B2F189F80011124012F11275901A01A1C
:10116000B10AAE9E8001AF9E100DBE9E100D1124DF
:101170005901A81AB108AE9CC001AF9C900DBE9C4D
:10118000900D1124892F9927281B390B2E9FC00100
:101190002F9F900D3E9F900D1124E92F6230710515
:1011A000A1F050F46115710509F49DCF613071050E
:1011B00081F0EB2F512F97CF6430710569F080F0EB
:1011C0006630710509F48FCFF4CFE42F4B2F592FE0
:1011D0008ACFE42F412F87CFEB2F542F492F83CF76
:1011E0004B2F5D2DE12F7FCFEFE6F0E080818B7FED
:1011F0008083E0E8F0E080818F7C80830895CF9247
:10120000DF92EF92FF926B017C0120E030E0A901B8
:101210000E949C2D81110AC0809180008F7C809358
:101220008000FF90EF90DF90CF9008958091800034
:10123000806280938000C0922604D0922704E092BE
:101240002804F092290420E030E040E051E4C70196
:10125000B6010E94F42E9B01AC0160E074E284E7C9
:101260009BE40E94A12D6B017C010E94132E7093C0
:1012700087006093860020E030E048E452E4C70134
:10128000B6010E94F42E20E030E048EC52E40E94C7
:10129000A12D0E94132E70938B0060938A00C1CF02
:1012A00080914C02811122C0109229060E94F408FC
:1012B0001092E3051092E4051092D8051092D7051C
:1012C000E9EEF5E080E090E0A0E8BFEB118210824B
:1012D00082839383A483B58317821682389626E08F
:1012E000E932F20799F781E080934C02089580E09B
:1012F0000895F894E82FE295EF70F0E031A1282FDF
:101300002F7081E090E001C0880F2A95EAF7982FAE
:101310009095932391A392A1892B82A37894089509
:101320009091000492FF06C0282F28712830F9F40C
:10133000877F846093FF06C0282F28712831F1F43D
:10134000877E84612091010420FF06C0382F387108
:101350003830D9F4877F816021FF06C0282F28719B
:101360002831D1F4877E816194FD877E0895282FEE
:1013700024712430F9F68B7F8860DCCF282F24710C
:10138000243101F78B7E8861DDCF382F3171313008
:1013900019F78E7F8860E0CF282F2171213121F746
:1013A0008E7E8861E1CFCF93DF93EC018238910587
:1013B000A9F1D8F58133910509F496C048F5893231
:1013C000910509F48AC08A9709F495C0C11522E5F0
:1013D000D20708F0B6C0C11531E5D30708F026C121
:1013E000C83ED10508F09CC0C03ED10560F5C83AA2
:1013F000D10508F087C0C53AD10508F0EFC0C1306B
:10140000D10509F12097F9F0C430D105E0F440C0CE
:101410008533910509F45AC0C997C1F6809100043B
:10142000837089F0C0EED0E00EC0833E910599F143
:1014300070F4803E910501F1823E910539F680916C
:10144000000482FD21C0CE01DF91CF910895863E38
:10145000910561F1873E910571F1843E910509F096
:10146000B5CF8091010481FFEECF80910004C7EEDB
:10147000D0E084FD0DC0E7CF8091000480FD07C15E
:101480009091010490FFDFCFC3EED0E084FFDBCF6B
:10149000D0E0C0E0D8CF8091000482FDFBC09091E5
:1014A000010490FDBFCF84FFCECFF2CF8091000426
:1014B00083FDDDCFC8CF8091000483FDEEC0909105
:1014C000010491FFF0CFC4EED0E0BDCF80910004C5
:1014D00085FFB9CFC9E2D0E0B6CF8091000485FF87
:1014E000B2CFC5E3D0E0AFCF8091000486FFABCF91
:1014F000CAE2D0E0A8CF8091000486FFA4CFC1E368
:10150000D0E0A1CFCF3BD10518F6C85AD0E0CC0F20
:10151000DD1FC956DD4F0990D881C02DD46493CF0B
:10152000C11540E5D40708F064C0C11580E4D807B0
:1015300008F05CC0CE019A9581159F4108F483CFD5
:10154000A7CFC11536E5D30718F5C11545E5D40772
:1015500008F084C0C11584E5D80708F07AC09C2F34
:10156000969596959E0123703327C115D34508F4AF
:1015700062C0C1E0D0E002C0CC0FDD1F2A95E2F7C7
:1015800030E2939FC0011124C82BD92BDA685BCFBE
:10159000C1158AE5D80778F4C11599E5D90708F08F
:1015A00068C0C11528E5D20708F472CFDC2FCC271C
:1015B000C06FD06A48CFCE0190568115904208F096
:1015C00067CF8D2F8F710E94900990E0982F882708
:1015D00088279F719C012C2BE90149C0C55AD0E096
:1015E000CC56DD4FC881D0E0D0642DCFDF70D06AFB
:1015F0002ACFCE01E4E096958795EA95E1F78370CE
:101600002C2F26952695237040E2249F90011124CB
:10161000382B8C2F8370C1E0D0E002C0CC0FDD1FCF
:101620008A95E2F7C22BD32BDC680DCFDC2FCC27B9
:10163000C16FD06A08CFC1E0D0E002C0CC0FDD1F7F
:101640002A95E2F720E2929FC0011124C82BD92BE2
:10165000EBCFDC2FCC27C46FD06AF5CE8C2F0E9445
:101660009009C82FD0E0DC2FCC27CC27DF71D062C7
:10167000EACE8C2F8F700E94900934E0D695C795E2
:101680003A95E1F7CF709C2FEC01D069DCCEC9E32D
:10169000D0E0D9CEC2EED0E0D6CEC6EED0E0D3CEEA
:1016A0008091640381111092640308958095909154
:1016B000630398239093630308958091630390914B
:1016C0006203892B90916103892B8093F40290919E
:1016D0006403992391F0892B8093F40220E086EF34
:1016E00092E0FC013191CF0131112F5FF2E08C3F8C
:1016F0009F07B9F721110E94500BE091C004F091AF
:10170000C104309731F00280F381E02D84EF92E044
:101710000994089580915F0390911E03981301C06E
:1017200008958F5F8770FACFAF92BF92CF92DF920A
:10173000EF92FF920F931F93CF93DF93C090FC0320
:10174000D090FD03E090FE03F090FF03409165030D
:10175000509166036091670370916803C42AD52A8B
:10176000E62AF72ACFE1D0E0082F10E02AE0929F86
:10177000000D111D112498E2A92EBC2ED701C6011F
:101780000C2E04C0B695A795979587950A94D2F725
:1017900080FD0FC0219788F7B12C8B2DDF91CF9161
:1017A0001F910F91FF90EF90DF90CF90BF90AF907F
:1017B0000895AC9EF001AD9EF00D1124E00FF11FD5
:1017C000EE0FFF1FE25AFE4F859194910E94D309BC
:1017D000019701F3E2CFCF93DF93EC010E94940BCA
:1017E000EC2FF0E09AE0D99FE00DF11D112498E272
:1017F000899FE00DF11D1124EE0FFF1FE25AFE4FED
:1018000085919491DF91CF910C94D3092AE0929F16
:10181000800D1124982F977086958695869525E0E2
:10182000829FF0011124E350FD4F50E040E080E042
:10183000219130E0092E02C0369527950A94E2F7EF
:1018400021703327042E01C0220F0A94EAF7822B5D
:101850004F5F5F4F4530510559F708952AE0929F39
:10186000800D1124982F977041E001C0440F9A9584
:10187000EAF786958695869595E0899FF001112473
:10188000E350FD4F90E080E070E05191DF0111974F
:101890009B01082E02C0369527950A94E2F7217025
:1018A00021952527242325272C9301968530910502
:1018B00061F70895FC0186819781009779F00E9475
:1018C000D309292F2F7092959F7092509E30A0F4CB
:1018D000E92FF0E0EB5AFE4C0C94252D808191818C
:1018E0000E94EB0BEECF803F19F020F4883E20F4ED
:1018F00081E00895843FE1F380E00895883EC0F3DD
:10190000813FD1F7F5CF822F8695869586950895EC
:1019100090E080E00E94E20790E080E00E94CC0727
:1019200010926203109261030C945D0B6093650347
:101930007093660380936703909368030C94880CFC
:10194000882321F00E94560B0C945D0B0895882388
:1019500039F090916303982B909363030C945D0B83
:101960000895882381F19CEF980F913A78F4E6EF7F
:10197000F2E02CEF32E09191891303C0DF0111975F
:101980001C922E173F07B9F70C945D0B90E2980F4D
:10199000983050F4877091E001C0990F8A95EAF76A
:1019A000892F0E94560BF0CF9BE5980F933020F4BF
:1019B00090E080E00C94E207885A873120F490E0B0
:1019C00080E00C94CC070895CF93C82F882309F4A6
:1019D0004EC08CEF8C0F813AF8F4E6EFF2E08CEF1A
:1019E00092E0DF012D91C21759F08A179B07D1F7BA
:1019F0006C2F84EF92E00E94B207CF910C945D0BA4
:101A00002191C21303C0DF0111971C928E179F070B
:101A1000B9F70E945D0BECCF80E28C0F883068F440
:101A2000C77021E030E001C0220FCA95EAF780912B
:101A30006303822B80936303E0CFEBE5EC0FE3308D
:101A400040F4F0E0EC56FD4F808190E0CF910C9493
:101A5000E207C85AC73158F4EC2FF0E0EE0FFF1F31
:101A6000E956FD4F80819181CF910C94CC07CF91A5
:101A700008951F93CF93DF9300D000D00F92CDB77E
:101A8000DEB79C01FC0186819781009751F585E0C6
:101A9000DE01119601900D928A95E1F7F9012281FC
:101AA00089819A81222331F1662321F10E94940BCE
:101AB000182F682F89819A810E942E0C8A81E981D2
:101AC000F0E09AE0899FE00DF11D112488E2189F53
:101AD000E00DF11D1124EE0FFF1FE25AFE4F85911C
:101AE00094910F900F900F900F900F90DF91CF91E6
:101AF0001F9108950E94060C182FE0CF0F931F939B
:101B0000CF93DF93C62FD42F022FFC01828188232D
:101B1000A1F06093D6050E94A6079093D505809307
:101B2000D405C77081E001C0880FCA95EAF7DF913C
:101B3000CF911F910F910C94A70C8091D60568133B
:101B400038C08091D4059091D5050E949707883CB4
:101B5000910578F510E21D0FCD17B9F080E28C0FDA
:101B6000883040F4C77081E001C0880FCA95EAF759
:101B70000E94A00C183048F481E09D2F977001C09E
:101B8000880F9A95EAF70E94A70C802F0E94E40C18
:101B9000802F0E94B10C183098F4D77081E001C0FA
:101BA000880FDA95EAF7DF91CF911F910F910C948E
:101BB000A00CC77081E001C0880FCA95EAF7F3CF87
:101BC000DF91CF911F910F9108958093C804709376
:101BD000CA046093C9048091DD04843001F582E079
:101BE0008093E9008FEF9091E800815095FD06C049
:101BF00095ED9A95F1F700008111F5CF8091E800FD
:101C000085FF0DC050E040E063E070E088EC94E0B8
:101C10000E941B058091E8008E778093E80008956C
:101C2000BC0184E00C94E50DBC0183E00C94E50D4F
:101C3000CF93DF93EC0181E08093E9008FEF9091E7
:101C4000E800815095FD06C095ED9A95F1F70000EA
:101C50008111F5CF8091E80085FF14C050E040E08D
:101C600068E070E0CE010E941B058091E8008E774D
:101C70008093E80088E0FE01A3EDB4E001900D92AE
:101C80008A95E1F7DF91CF9108958091CC0480FD92
:101C90000AC0E6E3F4E0118210821282339654E027
:101CA000EE34F507C1F7849A31B33F7E21B320614A
:101CB0004FB7F89486E394E0FC015191CF0168E0BE
:101CC00021BB000000C057FF31BB550F000000C012
:101CD00000C000C031BB00C06A9591F7F4E08E34BB
:101CE0009F0751F74FBF8FE594E00197F1F700C0D0
:101CF00000000895EF92FF921F93CF93DF93EC01C2
:101D000086E3E82E84E0F82E10E04091CF04493CB1
:101D100008F048EC8C8197016091CE04810F0E94FD
:101D20005E08115E83E0E80EF11C183F71F70E9417
:101D3000450E9A818C8190FF08C08F5F8C83DF9164
:101D4000CF911F91FF90EF9008958150F7CF909120
:101D5000CC0490FF0CC0E6E3F4E08183608342830F
:101D6000339694E0EE34F907C1F70C94450E0895CC
:101D7000CF93DF9300D00F92CDB7DEB79091CC0414
:101D800090FF0DC0493C08F048EC9E012F5F3F4F8B
:101D90000E945E084B8169818A810E94A70E0F9084
:101DA0000F900F90DF91CF910895CF93DF93EC01C7
:101DB000ECECF4E0438162818C810E94B80E8C814E
:101DC0008F5F8C83DF91CF910895CF93DF93EC01E8
:101DD000EC81F0E0E850FC4F4491ECECF4E06281DF
:101DE00081810E94B80E8C818F5F8C83DF91CF91AF
:101DF00008956091CC04669570E041E050E08DE478
:101E000092E00E943A2D892B19F481E080933504E9
:101E10000E94A60790932F0480932E040895CF92DA
:101E2000DF92EF92FF926B017C010E944808B7019C
:101E3000A60188E090E0FF90EF90DF90CF900C94A7
:101E40007A2DEF92FF920F931F93CF93DF9300D0E1
:101E50000F92CDB7DEB7082FF62E142FE22E809109
:101E6000CC0480FF2CC0E82FE695F0E0ED52FD4F4A
:101E70009081909334048E7F823059F5493C08F06C
:101E800048EC9E012F5F3F4F6F2D802F0E945E0810
:101E90004B8169818A810E94A70E0093CD04F09244
:101EA000CE041093CF04EE2051F06091CC047091D9
:101EB000CD048091CE049091CF040E940F0F0F901B
:101EC0000F900F90DF91CF911F910F91FF90EF90A6
:101ED0000895923019F41091CF04DFCF963019F4A1
:101EE0000091CD04DACF9930C1F6FACFECECF4E0F2
:101EF000438128E0421B08F440E021E062818181B7
:101F00000C94210FECECF4E0438128E0420F08F43C
:101F10004FEF21E0628181810C94210FECECF4E021
:101F2000628128E0621B08F460E021E04381818146
:101F30000C94210FECECF4E0628128E0620F08F4CD
:101F40006FEF21E0438181810C94210FECECF4E0F0
:101F5000818121E04381628188500C94210FECEC57
:101F6000F4E0818121E043816281885F0C94210F3C
:101F70008091D004882319F081508093D00460911F
:101F8000CC047091CD048091CE049091CF040C9438
:101F90000F0F8091D004833018F48F5F8093D004AA
:101FA0006091CC047091CD048091CE049091CF04C7
:101FB0000C940F0F9091CC0490FF36C0917081115A
:101FC00029C092609093CC04662351F06091CC04B8
:101FD0007091CD048091CE049091CF040E940F0F98
:101FE0006091CC04669570E041E050E08DE492E0B1
:101FF0000E943A2D892BA9F01092350481E080933C
:10200000310420E04091CF046091CE048091CD0452
:102010000C94210F8F3010F09C61D4CF880F982B37
:10202000D1CF0E94F90EEACF08958091CC04869515
:10203000815009F48EE061E00C94DA0F8091CC04B9
:1020400086958F5F8F3008F081E061E00C94DA0FA5
:102050009091CC0490FF07C09695981720F09617A2
:1020600010F40C941E1061E00C94DA0FECECF4E028
:1020700083E0808311828FEF828388EC83831482D4
:1020800060817181828193810C940F0FCF9384E0E2
:1020900090E00E94542DC82F82E290E00E94542DBF
:1020A000982F8C2FCF91089510926303E6EFF2E002
:1020B00086E0DF011D928A95E9F70C94880C1F9346
:1020C000CF93DF93CDB7DEB7AA970FB6F894DEBFF4
:1020D0000FBECDBF8FED94E02091F100FC01219364
:1020E000CF01F4E0873E9F07B9F78091E004833089
:1020F00009F470C0B8F4813009F447C0823009F4A3
:10210000B1C08091E80083FF88C28091DF04909184
:10211000E0049A3008F081C2E92FF0E0ED59FE4C5E
:102120000C94252D8A3009F48CC08B3009F46FC0D3
:10213000893039F78091DF04813219F78091E30407
:102140009091E4040297E8F68091E800877F8093FD
:10215000E8008091E80082FF38C09091F300809100
:10216000F200029731F48091F100813011F0863055
:1021700021F48091F1008093D2048091E8008B7764
:102180008093E8000E944505BCCF8091DF04813A2E
:1021900009F0B7CF8091E800877F8093E8008091B5
:1021A000E3049091E404892B61F468E083ED94E00A
:1021B00070E00E94F7058091E8008B778093E8003B
:1021C000A0CF60E090E080E0F3CF8091DD0481114A
:1021D000C0CF97CF8091DF04813A09F092CF8091F0
:1021E000E3049091E404892B09F08BCF8091E800FF
:1021F000877F8093E8008091E80080FFFCCF80918A
:1022000093028093F1008091E8008E77B9CF80919E
:10221000DF04813209F075CF8091E3049091E404EA
:10222000892B09F06ECF8091E800877F8093E800CA
:102230000E9445058091E104809393020E9454100E
:1022400060CF8091DF04813209F05BCF8091E8009C
:10225000877F8093E8000E9445058091E204809387
:10226000D1044FCF8091DF04813A09F04ACF8091A9
:10227000E800877F8093E8008091E80080FFFCCF32
:102280008091D104BECF803899F0823809F0C5C161
:102290008091E3048F70873008F0BFC18093E9001C
:1022A0008091EB0085FB882780F91092E90006C039
:1022B0008091DB049091DC04911182609091E800A0
:1022C000977F9093E8008093F1001092F100809145
:1022D000E8008E779EC1882309F48CC1823009F012
:1022E0009CC18091E10481118FC18091E3048F70C2
:1022F0002FEF280F263008F090C18093E90020913D
:10230000EB0020FF81C1933031F48091EB008062BB
:102310008093EB0079C19091EB0090619093EB007A
:1023200021E030E001C0220F8A95EAF72093EA000D
:102330001092EA008091EB008860EACF81116DC1B4
:102340001091E1041F778091E3008078812B8093C6
:10235000E3008091E800877F8093E8000E944505B4
:102360008091E80080FFFCCF8091E300806880933B
:10237000E30082E0111183E08093DD044EC18058B8
:10238000823008F04AC18091E1049091E2048C3DD2
:1023900023E09207A1F583E08A838AE289834FB71D
:1023A000F894DE01139620E03EE051E2E32FF0E0E6
:1023B00050935700E49120FF03C0E295EF703F5F18
:1023C000EF708E2F90E0EA30C0F0C7968D939D930A
:1023D0002F5F243159F74FBF8091E800877F8093AA
:1023E000E8006AE270E0CE0101960E94F705809154
:1023F000E8008B778093E80010C1C096E7CF40914A
:10240000E3045091E404292F33272330310509F4E4
:1024100044C078F52130310509F46FC08FE990E0B0
:10242000EAE6F5E02230310509F0F7C02091E80036
:10243000277F2093E8002091E5043091E60482177D
:10244000930708F49C0140E02115310509F064C0B0
:10245000411162C08091E80082FDC9CF8091DD0406
:10246000882329F2853019F28091E80083FFF2CFAA
:10247000BECF21323105A9F12232310509F0CDC09C
:102480004115510509F443C04130510509F0C5C05B
:1024900082E390E0E8EFF4E0C9CF9927813091051D
:1024A000C1F0009759F0029709F0B7C0EBE1F6E0F0
:1024B000E4918E2F90E0EBE1F6E007C0EDE6F6E068
:1024C000E4918E2F90E0EDE6F6E0009709F4A5C0C8
:1024D000ADCFE7E3F6E0E4918E2F90E0E7E3F6E09E
:1024E000F4CF4115510571F04130510509F095C007
:1024F00089E090E0E5E9F5E099CF82E190E0E9E05C
:10250000F6E094CF89E090E0ECE7F5E08FCF80E44F
:1025100090E0EAE2F5E08ACF8091DD04882309F4B7
:1025200066CF853009F463CF8091E80083FD5FCFEB
:102530008091E80082FD8ECF8091E80080FF84CFFB
:102540009091F3008091F2002115310519F0883047
:10255000910550F041E0089709F040E08091E800D3
:102560008E778093E80070CF44914093F1003196CC
:10257000215031090196E8CF803809F04EC0809192
:10258000E800877F8093E8008091DE048093F1006B
:102590009ECE811142C01091E1041230F0F580917D
:1025A000E800877F8093E8001093DE040E944505D1
:1025B000112311F084E005C08091E30087FDFACF7C
:1025C00081E08093DD0442E061EC81E00E946405DB
:1025D00042E261EC82E00E94640542E361E883E04C
:1025E0000E94640542E361E884E00E9464058091F2
:1025F000DD0413C08091E104813079F481E09330EF
:1026000009F080E08093DC041092E9008091E800FA
:10261000877F8093E8000E9445058091E80083FF52
:102620000AC08091E800877F8093E8008091EB00EA
:1026300080628093EB00AA960FB6F894DEBF0FBEBF
:10264000CDBFDF91CF911F91089569EE7EEF90E0AD
:1026500080E00E94862D60E082E090E00E94682D7C
:1026600060E083E090E00E94682D10926503109274
:102670006603109267031092680360E084E090E0C4
:102680000E94682D60E082E290E00E94682D60E088
:1026900085E090E00E94682D60E086E090E00E9476
:1026A000682D6FEF87E090E00E94682D40E050E0D9
:1026B000BA0188E090E00E947A2D60E08DE090E021
:1026C0000E94682D40E050E0BA0188E190E00E944D
:1026D0007A2D60E087E190E00E94682D40E050E0B4
:1026E000BA018CE190E00E947A2D70E060E080E217
:1026F00090E00E94862D40E050E0BA0188E190E031
:102700000E947A2D40E050E0BA018FE090E00E94F4
:102710007A2D40E050E0BA0183E190E00C947A2DEC
:102720008091E505811144C090E080E00E94622D17
:10273000893E9E4F11F00E94251387E090E00E9491
:10274000542D8093E605E9EEF5E080E090E0A0E806
:10275000BFEB1182108282839383A483B583178297
:102760001682389626E0E932F20799F78091E5055E
:1027700081110CC00E94F408269A82E080938000A8
:102780008AE18093810081E08093E5050E945009F1
:102790008091E60580FF06C065E070E084E092E08D
:1027A0000E9498140E94A6079093DA058093D90599
:1027B00008957F928F929F92AF92BF92CF92DF92B5
:1027C000EF92FF920F931F93CF93DF934B015C0126
:1027D0007A018091E60580FF81C08091E505811135
:1027E00002C00E94901320E030E0A901C501B401AD
:1027F0000E949C2D87FF04C0B7FAB094B7F8B0943C
:1028000070902906872D8150990B6C01EC01CF3F08
:10281000DC0709F04DC081E0870D893008F485C0E0
:1028200088E08093290689EE95E028E0FC0138963F
:10283000DC0101900D922A95E1F7089626E081329D
:10284000920799F781E0809325048093E405C09175
:102850002906C150DD0B0E94A607FE0123E0EE0F02
:10286000FF1F2A95E1F7E751FA4F91838083828217
:102870009382A482B582F782E6820E94A6078091A5
:102880004C02882359F180916F00846080936F001F
:10289000809180008062809380008091E40588238D
:1028A00021F00E9482030E94FF0810924C0216C081
:1028B0008E0133E0000F111F3A95E1F707511A4FCF
:1028C000A5019401F80162817381848195810E9440
:1028D0009C2D811128C0CC15DD0574F0DF91CF91BE
:1028E0001F910F91FF90EF90DF90CF90BF90AF902E
:1028F0009F908F907F900895219688E0F8013896F8
:10290000D80101900D928A95E1F70E94A607F8017F
:102910009187808782869386A486B586F786E68629
:10292000085F1F4FD8CF219772CF809329068ACF97
:10293000CF92DF92EF92FF92CF93DF93EC017B0176
:102940008091E60580FD08C0DF91CF91FF90EF9068
:10295000DF90CF900C9450098091E505811102C061
:102960000E9490138091E40581110E94500981E03A
:102970008093E3051092E205D093E105C093E00552
:10298000F092DF05E092DE051092DD051092DC0585
:102990001092DB056C817D818E819F810E94132EB8
:1029A0009B01A0E6BAEE0E942B2DC12C2EE1D22E67
:1029B000E12CF12CA70196010E94032D68817981F9
:1029C0008A819B81A9010E94D9130E94A607909336
:1029D000DA058093D905E091E005F091E105809159
:1029E000DB059091DC0533E0880F991F3A95E1F7FC
:1029F000E80FF91F64817581868197810E94132EEB
:102A00009B01A0E6BAEE0E942B2DA70196010E9421
:102A1000032D3093D8052093D705DF91CF91FF90F8
:102A2000EF90DF90CF90089562E070E08CE392E049
:102A30000E9498142FEF81EE94E021508040904046
:102A4000E1F700C000000E9450096091E6056E7F2A
:102A50006093E60587E090E00C94682D6091E605B0
:102A600061606093E60587E090E00E94682D62E077
:102A700070E08CE292E00C949814CF92DF92EF9287
:102A8000FF920F931F936B017C01A70166277727A5
:102A900080E1411551056105710519F4B701A601E1
:102AA00080E0052F162F272F33270115110521054B
:102AB000310519F0885FB901A8018A019B01F4E092
:102AC0003695279517950795FA95D1F701151105B4
:102AD0002105310519F08C5FB901A8018A019B011C
:102AE000E2E03695279517950795EA95D1F70115F8
:102AF00011052105310519F08E5FB901A801769500
:102B0000679557954795452B462B472B09F08F5FC7
:102B10008230E1F058F4813091F0C701B6011F9185
:102B20000F91FF90EF90DF90CF900895833099F050
:102B3000843099F764E070E080E091E004C062E0E6
:102B400070E080E591E00E949814E7CF62E070E0C9
:102B500080E491E0F8CF64E070E080E291E0F3CFB0
:102B60000E943D156093FC037093FD038093FE0368
:102B70009093FF030C94880C0F931F9341E050E057
:102B800060E070E004C0440F551F661F771F8A95F0
:102B9000D2F7CB01BA016095709580959095009120
:102BA000FC031091FD032091FE033091FF0360238D
:102BB0007123822393231F910F910C94B015909150
:102BC00060038095892380936003282F277091F4F8
:102BD000282F082E000C330B9217130659F09091F2
:102BE000010492FD07C08595859585950E94BC15C9
:102BF000109260030895CF93C0910104C2FB9927FE
:102C000090F9981799F080FBC2F9C0930104609184
:102C1000000484E090E00E94682D6C2F82E290E036
:102C20000E94682D82E0CF910C94DF15CF9108951A
:102C30000F931F9341E050E060E070E004C0440F48
:102C4000551F661F771F8A95D2F78091FC039091DC
:102C5000FD03A091FE03B091FF038A019B01082BA5
:102C6000192B2A2B3B2BC901B8011F910F910C94F2
:102C7000B0158F929F92AF92BF92CF92DF92EF9258
:102C8000FF920F931F93CF93DF937C01FC0183810D
:102C90009481892B31F08081918189238F3F09F0C4
:102CA00093C6DF91CF911F910F91FF90EF90DF902E
:102CB000CF90BF90AF909F908F9008950091160491
:102CC000802F881F8827881F409117044770440F62
:102CD000482B0F778C2F8F5290E0F7012281BC0197
:102CE00064597C4F6B01222309F442C08091150482
:102CF000982F9F7085958595859585958F527CE059
:102D0000979F800D1124C80F2C2F2F774069E091D9
:102D1000E704F091E80463E070E087EE94E0099541
:102D2000F601E85BFF4F80818F5F8083F601808131
:102D30008F3F09F4C08380916003877009F4B1CF9D
:102D4000F7018281882309F4ACCF8091010482FDD0
:102D5000A8CF82E0DF91CF911F910F91FF90EF906C
:102D6000DF90CF90BF90AF909F908F900C94DF1525
:102D7000FB012081E85BFF4F8081815080838111BE
:102D8000DACF2F774068E091E704F091E80463E040
:102D900070E087EE94E009958FEFF6018083CBCF4A
:102DA000F7018281882339F2C7578C2F8F70C09129
:102DB0001504C07FC82BC0931504BDCFF7018281D5
:102DC000882309F4B8CF80911504982F9F7009F4D7
:102DD000B2CF9FE0980F9F70807F892B809315045E
:102DE000AACFF7018281882309F4A5CFC9588C2F77
:102DF0008295807FC0911504CF70DCCFF70182816E
:102E0000882309F498CF809115048595859585953B
:102E100085958B3F0CF48FCF815F8295807F909159
:102E200015049F70DACFF7018281882309F483CFDC
:102E3000C2598CE0C89F802D11248F77C091160451
:102E4000C078C82BC093160476CFF70182818823FF
:102E500009F471CF80911604982F9F7709F46BCFF6
:102E60009F3729F4807885678093160464CF9D305E
:102E700028F09D509F778078892BF6CF8078F4CF0B
:102E80008F67F2CFF7018281882309F454CFCF599D
:102E900080911604C0FB87F980931604C695C7700D
:102EA00080911704887FC82BC093170444CFF70183
:102EB0008281882309F43FCF20911604322F331FDB
:102EC0003327331F90911704892F8770880F832B26
:102ED000815F382F3F7080FB27F920931604832FE2
:102EE0008695987F982B9093170425CFF7018281C0
:102EF000882309F420CF90911604991F9927991FD0
:102F0000809117048770880F40E06BE7892B0E943F
:102F1000C80311CF40E021114FE7881F8827881F81
:102F20009770990F60E4F2CF40E021114FE7881FBE
:102F30008827881F9770990F61E4E8CFF701828195
:102F400040E081114FE790911604991F9927991F2E
:102F5000809117048770880F63E4D8CF81E026C67C
:102F6000F7018281882309F4E6CE90911704292F76
:102F70002695269526952F7081E0820F8F70880FF9
:102F8000880F880F9778892B80931704982F98774C
:102F900009F0D1CE220F220F220F8778822B809347
:102FA0001704C9CEF7018281882309F4C4CE809129
:102FB0001704982F987709F4BECE982F969596957A
:102FC0009695915F9F70990F990F990F8778892B2C
:102FD000E6CF80911604982F991F9927991F809109
:102FE00017048770880F892BF701928160E070EEDB
:102FF0009111FCC570E060E0F9C5CE31FCE5DF075A
:1030000039F4F70182818823C1F10E94141593CE0F
:10301000CF31FCE5DF0749F4F7018281882369F1AC
:103020008091E60580FDF1CFFFC4CE018A529C4518
:10303000029768F4F70182818823F9F01092E8057D
:1030400064E070E080E691E00E94981474CEC43F82
:10305000FCE5DF0709F477C008F05CC0C93D3CE53A
:10306000D30709F46CC0CA3D6CE5D60709F477C0F4
:10307000C83D7CE5D70709F45EC0F701828188234B
:1030800009F4B7C51092D605C430FDE5DF0708F096
:1030900069C0CB3F2CE5D20730F4CE0182509C456D
:1030A000449708F064C00E944610909301048093F6
:1030B0000004C0316CE5D60709F44DC108F0A5C085
:1030C000C8308CE5D80709F41EC108F07AC0C430B6
:1030D000ECE5DE0709F409C108F060C0C2302CE558
:1030E000D20709F4FCC0809100048260C330DC4543
:1030F00009F4F8C060910004C091010484E090E0FC
:103100000E94682D6C2F82E290E00E94682D0E9440
:10311000541011CEC63F8CE5D807E9F0C0F027E285
:1031200045EE66EEC73FECE5DE0709F0A6CFC70126
:103130000E947E0D00CE26E241EE61EEF8CF27E23E
:1031400045EE65EEF4CF26E241EE60EEF0CF27E2E9
:1031500045EE64EEECCF26E241EE62EEE8CF28E2E7
:1031600041E0EFCFC2363DE5D30709F49CCF809113
:103170006303C6316CE5D60709F052C58A7A91E03F
:1031800009F490E09093FC0269E2811165E384EF19
:1031900092E00E94B2070E945D0BCDCD80910004A9
:1031A0008061C6306CE5D60709F49CC080910004AC
:1031B0008860C730DC4508F495C0809100048062C7
:1031C00091C0CC308CE5D80709F4BDC058F4CA30A2
:1031D000ECE5DE0709F4A1C008F499C08091000471
:1031E0008E7F80C080910004877FCE302CE5D2078F
:1031F00009F478C0809100048B7FCF30DC4508F45F
:1032000071C0809100048F7E6DC0CD3F6CE5D60704
:1032100009F49DC0B8F5C4318CE5D80709F4B3C0F2
:10322000B0F4C231ECE5DE0709F499C080910004E6
:103230008F7BC331DC4508F455C080910004837F47
:103240008093000462E070E080E991E06FC0CB3FC2
:103250002CE5D20709F44DC008F051C0C531DC455A
:1032600009F048CF8091000482FB992790F921E072
:10327000922790FB82F990FB83F98093000483FFEF
:10328000E1CF50C0C1307DE5D70709F46EC0A8F486
:10329000CF3F9CE5D90709F44CC0809101048D7F94
:1032A000C115DD4548F1809101048C7F80930104B4
:1032B00062E070E080E891E039C0C330FDE5DF07EF
:1032C00009F470C008F468C0C236DD4509F012CFB9
:1032D00090910004892F8F7E94FF806103C08091BC
:1032E000000481608093000405CF80910004846015
:1032F000F9CF80910104816080930104FBCE80911D
:1033000001048260F9CF809100048064EBCF0E94B9
:103310005410809100048068E5CF809100048C6097
:103320008093000464E070E080EC91E00E949814C7
:10333000E1CE8091010483608093010464E070E039
:1033400080EA91E0F3CF809100048D7FCBCF809114
:1033500001048E7FD1CF809100048F7DC3CF0E9466
:103360005410809100048F77BDCF80910104982F75
:10337000909591708E7F892B90FB81F98093010449
:1033800081FF96CFDBCF0E94541090910004892FCB
:1033900097FB87F98058A6CF61E08EE090E00E940D
:1033A000682DA8CE60E0F9CF85E32CC48091CC04D1
:1033B00080FF1BC08E7F8093CC046091CC04709101
:1033C000CD048091CE049091CF040E940F0F1092F3
:1033D00035047FEF80E792E0715080409040E1F744
:1033E00000C000000E94450EA6CC81608093CC04F2
:1033F00061E086950E94DA0F9ECC45E150E16EE1D6
:1034000070E10E94430897CC4EE150E165E170E124
:10341000F8CF46EA5FE06FEA7FE0F3CF4FEA5FE084
:1034200066EA7FE0EECF4EE85FE06AE97FE0E9CF51
:103430004AE95FE06EE87FE0E4CF42E85FE066E7FC
:103440007FE0DFCF48EB5FE069EC7FE0DACF49EC6B
:103450005FE068EB7FE0D5CF61E081E0CBCF68E053
:1034600086E073C4CC356DE5D60779F1CD35DD4501
:1034700009F001C48091010482FB882780F991E062
:1034800089270E94FB15F7C30E9454100E94A607CB
:10349000EC0163E070E080EE91E00E949814CE01B0
:1034A0000E9497078A3F910520F00E9450090E94D0
:1034B00086078FE99FE00197F1F700C00000EFCF8A
:1034C0000E94251338CC81E0DCCF80E0DACF828106
:1034D000C081D1818823D9F0CE010E94940B182F8E
:1034E000682FCE010E942E0CEC2FF0E02AE0D29F34
:1034F000E00DF11D112438E2139FE00DF11D1124A0
:10350000EE0FFF1FE25AFE4F85919491BAC3CE0190
:103510000E94060C182FE8CF0C2F0F70C07F11F0FF
:103520000295007F1123B9F0002369F080E28D0F2E
:10353000883010F0D11109C080916303082B0093EB
:1035400063030E945D0B8D2F47C080916203082B9F
:1035500000936203F6CF8D2F0E94B10C0023F1F18E
:1035600080E28D0F883010F0D11104C0802F0E94AE
:10357000560B06C0009580916203082300936203F6
:103580000E945D0B2BC00C2F0F70C07FC03211F05A
:103590000295007FDD2381F0D13009F476C011233C
:1035A00009F480C0BB2009F476C0F701858180FF53
:1035B000CACF8F7085836FC02091010422FF42C063
:1035C0001123D1F1002339F080916303082B00937C
:1035D00063030E945D0B80E00E94E40CEC2DE85038
:1035E000FF0B349710F40E94F807DD20A9F08091BA
:1035F000600380FD11C0F701128285958595859540
:103600000E941816C7010E943916809160038595A3
:10361000859585950E94BC1560E0C701DF91CF912B
:103620001F910F91FF90EF90DF90CF90BF90AF90E0
:103630009F908F900C94390D80E00E94B10C002374
:1036400069F294CF1123A1F090916403802F892B0C
:10365000B11003C00E94A70CC1CF31E0B312FACF62
:1036600022FDBCCF981709F4B9CF80936403B6CF7D
:10367000B11006C00E94500B802F0E94A00CAECF4C
:1036800061E0B61609F4AACFF5CF112331F075E049
:103690007B1508F4A3CF802FDDCF84E08B1508F4D1
:1036A0009DCFEACFBB2041F3D93349F4FFEF27EE9A
:1036B00033E0F15020403040E1F700C000008D2F92
:1036C0000E94B10C8BCF8C2F86958695837069F004
:1036D000813009F083CF8D2F9C2F9370111102C080
:1036E00090E080E00E94CC0779CF8D2F9C2F9370C3
:1036F000111102C090E080E00E94E2076FCF8C2F92
:10370000837009F064C0111169CF8D2F8295869561
:103710008770880F880F0D2F0F7010E030E020E0C9
:10372000082E04C0000F111F221F331F0A94D2F766
:1037300040E050E0BA01D4FF0FC04FE050E060E03D
:1037400070E004C0440F551F661F771F8A95D2F79B
:103750004095509560957095C695C695C370C230DA
:1037600019F1D8F48090650390906603A0906703E8
:10377000B0906803C13069F0402B512B622B732B42
:10378000CB01BA01682179218A219B210E94960CE4
:1037900025CF082919292A293B29CB01BA01602BF9
:1037A000712B822B932BF2CF402B512B622B732B3F
:1037B00000916503109166032091670330916803BF
:1037C000CB01BA016027712782279327DFCF869527
:1037D000112311F08C2F8170882309F4FFCE8D2FD7
:1037E000829586958770880F880F0D2F0F7010E0D7
:1037F00030E020E0082E04C0000F111F221F331FED
:103800000A94D2F740E050E0BA01D4FF0FC04FE075
:1038100050E060E070E004C0440F551F661F771F42
:103820008A95D2F74095509560957095C695C69546
:10383000C370C23019F1D8F48090FC039090FD035E
:10384000A090FE03B090FF03C13069F0402B512BD4
:10385000622B732BCB01BA01682179218A219B212C
:103860000E94B015BBCE082919292A293B29CB0172
:10387000BA01602B712B822B932BF2CF402B512B53
:10388000622B732B0091FC031091FD032091FE032A
:103890003091FF03CB01BA0160277127822793275C
:1038A000DFCFCF70112329F08C2F0E9418168D2F97
:1038B000D1CE8D2F0E94A00C8C2F0E94BC158ECED5
:1038C000D23FD1F160F4D03FB9F0D13F81F0112364
:1038D00009F46AC0B11037CE8C2F8F7131C0D33F3D
:1038E00091F1D43FA1F78091010482FF3FC08C2F5A
:1038F0008F71112311F324C01123C9F064E06B15FB
:1039000008F46CCECF7161E070E080E090E004C01C
:10391000660F771F881F991FCA95D2F70091FC0385
:103920001091FD032091FE033091FF03B5CF75E0A8
:103930007B1508F453CEE6CF8C2F8F711111BDCFBC
:103940000E9418164BCE60E070E0CB01112309F401
:1039500087CFCF7161E070E080E090E004C0660F37
:10396000771F881F991FCA95D2F77ACF112389F044
:10397000CF718C2F0E9418168091010482FD07C020
:10398000E8E0CE9FC00111248360809360038C2FF8
:10399000D7CF81E00E94DF15F1E0FB1508F01ECEC5
:1039A00082E00E94DF151ACEBB2059F0D93309F00E
:1039B00086CE2FEF37EE63E0215030406040E1F7D4
:1039C0007CCE8C2F8F7179CF61E0C7010E94390DB9
:1039D000EC018F3AFCE59F0708F094C08F392CE585
:1039E000920708F04FCA80393CE59307B0F5833859
:1039F0006CE5960708F0F5C981387CE59707B8F4BF
:103A0000C7378CE5D80708F0CBC9CF329CE5D9077A
:103A100008F054C9CD31FCE5DF0709F0EECAF70123
:103A20008281882309F429CB0E942E1584C981380C
:103A3000ECE59E0709F4C2C982389C4559F7F701A5
:103A40008281882309F477C980911504982F9F708B
:103A5000993008F070C99F5FBEC98D392CE5920777
:103A6000A0F582393CE5930708F0DDC980396CE5A3
:103A7000960709F4C3C981399C4561F6F701828133
:103A8000882309F458C980911504982F9595959528
:103A90009595959596300CF04EC921E0290F229509
:103AA000207F2595259525952595322F3295307FB8
:103AB0008F70832B8093150419160CF03CC99295D6
:103AC000907F8F7027FD89C936C9CD398CE5D8071D
:103AD00009F4BBC9CE399CE5D90709F09BCFF701A2
:103AE0008281882309F427C980911604982F9F7733
:103AF0009F3709F420C9982F9F77933708F0C0C9E2
:103B0000935FB8C9853BECE59E0709F417CAC8F571
:103B1000813B2CE5920709F4E9C9E0F48F3A6CE5A2
:103B2000960709F4C4C9803B9C4509F073CFF7019F
:103B30008281882309F4FFC820911604322F331F95
:103B40003327331F90911704892F8770880F832B99
:103B50008F5FBFC98091160490911704F7012281ED
:103B6000C33BFCE5DF0709F4DFC908F4D3C940E033
:103B700021114FE7881F8827881F9770990F62E4EB
:103B8000C5C9883B6CE5960709F4EAC990F4C63BC1
:103B90008CE5D80709F4D2C9C73B9CE5D90709F0E1
:103BA00039CFF70182818111D9C98FEF8093140435
:103BB000C2C88A3BECE59E0709F40BCA08F4F2C9B7
:103BC0008B3B9C4509F026CF80911604982F991FB6
:103BD0009927991F809117048770880F892BF70107
:103BE0009281992309F406CA6FEF7FE10E94AF0327
:103BF000A2C8C631DC4509F03EC08091FC028111AB
:103C0000D3CB89E2E6EFF2E02CEF32E09191891319
:103C100003C0DF0111971C922E173F07B9F7BBCAEB
:103C20008272CB3C6CE5D60709F407CC08F074C06F
:103C3000C63C9CE5D90709F4ECCB08F057C0C43C5E
:103C4000FCE5DF0709F4D9CB08F0DECBC33C3CE54B
:103C5000D30709F4ABCBCB35EDE5DE0709F433CC64
:103C600008F000CCC1152CE5D20709F40DCCCF3DEE
:103C7000DC4509F425CCF70186819781009709F48A
:103C800026CC0E94D309D82FC92FF7011281B58005
:103C9000B2949FE0B922809160038770C1F0D12E69
:103CA0001123B1F08C2F807F803421F080E28D0FC2
:103CB000883068F08091010482FD09C082E00E9492
:103CC000DF15809160038770DD24D3948111D12C9E
:103CD000CC2EC2948FE0C822FBE0FC1508F47ECC09
:103CE000EC2DF0E0E359FE4C0C94252DC83C6CE51E
:103CF000D60709F498CB08F491CBC93C9CE5D907C9
:103D000009F496CB46E75FE062E87FE0CA3CECE569
:103D1000DE0709F476CB9FCFC03DFCE5DF0709F451
:103D20009ECBB8F4CD3C3CE5D30709F490CB08F426
:103D300089CBCE3C7CE5D70709F48ECBCF3C8CE514
:103D4000D80709F088CF65E082E00E9428100C9423
:103D50009B16C73D9CE5D90738F46EE089E0C23D6B
:103D6000DC4598F30C949B16CE35FDE5DF0711F486
:103D70000C949B1670CFCF93DF9380911B03807FB1
:103D8000A1F480911803882381F080915F03D09182
:103D90001E036091160370911703A0911903B0914F
:103DA0001A03C62FC723D81303C0DF91CF910895FC
:103DB00090E0109711F0CF3F19F401968770F3CF80
:103DC0009C0143E0220F331F4A95E1F7F901E15EC0
:103DD000FC4F41814713F1CF40814613EECF428122
:103DE0004111EBCF438154814A1B5B0B483C510589
:103DF00020F780911B038F70806180931B03F90172
:103E0000EC5DFC4F80818F708061808386E193E060
:103E10000E943916DF91CF910C948A0BAF92BF921A
:103E2000CF92DF92EF92FF920F931F93CF93DF9386
:103E3000CDB7DEB765970FB6F894DEBF0FBECDBF26
:103E40008C0185E0F801DE01519601900D928A9572
:103E5000E1F7F801E28066E1A62E63E0B62E6091FC
:103E6000190370911A036115710509F468C19091E5
:103E7000160340911703892F84238F3F09F45FC1F4
:103E800020813181C380D480F0901803F601E61BB5
:103E9000F70BFF2009F41DC180911B03582F507FA1
:103EA000E83CF10508F0D0C0511181C0FE2C43134D
:103EB0002BC0921329C060911C0370911D03F8015F
:103EC0004681578164177507F9F4E1101DC08F70A2
:103ED000806180931B03C5010E94391680911B03EA
:103EE000F80185838F2D65960FB6F894DEBF0FBE5F
:103EF000CDBFDF91CF911F910F91FF90EF90DF9099
:103F0000CF90BF90AF900895CD2829F0822F8323C2
:103F10008F3F09F02FC180E0F82FF170DF2E80FF76
:103F20003CC080915F0340911E03841315C0298B10
:103F30003A8B89899A890E94EB0B292F22952F7041
:103F40002230F8F0243020F59F70F9F0F8019581C7
:103F5000907FD9F4D12C1FC090E0FC0153E0EE0F0C
:103F6000FF1F5A95E1F7E15EFC4F5181351306C002
:103F70005081251303C05281E5120FC0019687704E
:103F8000D4CF9F7011F0882329F3805E883010F31E
:103F9000C8010E943916FD2CA5CFEE2009F4A2CF4E
:103FA00080911B03816080931B03F12C9BCF4313F3
:103FB0001BC0921319C040911C0350911D03F801BE
:103FC000268137814217530779F4E1100DC08583AC
:103FD000C8010E94391688E0F801A6E1B3E001901B
:103FE0000D928A95E1F77ECFC8010E945A0C882372
:103FF00039F1EE2029F180911B038032A0F020914D
:104000001603309117033A8729871B86DD86CC86F5
:104010008E8780911C0390911D03988B8F87CE0112
:1040200009960E94391688E0F801A6E1B3E00190F4
:104030000D928A95E1F70E94BB1EFF24F39452CFA4
:10404000C8010E943916F9CF51110AC086E193E0E8
:104050000E94391688E0F50111928A95E9F7A5CFFB
:10406000431318C0921316C040911C0350911D03B6
:10407000F801268137814217530761F4E1100AC025
:104080008583C8010E94391688E0F50111928A954E
:10409000E9F728CFC8010E945A0C882389F2EE2044
:1040A00079F280911B03803208F4BDCF2091160372
:1040B000309117033A8329831B82DD82CC828E8361
:1040C00080911C0390911D0398878F83CE010196E8
:1040D000A8CFE83CF105C0F6FE2CEE2009F4B0CFE5
:1040E00043131FC092131DC020911C0330911D0368
:1040F000F801868197812817390799F490911B035D
:1041000090FD69CF907F09F466CF80911B03858372
:10411000903F09F45DCF982F907F905F8F70892B2F
:1041200056CFC8010E945A0C81117DCF80911B038C
:10413000816080931B03C8010E943916D3CEEE2004
:1041400009F47ECFC8010E945A0CF82E882309F486
:1041500077CF88E0F801A6E1B3E001900D928A954F
:10416000E1F780911603909117030E94EB0B0E94D8
:10417000BB1EB8CE81E08E25CFCECF93DF93CDB7D7
:10418000DEB760970FB6F894DEBF0FBECDBF2987AC
:104190003A874B875C876D877E878F87988BCE01A8
:1041A00009960E940E1F811112C088E0FE01399607
:1041B000DE01119601900D928A95E1F78C859D851F
:1041C000892B29F089859A8589238F3FA9F58091CC
:1041D0005F0390911E0389131CC060960FB6F8947C
:1041E000DEBF0FBECDBFDF91CF91089593E0AA0F40
:1041F000BB1F9A95E1F7A15EBC4F98E0FE01319696
:1042000001900D929A95E1F780931E030E948A0B0C
:10421000DECFB8E08B9FC0011124815E9C4F0E94CD
:104220000E1F8823D1F280915F0390E00196877082
:10423000992780935F03CBCFA0911E03B0E0CD01FF
:1042400001968770992720915F032817190671F648
:104250000E94541010921E0310925F0388E0E6E162
:10426000F3E0DF011D928A95E9F7B1CF0F931F9319
:10427000CF93DF9380915104E0915004CCE0811101
:104280001AC0DF91CF911F910F910895D1E0DE0FF9
:10429000D09350040E2F10E0EC9FF0011124EE5A41
:1042A000FB4F83819481892B29F08081918189231F
:1042B0008F3F51F4ED2F80915104E81738F310929D
:1042C000510410925004DDCFC09FD001C19FB00DAA
:1042D0001124AE5ABB4F16968D919C911797892B3E
:1042E00029F418968D919C91019651F42081318189
:1042F0004281538164817581868197810E94BD20AE
:10430000C09FF001C19FF00D1124EE5AFB4F1482A3
:104310001382D0CF1092BD041092BC04109286027A
:104320008091BB048093BA040E9432080C94362119
:104330002F923F924F925F926F927F928F929F92B5
:10434000AF92BF92CF92DF92EF92FF920F931F93A3
:10435000CF93DF93C091BA04E7E0FE2E01E010E0B6
:10436000FCE02F2EAEEFEA2E8091BB048C1316C01A
:104370000E943621DF91CF911F910F91FF90EF9016
:10438000DF90CF90BF90AF909F908F907F906F9075
:104390005F904F903F902F900C943208D0E0FE0138
:1043A000EE0FFF1FEE54FB4F80819181F89EF001CC
:1043B000F99EF00D1124E25BFD4F2481211158C0BC
:1043C00030905104A2E5B4E030E020E0412C5F01E0
:1043D000231508F04BC01A966D907C901B97F50141
:1043E000808091804FEF5FEF512CC52CD12CF601CE
:1043F000EE0FFF1FE80DF91D6591749166167706A3
:1044000009F4A601672B11F05394EFCF4F3F5407E7
:10441000B1F1B80102C0660F771F4A95E2F7462A4C
:10442000A80102C0440F551F5A94E2F741505109A8
:104430004416150601F5229EF001239EF00D11246D
:10444000EE5AFB4FF89ED001F99EB00D1124A25BED
:10445000BD4F12962D913C91139737832683E082AE
:10446000E1829187808771E015967C930E94040811
:104470002196C37079CF14961C921E9213972F5FCA
:104480003F4F1C96A5CF2F923F924F925F926F9213
:104490007F928F929F92AF92BF92CF92DF92EF92D4
:1044A000FF920F931F93CF93DF93CDB7DEB769973A
:1044B0000FB6F894DEBF0FBECDBF498B5A8B6B8B06
:1044C0007C8B8D8B6111109262031D861E861F8668
:1044D000188A85E0FE017196DE01199601900D9211
:1044E0008A95E1F78C859D85892B31F089859A85A0
:1044F00089238F3F09F0D2C129853A854B855C8598
:104500006D857E858F8598890E94BD20C1C029EF69
:10451000C2162CE5D20629F4882379F00E948A215C
:10452000EBCF3AEFC3163CE5D30639F4882329F0E4
:10453000809186028111F2CFC1C10EE412E0E12C1C
:10454000B12CA12C88248394912C9EEF592E4424C5
:104550004394F8016081718166246A94762C20E08E
:10456000422F50E0FA01EE0FFF1FE60FF71F859173
:104570009491C816D90609F43A01892B11F02F5FDE
:10458000EFCFF12CFFEF6F167F0609F443C0F8015F
:104590004481F09086028F2D411180E0F82FF17058
:1045A000FF2EF801258086819B85992309F406C199
:1045B000FF2009F403C1211013C0A40101C0440F5E
:1045C0006A94EAF7842B868380914E0490914F047D
:1045D000C29730F442E350E050934F0440934E04AE
:1045E000C40102C0880F991F2A95E2F70197F801CC
:1045F00026812817190671F48091BC049091BD049E
:10460000009709F45EC00E949707C39708F459C049
:10461000F8014482EF28FFEFAF1ABF0A095F1F4F6E
:1046200028E0A216B10409F094CF8B85882309F401
:1046300020C1EE2009F41DC10E94A6079093BD047D
:104640008093BC0480915104883010F591E0980F5C
:104650009093510498E0FE013996DE011196019085
:104660000D929A95E1F73CE0839FC00111248E5A88
:104670009B4F28E0FE013196DC0101900D922A95B6
:10468000E1F72FEF3FEFFC0131872087D386C28609
:1046900069960FB6F894DEBF0FBECDBFDF91CF9104
:1046A0001F910F91FF90EF90DF90CF90BF90AF9050
:1046B0009F908F907F906F905F904F903F902F9042
:1046C00008958091BA046090BB04982FF0E0E0E078
:1046D000861114C09093BA040E171F0709F49ACFDD
:1046E00090E0FC01EE0FFF1FEE54FB4FB182A08261
:1046F0000196837099278093BB048CCF282E312C90
:10470000F101EE0FFF1FEE54FB4F20813181F7E0E6
:10471000F29FD001F39FB00D1124A25BBD4F2D91EC
:104720003C911197398F288F712C60E070E0E72F52
:10473000F0E0EE0FFF1F288D398DE20FF31F25915A
:10474000349121153105E1F0F8010190F081E02D5F
:10475000FF8BEE8B60E005C02417350709F47F2C32
:104760006F5FE62FF0E0EE0FFF1F4E895F89E40FC9
:10477000F51F459154914115510571F77F5FD7CFD2
:104780007720C9F0F801671708F0FD0144820E1781
:104790001F0721F49093BA04F72C3CCF981305C05F
:1047A000AE17BF0711F49F5F937091012F5F3F4FCA
:1047B000822F83708DCFF0E0E0E0F7CF90E0211002
:1047C0001FC0B40102C0660F771F2A95E2F79B0154
:1047D000215031092817390731F4442309F447C01F
:1047E000C5010E940408C40101C0880F6A94EAF759
:1047F000982F9095F801868189238683F22C0ACF21
:104800009C01062C02C0359527950A94E2F7A90170
:1048100041705527BC016150710986239723892B6C
:1048200011F5452B01F1F80182819381892BC1F0AB
:104830001B821C821D821E8259825A820E94A607F8
:104840008160582F9D838C83F801828193818F83AF
:10485000988729813A814B816D817E810E94BD209C
:10486000F8011582C0CFF22FF1702F2EBCCF2F2C64
:10487000BACF9091BA048091BB04981731F00E948E
:104880009821EE2009F438CE03CF0E9436211092F1
:10489000BD041092BC040E943208F3CF61E0CE0147
:1048A00009960E94390D6C018B85F8EFCF16FCE557
:1048B000DF0609F02CCE882309F43FCE81E08093F7
:1048C00086021ACECF92DF92EF92FF920F931F9340
:1048D000CF93DF936B017C0120E030E0A9010E94BF
:1048E0009C2D87FF04C0F7FAF094F7F8F0948091BC
:1048F000E405882309F458C08091E505811102C0C0
:104900000E94901309EE15E0C7E0D0E0A7019601E0
:10491000F80162AD73AD84AD95AD0E949C2D8111FF
:104920003CC083E0CC0FDD1F8A95E1F7C751DA4F19
:104930001982188280E090E0A0E8BFEB8A839B8315
:10494000AC83BD831F821E82AC01BD01F6E0C13283
:10495000DF0789F4C1E0C0932504809129068150C6
:1049600080932906811120C00E94F408C0934C0254
:104970001092E40519C088E0FE013896DE0101902E
:104980000D928A95E1F7198618864A875B876C87AE
:104990007D871F861E862896D9CF2197085011093A
:1049A000CF3FDC0709F0B2CFDF91CF911F910F917C
:1049B000FF90EF90DF90CF9008956330710509F07C
:1049C00042C0842F807F803809F18039E1F52F774C
:1049D000622F70E090E080E00E94442E20E030E002
:1049E00040E451E40E94A12D9B01AC0160E070E025
:1049F00080E090E40E94612F2DEC3CEC42E851E411
:104A00000E94F42E4FEF5FEF0C94D9132F77622F93
:104A100070E090E080E00E94442E20E030E040E42E
:104A200051E40E94A12D9B01AC0160E070E080E0A8
:104A300090E40E94612F2DEC3CEC42E851E40E948E
:104A4000F42E0C9462244C3F11F40C9450090895F8
:104A50006F927F928F929F92AF92BF92CF92DF928E
:104A6000EF92FF920F931F93CF93DF93CDB7DEB7F3
:104A700028970FB6F894DEBF0FBECDBF8E010F5F33
:104A80001F4F88E0F80111928A95E9F795ECE92E1D
:104A900092E0F92E680129EC622E22E0722E882421
:104AA0008394912CF70181917F018F3F09F446C0D7
:104AB000F894E82FE295EF70F0E021A18F70A40147
:104AC00002C0440F551F8A95E2F7CA01922F982B16
:104AD00091A392A18095892382A3789400C0E9ECE8
:104AE000F2E021E030E0B12CA12C41914F3F09F4DC
:104AF00077C0A42FA295AF70B0E090968C9190E013
:104B00004F7002C0959587954A95E2F780FD68C081
:104B1000C901A82AB92A220F331F52E0E33DF50745
:104B200021F7F701319780818F3F11F00E947909B9
:104B300080EA8A95F1F7F601B182A082F2E0CF0E09
:104B4000D11C6E147F0409F0ADCF48E050E0B801ED
:104B500082E094E00E94472DFF24F394009709F42B
:104B6000F12C892B09F43FC088E0F801A2E0B4E001
:104B700001900D928A95E1F781E080936B030E948A
:104B8000A60790936A0380936903809169039091CB
:104B90006A030E949707059750F180910204909153
:104BA000030490930C0480930B048091040490916F
:104BB000050490930E0480930D0480910604909157
:104BC00007049093100480930F048091080490913F
:104BD0000904909312048093110410926B0307C090
:104BE00090E080E096CF80916B038111CECF8091D1
:104BF00086028823F9F08091BC049091BD0400974F
:104C0000C9F00E94970720914E0430914F04281755
:104C1000390780F49091BA048091BB04981701F190
:104C20000E94982110924F0410924E041092BD04DD
:104C30001092BC048F2D28960FB6F894DEBF0FBEDD
:104C4000CDBFDF91CF911F910F91FF90EF90DF903B
:104C5000CF90BF90AF909F908F907F906F9008956E
:104C60000E9436211092BD041092BC040E943208AA
:104C7000E1CF1F920F920FB60F9211242F933F9303
:104C80004F935F936F937F938F939F93AF93BF9354
:104C9000CF93DF93EF93FF93D091E900DF70809182
:104CA000EC00C82FC17080FDC0E81092E90080912F
:104CB000F000877F8093F00078940E945F1010923C
:104CC000E9008091F00088608093F000CD2BCF70D8
:104CD000C093E900FF91EF91DF91CF91BF91AF9128
:104CE0009F918F917F916F915F914F913F912F9104
:104CF0000F900FBE0F901F9018951F920F920FB636
:104D00000F9211242F933F934F935F936F937F9351
:104D10008F939F93AF93BF93EF93FF938091E100A5
:104D200082FF09C08091E20082FF05C08091E1000E
:104D30008B7F8093E1008091DA0080FF24C0809116
:104D4000D80080FF20C08091DA008E7F8093DA0047
:104D50008091D90080FFA3C080E189BD82E189BD37
:104D600009B400FEFDCF81E08093DD048091CB0487
:104D7000811109C00E94CB040E9496058091E20037
:104D800084608093E2008091E10080FF17C08091F1
:104D9000E20080FF13C08091E2008E7F8093E200EA
:104DA0008091E20080618093E2008091D80080626F
:104DB0008093D80019BC85E08093DD048091E100E8
:104DC00084FF31C08091E20084FF2DC080E189BD65
:104DD00082E189BD89B5982F917080FFFBCF8091CA
:104DE000D8008F7D8093D8008091E1008F7E8093E2
:104DF000E1008091E2008F7E8093E2008091E200EA
:104E000081608093E2008091DE04882309F44DC024
:104E100084E08093DD040E9454100E94F8070E94F1
:104E2000F90E8091DD048091E10083FF27C080911D
:104E3000E20083FF23C08091E100877F8093E1003F
:104E400082E08093DD041092DE048091E1008E7F89
:104E50008093E1008091E2008E7F8093E200809158
:104E6000E20080618093E20042E060E080E00E9426
:104E700064058091F00088608093F000FF91EF91CD
:104E8000BF91AF919F918F917F916F915F914F9162
:104E90003F912F910F900FBE0F901F90189519BC46
:104EA0001092DD041092CB046ECF8091E30087FD59
:104EB00093E09093DD04AFCF78941F921FB61F92BA
:104EC00011248F939F93AF93BF938091C4049091CB
:104ED000C504A091C604B091C7040196A11DB11DDF
:104EE0008093C4049093C504A093C604B093C704F0
:104EF000BF91AF919F918F911F901FBE1F901895EA
:104F00001F921FB61F9211248F939F93AF93BF934D
:104F10008091C4049091C504A091C604B091C704C7
:104F20004196A11DB11D8093C4049093C504A09324
:104F3000C604B093C704BF91AF919F918F911F900A
:104F40001FBE1F9018951F920F920FB60F9211243B
:104F50007F928F929F92AF92BF92CF92DF92EF9209
:104F6000FF920F931F932F933F934F935F936F93F2
:104F70007F938F939F93AF93BF93CF93DF93EF93E1
:104F8000FF9380912A0490912B04A0912C04B0915E
:104F90002D040196A11DB11D80932A0490932B042A
:104FA000A0932C04B0932D0460912A0470912B04DB
:104FB00080912C0490912D040E94422E6B017C0163
:104FC00020E030E040E85CE3609126047091270423
:104FD00080912804909129040E94F42E9B01AC0139
:104FE000C701B6010E949C2D87FDB2C010922A0411
:104FF00010922B0410922C0410922D047090E30553
:105000008091E405811103C0772009F497C00E94C4
:10501000A6076C0171101DC0712C8091E4058823D6
:1050200079F08091E7058111782EC9EED5E010E086
:1050300000E0809129068017110611F00CF007C1DD
:1050400080912504882309F479C010922504782ED4
:1050500075C00091D9051091DA05C8010E94970723
:10506000C091D705D091D8058C179D07A8F2C8012B
:105070000E9497077C01EC1AFD0AD092DA05C092D3
:10508000D9058090DB059090DC05E4012196D09352
:10509000DC05C093DB050E94A607C090DE05D0901A
:1050A000DF05CC15DD0548F08091DD05882309F486
:1050B00042C01092DC051092DB050091E0051091D2
:1050C000E105C091DB05D091DC058091E2055E0130
:1050D00063E0AA0CBB1C6A95E1F7811157C0F4018B
:1050E00053E0EE0FFF1F5A95E1F7E00FF11FD801D3
:1050F000AA0DBB1D2D913D914D915C9160817181F7
:10510000828193810E949C2D811140C081E0809317
:10511000E2054FE050E060E070E0CB010E94D9135F
:105120009092DC058092DB058FE090E09093D805AB
:105130008093D70572CF0E945009712C8091E405AD
:1051400081119DC08091E305811199C00E94F408EE
:10515000FF91EF91DF91CF91BF91AF919F918F918F
:105160007F916F915F914F913F912F911F910F917F
:10517000FF90EF90DF90CF90BF90AF909F908F9077
:105180007F900F900FBE0F901F9018951092E20520
:10519000F801EA0DFB1D64817581868197810E946B
:1051A000132E9B01A0E6BAEE0E942B2D20E03EE1DB
:1051B00040E050E00E94032D81E0C81AD108812C04
:1051C0004EE1942EA12CB12C2E153F05F0F0D0937A
:1051D000DC05C093DB05E216F306A8F5C9018E19BC
:1051E0009F097C0183E0CC0FDD1F8A95E1F7C00F9A
:1051F000D11F688179818A819B81A7010E94D9137F
:10520000F092D805E092D70508CFCC15DD05F8F669
:10521000E21AF30A2196FE0123E0EE0FFF1F2A9502
:10522000E1F7E00FF11F64817581868197810E940B
:10523000132E9B01A0E6BAEE0E942B2DA50194012E
:105240000E94032DC1CFEE24E394F12CCBCFEE804E
:10525000FF80C70101978E3F9F4F68F48881998135
:105260000E9497078E159F0530F06A817B818C81A3
:105270009D810E9462240F5F1F4F2896DACE77200F
:1052800009F466CF0E9482030E94FF0861CFCDB768
:10529000DEB72A970FB6F894DEBF0FBECDBF84E00D
:1052A000809315048FE7809316048091170480780B
:1052B000806480931704ECE6F3E08FEF8193DF01C5
:1052C000A95BBF4F1C9223E0E43BF207B9F71092B1
:1052D00013041092140410921A04109219041092DC
:1052E0000C0510920E0510920D0580EC8093D105EF
:1052F0008FE095E09093D3058093D2051092D0056E
:105300001092CF051092EC041092EB041092EE0470
:105310001092ED041092F0041092EF041092F20437
:105320001092F1041092F4041092F3041092F60417
:105330001092F5041092F8041092F7041092FA04F7
:105340001092F9041092FC041092FB041092FE04D7
:105350001092FD04109200051092FF0410920205B5
:105360001092010510920605109205058BE297E058
:105370009093E8048093E7048FE796E09093080504
:10538000809307058DED94E29093040580930305C7
:105390008BE596E09093EA048093E90484B7877FD5
:1053A00084BF0FB6F894A8958091600088618093BF
:1053B0006000109260000FBE80E890E00FB6F89495
:1053C00080936100909361000FBE85B7806885BFB0
:1053D00085B7806885BF87E799E09093F302809353
:1053E000F2020E94CB040E9496058091E200846044
:1053F0008093E20078948091DD048823A1F01091DD
:10540000E9001F709091EC00892F817090FD80E879
:10541000182B1092E9008091E80083FD0E945F1034
:105420001F701093E90082E084BD93E095BD9AEF70
:1054300097BD80936E0085EF0E94790986EF0E94E8
:10544000790987EF0E94790981E30E94790909ECC3
:1054500012E0D8018D918D018F3F11F00E947909E2
:10546000B2E0033D1B07A9F788E0EBE0F4E0DF01C1
:10547000282F1D922A95E9F7E2E0F4E0DF011D9262
:105480008A95E9F790E080E00E94622D893E9E4F68
:1054900011F00E94251382E090E00E94542D809329
:1054A0001C040E94461090930104809300040E9403
:1054B0002825EFE3FCE93197F1F700C000000E94D6
:1054C000282580910B0480FF08C06FEF7FEF90E0EC
:1054D00080E00E94862D0E94860783E090E00E9473
:1054E000542D682F70E090E080E00E94960C60914F
:1054F000FC037091FD038091FE039091FF030E94D5
:105500003D150E94901380910A04811136C090E0ED
:1055100080E00E94622D893E9E4F21F00E9425135B
:105520000E94361088E090E00E945C2D6093CC04CD
:105530007093CD048093CE049093CF046E7F71F46A
:105540000E94361088E090E00E945C2D6093CC04AD
:105550007093CD048093CE049093CF040E944808AA
:10556000109235048091CC0480FF04C060E08695E1
:105570000E94DA0F81E080930A0488EF91E0909313
:10558000C1048093C0048824839453E0A52EB12CD9
:10559000CC24C394D12C74E0972E0E942825882314
:1055A00059F08FB7F8944091C4045091C5046091AC
:1055B000C6047091C7048FBFABE0B4E0EDE1F4E046
:1055C00010E000E0702F8D919D912191319128176D
:1055D000390709F4F6C02827392760E0EE24E39460
:1055E000F12CA9014E215F21452B09F4E4C0698308
:1055F0007A839C012E213F2191E0232B09F490E036
:105600009B830E94A6078160782F9D838C834981AC
:105610005A816B818D810E944322000F111FF80176
:10562000E35EFB4F80819181E826F926F182E082DA
:10563000809135048823D1F180913404E091CC0429
:10564000E695E81BE0933004823009F0D1C0F0E029
:10565000EC50FD4FE4910E2F10E035EEE32E3EE0CE
:10566000F32E80913104882361F0109231040E945E
:10567000A60790932F0480932E0410923304109267
:1056800032040E94A607E0912E04F0912F048E1B95
:105690009F0B8F3F9F4750F40E0F1F1F10932F0437
:1056A00000932E048EE294E0F7010995E09107053E
:1056B000F0910805309719F087EE94E009959FB7AF
:1056C000F8940091D0058091CF05081708F4B2C076
:1056D000081B9FBFF12CE12C10E0E016F10608F446
:1056E000ADC08091190490911A040E9497072091EF
:1056F00017042695269526952F702817190609F068
:1057000060F50E94A60790931A0480931904809173
:105710001404882311F190911604991F9927991F59
:10572000809117048770880F4091130461E0892BE2
:105730000E94C803809114049091130487FF33C121
:10574000A82FBB27A1950CF4B0959A171B060CF057
:105750002AC110921304109214040E94F807909129
:105760001B04891721F00E94F80780931B04809185
:10577000DD04843009F011CF809188028F7080930E
:10578000E9009091E80090FF08CF9091DD049430FB
:1057900009F003CF8093E9009091F3008091F2002B
:1057A000892B09F4FACE8091E8008E778093E80087
:1057B0000E94EA04F2CE6F5FEE0CFF1C6A3009F023
:1057C00010CF0F5F1F4F0430110509F0FBCE8FEF94
:1057D0008E838F8318860E94A6078160782F9A8710
:1057E00089874E815F8168858A850E94432220CF08
:1057F000863059F4F0E0EF50FD4FE4910E2F10E0A9
:1058000025EDE22E2EE0F22E2CCF893061F4E695C4
:10581000F0E0E251FD4FE4910E2F10E09AE7E92EFF
:105820009EE0F92E1ECF00ED17E086E5E82E86E01B
:10583000F82E17CF2091D105020F4ACF8091CF05C6
:1058400090E06091D10570E00E94EF2C2091D2058C
:105850003091D305280F391FD9017C9060900C0539
:10586000B7EFB715E8F480920C0520E040E0672D13
:1058700081E090E00E94D90360920C052FB7F89464
:105880008091CF0590E001966091D10570E00E9473
:10589000EF2C8093CF052FBF5FEFE51AF50A1DCFE0
:1058A00077FE52C0E4E06E1631F070920905D09296
:1058B0000E05C0920D05872D0E945C06813069F0AF
:1058C0008823D1F08230A9F0833099F010920C0532
:1058D00010920E0510920D05D1CF80930C0520E09B
:1058E00040E0672D81E090E00E94D90310920C0502
:1058F000C5CF80930C05C2CFF0EF7F16E1F027EF04
:105900007212E4CF20910D0530910E05C901B50149
:105910000E94DB2CFC01E951FB4F72A2C9010196E8
:1059200090930E0580930D0520910B0540910A057B
:1059300060910905D9CF90920C0570920905D0921B
:105940000E05C0920D059ACF662009F497CF2091DD
:105950000D0530910E05C901B5010E94DB2CAC018B
:10596000FC01E951FB4F72A2C901019690930E050B
:1059700080930D054130510589F04230510509F001
:105980007DCF20910B0540910A05609109050E9489
:10599000D90380910C05843091F670CF42E020E06D
:1059A00064126CCFF0CF890F87FD03C0809313047E
:1059B000D4CE8FE7FBCFAA1BBB1B51E107C0AA1FA8
:1059C000BB1FA617B70710F0A61BB70B881F991FA0
:1059D0005A95A9F780959095BC01CD01089597FB44
:1059E000072E16F4009407D077FD09D00E94DB2C17
:1059F00007FC05D03EF4909581959F4F08957095D2
:105A000061957F4F0895A1E21A2EAA1BBB1BFD01D1
:105A10000DC0AA1FBB1FEE1FFF1FA217B307E4078D
:105A2000F50720F0A21BB30BE40BF50B661F771FE5
:105A3000881F991F1A9469F76095709580959095C5
:105A40009B01AC01BD01CF010895EE0FFF1F059032
:105A5000F491E02D0994A29FB001B39FC001A39FD0
:105A6000700D811D1124911DB29F700D811D112497
:105A7000911D0895FC014150504030F001900616F0
:105A8000D1F73197CF010895882799270895FB0111
:105A9000DC0104C08D910190801921F441505040E7
:105AA000C8F7881B990B0895F999FECF92BD81BD67
:105AB000F89A992780B50895A6E1B0E044E050E057
:105AC0000C948E2DA8E1B0E042E050E00C948E2DB5
:105AD000262FF999FECF92BD81BDF89A019700B4A7
