:100000000C9488030C94A5030C94A5030C94A503ED
:100010000C94A5030C94A5030C94A5030C94A503C0
:100020000C94A5030C94A5030C943B230C94F72289
:100030000C943E240C94A5030C94A5030C94A503E6
:100040000C94A5030C94A5030C9461240C94A503B3
:100050000C94A5030C941A240C94A5030C94A503EA
:100060000C94A5030C94A5030C94A5030C94A50370
:100070000C94A5030C94A5030C94A5030C94A50360
:100080000C94A5030C94A5030C94A5030C94A50350
:100090000C94A5030C94A5030C94A5030C94A50340
:1000A0000C94A5030C94A5030C94A50305010980E9
:1000B000A101850319012AB700150126B700950192
:1000C00075108100C0050C0901A101850419012AE0
:1000D000A002150126A002950175108100C00660DE
:1000E000FF0961A1010962150026FF00952075082E
:1000F00081020963150026FF00952075089102C052
:1001000005010906A101050719E029E715002501E8
:10011000950875018102950175088101050719008F
:1001200029FF150026FF00950675088100050819AE
:10013000012905950575019102950175039101C08D
:10014000643214783C1E1E140A05FD377A585A0092
:100150000004E6D6B4460200210116000000742F08
:10016000E5A3E0013F008A5D003D888986D3DC0A73
:10017000E842C324925842588FD8E75CA0D2616EFF
:1001800026E888019A676C7887BC8D3709EA0E14D7
:1001900059A53C798586623CB1387CF673B05A1417
:1001A0004E0CAB5E8EDE368D73EBE2C15D08DBE894
:1001B0002907ACDF820E38200AA721426E017B148A
:1001C000D146F362D81F4F84BAB21C1F49F5E90C1F
:1001D000869BE7224B6636F1AF2405DF47B3DF6D20
:1001E00016D99B0CB36D8B186734B13198A06CF0A5
:1001F00094FCB000000096390B7B677096420001BA
:10020000A601C0020000F635B944B1C467FB020084
:1002100000000004595A000101010101010101011E
:1002200002020202020202020203030303030303A7
:100230000304040404040404050505050506060674
:100240000606070707070708080808090909090A31
:100250000A0A0B0B0B0C0C0C0D0D0D0E0E0E0F0FD6
:100260000F10101111111212131314141515161664
:100270001717181819191A1A1B1B1C1D1D1E1E1FD3
:100280002020212222232424252626272829292A22
:100290002B2C2D2D2E2F303132323334353637384A
:1002A000393A3B3C3D3E3F40414243444546474846
:1002B000494A4C4D4E4F50515354555658595A5B1C
:1002C0005D5E5F616264656668696B6C6D6F7072BC
:1002D000737577787A7B7D7E8082838587888A8C28
:1002E0008E8F91939596989A9C9EA0A2A3A5A7A95C
:1002F000ABADAFB1B3B5B7BABCBEC0C2C4C6C9CB53
:10030000CDCFD1D4D6D8DBDDDFE2E4E7E9EBEEF008
:10031000F3F5F8FAFDFF00010203040A0B0C0D0EC1
:1003200014151617181E1F20212205060708090F8D
:1003300010111213191A1B1C1D23242526272223F2
:10034000252628292A2C2D2F3032333536383A3BB2
:100350003D3E4042434547494A4C4E505153555704
:10036000595A5C5E6062646668696B6D6F71737523
:1003700077797B7D7F81838587898A8C8E90929423
:1003800096989A9C9E9FA1A3A5A7A8AAACAEAFB130
:10039000B3B4B6B8B9BBBCBEBFC1C2C3C5C6C7C97A
:1003A000CACBCCCDCED0D1D2D2D3D4D5D6D7D7D834
:1003B000D9D9DADADBDBDBDCDCDCDCDCDDDDDDDD86
:1003C000DCDCDCDCDCDBDBDBDADAD9D9D8D7D7D68E
:1003D000D5D4D3D2D2D1D0CECDCCCBCAC9C7C6C545
:1003E000C3C2C1BFBEBCBBB9B8B6B4B3B1AFAEAC8B
:1003F000AAA8A7A5A3A19F9E9C9A98969492908E36
:100400008C8A89878583817F7D7B79777573716F0E
:100410006D6B6968666462605E5C5A5957555351EA
:10042000504E4C4A4947454342403E3D3B3A3836A0
:10043000353332302F2D2C2A29282625232214004B
:100440001A000800150017001C0018000C0012000C
:10045000130004001600070009000A000B000D003D
:100460000E000F002800E1001D001B00060019000F
:1004700005001100100036003700E000E200000027
:1004800000002C412C4200000000A800AE001E021B
:100490001F022F023002340034022E0224002500F5
:1004A0002600200221022602270223022D022D000F
:1004B000210022002300220224022F003000250206
:1004C000380038021E001F002000005001003100DB
:1004D0003102010001003300330227002E004900E1
:1004E0004A004B000000160A040100001D015200E2
:1004F0002A004C004D004E000000160106010000CD
:10050000500051004F0000000000000000000808EB
:10051000190100000000000000000050010001006F
:100520000100010001000100AA000100A900C35C54
:10053000C65CC55C00003A003B003C003D003E004C
:100540003F00C45CC85CC75C000040004100420042
:10055000430044004500C25CCA5CC95C0000000066
:100560000000000000000000000000500100010039
:100570000100010001000100010001000100090269
:100580005B00030100A0FA0904000001030101005F
:100590000921110100012240000705810308000123
:1005A00009040100020300000009211101000122D9
:1005B0002200070582032000010705030320000134
:1005C00009040200010300000009211101000122B9
:1005D0003200070584032000011201000200000020
:1005E000088F45E2140100010203011C0376006933
:1005F0000061006C003A006600360034006300328F
:100600000062003300630000001A034B00650065C0
:10061000006200200046006F00720020004D006F55
:10062000006D00000034036E0065006E006400651C
:10063000007A006B006F006D006200650074002F8F
:1006400000730061006E0064006900700072006158
:1006500000740061006D00610000000403090400E3
:10066000000000000000000000000000000000008A
:10067000000000000000000000000000000000007A
:100680000000007E0F00D4FFFFFFC70000007800CD
:10069000000000000000002A2B28000000000000DD
:1006A0000000000000000000000029000000002CF5
:1006B0001E3420212224342627252E362D37382794
:1006C0001E1F202122232425263333362E37381FA0
:1006D0000405060708090A0B0C0D0E0F1011121362
:1006E0001415161718191A1B1C1D2F3130232D3500
:1006F0000405060708090A0B0C0D0E0F1011121342
:100700001415161718191A1B1C1D2F3130354C00E3
:1007100011241FBECFEFDAE0DEBFCDBF12E0A0E0B4
:10072000B1E0E4ECFDE502C005900D92A83BB107F5
:10073000D9F724E0A8EBB2E001C01D92AD3EB207AC
:10074000E1F70E9483260C94BC2E0C940000CF92FB
:10075000DF92EF92FF92E091EC04EE2309F1E15079
:1007600088E0E802F0011124E455FB4FC280D380F9
:10077000E480F58020E030E0A901C701B6010E94C5
:10078000F72C18166CF48091AB04811102C0109202
:10079000AA04C701B601FF90EF90DF90CF900895B3
:1007A000C12CD12C7601F5CFE8EDF0E080818E7F71
:1007B00080831092E2001092DA001092E100A0EE25
:1007C000B0E08C9181608C9380818F77808319BC9D
:1007D000A7EDB0E08C918E7F8C9380818F7E80839B
:1007E00010927A0408952091E4003091E50095E696
:1007F000A9012091EC00822F817020FF06C080911A
:10080000E80080FF06C080E008952091E80022FD06
:100810001AC080918C04882389F0853089F08091FA
:10082000EB0085FD0FC02091E4003091E5004217F8
:100830005307F9F29150E1F684E0089582E00895BB
:1008400083E0089581E00895EF92FF920F931F9344
:10085000CF937C018B010E94F303C82F811117C035
:100860008091E80085FD0BC08091E8008E77809331
:10087000E8000E94F303882399F3C82F08C0F7010A
:1008800081917F018093F1000150110949F78C2F6C
:10089000CF911F910F91FF90EF90089580918E045A
:1008A00087FF13C08091E80082FF06C08091E800B6
:1008B0008B778093E80004C080918C048111F2CF83
:1008C000089580918C048823D9F38091E80080FFFB
:1008D000F8CF8091E8008E77ECCF982F9093E900C5
:1008E000242F762F50E0891731F07091EC00209181
:1008F000ED005091F00021FD07C09F5F973071F728
:100900008093E90081E008953091EB003E7F3093C1
:10091000EB003091ED003D7F3093ED003091EB0026
:1009200031603093EB007093EC002093ED00509316
:10093000F0002091EE0027FDE0CF80E00895B0E0C8
:10094000A0E0E5EAF4E00C94402CC8EDD0E088810A
:100950008F7E8883E7EDF0E080818160808384E092
:1009600082BF81E080937A0488818E7F888302EE43
:1009700010E0F80110821092DA0081EEC82ED12C1E
:10098000F601108288818F778883888180688883C8
:1009900088818F7D888319BC10928C0410928D04FD
:1009A00010928B0410928A0490EEE92EF12CF7013C
:1009B00080818B7F808388818160888342E060E0D2
:1009C00080E00E946D04F60180818E7F8083F801B3
:1009D000808181608083808188608083F70180814D
:1009E0008E7F8083888180618883CDB7DEB7E8E021
:1009F0000C945C2CFC0180919404909195048617D2
:100A00009707A0F06115710529F49091E8009E7791
:100A10009093E80090E06115710551F4911108C0C0
:100A20008091E80082FF34C080E00895BC01F2CFDD
:100A300080918C048823C1F18530C1F18091E80058
:100A400083FD30C08091E80082FDEACF8091E8000C
:100A500080FFE1CF8091F3002091F200382F6115E3
:100A6000710519F02830310558F091E02830310532
:100A700009F090E02091E8002E772093E800CBCF9A
:100A800081918093F100615071092F5F3F4FE7CF53
:100A900080918C04882341F0853041F08091E800FA
:100AA00083FFBECF81E0089582E0089583E008953A
:100AB00008950895089580918104089587E797E740
:100AC000909301088093000888E19AE00FB6F894AB
:100AD000A895809360000FBE90936000FFCF9C01AB
:100AE0004FB7F8948091730490917404A0917504A9
:100AF000B09176044FBF821B930B08952FB7F894E3
:100B000060917304709174048091750490917604DF
:100B10002FBF08952FB7F8948091730490917404B7
:100B2000A0917504B09176042FBF08959C01FC013B
:100B300032969FEF80E04191461751F09F3F19F4A4
:100B4000411101C0982F8F5F8630A9F79F3F09F4AC
:100B50000895290F311D97FD3A95F9016283089593
:100B600020917104309172042817390771F0909325
:100B7000720480937104E0916F04F09170043097D7
:100B800021F00084F185E02D0995089520916D04F0
:100B900030916E042817390771F090936E0480939A
:100BA0006D04E0916F04F0917004309721F006809D
:100BB000F781E02D09950895E0916F04F09170049C
:100BC000309729F00190F081E02D0995089580E09B
:100BD0000895CF93DF93EC01409162045091630438
:100BE00060916404709165042FB7F8948091730448
:100BF00090917404A0917504B09176042FBF841B6A
:100C0000950BA60BB70B843F9140A105B10518F5D4
:100C10008091620490916304A0916404B091650492
:100C200080935E0490935F04A0936004B09361048A
:100C300084EF91E0A0E0B0E080935A0490935B04CD
:100C4000A0935C04B0935D04D0936A04C0936904DC
:100C5000DF91CF9108950E947E0560935E047093AA
:100C60005F04809360049093610482E390E0A0E0CD
:100C7000B0E0E2CFFC018481862351F49281992374
:100C8000B9F06923808583FF05C081E061110FC041
:100C900080E00895892F8F7092959F70982B862FF2
:100CA0008F7062956F70682B81E09613F1CF089575
:100CB00081E0FDCFFA01811101C0FB010995089582
:100CC00080917B04982F9E7F61F481708260809375
:100CD0007B0480917E04893718F088E780937E0436
:100CE00008958E31B0F381708C61F1CFAF92BF92D5
:100CF000DF92EF92FF920F931F93CF93DF93082F12
:100D0000162FE901E42FF0E0EA5EFD4F611110C0FB
:100D1000E4915E2F4E2F4983E8835A83DF91CF9170
:100D20001F910F91FF90EF90DF90BF90AF900895CB
:100D3000E62EF12C4491D42EE42FF0E026E0829FA1
:100D4000C00111242FEF30E0B9010E94E42B802F65
:100D500090E0880F991F55E5569FD001579FB00D21
:100D600011248A1B9B0B982F990F890F5901AE18DC
:100D7000BF08AE9ED001AF9EB00DBE9EB00D112437
:100D80005B2F189F80011124012F11275901A01AF0
:100D9000B10AAE9E8001AF9E100DBE9E100D1124B3
:100DA0005901A81AB108AE9CC001AF9C900DBE9C21
:100DB000900D1124892F9927281B390B2E9FC001D4
:100DC0002F9F900D3E9F900D1124E92F62307105E9
:100DD000A1F050F46115710509F49DCF61307105E2
:100DE00081F0EB2F512F97CF6430710569F080F0BF
:100DF0006630710509F48FCFF4CFE42F4B2F592FB4
:100E00008ACFE42F412F87CFEB2F542F492F83CF49
:100E10004B2F5D2DE12F7FCFEFE6F0E080818B7FC0
:100E20008083E0E8F0E080818F7C80830895CF921A
:100E3000DF92EF92FF926B017C0120E030E0A9018C
:100E40000E94F72C81110AC0809180008F7C8093D2
:100E50008000FF90EF90DF90CF9008958091800008
:100E6000806280938000C0924303D0924403E0925A
:100E70004503F092460320E030E040E051E4C70132
:100E8000B6010E944F2E9B01AC0160E074E284E742
:100E90009BE40E94FC2C6B017C010E946E2D7093E0
:100EA00087006093860020E030E048E452E4C70108
:100EB000B6010E944F2E20E030E048EC52E40E9440
:100EC000FC2C0E946E2D70938B0060938A00C1CF22
:100ED00080914D02811122C01092EC040E940C07F7
:100EE0001092A6041092A70410929B0410929A04E8
:100EF000ECEAF4E080E090E0A0E8BFEB1182108221
:100F000082839383A483B58317821682389624E064
:100F1000EC3EF20799F781E080934D02089580E05E
:100F20000895F894E82FE295EF70F0E031A1282FB2
:100F30002F7081E090E001C0880F2A95EAF7982F82
:100F40009095932391A392A1892B82A378940895DD
:100F50009091290392FF06C0282F28712830F9F4B8
:100F6000877F846093FF06C0282F28712831F1F411
:100F7000877E846120912A0320FF06C0382F3871B4
:100F80003830D9F4877F816021FF06C0282F28716F
:100F90002831D1F4877E816194FD877E0895282FC2
:100FA00024712430F9F68B7F8860DCCF282F2471E0
:100FB000243101F78B7E8861DDCF382F31713130DC
:100FC00019F78E7F8860E0CF282F2171213121F71A
:100FD0008E7E8861E1CFCF93DF93EC01823891055B
:100FE000B1F108F040C08133910509F49DC048F586
:100FF0008932910509F48DC08A9709F49CC0C11506
:1010000022E5D20708F0BDC0C11531E5D30708F0CD
:1010100025C1C83ED10508F0A3C0C13ED10588F561
:10102000C83AD10508F08EC0C53AD10508F0F6C01F
:10103000C130D10531F1209721F1C430D10508F537
:1010400045C08533910509F45FC0C997C1F6809109
:101050002903837009F037C180912A0383FF11C0EF
:10106000C9E2D0E00EC0833E910599F170F4803E54
:10107000910501F1823E910511F68091290382FDCF
:1010800021C0CE01DF91CF910895863E910561F197
:10109000873E910571F1843E910509F0B0CF8091B2
:1010A0002A0381FFEECF80912903C7EED0E084FDB3
:1010B0000DC0E7CF8091290380FD33C090912A03B2
:1010C00090FFDFCFC3EED0E084FFDBCFD0E0C0E005
:1010D000D8CF8091290382FDF3C090912A0390FD1F
:1010E000F2C084FFCECFF2CF8091290383FDDDCF04
:1010F000C8CF8091290383FDE9C090912A0391FF15
:10110000F0CFC4EED0E0BDCF8091290385FFB9CFE9
:10111000A7CF8091290385FDDCC080912A0383FF3E
:10112000B0CFC9E3D0E0ADCF8091290386FFA9CF2E
:10113000CAE2D0E0A6CF8091290386FFA2CFC1E307
:10114000D0E09FCFCF3BD10508F6C85AD0E0CC0FF6
:10115000DD1FC35ADD4F0990D881C02DD46491CFD3
:10116000C11540E5D40708F064C0C11580E4D80774
:1011700008F05CC0CE019A9581159F4108F481CF9B
:10118000A5CFC11536E5D30718F5C11545E5D40738
:1011900008F07DC0C11584E5D80708F073C09C2F06
:1011A000969596959E0123703327C115D34508F473
:1011B0005AC0C1E0D0E002C0CC0FDD1F2A95E2F793
:1011C00030E2939FC0011124C82BD92BDA6859CF84
:1011D000C1158AE5D80778F4C11529E5D20708F0CA
:1011E00061C0C11538E5D30708F470CFDC2FCC27D8
:1011F000C06FD06A46CFCE0190568115904208F05C
:1012000065CF8D2F8F710E94A80790E0982F8827B7
:1012100088279F719C012C2BE90142C0C55AD0E060
:10122000C65ADD4FC881D0E0D0642BCFDF70D06AC2
:1012300028CF2C2F26952695237080E2289F900199
:1012400011248C2F8370C1E0D0E002C0CC0FDD1FD1
:101250008A95E2F7C22BD32BDD6813CFDC2FCC2786
:10126000C16FD06A0ECFC1E0D0E002C0CC0FDD1F4D
:101270002A95E2F720E2929FC0011124C82BD92BB6
:10128000DC68FFCEDC2FCC27C46FD06AFACE8C2F5F
:101290000E94A807C82FD0E0DC2FCC27CC27DF7115
:1012A000D062EFCE8C2F8F700E94A80734E0D695C5
:1012B000C7953A95E1F7CF709C2FEC01D069E1CE4C
:1012C000C2EED0E0DECEC0EED0E0DBCEC6EED0E0A7
:1012D000D8CEC5E3D0E0D5CE80911C03882331F071
:1012E00010921C0310921B0310921A03089580950C
:1012F00090911903982390931903089510920F0366
:1013000010920E0310920D030895ECEBF2E0919110
:10131000891303C0DF0111971C9292E0E23CF907A8
:10132000B1F7089580910C039091DB02981301C0EE
:1013300008958F5F8770FACF292F943078F58A301F
:1013400068F590E03AE0239F800D911D1124682FED
:10135000677023E0969587952A95E1F7FC01EE0FDB
:10136000FF1FE80FF91FEA53FD4F50E040E080E017
:10137000219130E0062E02C0369527950A94E2F7B7
:1013800021703327042E01C0220F0A94EAF7822B22
:101390004F5F5F4F4330510559F7089580E008953E
:1013A000292F943098F58A3088F590E03AE0239F11
:1013B000800D911D1124282F277041E001C0440F9A
:1013C0002A95EAF723E0969587952A95E1F7FC019F
:1013D000EE0FFF1FE80FF91FEA53FD4F30E020E04A
:1013E00070E05191DF011197CB01022E02C096955A
:1013F00087950A94E2F78170819585278423852754
:101400008C932F5F3F4F2330310559F70895982F64
:1014100092959F7011F0892F94E0282F269526959C
:1014200011F09E5F822F869509F09F5F892F0895A6
:101430009C013A9521153F4150F5FC01EE27F170D2
:10144000BC0166277270AC01442754709C012227AE
:10145000387094FF0EC080E1EF2B09F480E0672B19
:1014600009F08062452B09F08064232B89F08068A5
:10147000089581E0EF2B09F480E0672B09F082608A
:10148000452B09F08460232B19F08860089580E0D3
:101490000895809377047093790460937804809121
:1014A0008C048430F9F48093E9008FEF9091E80088
:1014B000815095FD06C095ED9A95F1F700008111D8
:1014C000F5CF8091E80085FF0DC050E040E063E07B
:1014D00070E087E794E00E9424048091E8008E7712
:1014E0008093E8000895BC0184E00E94490A0895B1
:1014F000BC0183E00E94490A0895CF93DF93EC0179
:1015000081E08093E9008FEF9091E800815095FD94
:1015100006C095ED9A95F1F700008111F5CF809105
:10152000E80085FF14C050E040E068E070E0CE01C4
:101530000E9424048091E8008E778093E80088E080
:10154000FE01A2E8B4E001900D928A95E1F7DF91E7
:10155000CF910895AF92BF92CF92DF92EF921F93F7
:10156000CF93DF93CDB7DEB7C857D1090FB6F89444
:10157000DEBF0FBECDBF80917B0480FD0AC0E3E5D6
:10158000F3E0118210821282339683E0EB3CF8077D
:10159000C1F776E1A72E73E0B72EDE011196AE01FA
:1015A00047585F4F1A2F7B2FF5018491282F30E089
:1015B000C901880F991F820F931F8D5A9C4FFC0100
:1015C000C080D180E280CD92DD92ED92FFEFAF1A24
:1015D000BF0AA417B50741F7849A31B33F7E21B300
:1015E00020616FB7F894812F972FFC017191CF0183
:1015F000E8E021BB000000C077FF31BB770F00009F
:1016000000C000C000C031BB00C0EA9591F784174C
:10161000950759F76FBF8FE594E00197F1F700C088
:101620000000C858DF4F0FB6F894DEBF0FBECDBF25
:10163000DF91CF911F91EF90DF90CF90BF90AF904F
:101640000895EF92FF921F93CF93DF93EC0183E510
:10165000E82E83E0F82E10E040917E04493708F030
:1016600048E78C81970160917D04810F0E94760686
:101670001A5F83E0E80EF11C103F71F70E94AA0A7E
:101680009A818C8190FF08C08F5F8C83DF91CF910E
:101690001F91FF90EF9008958150F7CF90917B04B8
:1016A00090FF0CC0E3E5F3E08183608342833396CF
:1016B00093E0EB3CF907C1F70E94AA0A0895A3E062
:1016C000B0E0E5E6FBE00C94462C90917B0490FFA3
:1016D0000DC0493708F048E79E012F5F3F4F0E9439
:1016E00076064B8169818A810E944E0B2396E2E047
:1016F0000C94622CCF93DF93EC01EBE7F4E0438191
:1017000062818C810E945F0B8C818F5F8C83DF9163
:10171000CF910895CF93DF93EC01EC81F0E0E25C90
:10172000FC4F4491EBE7F4E0628181810E945F0B02
:101730008C818F5F8C83DF91CF910895CF93DF935E
:10174000C7EBD1E060E0CE010E94BB2C2196C11511
:1017500084E0D807B9F7DF91CF9108951F93CF9315
:10176000DF93122F8430E0F46430D0F44A30C0F4B8
:10177000C42FD0E0CC0FDD1F94E1699FC00DD11DB7
:10178000112490E5899FC00DD11D1124632FCE0136
:1017900087960E94BB2C612FCE0188960E94BB2C9D
:1017A000DF91CF911F910895CF93C82F6FEF8111D3
:1017B0006FE383E290E00E94BB2C6FEFC1116AE7F8
:1017C00084E290E00E94BB2C6FEFC11166EE85E2CF
:1017D00090E00E94BB2CCF910895AAE0B0E0E3EF27
:1017E000FBE00C943B2CA0904F02B090500281E0A3
:1017F00090E09093500280934F028EE3C82E84E0D5
:10180000D82E712C760100E014C0F401259134919A
:10181000412F602F872D0E94AE0B82E0880E911C15
:101820001F5F1A3091F794E1E90EF11C0F5F04304D
:1018300019F0470110E0E9CF7394E0E5CE0ED11C1A
:10184000F4E07F12DFCFCE0101967C01FC01119202
:101850001A95E9F78FEF9FEF9E838D8387E08A8744
:1018600007E611E04AE050E0B801C7010E94DF2C12
:10187000065F1F4F073BF1E01F07A1F7B092500230
:10188000A0924F022A96EDE00C94572C80E00E9423
:10189000D40B60E086E290E00E94BB2C0E94ED0B2E
:1018A0000E949E0B81E00E94D40B08950F931F931A
:1018B000CF93DF93843030F5643020F54A3010F553
:1018C000C42FD0E0CC0FDD1F24E1629FC00DD11DDD
:1018D000112430E5839FC00DD11D1124CE018796C0
:1018E0000E94A72C082F10E0102F0027CE01889609
:1018F0000E94A72C9801282BC901DF91CF911F913D
:101900000F91089590E080E0F8CF462F2091580481
:1019100030915904232B99F4703F39F4603F79F4E6
:1019200080915604909157040895843040F47430A7
:1019300030F46A3020F4672F0E94560C089590E02E
:1019400080E00895CF92DF92FF920F931F93CF9381
:10195000DF936C010091990480911D03082BC7E06F
:10196000D0E010E0FC2EC8010C2E02C095958795A2
:101970000A94E2F780FD0CC02197A0F7F12C8F2D7F
:10198000DF91CF911F910F91FF90DF90CF9008953D
:10199000B6018C2F0E94850C0E94EB07019761F322
:1019A000EECFCF93DF93EC010E94A20CBE010E9408
:1019B000850C0E94EB07DF91CF910895FC01838194
:1019C0009481892B29F08081918189238F3F51F463
:1019D00080E00895843FE1F717C0883EA8F0813F7A
:1019E000B9F712C0808191810E94D10C92959F70AD
:1019F000963099F358F4925F9F70923048F7803F89
:101A000019F040F7883E20F781E008959A5FF4CFFF
:101A100083E290E00E94A72C8F3389F484E290E067
:101A20000E94A72C8A3759F485E290E00E94A72CE7
:101A300091E0863E09F090E0892F8170089580E062
:101A4000FCCFCF9384E090E00E94A72CC82F82E2C5
:101A500090E00E94A72C982F8C2FCF910895AAE098
:101A6000B0E0E5E3FDE00C943C2C0EED13E08CECD3
:101A7000C82E83E0D82E97E6E92EFF24F39427E0C2
:101A8000922E3BECA32E33E0B32E88248394D60110
:101A90000D931D936D014AE050E0B701CE01019610
:101AA0000E94972CF8013896DF01892D1D928A95A6
:101AB000E9F789819A81D80111969C938E938F8141
:101AC00012968C9312978D8113968C931397888519
:101AD00014968C931497898515968C9315978B8102
:101AE0009C8117969C938E93169718961C92189724
:101AF0008A8587FF3CC01E961C921E921D9780FF10
:101B000003C0D80118968C9281FF04C0F80190851B
:101B10009260908782FF07C0D80118969C91189711
:101B2000946018969C9383FF04C0F8019085986098
:101B3000908784FF07C0D80118969C9118979061F0
:101B400018969C9385FF04C0F80180858062808789
:101B5000015F1F4FFAE0EF0EF11C87EBE81681E002
:101B6000F80609F094CF2A96ECE00C94582CF80172
:101B7000B686A586C4CF60917B04669570E041E08F
:101B800050E08EE492E00E94762C892B19F481E0DB
:101B9000809352030E948A0590934C0380934B03D9
:101BA0000895CF92DF92EF92FF926B017C010E9429
:101BB0006006B701A60188E090E00E94CD2CFF905E
:101BC000EF90DF90CF900895A3E0B0E0EAEEFDE063
:101BD0000C94422C082FF62E142FE22E80917B04B9
:101BE00080FF2CC0E82FE695F0E0E756FD4F90818E
:101BF000909351038E7F823029F5493708F048E7EA
:101C00009E012F5F3F4F6F2D802F0E9476064B81E4
:101C100069818A810E944E0B00937C04F0927D04BE
:101C200010937E04EE2051F060917B0470917C044F
:101C300080917D0490917E040E94D10D2396E6E070
:101C40000C945E2C923019F410917E04E5CF9630FE
:101C500019F400917C04E0CF9930F1F6FACFEBE76C
:101C6000F4E0438128E0421B08F440E021E0628177
:101C700081810E94E40D0895EBE7F4E0438128E0C0
:101C8000420F08F44FEF21E0628181810E94E40D50
:101C90000895EBE7F4E0628128E0621B08F460E05D
:101CA00021E0438181810E94E40D0895EBE7F4E097
:101CB000628128E0620F08F46FEF21E043818181A7
:101CC0000E94E40D0895EBE7F4E0818121E0438177
:101CD000628188500E94E40D0895EBE7F4E0818171
:101CE00021E043816281885F0E94E40D0895809124
:101CF0007F04882319F0815080937F0460917B04D6
:101D000070917C0480917D0490917E040E94D10D9D
:101D1000089580917F04833018F48F5F80937F044F
:101D200060917B0470917C0480917D0490917E048D
:101D30000E94D10D089590917B0490FF2CC091706A
:101D400081112AC0926090937B04662351F06091C8
:101D50007B0470917C0480917D0490917E040E94AC
:101D6000D10D60917B04669570E041E050E08EE417
:101D700092E00E94762C892BB1F01092520381E000
:101D800080934E0320E040917E0460917D04809119
:101D90007C040E94E40D08958F3010F09C61D3CF35
:101DA000880F982BD0CF0E94BB0DE9CF80917B0488
:101DB0008695815009F48EE061E00E949B0E0895A3
:101DC00080917B0486958F5F8F3008F081E061E021
:101DD0000E949B0E089590917B0490FF08C09695F9
:101DE000981728F0961718F40E94E00E089561E005
:101DF0000E949B0E0895EBE7F4E083E0808311825C
:101E00008FEF828388E7838314826081718182816E
:101E100093810E94D10D089568EE7EEF90E080E0FE
:101E20000E94D92C60E082E090E00E94BB2C60E030
:101E300083E090E00E94BB2C10921D0360E084E0E0
:101E400090E00E94BB2C64E082E290E00E94BB2CF8
:101E500060E085E090E00E94BB2C60E086E090E0CE
:101E60000E94BB2C6FEF87E090E00E94BB2C40E00B
:101E700050E0BA0188E090E00E94CD2C60E08DE057
:101E800090E00E94BB2C40E050E0BA0188E190E075
:101E90000E94CD2C60E087E190E00E94BB2C40E0E6
:101EA00050E0BA018CE190E00E94CD2C70E060E03F
:101EB00080E290E00E94D92C40E050E0BA0188E135
:101EC00090E00E94CD2C80E00E94D40B0E94460C32
:101ED00040E050E0BA018FE090E00E94CD2C40E05D
:101EE00050E0BA0183E190E00E94CD2C08958091EA
:101EF000190390911803892B8093BA0280911C03D7
:101F0000882319F10E948A0520911A0330911B033E
:101F1000821B930B8838934110F00E946C098091CA
:101F2000BA0290911C03892B8093BA0220E08CEBBB
:101F300092E0FC013191CF0131112F5FF2E0823C40
:101F40009F07B9F721110E946C0980916604809562
:101F50009091BA02892390916704892B8093BA02E9
:101F600048E050E060E173E08AEB92E00E94832C4D
:101F7000892BA9F088E0EAEBF2E0A0E1B3E0019060
:101F80000D928A95E1F7E0916F04F091700430971B
:101F900031F00280F381E02D8AEB92E009950895FB
:101FA00090E080E00E94C60590E080E00E94B005CD
:101FB000109218030E94770F089580931D030E94CA
:101FC000D00F089510921903ECEBF2E086E0DF01E8
:101FD0001D928A95E9F70E94D00F0895AAE2B0E019
:101FE000E4EFFFE00C94452C8EE894E02091F100A2
:101FF000DC012D93CD01B4E086399B07B9F78091C0
:102000008F04833009F472C0B8F4813009F449C0F8
:10201000823009F4B3C08091E80083FF96C28091BA
:102020008E0490918F049A3008F08FC2E92FF0E06F
:10203000E254F14D0C941A2C8A3009F48EC08B3086
:1020400009F471C0893039F780918E04813219F713
:102050008091920490919304009711F00297D9F621
:102060008091E800877F8093E8008091E80082FFFC
:1020700038C09091F3008091F200029731F4809182
:10208000F100813011F0863021F48091F1008093CD
:1020900081048091E8008B778093E8000E944E04D1
:1020A000BACF80918E04813A09F0B5CF8091E800D3
:1020B000877F8093E8008091920490919304892B0C
:1020C00061F468E082E894E070E00E94FA04809194
:1020D000E8008B778093E8009ECF60E090E080E09E
:1020E000F3CF80918C048111C0CF95CF80918E0465
:1020F000813A09F090CF8091920490919304892BBA
:1021000009F089CF8091E800877F8093E800809173
:10211000E80080FFFCCF809151028093F100809114
:10212000E8008E77B9CF80918E04813209F073CFA9
:102130008091920490919304892B09F06CCF809147
:10214000E800877F8093E8000E944E04809190040D
:10215000809351020E94E20F5ECF80918E04813203
:1021600009F059CF8091E800877F8093E8000E94B2
:102170004E0480919104809380044DCF80918E0411
:10218000813A09F048CF8091E800877F8093E8008A
:102190008091E80080FFFCCF80918004BECF803822
:1021A00099F0823809F0D1C1809192048F70873004
:1021B00008F0CBC18093E9008091EB0085FB882774
:1021C00080F91092E90006C080918A0490918B04F6
:1021D000911182609091E800977F9093E80080933E
:1021E000F1001092F1008091E8008E77AAC1882357
:1021F00009F498C1823009F0A8C18091900481113E
:102200009BC1809192048F702FEF280F263008F029
:102210009CC18093E9002091EB0020FF8DC1933099
:1022200031F48091EB0080628093EB0085C1909146
:10223000EB0090619093EB0021E030E001C0220FB1
:102240008A95EAF72093EA001092EA008091EB0069
:102250008860EACF811179C1109190041F77809135
:10226000E3008078812B8093E3008091E800877FF2
:102270008093E8000E944E048091E80080FFFCCF2C
:102280008091E30080688093E30082E0111183E095
:1022900080938C045AC18058823008F056C1209136
:1022A0009004309191042C3DE3E03E07A1F583E0DA
:1022B0008A838AE289834FB7F894DE01139620E07F
:1022C0003EE051E2E32FF0E050935700E49120FF0D
:1022D00003C0E295EF703F5FEF708E2F90E0EA3021
:1022E000C0F0C7968D939D932F5F243159F74FBF50
:1022F0008091E800877F8093E8006AE270E0CE0179
:1023000001960E94FA048091E8008B778093E800A0
:102310001CC1C096E7CF8091920490919304432F03
:1023200055274330510509F44AC078F5413051052D
:1023300009F485C08BE590E0EEE7F5E04230510509
:1023400009F003C12091E800277F2093E800209145
:102350009404309195048217930708F49C0140E09F
:102360002115310509F070C041116EC08091E8005F
:1023700082FDC9CF80918C04882329F2853019F21F
:102380008091E80083FFF2CFBECF4132510509F4BE
:1023900047C04232510509F0D8C08330910508F09A
:1023A000D4C0FC01EE0FFF1FE555FD4F0190F081F9
:1023B000E02D88559D4FDC018C9190E01DC03327A6
:1023C00021303105E9F02115310579F02230310550
:1023D000F9F02330310509F0B8C0EBEEF5E0E491F7
:1023E0008E2F90E0EBEEF5E007C0EBE5F6E0E49130
:1023F0008E2F90E0EBE5F6E0009709F4A6C0A2CF9F
:10240000E5E2F6E0E4918E2F90E0E5E2F6E0F4CF2D
:10241000E9E0F6E0E4918E2F90E0E9E0F6E0ECCF21
:102420008330910508F091C0880F991FFC01EF548B
:10243000FD4F0190F081E02D89E090E083CF82E1B3
:1024400090E0E9EDF5E07ECF80918C04882309F4DB
:102450005ACF853009F457CF8091E80083FD53CFE0
:102460008091E80082FD82CF8091E80080FF78CFE4
:102470009091F3008091F2002115310519F0883018
:10248000910550F041E0089709F040E08091E800A4
:102490008E778093E80064CF44914093F1003196A9
:1024A000215031090196E8CF803809F04EC0809163
:1024B000E800877F8093E80080918D048093F1008D
:1024C00092CE811142C0109190041230F0F58091AB
:1024D000E800877F8093E80010938D040E944E04EB
:1024E000112311F084E005C08091E30087FDFACF4D
:1024F00081E080938C0442E061EC81E00E946D04F5
:1025000042E261EC84E00E946D0442E261EC82E010
:102510000E946D0442E260EC83E00E946D048091B1
:102520008C0413C080919004813079F481E0933061
:1025300009F080E080938B041092E9008091E8001C
:10254000877F8093E8000E944E048091E80083FF1B
:102550000AC08091E800877F8093E8008091EB00BB
:1025600080628093EB00AA96E3E00C94612C8823B0
:1025700041F08095909118038923809318030E945D
:10258000770F0895882339F090911803982B909332
:1025900018030E94770F0895882321F00E9477097D
:1025A0000E94770F0895882339F090911903982B92
:1025B000909319030E94770F0895882339F19CEFB7
:1025C000980F913A28F40E9485090E94770F089588
:1025D00090E2980F983050F4877091E001C0990F05
:1025E0008A95EAF7892F0E947709EFCF9BE5980F2C
:1025F000933028F490E080E00E94C6050895885A40
:10260000873120F490E080E00E94B0050895FF92A9
:102610000F931F93CF93DF93F82E00916B041091CB
:102620006C040115110509F449C010926A04109256
:1026300069041092660410926704D8011696CD9131
:10264000DC919E013A9521153F4108F4D07ED1E0FE
:10265000C11101C0D0E0D8011996ED91FC911A97F3
:10266000309731F01B966D917C9180E00995D823CD
:10267000DD2339F08CEF8C0F813A30F58C2F0E94DE
:102680008509FF2099F0E0916B04F0916C0480853E
:1026900084FD0CC080916804882341F08081918181
:1026A0009C0121503109203B3D45A0F00E94770F4D
:1026B00010926C0410926B0410926804C801CDB79C
:1026C000DEB7E5E00C945F2C0E94770F8C2F0E9400
:1026D000DD12D7CF0E94E905E9CFCF93C82F882319
:1026E000A9F08CEF8C0F813A98F4ECEBF2E082ECDD
:1026F00092E02191C217B9F18E179F07D1F76C2F85
:102700008AEB92E00E9496050E94770FCF91089580
:1027100080E28C0F883068F4C77021E030E001C09F
:10272000220FCA95EAF780911903822B809319032F
:10273000EBCFEBE5EC0FE33040F4F0E0E65AFD4F71
:10274000808190E00E94C605E1CFC85AC731F0F6FB
:10275000EC2FF0E0EE0FFF1FE35AFD4F80819181D7
:102760000E94B005D3CF8C2F0E9485090E94770F5D
:10277000C6CF1F93CF93DF93182FD0E0C0E08933EB
:1027800011F4C0E5D0E0812F0E946D13209739F439
:10279000812F0E94DD12DF91CF911F9108958FE963
:1027A0009FE00197F1F700C000002197EFCF0F9352
:1027B0001F93CF93DF93C62FD42F022FFC0182816A
:1027C0008823A9F0609398040E948A059093970447
:1027D00080939604C77081E001C0880FCA95EAF71C
:1027E0000E94D312DF91CF911F910F910895809194
:1027F0009804681332C080919604909197040E94C7
:102800006F058639910548F510E21D0FCD17B9F017
:1028100080E28C0F883040F4C77081E001C0880FDF
:10282000CA95EAF70E94CC12183048F481E09D2F37
:10283000977001C0880F9A95EAF70E94D312802FF3
:102840000E94B913183070F6D77081E001C0880F6C
:10285000DA95EAF70E94CC12C5CFC77081E001C0BB
:10286000880FCA95EAF7F6CFB0E0A0E0EAE3F4E11A
:102870000C943E2CEC018AE0A82E2881222309F436
:102880008FC02130C9F599818A81913021F4229637
:102890000E94B91305C0923029F422960E946D134C
:1028A0002196EBCF933021F422960E94DD12F8CFCF
:1028B000943011F02196F4CF229630E020E0AE0162
:1028C0004F5F5F4F8053990B8A30910550F0215034
:1028D000310930F38FE99FE00197F1F700C0000064
:1028E000F6CFA29EB001A39E700D11249C01260F6D
:1028F000371F8981EA01E3CFE22FF0E0E157F94F7A
:10290000B490822F86958695869590E0FC01E158DB
:10291000F94FE4902770F12C022E02C0F594E79451
:102920000A94E2F731E0E322FF24FC01E159F94F78
:10293000C490D12C022E02C0D594C7940A94E2F719
:1029400031E0C322DD24FC01E15AF94F049110E08B
:1029500002C0159507952A95E2F701701127E11439
:10296000F10419F081EE0E946D13C114D10419F025
:1029700086EE0E946D138B2D0E94B913C114D104F1
:1029800019F086EE0E94DD12E114F10419F081EED7
:102990000E94DD120115110509F482CF8CE278CF77
:1029A000CDB7DEB7EAE00C945A2CCF93DF93EC015D
:1029B0000E94180A9E01205E31092830310510F06E
:1029C000209741F40E94D3128C2F0E946D13DF9147
:1029D000CF9108950E94C212F7CFA8E0B0E0E3EFD4
:1029E000F4E10C943C2C8E010F5F1F4F88E0F8013E
:1029F00011928A95E9F79BE8E92E92E0F92E680199
:102A0000AA24A394B12CF70181917F018F3F09F48F
:102A100046C0F894E82FE295EF70F0E021A18F70A6
:102A2000A50102C0440F551F8A95E2F7CA01922FF3
:102A3000982B91A392A18095892382A3789400C0BA
:102A4000EFE8F2E021E030E0912C812C41914F3F02
:102A500009F467C0A42FA295AF70B0E090968C9156
:102A600090E04F7002C0959587954A95E2F780FDFA
:102A700058C0C901882A992A220F331F52E0E93928
:102A8000F50721F7F701319780818F3F11F00E9400
:102A9000910780EA8A95F1F7F60191828082F2E04F
:102AA000CF0ED11C4FE8E41642E0F40609F0ABCF9C
:102AB00048E050E0B80181E293E00E94832C892B2A
:102AC00099F188E0F801A1E2B3E001900D928A95B6
:102AD000E1F781E0809320030E948A0590931F0311
:102AE00080931E0380911E0390911F030E946F0527
:102AF0000597F0F048E050E061E273E08AE393E08C
:102B00000E94832C892BC9F088E0E1E2F3E0AAE37C
:102B1000B3E001900D928A95E1F781E010922003D5
:102B200008C090E080E0A6CF809120038111DACF29
:102B300080E02896ECE00C94582C80E0EFCF90E0F9
:102B400080E00E94B52C883E9E4F19F40E94080D2B
:102B5000089580E008958091A804811141C00E94E9
:102B60009F15811102C00E940C0F87E090E00E9427
:102B7000A72C8093A904ECEAF4E080E090E0A0E8C0
:102B8000BFEB1182108282839383A483B583178263
:102B90001682389624E0EC3EF20799F78091A8045B
:102BA00081110CC00E940C07269A82E0809380005D
:102BB0008AE18093810081E08093A8040E946807E5
:102BC0008091A90480FF06C065E070E085E092E096
:102BD0000E94A0160E948A0590939D0480939C04F5
:102BE0000895B0E0A0E0E7EFF5E10C943B2C4B0139
:102BF0005C017A018091A90480FF81C08091A804C2
:102C0000811102C00E94AB1520E030E0A901C5018E
:102C1000B4010E94F72C87FF04C0B7FAB094B7F84C
:102C2000B0947090EC04872D8150990B6C01EC01ED
:102C3000CF3FDC0709F04DC081E0870D893008F4F3
:102C40007CC088E08093EC048CEA94E028E0FC01EE
:102C50003896DC0101900D922A95E1F7089624E060
:102C6000843E920799F781E0809342038093A70402
:102C7000C091EC04C150DD0B0E948A05FE0123E0E7
:102C8000EE0FFF1F2A95E1F7E455FB4F91838083F8
:102C900082829382A482B582F782E6820E948A05AC
:102CA00080914D02882359F180916F008460809358
:102CB0006F00809180008062809380008091A704E3
:102CC000882321F00E94A7030E94170710924D024B
:102CD00016C08E0133E0000F111F3A95E1F704553D
:102CE0001B4FA5019401F801628173818481958154
:102CF0000E94F72C81111FC0CC15DD052CF0CDB73B
:102D0000DEB7EDE00C94572C219688E0F801389658
:102D1000D80101900D928A95E1F70E948A05F80189
:102D20009187808782869386A486B586F786E68615
:102D3000085F1F4FE1CF21977BCF8093EC0493CFA7
:102D4000CF92DF92EF92FF92CF93DF93EC017B0162
:102D50008091A90480FD09C00E946807DF91CF918E
:102D6000FF90EF90DF90CF9008958091A80481119B
:102D700002C00E94AB158091A70481110E946807D0
:102D800081E08093A6041092A504D093A404C0937C
:102D9000A304F092A204E092A1041092A004109265
:102DA0009F0410929E046C817D818E819F810E9480
:102DB0006E2D9B01A0E6BAEE0E94272CC12C2EE1BD
:102DC000D22EE12CF12CA70196010E94F82B6881EC
:102DD00079818A819B81A9010E94F1150E948A054F
:102DE00090939D0480939C04E091A304F091A4042B
:102DF00080919E0490919F0433E0880F991F3A952B
:102E0000E1F7E80FF91F64817581868197810E943F
:102E10006E2D9B01A0E6BAEE0E94272CA701960119
:102E20000E94F82B30939B0420939A0497CF62E082
:102E300070E08DE392E00E94A0162FEF81EE94E007
:102E4000215080409040E1F700C000000E946807D8
:102E50006091A9046E7F6093A90487E090E00E94CE
:102E6000BB2C08956091A90461606093A90487E078
:102E700090E00E94BB2C62E070E08DE292E00E9444
:102E8000A0160895CF93DF930E94E20F0E948A0557
:102E9000EC0163E070E080E691E00E94A016CE01B4
:102EA0000E946F058A3F910528F00E946807DF9114
:102EB000CF9108958FE99FE00197F1F700C00000DE
:102EC000EECF0E94421788E19AE00FB6F894A895D9
:102ED000809360000FBE90936000FFCFCF93C82F08
:102EE0000E94070A8230B1F028F4813061F08C2F03
:102EF000CF910895833099F08430C9F764E070E091
:102F000080E091E004C062E070E080E591E00E9422
:102F1000A016EDCF62E070E080E491E0F8CF64E0CD
:102F200070E080E291E0F3CF0E946E1780939904E5
:102F30000E94D00F089580919904982F9670963032
:102F400021F488600E9494170895877FFBCF21E0C9
:102F500030E001C0220F8A95EAF72095809199040C
:102F600082230E949417089590910F0380958923DE
:102F700080930F03282F277091F4282F082E000C20
:102F8000330B9217130659F090912A0392FF07C052
:102F90008595859585950E94A7170E947E090895BD
:102FA000CF93C0912A03C2FB992790F9981791F00B
:102FB00080FBC2F9C0932A036091290384E090E06A
:102FC0000E94BB2C6C2F82E290E00E94BB2C82E01E
:102FD0000E94B417CF91089521E030E001C0220F84
:102FE0008A95EAF780919904822B0E94941708959C
:102FF00090912A0392FF10C098E0899F90011124BC
:10300000622B60930F030E94EC170E948A05909335
:103010000E0380930D0308950E94EC170895A8E015
:10302000B0E0E5E1F8E10C94362C7C01DC0113966C
:103030008D919C911497892B39F08C9111969C91CC
:1030400089238F3F09F002C72896E2E10C94522CA5
:103050000E94A20C182F682F89819A810E94D009A2
:1030600069817A81812F0E94850C8C01F701528041
:10307000552009F4E1C682519F45409708F0C7C624
:103080008FEF93E00E94A72C8111A8C06EEED62E80
:10309000D00E07EB11E0D11036C019821A821B82C4
:1030A0001C8299249A9468012FEFC21AD20AC8018F
:1030B0000E94A72C89831A82882309F48FC081304B
:1030C00009F081C0580132E0A30EB11CC6010E9474
:1030D000A72CC82E8A83882309F480C0C5010E94CA
:1030E000A72CD82E8FEF8C0D8330D8F4580143E0F5
:1030F000A40EB11CDB82DD2021F0CE0101960E94DE
:1031000034148501D0CF0115F4E01F0709F466C01F
:10311000C8010E94A72C811101C0DA940F5F1F4FD4
:10312000BACF8BEF8C0D833040F5C8010396DB825C
:103130005C01DD2031F3580154E0A50EB11C0E9462
:10314000A72C8C838823E9F20B811C8101308FEF3F
:10315000180710F0102F002796E0C91651F0A7E0CD
:10316000CA1619F0C8010E94D122C8010E949922F2
:10317000C8CFC8010E94D122C4CFB4E0CB12C1CFC6
:103180005801E4E0AE0EB11CC80103960E94A72CC2
:10319000DD2021F1882311F18150990B989E900137
:1031A000999E300D11244D2D4150550BCA01820FAF
:1031B000931F019708F4A5CFAFE9BFE01197F1F78E
:1031C00000C00000F6CFCE0101960E9434145601D3
:1031D00098CF81E00E94EC170E949B1780910F030B
:1031E000877009F431CFD70112968C91882309F4A6
:1031F0002BCF80912A0382FF27CF82E00E94B41751
:1032000023CF81E00E94A717E7CF82E0E3CF0E3102
:10321000FCE51F0729F45520E9F10E941717DECFBE
:103220000F312CE5120739F45520A1F18091A90442
:1032300080FDF3CFFEC50A323CE5130759F4552053
:1032400049F11092AB0464E070E088E791E00E94DD
:10325000A016C4CF0B324CE5140789F35520D1F0EA
:103260000F355DE5150791F000368DE5180741F043
:103270000E359DE5190771F480919801882331F08E
:103280001092980180E00E940713A8CF81E08093FC
:103290009801A4CF80919801882309F424C548019E
:1032A000A0EE8A1A910840901C038091C502482A1A
:1032B00080911903482AB8E08B16910408F086C063
:1032C00098012770332781E090E001C0880F2A958C
:1032D000EAF7552009F477C0482AF70180819181E7
:1032E0000E949C0921E030E0190102C0220C331C2D
:1032F0008A95E2F720916B0430916C0438872F8314
:103300006090C2027090C3021E823E81E32FF0E003
:10331000EE0FFF1FE453FC4FC080D180C114D104D5
:1033200009F411C5411005C0D60112968C91811186
:1033300089C0F601838190E082219321892B09F4D1
:1033400081C08085982F977009F487E0F8E08F1688
:10335000910408F055C0552009F44EC0869581703F
:10336000882309F46FC0D601AD90BC900A151B05E7
:1033700019F4552009F466C0EF81F885CE16DF06F2
:1033800009F460C0D6011D96ED91FC91309721F0B3
:103390008081882309F456C0642DC6010E943A0634
:1033A000882309F44FC00A151B0509F06FC50115E4
:1033B000110509F470C5511070C5A614B70409F0C1
:1033C00041C0512C6AC58095482287CF552009F409
:1033D000A3C41093C3020093C2020E947E056093AF
:1033E0006204709363048093640490936504109264
:1033F0006A041092690471CF82FB882780F9B0CFEC
:10340000552001F18170ACCF0E94DD1265C5049793
:10341000813A910558F46A2D8AEB92E00E94960554
:10342000552009F460C40E94770FD8CE0E94770F10
:103430008FE39CE90197F1F700C000008A2D0E94FC
:103440006D13EECF9E819F5F9E835FCFFC01208135
:1034500031810217130709F03FC451103FC4109285
:10346000680480E00E9407133EC4053F4CE5140742
:10347000C9F0A0F027E245EE66EE063F8CE518079E
:1034800009F074C4C7010E94D713A8CE27E245EE05
:1034900065EEF8CF26E241EE60EEF4CF27E245EE8E
:1034A00064EEF0CF26E241EE62EEECCF28E241E09E
:1034B000EFCF053AFDE51F0709F46FC4D0F40136DC
:1034C0003DE5130709F469C406314CE5140709F01A
:1034D00037C5809119038A7A91E009F490E09093BE
:1034E000C40269E2811165E38AEB92E00E949605CD
:1034F0009ACFC8018D5A9D45039730F74EC48091ED
:103500002903806207303CE5130781F1809129038C
:10351000806108304CE5140748F1809129038064EC
:1035200025C00D305CE5150709F4D3C058F40B3005
:103530009CE5190709F4C5C008F4B7C080912903B8
:103540008D7F14C00F30BCE51B0709F4D2C008F40E
:10355000C4C00031FCE51F0709F4CFC080912903E6
:103560008F7B01312CE5120709F041C480932903B8
:103570003EC40F3F3CE5130709F4D3C0E8F50A3F0A
:103580005CE5150709F483C0E0F404319CE51907F4
:1035900009F4DFC008F4BBC00531BCE51B0709F026
:1035A00026C48091290382FB992790F921E0922774
:1035B00090FB82F990FB83F98093290383FFACC0D1
:1035C00079C00C3FECE51E0709F48BC008F463C01A
:1035D0000D3F2CE5120709F488C00E3F3CE51307A8
:1035E00009F005C480912A03836080932A0364E074
:1035F00070E089EB91E062C001364DE5140709F4F3
:10360000B3C090F401308DE5180709F4ABC008F49D
:1036100092C060E00230ADE51A0709F0E8C38EE021
:1036200090E00E94BB2CE3C30D3ABDE51B07E9F017
:1036300060F490912903892F8E7F90FF8160053A75
:10364000FDE51F0709F492CFD2C30E3A2DE512070C
:10365000E1F10F3A3DE5130709F0C9C390912A0340
:10366000892F877F93FF886003C080912A03886039
:1036700080932A03BCC380912903826077CF809115
:103680002903846073CF8091290388606FCF809174
:103690002A038160EDCF80912A038260E9CF0E94E6
:1036A000E20F80912903806861CF809129038C60AB
:1036B0008093290364E070E089ED91E00E94A016F8
:1036C00096C3809129038E7F51CF80912A03877FF3
:1036D000CFCF809129038B7F49CF80912903877FAA
:1036E00045CF80912A038E7FC3CF80912A038D7F9F
:1036F000BFCF809129038F7E39CF809129038F7DA1
:1037000035CF0E94E20F809129038F772FCF8091D0
:103710002903837F8093290362E070E089EA91E0C6
:10372000CDCF80912A038C7F80932A0362E070E0E2
:1037300089E991E0C3CF80912A03982F90959170E9
:103740008E7F892B90FB81F980932A0381FFEECF36
:103750004ECF0E94E20F90912903892F97FB87F9A2
:10376000805804CF61E05BCF90912903892F8F7E31
:1037700094FF8061FBCE85E386C3816080937B04E8
:1037800061E086950E949B0E29CD46ED5EE060EEDD
:103790007EE00E945A0622CD40EE5EE066ED7EE0BD
:1037A000F8CF43E65EE06DE67EE0F3CF4DE65EE007
:1037B00063E67EE0EECF49E45EE066E57EE0E9CFD9
:1037C00046E55EE069E47EE0E4CF4CE35EE06FE274
:1037D0007EE0DFCF47E75EE069E87EE0DACF49E8E8
:1037E0005EE067E77EE0D5CF61E081E0CBCF68E0C7
:1037F00086E00E94EB0EF2CC0E9442170E945E050A
:1038000080912A0382FB882780F991E089270E9412
:10381000D017F701828100811181882309F448C003
:10382000C8010E94A20CD82E682FC8010E94D0099E
:10383000B8018D2D0E94850C0E94EB078C01882E0B
:10384000D7011296CC9012971596BC90B2943FE097
:10385000B32280910F038770C1F0AC2CCC20B1F063
:10386000812F807F803421F080E2800F883068F0E3
:1038700080912A0382FF09C082E00E94B4178091E0
:103880000F038770AA24A3948111A12C912E9294E6
:103890002FE09222BBE0B91508F476C0E92DF0E0E4
:1038A000E853F14D0C941A2C81E0B1CF80E0AFCFFA
:1038B000C8010E949C09D82EBBCFE12FEF70DE2EED
:1038C000107F19F0D29490EFD922CC20B9F0DD20EE
:1038D00069F080E2800F883010F0811009C080917B
:1038E0001903D82AD09219030E94770F802F4AC05B
:1038F00080911803D82AD0921803F6CF802F0E9407
:10390000DD12DD2009F440C0005E083010F08110A7
:1039100004C08D2D0E94770906C0D09480911803B1
:10392000D822D09218030E94770F2EC0F12FFF707B
:10393000DF2E107F103219F0D29480EFD822882029
:1039400089F021E0821609F490C0CC2009F499C0D6
:10395000BB2009F466C0F701858180FFC7CF8F7057
:1039600085835FC080912A0382FD34C0CC2061F141
:10397000DD2039F080911903D82AD09219030E94D2
:10398000770F80E00E946D13A92DA850BB0B1497F0
:1039900010F40E94DC05AA2009F456CB80910F0395
:1039A00080FD52CBF70112828595859585950E9401
:1039B000EC17C7010E940F1880910F03859585951C
:1039C00085950E94A71740CB80E00E94DD12DD2084
:1039D000D9F29FCFCC2049F1B11004C080911C03D3
:1039E0008D2920C031E0B31210C082FFCDCF80916D
:1039F0001C03D82AD81641F20E948A0590931B0313
:103A000080931A03D0921C03BFCF45E0B412E6CFD7
:103A10000E946C099091C5028D2D892B891380938A
:103A2000C5028D2D0E94D312AFCFB11003C00E94EA
:103A30006C0912C051E0B51213C0809119038D2199
:103A400009F4A2CF0E946C099091C5028D2D80953A
:103A5000892389138093C5028D2D0E94CC1294CFA7
:103A600085E0B81609F490CFE2CFCC2029F095E09C
:103A70009B1508F489CFD5CFA4E0AB1508F484CF0B
:103A8000EBCFBB2049F3F9E38F1209C02FEF37EEDC
:103A900043E0215030404040E1F700C00000802F5B
:103AA0000E94DD1271CF812F86958695837061F01B
:103AB000813009F069CFC8019370C11002C090E055
:103AC00080E00E94B00560CFC8019370C11002C0B1
:103AD00090E080E00E94C60557CF812F837089F562
:103AE000C11052CF402F429546954770440F440F66
:103AF000802F8F70042E01C0880F0A94EAF7202FC0
:103B0000207104FF07C02FE030E001C0220F4A956A
:103B1000EAF72095169516951370123069F050F457
:103B200030911D03113029F0822B83230E94DD0F79
:103B30002BCF832B822BFACF282B80911D0382273A
:103B4000F5CF8695CC2011F0812F8170882309F460
:103B50001BCF402F429546954770440F440F802F4E
:103B60008F70042E01C0880F0A94EAF7202F20716D
:103B700004FF07C02FE030E001C0220F4A95EAF7AA
:103B80002095169516951370123069F050F4309107
:103B90009904113029F0822B83230E949417F4CECC
:103BA000832B822BFACF282B809199048227F5CF83
:103BB0001F70CC2029F0812F0E94EC17802F32CF6C
:103BC000802F0E94CC12812F0E94A717DDCE802F5C
:103BD00052EF8516B1F1581570F090EF8916D1F0BB
:103BE000A1EF8A1691F0CC2009F466C0B1107ECE08
:103BF000812F8F712AC0B3EF8B1651F1E4EF8E1233
:103C0000F2CF80912A0382FD2FC0812F8F71CC20AB
:103C1000D9F21BC0CC2081F0F4E0FB1508F4B4CE3F
:103C20001F7181E090E0012E01C0880F0A94EAF72D
:103C3000909199048927B1CF25E02B1508F4A4CEE3
:103C4000EFCF812F8F71C110BFCF0E94EC179CCE98
:103C500080E0CC2009F4A1CF1F7181E0012E01C0CA
:103C6000880F0A94EAF799CFCC20C9F080910F030E
:103C70008770843041F40E947E09812F8F710E94E9
:103C8000A717A12C81CE34E03B15D8F31F71812FEB
:103C90000E94EC1763E0812F0E94F817F2CF44E0F6
:103CA0004B1530F40E947E0964E0812F8F71F4CFB0
:103CB00081E00E94B417E5CFBB2059F0893309F0A9
:103CC000EECE5FEF87EE93E0515080409040E1F7F9
:103CD000E4CE812F8F7178CF552029F0DC01189622
:103CE0008C9185FFBECB033FBCE51B0709F4D2CB0B
:103CF00008F0BBCB083DFCE51F0709F4C7CB093D25
:103D00002CE5120709F4D2CB073D3CE5130771F50A
:103D100026E241EE61EEB6CB8091C2029091C302E1
:103D20000817190781F41092C3021092C202109270
:103D3000620410926304109264041092650410925D
:103D40006A041092690480916B0490916C0400974E
:103D500051F2A8E08A16910408F078CB642D0E94F5
:103D60003A068111C0CF81E00E940713D701129655
:103D70008C91882309F47DC0109298040330BDE52E
:103D80001B0708F096CB0A3FECE51E0730F4C8018C
:103D900082509C45449708F097CB0E94210D909348
:103DA0002A038093290302314CE5140709F4A9CCB6
:103DB00008F0DFCB09308CE5180709F470CC08F067
:103DC000B0CB0530ACE51A0709F45DCC08F097CB11
:103DD0000330ECE51E0709F44ECC08F050CC80917E
:103DE0002903816002302CE5120709F4BFCB6091F2
:103DF000290310912A0384E090E00E94BB2C612FDC
:103E000082E290E00E94BB2C0E94E20FE7C90031E1
:103E1000BFE51B0709F4DDC90131EFE51E0709F411
:103E2000F4C90D31ECE51E0709F0F1C9552009F47C
:103E300031CA0E943217D2C98031FFE59F0709F4C9
:103E4000E0C981319F4569F782E0DCC985E0F7016F
:103E5000DE01119601900D928A95E1F7D701129635
:103E60002C9189819A812111F3C80E949C09182FF5
:103E7000F7C80631BCE51B0709F080C08091C40279
:103E8000811179CC89E20E948509CDCAA114B104BF
:103E900009F093CA512CB12CA12C80E00E94071389
:103EA000D0926C04C0926B0481E080936804D601C8
:103EB00015968C918093660451100EC0AB2861F06A
:103EC000F601808191819C0124503109213A31050C
:103ED00008F09ACA0E948509D6011696AD90BC904A
:103EE000C5019A9581159F4110F4E0EEBE2277241A
:103EF0007394C5010197803B9D4508F0712CD60154
:103F00001996ED91FC911A97309731F01B966D91AF
:103F10007C9181E009957822772079F0F6018681FD
:103F200097810E94180A80936704C501F8E08F16F4
:103F3000910408F06CCA0E94E9050E94770F70CACC
:103F40000A35EDE51E0709F4AFCC68F401152CE540
:103F5000120709F451CC0E3D1C4509F05ACC0E94C1
:103F60000C0F0E9461170C354DE5140709F448CC7D
:103F700008F49CCC073A1D45A1F34BCC8091190362
:103F800082720A3C9CE5190709F41FCC08F047C06F
:103F9000053CBCE51B0709F404CC58F5033CFCE5E3
:103FA0001F0709F4F2CB08F0F7CB023C3CE51307FE
:103FB00009F02FCC80917B0480FFDFCB8E7F809334
:103FC0007B0460917B0470917C0480917D049091CE
:103FD0007E040E94D10D109252035FEF80E792E0C1
:103FE000515080409040E1F700C000000E94AA0AB2
:103FF000F5C8073C4CE5140709F4DDCB08F4D6CB33
:10400000083C9CE5190709F4DBCB4FE25EE06CE36A
:104010007EE0093CACE51A0709F4BBCBFACB0F3CB8
:10402000BCE51B0709F4E3CBA0F40C3CFCE51F073F
:1040300009F4D5CB08F4CECB0D3C3CE5130709F4CD
:10404000D3CB65E082E00E3C4CE5140709F4D1CBFC
:10405000E0CB063D5CE5150740F4013D8CE5180713
:1040600008F0BCC86EE089E0C4CB0D35100709F438
:10407000B5C8CFCB1F93CF93DF938091DA02807FB7
:1040800009F049C08091D702882309F444C0809187
:104090000C03D091DB026091D5027091D602A09101
:1040A000D802B091D902C62FC72316E0D81799F1CC
:1040B00090E0109711F0CF3F19F401968770F6CF7A
:1040C000189F9001199F300D1124F901E452FD4F02
:1040D00041814713F2CF40814613EFCF4281411116
:1040E000ECCF438154814A1B5B0B4639510528F7BD
:1040F0008091DA028F7080618093DA02F901EF51CA
:10410000FD4F80818F708061808385ED92E00E94F9
:104110000F180E949209DF91CF911F910895A1E19C
:10412000B0E0E5E9F0E20C943E2C8C0185E0F8016A
:10413000DE011D9601900D928A95E1F7F801E2806B
:1041400085EDA82E82E0B82E6091D8027091D90238
:104150006115710509F426C19091D5024091D602EE
:10416000892F84238F3F09F41DC120813181C380B1
:10417000D480F090D702F601E61BF70BFF2009F47C
:10418000DCC08091DA02582F507FE639F10508F043
:104190009FC051116BC0FE2C431314C0921312C068
:1041A000E11010C08F7080618093DA02C5010E9417
:1041B0000F188091DA02F80185838F2D6196EAE06D
:1041C0000C945A2CC114D10429F0822F83238F3FE1
:1041D00009F003C180E0F82FF170DF2E80FF3CC0B2
:1041E00080910C034091DB0256E0841315C02D87AB
:1041F0003E878D859E850E94D10C292F22952F7098
:104200002230F0F0243018F59F70F1F0F80195811C
:10421000907FD1F4D12C1EC090E0589FF001599F9F
:10422000F00D1124E452FD4F6181361306C0608108
:10423000261303C06281E6120FC001968770D5CFA6
:104240009F7011F0882331F3805E883018F3C80125
:104250000E940F18FD2CB1CFEE2009F4AECF809153
:10426000DA0281608093DA02F12CA7CF431306C0F3
:10427000921304C0F801EE2009F479C0C8010E942D
:10428000DE0C882309F1EE20F9F08091DA02803209
:1042900070F02091D5023091D60238872F8319868D
:1042A000DB86CA868C87CE0107960E940F1886E0AF
:1042B000F801A5EDB2E001900D928A95E1F70E9418
:1042C0003A20FF24F39479CFC8010E940F18F9CF48
:1042D00051110AC085ED92E00E940F1886E0F501A9
:1042E00011928A95E9F7C0CF43130FC092130DC006
:1042F000E1100BC0F8018583C8010E940F1886E009
:10430000F50111928A95E9F758CFC8010E94DE0C99
:104310008823D1F2EE20C1F28091DA02803238F2A5
:104320002091D5023091D6023A8329831B82DD8207
:10433000CC828E83CE010196B8CFE639F105F8F62E
:10434000FE2CEE2009F243131FC092131DC0809172
:10435000DA0280FD10C0982F907F69F0F801858304
:10436000903F31F0982F907F905F8F70892B8583DD
:10437000C8010E940F1886E0F801A5EDB2E0019097
:104380000D928A95E1F719CFC8010E94DE0C8111C8
:104390008ECF8091DA0281608093DA02C8010E9498
:1043A0000F180BCFEE2009F48FCFC8010E94DE0C4E
:1043B000F82E882309F488CF86E0F801A5EDB2E055
:1043C00001900D928A95E1F78091D5029091D602E5
:1043D0000E94D10C0E943A20F0CE81E08E25FBCEC7
:1043E000A7E1B0E0E6EFF1E20C94452C4B8B5C8B3F
:1043F0006D8B7E8B8F8B6111109218031A8A198A2C
:1044000085E0FE017396DE011D9601900D928A955E
:10441000E1F780912A0382FF1CC00E948A05209147
:104420000D0330910E03821B930B8838934120F0CB
:1044300080910F0382FF79C00E948A0520911A03A0
:1044400030911B03821B930B8838934110F00E941C
:104450006C0986E0FE013D96DE01179601900D92F3
:104460008A95E1F7CE0107960E948F20882359F0A4
:1044700016E080910C039091DB02891343C067968C
:10448000E3E00C94612C86E0FE013796DE01119684
:1044900001900D928A95E1F78A859B85892B41F3DE
:1044A0008F81988589238F3F19F32091DB0230E0BB
:1044B000C90101968770992740910C034817190686
:1044C00071F40E94E20F1092DB0210920C0386E05E
:1044D000E5EDF2E0DF011D928A95E9F7C9CF96E09C
:1044E000929FD001939FB00D1124A452BD4FFE01A5
:1044F000319601900D929A95E1F78093DB020E942C
:104500009209B6CF819FC001112484529D4F0E9411
:104510008F20882309F4B3CF80910C0390E001969B
:104520008770992780930C03A4CF82E00E94B41770
:1045300083CFA5E0B0E0EFE9F2E20C94442C8C01CB
:104540009093570480935604011580E21807C0F435
:10455000802F0E94DD12C8010E94180A9801205E77
:1045600031092830310518F00115110531F40E9488
:10457000CC122596E4E00C94602C0E94B712F9CF7F
:1045800080EF89838A831B820E948A058160782F4D
:104590009D838C8349815A816B818D810E94F0219A
:1045A000E8CFA5E0B0E0E7EDF2E20C94462C909362
:1045B000570480935604811520E2920730F40E943C
:1045C000D5142596E2E00C94622C80EF89838A83CF
:1045D00081E08B830E948A058160782F9D838C8384
:1045E00049815A816B818D810E94F021EACF1F920F
:1045F0000F920FB60F9211242F933F934F935F9317
:104600006F937F938F939F93AF93BF93CF93DF93DA
:10461000EF93FF93D091E900DF708091EC00C82FF9
:10462000C17080FDC0E81092E9008091F000877FA2
:104630008093F00078940E94EE0F1092E900809130
:10464000F00088608093F000CD2BCF70C093E9001C
:10465000FF91EF91DF91CF91BF91AF919F918F919A
:104660007F916F915F914F913F912F910F900FBE6E
:104670000F901F9018951F920F920FB60F92112452
:104680002F933F934F935F936F937F938F939F935A
:10469000AF93BF93EF93FF938091E10082FF09C036
:1046A0008091E20082FF05C08091E1008B7F8093C2
:1046B000E1008091DA0080FF24C08091D80080FF63
:1046C00020C08091DA008E7F8093DA008091D9003B
:1046D00080FFA3C080E189BD82E189BD09B400FEED
:1046E000FDCF81E080938C0480917A04811109C010
:1046F0000E94D4030E949F048091E2008460809312
:10470000E2008091E10080FF17C08091E20080FF0D
:1047100013C08091E2008E7F8093E2008091E200DE
:1047200080618093E2008091D80080628093D800FD
:1047300019BC85E080938C048091E10084FF31C036
:104740008091E20084FF2DC080E189BD82E189BDB6
:1047500089B5982F917080FFFBCF8091D8008F7D15
:104760008093D8008091E1008F7E8093E10080915A
:10477000E2008F7E8093E2008091E200816080936E
:10478000E20080918D04882309F44DC084E0809379
:104790008C040E94E20F0E94DC050E94BB0D8091F8
:1047A0008C048091E10083FF27C08091E20083FFA9
:1047B00023C08091E100877F8093E10082E08093B5
:1047C0008C0410928D048091E1008E7F8093E10033
:1047D0008091E2008E7F8093E2008091E200806110
:1047E0008093E20042E060E080E00E946D048091EE
:1047F000F00088608093F000FF91EF91BF91AF913E
:104800009F918F917F916F915F914F913F912F91E8
:104810000F900FBE0F901F90189519BC10928C042A
:1048200010927A046ECF8091E30087FD93E090931D
:104830008C04AFCF78941F921FB61F9211248F93D0
:104840009F93AF93BF938091730490917404A09150
:104850007504B09176040196A11DB11D8093730477
:1048600090937404A0937504B0937604BF91AF91B4
:104870009F918F911F901FBE1F9018951F921FB67A
:104880001F9211248F939F93AF93BF9380917304D2
:1048900090917404A0917504B09176044196A11D85
:1048A000B11D8093730490937404A0937504B09326
:1048B0007604BF91AF919F918F911F901FBE1F9063
:1048C00018951F920F920FB60F9211242F923F92BC
:1048D0004F925F926F927F928F929F92AF92BF9210
:1048E000CF92DF92EF92FF920F931F932F933F93FC
:1048F0004F935F936F937F938F939F93AF93BF93E8
:10490000CF93DF93EF93FF938091470390914803F8
:10491000A0914903B0914A030196A11DB11D809356
:10492000470390934803A0934903B0934A036091CF
:104930004703709148038091490390914A030E9474
:104940009D2D6B017C0120E030E040E85CE360914C
:1049500043037091440380914503909146030E9464
:104960004F2E9B01AC01C701B6010E94F72C87FDB9
:10497000BAC0109247031092480310924903109254
:104980004A033090A6048091A704811103C033200C
:1049900009F49FC00E948A056C01311025C0312C9A
:1049A0008091A7048823B9F08091AA048111382E40
:1049B0000CEA14E0912C812C412C512C20E8622E21
:1049C0002FEB722E222423948091EC048815190475
:1049D00011F00CF00CC180914203882309F479C0D6
:1049E00010924203382E75C000919C0410919D04D2
:1049F000C8010E946F05C0919A04D0919B048C1746
:104A00009D0768F2C8010E946F057C01EC1AFD0A3F
:104A1000D0929D04C0929C04A0909E04B0909F04EC
:104A2000E5012196D0939F04C0939E040E948A05BD
:104A30008090A1049090A204C815D90548F08091F7
:104A4000A004882309F442C010929F0410929E048F
:104A50000091A3041091A404C0919E04D0919F04DE
:104A60008091A5046E01E3E0CC0CDD1CEA95E1F732
:104A700081115CC0F50173E0EE0FFF1F7A95E1F73D
:104A8000E00FF11FD801AC0DBD1D2D913D914D9151
:104A90005C9160817181828193810E94F72C8111E8
:104AA00045C081E08093A5044FE050E060E070E0F5
:104AB000CB010E94F115B0929F04A0929E048FE05A
:104AC00090E090939B0480939A046ACF0E946807B9
:104AD000312C8091A70481110EC18091A60481110F
:104AE0000AC10E940C07FF91EF91DF91CF91BF9116
:104AF000AF919F918F917F916F915F914F913F9176
:104B00002F911F910F91FF90EF90DF90CF90BF906A
:104B1000AF909F908F907F906F905F904F903F905D
:104B20002F900F900FBE0F901F9018951092A50414
:104B3000F801EC0DFD1D64817581868197810E94CD
:104B40006E2D9B01A0E6BAEE0E94272C20E03EE1EC
:104B500040E050E00E94F82B81E0881A9108412C37
:104B60006EE1562E612C712C2E153F05F0F0D0937E
:104B70009F04C0939E04E216F306A8F5F901EE190E
:104B8000FF097F0133E0CC0FDD1F3A95E1F7C00F3D
:104B9000D11F688179818A819B81A7010E94F115CB
:104BA000F0929B04E0929A04FBCEC815D905F8F662
:104BB000E21AF30A2196FE0153E0EE0FFF1F5A9509
:104BC000E1F7E00FF11F64817581868197810E9472
:104BD0006E2D9B01A0E6BAEE0E94272CA301920144
:104BE0000E94F82BC1CFEE24E394F12CCBCFF80137
:104BF000C681D781CE0101978E3F9F4F08F075C0C7
:104C0000F801808191810E946F058C179D0708F43F
:104C10006CC0F801C280D380E480F58020E030E0F1
:104C2000A901C701B6010E94F72C87FF04C0F7FA5B
:104C3000F094F7F8F0948091A704882309F455C004
:104C40008091A804811102C00E94AB159CEAA92E94
:104C500094E0B92EC7E0D0E0A7019601F50162AD5E
:104C600073AD84AD95AD0E94F72C811136C083E001
:104C7000CC0FDD1F8A95E1F7C455DB4F19821882EE
:104C80004A825B826C827D821F821E8284EE94E067
:104C90008C179D0781F4209242038091EC0481508F
:104CA0008093EC04811121C00E940C0720924D02D8
:104CB0001092A7041AC088E0FE013896DE01019028
:104CC0000D928A95E1F7198618864A865B866C866E
:104CD0007D861F861E862896D9CF219798E0A91A2F
:104CE000B108CF3FDC0709F0B7CFFFEF8F1A9F0A5B
:104CF000085F1F4F69CE332009F4F5CE0E94A70349
:104D00000E941707F0CECDB7DEB7E4970FB6F89440
:104D1000DEBF0FBECDBF85B7806885BF85B7806811
:104D200085BF84B7877F84BF0FB6F894A89580911C
:104D30006000886180936000109260000FBE80E880
:104D400090E00FB6F89480936100909361000FBEDD
:104D50008FE897E09093B9028093B8020E942F0DDC
:104D60000E94D4030E949F048091E200846080939B
:104D7000E200789480918C048823A1F01091E900DE
:104D80001F709091EC00892F817090FD80E8182BA6
:104D90001092E9008091E80083FD0E94EE0F1F70E1
:104DA0001093E90082E084BD93E095BD9AEF97BD32
:104DB00080936E000E94080D811102C00E94460C73
:104DC00085EF0E94910786EF0E94910787EF0E946E
:104DD000910781E30E9491070FE812E0D8018D91BD
:104DE0008D018F3F11F00E949107B2E009391B0736
:104DF000A9F788E0EAE3F3E0DF01282F1D922A9566
:104E0000E9F7E1E2F3E0DF011D928A95E9F70E94FC
:104E10009F15811102C00E940C0F82E090E00E9459
:104E2000A72C80932E030E94210D90932A03809338
:104E300029030E94ED14EFE3FCE93197F1F700C07C
:104E400000000E94ED1480913A0380FF08C06FEFCC
:104E50007FEF90E080E00E94D92C0E945E0583E005
:104E600090E00E94A72C0E94DD0F809199040E947F
:104E70006E170E94AB1580912B03811133C00E94E5
:104E80009F15811104C00E940C0F0E94FB0E88E048
:104E900090E00E94AF2C60937B0470937C0480931D
:104EA0007D0490937E046E7F71F40E94FB0E88E077
:104EB00090E00E94AF2C60937B0470937C048093FD
:104EC0007D0490937E040E946006109252038091AC
:104ED0007B0480FF04C060E086950E949B0E81E009
:104EE00080932B0389EF91E09093700480936F047B
:104EF000AE014F5F5F4F7A018E010F5D1F4F0E9421
:104F0000ED14BFE28B2EB3E09B2E8AE3482E83E0A4
:104F1000582ED201F401219131918D919D9147E359
:104F200053E04E175F0709F441C02817390799F37A
:104F3000312CD201CD90DD902D01F4016190719062
:104F40004F016C147D0459F16C247D24212CAA247A
:104F5000A394B12CC3018A219B21892BB1F028AAEB
:104F600039AA21E0C6018A219B21892B09F420E07E
:104F70002AAB0E948A058160782F9CAB8BAB48A935
:104F800059A96AA98CA90E94F0212394AA0CBB1CE0
:104F9000FAE02F12DFCFF4013297D182C08233942E
:104FA00024E03212C6CF0E947E0522C0281739079E
:104FB00009F0BECF0E948A056C0180912C0390916C
:104FC0002D03C816D906A1F08FEF8BA78CA71DA6BD
:104FD0000E948A058160782F9FA78EA74BA55CA5AC
:104FE0006DA58FA50E94F021D0922D03C0922C03B5
:104FF0008091690490916A04892B09F43EC0409124
:105000005E0450915F0460916004709161042FB759
:10501000F8948091730490917404A0917504B091F8
:1050200076042FBF841B950BA60BB70B40915A0437
:1050300050915B0460915C0470915D048417950746
:10504000A607B707D0F08091690490916A040E9486
:10505000D51410926A041092690410925E041092A2
:105060005F04109260041092610410925A0410922E
:105070005B0410925C0410925D04809152038823BB
:10508000D1F180915103E0917B04E695E81BE09318
:105090004D03823009F074C0F0E0EA5BFE4FE4910A
:1050A000CE2ED12CEAE8AE2EEBE0BE2E80914E0340
:1050B000882361F010924E030E948A0590934C035E
:1050C00080934B031092500310924F030E948A0565
:1050D000E0914B03F0914C038E1B9F0B8F3F9F473A
:1050E00050F4CE0EDF1ED0924C03C0924B038BE4E3
:1050F00093E0F50109950E94DC059091370389172B
:1051000021F0809337030E947E0580918C048430C7
:1051100009F0F5CE83E08093E9008091E80082FFFA
:10512000EECE8091E80090E085FF06C00E94F30378
:10513000882309F449C091E08091E8008B7780933F
:10514000E800992309F4DBCEC0905804D0905904AC
:105150008981C114D10409F456C08E3F09F0DFC023
:105160008A81833020F08550833008F0D8C0EA81EE
:10517000EE3008F0D4C0F0E0EC52F14D0C941A2C53
:10518000863059F4F0E0ED5BFE4FE491CE2ED12C49
:105190007AE7A72E7BE0B72E89CF40EDC42E47E0FB
:1051A000D42E59E5A52E55E0B52E893009F07ECFD5
:1051B000E695F0E0E05CFE4FE491CE2ED12C61E26A
:1051C000A62E6BE0B62E72CF30E2C32ED12CAE01EC
:1051D0004F5F5F4F5A018091E80085FD0AC08091C2
:1051E000E8008B778093E8000E94F303882399F30B
:1051F000A2CF8091F100D5018D935D01B1E0CB1A72
:10520000D10849F798CF893009F45DC128F5843079
:1052100009F4E8C058F4823009F470C008F0D3C033
:10522000813009F467C08FEF898379C0863009F433
:10523000EFC008F4E2C0873009F4EDC0883099F778
:105240008A81813809F434C108F026C1803809F018
:1052500066C080917E0450C0803109F46FC1F0F5C2
:105260008D3009F43BC128F48C30E9F680E18A8363
:1052700056C08E3009F436C18F30A9F680914F02A6
:1052800090915002892B09F44AC0AC80B12CFDE109
:10529000AF16B10408F043C0CA80DB80DC24CD2403
:1052A000DC24AE014F5F5F4F4A01AC0CBD1CC60150
:1052B00089549E4FCA14DB0491F159E4C51652E09B
:1052C000D50628F4D40114966C910E94BB2CBFEF34
:1052D0008B1A9B0AEFEFCE1ADE0AE9CF823109F46E
:1052E00032C108F42EC1833109F459C18E3F09F04F
:1052F0009ACF3DCF1A8289E08B8311C08A81823098
:1053000009F459C28330A1F1813009F08CCF0E9499
:105310007E050E94202C6B837C838D839E838091ED
:105320008C04843009F0EBCDD090E9004D2D4F7006
:10533000D42E9091EC00892F817090FD80E8D82ABE
:1053400082E08093E9008091E80080FF0CC050E08B
:1053500040E060E270E0C7010E9424048091E80010
:105360008E778093E8008D2D8F708093E900C7CDF4
:1053700080914F0290915002892B89F280913A03DB
:1053800090913B039827892798279C838B83809152
:105390003C0390913D039827892798279E838D830E
:1053A00080913E0390913F039827892798279887FB
:1053B0008F838091400390914103982789279827F4
:1053C0009A878987ACCF8A81823009F02CCF6B8194
:1053D0007C818D819E810E94202C86E290E00E943B
:1053E000BB2C9DCF4C816B818A810E94560C9827E3
:1053F000892798279E838D8392CF2D813E813227E6
:10540000232732274C816B818A810E94AE0B87CF84
:105410000E94ED0B84CF8A818138C1F060F480381E
:1054200009F07DCF20E04B8160917D0480917C0468
:105430000E94E40D74CF823859F1833809F06FCFA0
:1054400020E040917E046C818B81F2CF60E08B8103
:105450000E949B0E9B8180917B04911111C08E7FD5
:1054600080937B0410925203EFEFF0E722E0E150CB
:10547000F0402040E1F700C000000E94AA0A4FCF90
:10548000816080937B0460E086950E949B0E47CFED
:105490008B8180937F0443CF823891F0833809F069
:1054A0003ECF80917C048B8380917D048C8337CFA9
:1054B00080917B0480FF02C086951ECF80E01CCFC8
:1054C00080917F0419CF60917B0470917C0480915E
:1054D0007D0490917E040E94D10D21CF82E08A83C9
:1054E00089E40ACFAC80B12C4DE1A416B10408F0D8
:1054F00016CF8A809B80982489249824CE01019617
:105500006C01A80EB91EC40189549E4FAC14BD0491
:1055100009F405CFA9E48A16A2E09A0658F40E947D
:10552000A72CF6018483BFEF8B1A9B0AEFEFCE1AEC
:10553000DE0AE9CFD60114961C92F5CF0E949E0B8D
:10554000EECE84E094CEAC80B12CFDE1AF16B10478
:1055500008F0E5CE8A809B80982489249824AE01A7
:105560004F5F5F4F6A01A40EB51EC4018796AC144D
:10557000BD0409F4D4CE50E4851651E0950660F4DC
:105580000E94A72CD60114968C93FFEF8F1A9F0AC6
:105590002FEFC21AD20AE9CFF6011482F6CFAC80FF
:1055A000B12C4DE1A416B10408F0B9CECA80DB805D
:1055B000DC24CD24DC2450E4C51651E0D50608F0E7
:1055C000AECE80E491E08C199D098A159B0508F404
:1055D000A6CECE0101964C01AC0CBD1CC60187962F
:1055E000AC14BD0409F49BCEA0E4CA16A1E0DA060F
:1055F00020F4F40164810E94BB2CFFEF8F1A9F0AF4
:105600002FEFC21AD20AEACF88E0E2E5F2E0D80131
:1056100001900D928A95E1F780E2D7011D928A955B
:10562000E9F785E0898388E0F801DE0115960190AD
:105630000D928A95E1F773CE8CEC89831A821B82D6
:105640001C826DCE8C81682F70E0762F66278B814F
:10565000860F972F911D092E000CAA0BBB0B25E07E
:10566000880F991FAA1FBB1F2A95D1F7AC01BD0156
:10567000405E5F4F6F4F7F4F481759076A077B07A0
:1056800008F44DCE8C3C9105A105B10508F047CE3C
:105690004D3C51056105710520F04CEC50E060E097
:1056A00070E0481B590BBC01665B7E4FC7010E942E
:1056B0006D2C35CE4EE150E06FEF70E0CE010396D9
:1056C0000E94902C80914F028983CA8228CE81E06B
:1056D00090E0909359048093580482E390E0909373
:1056E0003903809338030E948A0519CE80914F02B6
:1056F0008983CA8280913803FFCD40E250E06FEF8A
:1057000070E0C7010E94902C0ACE8B81853059F041
:10571000863029F1811103CE80E2F70111928A953A
:10572000E9F788E0E9CD6C818AE0D801E82F1D9285
:10573000EA95E9F7683088F4689FB0011124695947
:105740007E4F4AE050E0C8010E94972C80E0898398
:105750008AE0F801DE0112966ACF8FEFF8CF6C81F4
:105760008AE0FE013596D80101900D928A95E1F705
:105770008BA19CA18115FCE59F0741F420914F026C
:1057800030915002232B11F490E080E09CA38BA376
:105790008FEF683060F42AE0629FB00111246959EC
:1057A0007E4F4AE050E0C8010E94DF2C80E08983F0
:1057B0000E942F0DB4CD86E290E00E94A72C1B82A0
:1057C0001C821D828E83ABCDAA1BBB1B51E107C07F
:1057D000AA1FBB1FA617B70710F0A61BB70B881F81
:1057E000991F5A95A9F780959095BC01CD01089510
:1057F000A1E21A2EAA1BBB1BFD010DC0AA1FBB1FD5
:10580000EE1FFF1FA217B307E407F50720F0A21B46
:10581000B30BE40BF50B661F771F881F991F1A94B3
:1058200069F760957095809590959B01AC01BD01DD
:10583000CF010895EE0FFF1F0590F491E02D09941C
:105840006927962769277827872778270895A29FB1
:10585000B001B39FC001A39F700D811D1124911D44
:10586000B29F700D811D1124911D08952F923F92BA
:105870004F925F926F927F928F929F92AF92BF9260
:10588000CF92DF92EF92FF920F931F93CF93DF930C
:10589000CDB7DEB7CA1BDB0B0FB6F894DEBF0FBE69
:1058A000CDBF09942A88398848885F846E847D84B6
:1058B0008C849B84AA84B984C884DF80EE80FD80B8
:1058C0000C811B81AA81B981CE0FD11D0FB6F8942E
:1058D000DEBF0FBECDBFED010895FB01DC0102C0AC
:1058E00005900D9241505040D8F70895FC01415069
:1058F000504030F001900616D1F73197CF0108954E
:10590000882799270895FB01DC0104C08D9101903F
:10591000801921F441505040C8F7881B990B089515
:10592000DC0101C06D9341505040E0F70895DC0167
:10593000CB01FC01F999FECF06C0F2BDE1BDF89A9A
:10594000319600B40D9241505040B8F70895F9993E
:10595000FECF92BD81BDF89A992780B50895A6E142
:10596000B0E044E050E00C94992CA8E1B0E042E0B3
:1059700050E00C94992C262FF999FECF92BD81BD51
:10598000F89A019700B4021639F01FBA20BD0FB67D
:10599000F894FA9AF99A0FBE08950396272F0E9459
:1059A000BC2C0E94BB2C252F0E94BC2C242F0C94B5
:1059B000BC2C0196272F0E94BC2C0C94BB2CDC0124
:1059C000CB0103C02D910E94EA2C41505040D0F7EA
:1059D0000895262FF999FECF1FBA92BD81BD20BD33
:1059E0000FB6F894FA9AF99A0FBE019608950E949C
:1059F000DA2D08F481E008950E94102D0C94152EE4
:105A00000E940E2E58F00E94072E40F029F45F3FAE
:105A100029F00C94FE2D51110C94492E0C94042E57
:105A20000E94262E68F39923B1F3552391F3951B19
:105A3000550BBB27AA2762177307840738F09F5FAF
:105A40005F4F220F331F441FAA1FA9F335D00E2E1C
:105A50003AF0E0E832D091505040E695001CCAF789
:105A60002BD0FE2F29D0660F771F881FBB1F26174C
:105A700037074807AB07B0E809F0BB0B802DBF0123
:105A8000FF2793585F4F3AF09E3F510578F00C94F2
:105A9000FE2D0C94492E5F3FE4F3983ED4F3869597
:105AA00077956795B795F7959F5FC9F7880F911D13
:105AB0009695879597F90895E1E0660F771F881FFF
:105AC000BB1F621773078407BA0720F0621B730BB2
:105AD000840BBA0BEE1F88F7E09508950E942E2ED6
